:10000000C4C600000C94428E0C94738E0C94A48E83
:100010000C94AE0AE5C60000E3C60000E1C600008D
:10002000DFC60000DDC60000DBC60000D9C6000048
:10003000D7C60000D5C60000D3C60000D1C6000058
:10004000CFC60000CDC600000C94D58EC9C60000F6
:100050000C948D910C941392C3C60000C1C600008D
:10006000BFC60000BDC600000C94A08CB9C600003D
:10007000B7C60000B5C60000B3C60000B1C6000098
:10008000AFC60000ADC60000ABC60000084AD73BB3
:100090003BCE016E84BCBFFDC12F3D6C74319ABD57
:1000A00056833DDA3D00C77F11BED9E4BB4C3E917B
:1000B0006BAAAABE000000803F4779726F2063617F
:1000C0006C6962726174696F6E206572726F720022
:1000D0002C00522C002C002C00562C002C002C0044
:1000E0004B2C002C41546D6567613132383450001F
:1000F0002C00492C002C002C00532C002C002C0030
:100100002C00502C005043002C002C002C00566575
:100110006C6F6369747920284C292C2056656C6FAC
:1001200063697479202852292C20537065656420F6
:1001300076616C756520284C292C205370656564A8
:100140002076616C7565202852290043616C6962D4
:10015000726174696F6E206F6620746865206D6FC0
:10016000746F727320697320646F6E6500546865E4
:1001700020646966666572656E6365206973206ECA
:100180006F773A20004E6F7720746865206D6F742A
:100190006F72732077696C6C207370696E20757054
:1001A00020616761696E2E204E6F7720746865202C
:1001B00073706565642076616C7565732073686F14
:1001C000756C6420626520616C6D6F73742065715D
:1001D00075616C2E2053656E6420616E79206368B2
:1001E0006172616374657220746F20657869740D43
:1001F0000A002C00546865206D6F746F7220736361
:10020000616C61727320617265206E6F7720284C7B
:100210002F52293A20002C000D0A54686520737073
:100220006565642076616C75657320617265202850
:100230004C2F52293A2000457374696D6174696EC0
:1002400067206D696E696D756D2073746172746974
:100250006E672076616C75652E205768656E207418
:1002600068652066697273742074776F2076616C9C
:1002700075657320646F206E6F74206368616E67AC
:100280006520616E796D6F72652C207468656E20D3
:1002900073656E6420616E79206368617261637456
:1002A000657220746F20636F6E74696E75650D0AD8
:1002B000005075742074686520726F626F742073CB
:1002C0006F2074686520776865656C732063616E64
:1002D000206D6F766520667265656C7920616E644D
:1002E000207468656E2073656E6420616E7920638A
:1002F000686172616374657220746F2073746172D7
:100300007420746865206D6F746F722063616C690E
:1003100062726174696F6E20726F7574696E6500C8
:1003200043616C6962726174696F6E206F662074DC
:10033000686520616363656C65726F6D6574657275
:1003400020697320646F6E65002C004E6577207AFB
:1003500065726F2076616C75657320286727732935
:100360003A2000416363656C65726F6D65746572F8
:100370002063616C6962726174696F6E206572726C
:100380006F7200506C6561736520707574207468BD
:100390006520726F626F7420706572666563746C3D
:1003A0007920686F72697A6F6E74616C206F6E204D
:1003B000697473207369646520616E642074686574
:1003C0006E2073656E6420616E792063686172616E
:1003D0006374657220746F20737461727420746822
:1003E000652063616C6962726174696F6E20726FFF
:1003F0007574696E65000D0A3D3D3D3D3D3D3D3DD9
:100400003D3D3D3D3D3D3D3D3D3D3D3D3D3D3D3D1C
:100410003D3D3D3D3D3D3D3D3D3D3D3D3D3D3D3D0C
:100420003D3D3D3D3D3D3D3D3D3D3D3D3D3D3D3DFC
:100430003D3D3D3D3D3D3D3D3D3D3D3D3D3D3D3DEC
:100440003D3D3D3D3D3D3D3D3D3D3D3D3D3D3D3DDC
:100450003D3D0D0A0043523B090909095265737479
:100460006F72652064656661756C742045455052F5
:100470004F4D2076616C756573004350503B090900
:100480000909537461727420706172696E67207318
:10049000657175656E6365207769746820505334A3
:1004A00020636F6E74726F6C6C6572004350573BC3
:1004B00009090909537461727420706172696E6769
:1004C0002073657175656E63652077697468205760
:1004D00069696D6F746500434D2C70697463682C95
:1004E000726F6C6C3B090909537465657220726FF9
:1004F000626F74207573696E672070697463682019
:10050000616E6420726F6C6C00434A2C782C793BCE
:1005100009090909537465657220726F626F74204E
:100520007573696E6720782C792D636F6F726469BB
:100530006E617465730043533B0909090953656E85
:10054000642073746F7020636F6D6D616E64005210
:10055000533B0909090953746F702073656E646910
:100560006E67207265706F72742076616C7565734A
:100570000D0A0052423B0909090953746172742043
:1005800073656E64696E67207265706F7274207631
:10059000616C7565730049533B0909090953746F10
:1005A000702073656E64696E6720494D55207661D1
:1005B0006C7565730049423B0909090953746172FE
:1005C000742073656E64696E6720494D55207661AD
:1005D0006C7565730053422C76616C75653B090937
:1005E000095573656420746F2073657420746865A1
:1005F000206261636B20746F2073706F742076616A
:100600006C7565202874727565203D20312C20663C
:10061000616C7365203D2030290D0A0053552C76FE
:10062000616C75653B0909095573656420746F2019
:1006300073657420746865206D6178696D756D20CF
:100640007475726E696E672076616C7565005341D2
:100650002C616E676C653B090909557365642074EC
:100660006F2073657420746865206D6178696D759D
:100670006D20636F6E74726F6C6C696E6720616E53
:10068000676C6500534B2C51616E676C652C516231
:100690006961732C526D6561737572653B095573A1
:1006A000656420746F2073657420746865204B61E5
:1006B0006C6D616E2066696C7465722076616C7514
:1006C00065730053542C746172676574416E676C76
:1006D000653B0909095573656420746F207365745F
:1006E000207468652074617267657420616E676C40
:1006F000650053442C4B643B090909095573656433
:1007000020746F2073657420746865204B642076B4
:10071000616C75650053492C4B693B090909095502
:1007200073656420746F2073657420746865204B52
:10073000692076616C75650053502C4B703B09093C
:1007400009095573656420746F207365742074689B
:1007500065204B702076616C75650047493B09093F
:10076000090947657420696E666F2076616C75654E
:10077000730D0A0047533B09090909476574207343
:10078000657474696E67732076616C756573004774
:100790004B3B09090909476574204B616C6D616E1B
:1007A0002066696C7465722076616C7565730047AC
:1007B000503B090909094765742050494420766176
:1007C0006C756573004D433B0909090953656E64F7
:1007D00020746F2063616C69627261746520746853
:1007E00065206D6F746F72730D0A0041433B0909F8
:1007F000090953656E6420746F2063616C696272CD
:100800006174652074686520616363656C65726FEF
:100810006D6574657200413B0909090953656E6491
:1008200020746F2061626F72742E2053656E642095
:1008300027432720616761696E20746F20636F6EA4
:1008400074696E75650D0A006D0909090953656EB5
:100850006420746F2073686F772074686973206DEB
:10086000656E750D0A000D0A3D3D3D3D3D3D3D3D2A
:100870003D3D3D3D3D3D3D3D3D3D3D3D3D3D3D3DA8
:100880003D3D3D3D3D3D3D3D3D3D3D3D3D3D3D3D98
:100890003D3D204D656E75203D3D3D3D3D3D3D3D21
:1008A0003D3D3D3D3D3D3D3D3D3D3D3D3D3D3D3D78
:1008B0003D3D3D3D3D3D3D3D3D3D3D3D3D3D3D3D68
:1008C0003D3D0D0A00693263526561642074696DB3
:1008D000656F757400693263526561642066616991
:1008E0006C65643A200069326357726974652066EA
:1008F00061696C65643A2000555342206661696CF9
:10090000004572726F722072656164696E67207350
:10091000656E736F72004F534320646964206E6F7D
:1009200074207374617274000001020408090A0CD7
:100930000D0E0F00000000000000000000FF271057
:100940000032FF27100032FF27100032FF2710006F
:100950003200000000000000000000000000000065
:100960000000004572726F72004572726F7200462D
:10097000756C6C0048696768004C6F770044796952
:100980006E670053687574646F776E004E6F7420E5
:100990004368617267696E67004368617267696E78
:1009A0006700506F776572526174696E673A200014
:1009B0004572726F7200426C7565746F6F74682057
:1009C0002D2052756D626C65206973206F6666001C
:1009D000426C7565746F6F7468202D2052756D625E
:1009E0006C65206973206F6E004361626C65202D19
:1009F0002052756D626C65206973206F66660043D6
:100A000061626C65202D2052756D626C6520697382
:100A1000206F6E00202D20576972656C65737353CB
:100A200074617475733A20004572726F7200467576
:100A30006C6C0048696768004C6F77004479696E98
:100A4000670053687574646F776E004E6F7420434F
:100A500068617267696E67004368617267696E6793
:100A600000202D20506F776572526174696E673A6D
:100A700020004572726F7200556E706C7567676505
:100A80006400506C756767656400436F6E6E6563E4
:100A900074696F6E5374617475733A200017181976
:100AA0001A000000001B1C1D1E1F20212200000F29
:100AB0001000000020000000400000008000000046
:100AC0000100000008000000020000000400000017
:100AD0000001000000020000000400000008000007
:100AE0000010000000200000004000000080000016
:100AF00000000100000008000000100000010203D7
:100B00000C0D0E0F0A0B08090706050410110091C1
:100B1000E3720796E4750E9FED7C0998EA7B1C8DC5
:100B2000FF6E1B8AF8691283F1601584F66738A995
:100B3000DB4A3FAEDC4D36A7D54431A0D24324B5C5
:100B4000C75623B2C0512ABBC9582DBCCE5F70E135
:100B5000930277E694057EEF9D0C79E89A0B6CFD85
:100B60008F1E6BFA881962F3811065F4861748D9D5
:100B7000AB3A4FDEAC3D46D7A53441D0A23354C585
:100B8000B72653C2B0215ACBB9285DCCBE2FE07135
:100B90000392E7760495EE7F0D9CE9780A9BFC6D45
:100BA0001F8EFB6A1889F2631180F5641687D84995
:100BB0003BAADF4E3CADD64735A4D14032A3C45545
:100BC00027B6C35220B1CA5B29B8CD5C2EBF9001B5
:100BD00073E2970674E59E0F7DEC99087AEB8C1D05
:100BE0006FFE8B1A68F9821361F0851466F7A839D5
:100BF0004BDAAF3E4CDDA63745D4A13042D3B42505
:100C000057C6B32250C1BA2B59C8BD2C5ECF0001C4
:100C10000000800000004000000000020000000012
:100C200000000400000000000200000001001000AD
:100C3000000008000000000000000000000000406C
:100C4000000000100000000800000020000020004C
:100C50000000020000000080000000040000080006
:100C6000000002000000040000000100000000007D
:100C70000000100000000001000000020000001051
:100C800000000080000000000100000002000004DD
:100C9000000000080000001020408090A0C0D0E0BC
:100CA000F000020304050100010008000200040036
:100CB0002000100040008000000000010002002021
:100CC0000010004000800004000800000021002403
:100CD0000027002A0000002200250028002B000029
:100CE000002000230026002900040402040402025C
:100CF00001010101010103030404040403030303CC
:100D000003030202020202010101020440800810F2
:100D10000102040810200201040810200408102019
:100D20004080010220408040800000000706010250
:100D300000000000000000000000040300000000AC
:100D4000000000000008090000494E46494E495481
:100D5000594E414ECDCCCC3D0AD7233C17B7D138A4
:100D600077CC2B329595E6241FB14F0A0000204125
:100D70000000C84200401C4620BCBE4CCA1B0E5A94
:100D8000AEC59D74F210458BC79111241FBECFEFE5
:100D9000D0E4DEBFCDBF13E0A0E0B1E0E6E1F0E3D8
:100DA00001E00BBF02C007900D92A232B107D9F744
:100DB0001BBE1BE0A2E2B3E001C01D92A134B1074B
:100DC000E1F71DE0CAE8DDE004C02297FE010E94C1
:100DD000C397C438D107C9F70E94AD940C94099801
:100DE0000FC96627772771C0FC0188279927E894E7
:100DF00021912032E9F3293010F02E30C8F32B3244
:100E000039F02D3231F4689403C057D0820F911D10
:100E1000219120532A30C8F31EF4909581959F4F5D
:100E2000089542E253E017C0FB01DC0102C00190CB
:100E30000D9241505040D8F70895FB01DC0141501C
:100E4000504030F08D910190801919F40020B9F7CD
:100E5000881B990B0895009731F4DA018D919C91CC
:100E6000009709F40EC0DC01FB013D912191222382
:100E700019F03217C9F3FACF332331F4DA011D9296
:100E80001C928827992708951197AF93BF93FB0170
:100E90003D912191321771F4332321F4882799274A
:100EA000119702C01E921196FA01A193B0839F91EF
:100EB0008F910895222369F7EACF7AE0979F902DCA
:100EC000879F802D910D11240895A0E0B0E0EBE6FE
:100ED000F7E00C94D897EC015B016115710519F0EE
:100EE000FB0191838083F9908F2D90E00E94C7973A
:100EF000892BC9F7FDE2FF1621F4F990EE24E39463
:100F000005C02BE2F21609F4F990EE248E0101508F
:100F10001040C80169E47DE043E050E033D1892B03
:100F2000F9F48E010E5F1F4FC8016CE47DE045E0CF
:100F300050E028D1892B19F48E01095F1F4FA114AD
:100F4000B10419F0F50111830083E0FC04C070E0E6
:100F500090E080E813C070E090E080E86FEF07C198
:100F6000C80161E57DE043E050E00CD1892B69F4D4
:100F7000A114B10429F470E090E080EC6FE7F7C0B1
:100F80002296F501D183C083F6CF8824992440E0CE
:100F900050E060E070E0EF2DE053EA30A0F5F2E0C1
:100FA000EF2A8E2D90E09C0128703070E2FE06C082
:100FB000232B79F50894811C911C2BC0232B19F04D
:100FC000089481089108DB01CA0112E0880F991F7B
:100FD000AA1FBB1F1A95D1F7480F591F6A1F7B1F05
:100FE000440F551F661F771F4E0F511D611D711D48
:100FF000483929E9520729E9620729E1720748F0CF
:1010000084E0E82A06C0EE3F31F4E3FC39C098E002
:10101000E92AF990C0CFE53311F0E53189F529913E
:101020002D3219F4E0E1EE2A05C02B3219F081E0EF
:1010300090E003C0299182E090E0E22FE053EA3093
:1010400018F0C81BD90B1CC020E030E0FCE02038B1
:101050003F075CF4C901880F991F880F991F280F5B
:10106000391F220F331F2E0F311DE991E053EA3053
:1010700068F3E4FE03C0309521953F4F820E931E26
:10108000CE2CDD24E1FE07C0A114B10421F021978C
:10109000F501D183C083CB01BA010E9420967B0168
:1010A0008C01F3E0CF22DD2423E0C216D10421F429
:1010B00017FB109517F9109557016801C801B70182
:1010C00020E030E040E050E00E948395882309F45E
:1010D0004AC097FE0DC028E6E22E2DE0F22E909435
:1010E000819491089394C0E2D0E000E010E012C037
:1010F00090E8E92E9DE0F92EF6CFF7012591359184
:1011000045915491C601B5010E9402975B016C01A3
:101110008C1A9D0A8C169D0684F7D595C7950F5F8E
:101120001F4F0630110529F08CEF9FEFE80EF91ED6
:10113000F1CFC501D6017C018D018C2D880F8D2D3D
:10114000881F8F3F51F0C601B50120E030E040E03C
:1011500050E00E948395882331F482E290E09093DE
:10116000400B80933F0B7E2D9F2D802F612F272FCB
:10117000392F482F562FB901CA01CDB7DEB7ECE0A1
:101180000C94F497FB01DC014150504088F08D91A4
:1011900081341CF08B350CF4805E659161341CF059
:1011A0006B350CF4605E861B611171F3990B089529
:1011B000881BFCCFDC018FE712968C931297139655
:1011C0008C93139714968C93149715968C9315976C
:1011D00016961C92169717961C92179718961C92A3
:1011E0001897DE961C92DE97DF961C92DF97A05C24
:1011F000BF4F1C92A054B04019961C9219971A9692
:101200001C921A9720E030E0F90183E0EE0FFF1FF7
:101210008A95E1F7E20FF31FEA0FFB1F84A18068B4
:1012200084A380A5806880A72F5F3F4F23303105BE
:1012300059F716968C911697807F886016968C9336
:101240001697DE968C91DE97807F8860DE968C9371
:10125000DE97FD01EF5BFF4F8081807F8083A45B81
:10126000BF4F1C9217971C921E9214961C921E92AE
:101270001E9214961C921E9212961C9208954D96E0
:1012800099CF2F923F924F925F926F927F928F925F
:101290009F92AF92BF92CF92DF92EF92FF920F9305
:1012A0001F93DF93CF9300D000D0CDB7DEB71B01E3
:1012B0002C0139014A01A982BA82CB82DC82CA019F
:1012C000B901A80197010E94839588230CF057C0AB
:1012D000C201B101A40193010E94BC945B016C01A5
:1012E000C801B701A40193010E94BC947B018C0149
:1012F000698D7A8D8B8D9C8D29813A814B815C81A2
:101300000E94BC949B01AC01C801B7010E94879563
:101310009B01AC01C601B5010E9487957B018C0140
:10132000298D3A8D4B8D5C8D0E94F7961816A4F18D
:10133000C801B70129813A814B815C810E94839564
:10134000882324F4E980FA800B811C81B701C8014D
:101350000F900F900F900F90CF91DF911F910F91F1
:10136000FF90EF90DF90CF90BF90AF909F908F90C5
:101370007F906F905F904F903F902F900895C401A1
:10138000B301A20191010E94BC945B016C01C401F4
:10139000B301A8019701A8CFE98CFA8C0B8D1C8DA5
:1013A000D5CF079729F070938B0060938A0008953A
:1013B000709389006093880008950F931F938C01A8
:1013C0006AEF70E0EEDF0730110529F0289A299ABC
:1013D0001F910F910895469A479AFACFCF92DF92C4
:1013E000EF92FF920F931F93CF93DF93EC016B016A
:1013F00079018A01CA01B90120E030E048EC52E4E9
:101400000E94F796181654F40F2EF0E0EF2EF0E03D
:10141000FF2EF8EC0F2FF2E41F2FF02DC801B701BB
:1014200020E030E04AE753E40E94029720E030E0F9
:1014300048EC52E40E9487950E94F4959B01AC0110
:10144000CE01B901AEDF279779F085E0C816D10447
:1014500091F02898299ADF91CF911F910F91FF90D9
:10146000EF90DF90CF90089585E0C816D10431F059
:10147000469A4798F0CF289A2998EDCF4698479AF0
:10148000EACF29B180B1247030E03595279580747A
:1014900090E036E0959587953A95E1F7282B809175
:1014A000CA09880F880F282B2093CA0940912D0361
:1014B00050912E0360912F0370913003E22FF0E0E2
:1014C000EF70F070E45EFD4F8081992787FD909565
:1014D000A92FB92F840F951FA61FB71F80932D0327
:1014E00090932E03A0932F03B0933003089529B156
:1014F00080B1287030E0359527953595279580780F
:1015000090E0880F892F881F990B282B8091C9099B
:10151000880F880F282B2093C909409131035091DF
:1015200032036091330370913403E22FF0E0EF70E7
:10153000F070E45EFD4F8081992787FD9095A92F7B
:10154000B92F481B590B6A0B7B0B40933103509307
:101550003203609333037093340308951F920F9204
:101560000FB60F920BB60F9211242F933F934F9308
:101570005F936F937F938F939F93AF93BF93EF93FB
:10158000FF937FDFB4DFFF91EF91BF91AF919F9108
:101590008F917F916F915F914F913F912F910F901C
:1015A0000BBE0F900FBE0F901F90189520912D032A
:1015B00030912E0340912F0350913003B901CA019D
:1015C00008952091310330913203409133035091BB
:1015D0003403B901CA01089580912D0390912E031F
:1015E000A0912F03B0913003209131033091320349
:1015F0004091330350913403280F391F4A1F5B1F5A
:10160000B901CA01089587E090E0D7DE88E090E054
:10161000D4DE80E090E0A0E0B0E08093600390939F
:101620006103A0936203B093630380936403909378
:101630006503A0936603B0936703CEDF6093E10375
:101640007093E2038093E3039093E4038091A609EF
:101650009091A709A091A809B091A90980933A0394
:1016600090933B03A0933C03B0933D0308952F92C6
:101670003F924F925F926F927F928F929F92AF9222
:10168000BF92CF92DF92EF92FF920F931F93DF935F
:10169000CF93CDB7DEB728970FB6F894DEBF0FBE55
:1016A000CDBF1B012C0139014A01E982FA820B836B
:1016B0001C83AD82BE82CF82D8868091F9018823B7
:1016C00009F067C2CA01B90120E030E040E050E013
:1016D0000E94F796181654F48091DD039091DE0372
:1016E000A091DF03B091E003B7FD19C0C401B301BD
:1016F00020E030E040E050E00E94839588230CF029
:10170000F9C18091DD039091DE03A091DF03B091D8
:10171000E003181619061A061B060CF0EBC16091BF
:10172000DD037091DE038091DF039091E0030E945E
:10173000229620E030E04CE053E40E9487959B0124
:10174000AC01C401B3010E94BD943B014C01C20134
:10175000B101A40193010E94BC947B018C016090B3
:101760003A0370903B0380903C0390903D03C4018A
:10177000B30120E030E040E85FE30E94BC945B01ED
:101780006C01C801B701A60195010E9483958823C9
:1017900094F0C401B30120E030E040E85FE30E9430
:1017A000BD945B016C01C801B701A60195010E94BF
:1017B000F796181614F486017501E0923A03F09238
:1017C0003B0300933C0310933D03C801B7012091F4
:1017D0005C0330915D0340915E0350915F030E9472
:1017E000BC943B014C016093680370936903809340
:1017F0006A0390936B0320919A0930919B09409161
:101800009C0950919D090E9402971B012C01609335
:101810006C0370936D0380936E0390936F03C40108
:10182000B3012D813E814F8158850E9402972091FE
:1018300064033091650340916603509167030E94F1
:10184000BD947B018C016093640370936503809366
:10185000660390936703A0909E09B0909F09C09083
:10186000A009D090A10920E030E040E85FEB0E94A1
:10187000839588230CF407C2C801B70120E030E04B
:1018800040E85FE30E94F796181654F40F2EF0E03C
:10189000EF2EF0E0FF2EF0E80F2FFFE31F2FF02DCB
:1018A000C601B50120E030E048EC52E40E94029706
:1018B000A80197010E9402975B016C01609370037D
:1018C0007093710380937203909373036091A209E4
:1018D0007091A3098091A4099091A50920E030E0BE
:1018E00048EC52E40E9487957B018C01C401B3014E
:1018F0002091600330916103409162035091630332
:101900000E94BC949B01AC01C801B7010E940297E0
:101910002D813E814F8158850E9487957B018C01E6
:1019200060937403709375038093760390937703A9
:1019300060926003709261038092620390926303ED
:10194000C201B101A60195010E94BD94A8019701B1
:101950000E94BD943B014C0160937803709379031E
:1019600080937A0390937B0369817A818B819C8138
:1019700020E030E040E050E00E94839588230CF4A2
:10198000C5C069817A818B819C8120E030E040E094
:1019900050E00E94F796181694F56091DD0370915F
:1019A000DE038091DF039091E0030E9422965B01A9
:1019B0006C0120E030E04CE053E40E9487957B010D
:1019C0008C0120E030E040E050E00E94F7961816CD
:1019D0000CF083C169817A818B819C81A801970178
:1019E0000E94BC9469837A838B839C8320E030E0DF
:1019F00040E050E00E94839588230CF4B9C0C401F4
:101A0000B30129813A814B815C810E94BD94209170
:101A1000C1093091C2094091C3095091C4090E9483
:101A200002977B018C0160937C0370937D0380930C
:101A30007E0390937F03C401B30129813A814B81D6
:101A40005C810E94BC942091C5093091C6094091E7
:101A5000C7095091C8090E94029760938003709350
:101A600081038093820390938303C801B70120E030
:101A700030E040E050E00E94F79688230CF4FBC071
:101A800087E090E065E070E0A8019701A7DCE090B6
:101A90008003F09081030091820310918303C801B9
:101AA000B70120E030E040E050E00E94F796882344
:101AB0000CF467C088E090E065E070E0A801970151
:101AC0008DDC28960FB6F894DEBF0FBECDBFCF9148
:101AD000DF911F910F91FF90EF90DF90CF90BF901B
:101AE000AF909F908F907F906F905F904F903F90BE
:101AF0002F900895C401B30120E030E040E050E0B1
:101B00000E948395882309F022CE09CE6091DD03DF
:101B10007091DE038091DF039091E0030E94229692
:101B20005B016C0120E030E04CE053E40E948795BB
:101B30007B018C0120E030E040E050E00E94F7960D
:101B400018160CF0DEC069817A818B819C81A80116
:101B500097010E94BD9469837A838B839C8320E0E4
:101B600030E040E050E00E94F79618160CF047CFA6
:101B700080E090E0A0E0B0E089839A83AB83BC83EF
:101B80003ECFA8019701505888E090E066E070E0F1
:101B900097CF22DD7B018C018091E1039091E203DC
:101BA000A091E303B091E403A8019701281B390B2E
:101BB0004A0B5B0B8091AA09882309F06FC0DA01F8
:101BC000C9018153984FAF4FBF4F8F599F40A040DD
:101BD000B04008F48DC0E092E103F092E20300937C
:101BE000E3031093E4036091DD037091DE038091C1
:101BF000DF039091E0030E94229620E030E040EF66
:101C000052EC0E9487959B01AC01C201B1010E9478
:101C1000BD947B018C016090A6097090A70980900B
:101C2000A8099090A909C401B30120E030E040E286
:101C300051E40E94BC945B016C01C801B701A6018C
:101C400095010E94839588239CF0C401B30120E094
:101C500030E040E251E40E94BD945B016C01C80198
:101C6000B701A60195010E94F79618160CF077CDE2
:101C70008601750174CDA8019701505887E090E066
:101C800066E070E003CF0F2EF0E0EF2EF0E0FF2EC5
:101C9000F0E80F2FFFEB1F2FF02D02CEDA01C90164
:101CA00057FD59C081386EE3960760E0A60760E0F3
:101CB000B60794F1CA01B9010E94229620E030E0F3
:101CC00046E954EC0E9487959B01AC01C201B10129
:101CD0000E94BD941B012C0186CFC601B50120E0F6
:101CE00030E04CE053EC0E9487957B018C0172CE72
:101CF000CA01B9010E94229620E030E04AE754EC84
:101D0000E1CFC601B50120E030E04CE053EC0E9489
:101D100087957B018C0117CF8134EFE19E07E0E0CE
:101D2000AE07E0E0BE0774F4815D9740A040B0408C
:101D3000FCF2CA01B9010E94229620E030E04AEF8D
:101D400054ECC0CFCA01B9010E94229620E030E0D5
:101D500048EC54ECB7CF88279927DC01821B930B02
:101D6000A40BB50B9FCFFC01A081B1819D0171E057
:101D7000761778F4828193818A179B0734F4DC010B
:101D8000C9017F5F32969C01F3CF28173907CCF346
:101D9000F7CF80E02A1B3B0B241735070CF481E0BA
:101DA0000895FB01F999FECFF999FECF92BD81BD4F
:101DB000F89A80B5808381E090E008959C01FB0152
:101DC000F999FECFF999FECF32BD21BDF89A80B5C1
:101DD0006081861759F0F999FECF1FBA32BD21BD37
:101DE00060BD0FB6F894FA9AF99A0FBE81E090E0C0
:101DF0000895AC01F999FECFFB01625D7F4F9A0116
:101E00002F5F3F4FF999FECF52BD41BDF89A80B583
:101E10008083E617F70719F03196A901F0CF8FE21A
:101E200090E0089581E090E06AE979E0E2DF809156
:101E3000AD099091AE09A091AF09B091B00980931E
:101E4000E5039093E603A093E703B093E803809142
:101E5000B1099091B209A091B309B091B4098093EE
:101E6000E9039093EA03A093EB03B093EC03809112
:101E7000B5099091B609A091B709B091B8098093BE
:101E8000ED039093EE03A093EF03B093F003089556
:101E9000DC01F999FECF20E030E0A9014A0F5B1F79
:101EA000F999FECF52BD41BDF89A80B5FB01E20F12
:101EB000F31FE0818E1759F0F999FECF1FBA52BD7A
:101EC00041BDE0BD0FB6F894FA9AF99A0FBE2F5FA4
:101ED0003F4F2F32310509F78FE290E0089581E0FE
:101EE00090E06AE979E0D4DF8091AD099091AE0984
:101EF000A091AF09B091B0098093E5039093E603F8
:101F0000A093E703B093E8038091B1099091B209DF
:101F1000A091B309B091B4098093E9039093EA03C7
:101F2000A093EB03B093EC038091B5099091B609AF
:101F3000A091B709B091B8098093ED039093EE0397
:101F4000A093EF03B093F003089580E090E0A0E148
:101F5000B1E480939A0990939B09A0939C09B09354
:101F60009D0980E090E0A0E0B0E480939E0990930A
:101F70009F09A093A009B093A10980E090E0A0E49C
:101F8000B0E48093A2099093A309A093A409B0930D
:101F9000A50980E090E0A4E3B3E48093A6099093C0
:101FA000A709A093A809B093A90981E08093AA0981
:101FB00087E08093AB0989E18093AC098FE692E1D9
:101FC000A3E8BAE38093AD099093AE09A093AF095B
:101FD000B093B00986EA9BE9A4E4BBE38093B1091E
:101FE0009093B209A093B309B093B4098FE892EC2F
:101FF000A5EFBCE38093B5099093B609A093B70908
:10200000B093B80980E090E0A0E0B0E08093BD0913
:102010009093BE09A093BF09B093C0098093B909FA
:102020009093BA09A093BB09B093BC0980E090E0FB
:10203000A0E8BFE38093C5099093C609A093C709A0
:10204000B093C8098093C1099093C209A093C309B2
:10205000B093C40944CFDF93CF930F92CDB7DEB7CF
:1020600080E090E0BE016F5F7F4F9BDE8981813011
:1020700059F06BDF80E090E06CE272E09FDE81E07F
:102080000F90CF91DF91089580E0FACF439862607E
:102090006EBD0DB407FEFDCF4EBD0DB407FEFDCFE6
:1020A000439A089543986EBD0DB407FEFDCF1EBC44
:1020B0000DB407FEFDCF439A8EB50895CF92DF92FF
:1020C000EF92FF920F931F93CF93DF938C0168E7FA
:1020D00040E2DCDFC80168E740E0D8DFC0E0D0E0E4
:1020E00071E0C72ED12C7601EC1AFD0A219729F058
:1020F000C80168E6D7DF80FFF6CFC701DF91CF9137
:102100001F910F91FF90EF90DF90CF900895CF93A4
:10211000DF93EC0168EFC6DF807C8034B1F081345E
:1021200038F08038E9F0803C61F0DF91CF9108957C
:102130008823D9F7CE0168ED41EDA8DF1092CB09D5
:10214000F4CF81E08093CB09F0CFCE0168EDAADF18
:1021500081FD0BC0CE0168ED4BEC98DF83E0F2CF40
:10216000CE0168ED9FDF81FDF5CFCE0168ED49EC32
:102170008DDF82E0E7CFCF93DF93EC013B9A439A68
:10218000279A259A2698249A80E58CBD81E08DBDFA
:102190003A98CE0168E848E179DFCE018FDF892BDC
:1021A00021F48FEFDF91CF910895CE0168ED41ECDE
:1021B0006DDFCE0160ED40E669DFCE0168EE44E000
:1021C00065DFCE0168EE6EDF82FFFBCFCE019FDFC1
:1021D000CE0168EC40E25ADFCE0160E841E056DF14
:1021E00080E0E0CF4F925F926F927F928F929F92AA
:1021F000AF92BF92CF92DF92EF92FF920F931F9315
:102200008FE692E1A3E8BAE38093E5039093E603B7
:10221000A093E703B093E80386EA9BE9A4E4BBE359
:102220008093E9039093EA03A093EB03B093EC034C
:102230008FE892ECA5EFBCE38093ED039093EE035F
:10224000A093EF03B093F00380E090E0A0E0B0E053
:102250008093F1039093F203A093F303B093F403FC
:102260008093F5039093F603A093F703B093F803DC
:102270008093FD039093FE03A093FF03B0930004AB
:102280008093010490930204A0930304B093040488
:102290008093050490930604A0930704B093080468
:1022A0008093090490930A04A0930B04B0930C0448
:1022B000ADE18A2EA4E09A2EC4010E942861F0E1CB
:1022C0004F2EF1E05F2E84E994E0B40140E051E04C
:1022D00092010BE111E0E6E3EE2EE1E0FE2EBCE31D
:1022E000CB2EB1E0DB2EA8E8AA2EA1E0BA2E0E94E8
:1022F000C38183EB94E0B4010E943A7C82E695E0CE
:10230000B4010E949D86F3E76F2EF5E07F2EC30196
:10231000B4010E94E737EDE88E2EE1E09E2E81E7C2
:1023200096E0B301A20194010E941E5687EB97E04C
:10233000B30140E020E000E0EE24CC24AA240E9477
:10234000FF4D0BEA18E0C801B30140E094010E9480
:102350005549035E1F4F8AE192E09093C90880932C
:10236000C808C8010E94DA0880E092E09093AC08A7
:102370008093AB0844969093C9088093C808C8011D
:102380000E94DA0887E199E0B30140E00E94326BD5
:102390001F910F91FF90EF90DF90CF90BF90AF9083
:1023A0009F908F907F906F905F904F9008954D9782
:1023B00000C0EF92FF920F93DF93CF93CDB7DEB7BC
:1023C000CF54D0400FB6F894DEBF0FBECDBF7C0116
:1023D000FB019E012F5F3F4F8FE4D9011D928A952B
:1023E000E9F782E5898381E18A8380E88B838FEF37
:1023F0008D83818188878081898782818A87838193
:102400008B8784818C8785818D8786818E871782D3
:10241000F7016581768183819481A9012FE4078189
:10242000E0840E94493CC15BDF4F0FB6F894DEBFE9
:102430000FBECDBFCF91DF910F91FF90EF90089528
:10244000CF92DF92EF920F93DF93CF9300D0CDB76F
:10245000DEB76C014D960E94DA0883E4898382E03E
:102460008A83D60115966D917C91169713968D915E
:102470009C911497AE014F5F5F4F22E017960C912D
:1024800017971896EC900E94493CEAE6F0E0CE0ED1
:10249000DF1ED601ED91FC9186E99FEFC80ED91E93
:1024A000309751F009950F900F90CF91DF910F91D8
:1024B000EF90DF90CF900895A3E6B0E0CA0EDB1E48
:1024C000F6011192DF011D926D018FEF8C93E3E015
:1024D000F0E0CE0EDF1E81E0D6018C93E4CF4D9666
:1024E0000C946E550F931F9302EA1AE0C80166E63A
:1024F00078E00E94A592C80168E478E00E94A59265
:10250000C80166E178E00E94A592C8016BEE77E011
:102510000E94A592C80165EC77E00E94A592C801CF
:102520006FEA77E00E94A592C8016FE877E00E9409
:10253000A592C80164E777E00E94A592C8016BE507
:1025400077E00E94A592C80168E377E00E94A59217
:10255000C80165E177E00E94A592C80162EF76E0CC
:102560000E94A592C80163EC76E00E94A592C80182
:1025700064E876E00E94A592C8016EE476E00E94CD
:10258000A592C8016CE176E00E94A592C80165EDB4
:1025900075E00E94A592C80165EB75E00E94A592C6
:1025A000C80166E975E00E94A592C80163E775E07D
:1025B0000E94A592C8016FE475E00E94A592C8012F
:1025C00066E375E00E94A592C80169E075E00E948B
:1025D000A592C80167ED74E00E94A592C8016CEA5B
:1025E00074E00E94A592C8016AE774E00E94A59277
:1025F000C80165E574E00E94A592C80166EF73E02A
:102600000E94A5921F910F910895CF93DF9380911F
:102610007F06882329F08091CB03882309F06CC0C2
:10262000C2EADAE080912903882309F068C080912A
:102630002803882309F06DC080912503882309F0C1
:10264000B3C080912603882309F00CC180912A032E
:10265000882309F0D0C080912403882309F01FC18A
:1026600080912703882309F451C00E941D8F209177
:102670009403309195034091960350919703621B08
:10268000730B840B950B655F714080409040F0F1B7
:102690000E941D8F6093940370939503809396031B
:1026A00090939703CE0162ED70E00E946692409194
:1026B0003503509136036091370370913803CE0192
:1026C00022E030E00E948794CE0160ED70E00E942D
:1026D0006692609194037091950380919603909116
:1026E00097030E94209620E030E64AE657E40E94D5
:1026F0008795AB01BC0152C0C3E7D6E093CF1092DF
:102700002903CE0165E071E00E94A592DF91CF918F
:10271000089510922803CE0162E071E00E94669253
:1027200040919A0950919B0960919C0970919D0973
:10273000CE0122E030E00E948794CE0160E071E09B
:102740000E94669240919E0950919F096091A00954
:102750007091A109CE0122E030E00E948794CE0161
:102760006EEF70E00E9466924091A2095091A30919
:102770006091A4097091A509CE0122E030E00E9489
:102780008794CE016CEF70E00E9466924091A6099A
:102790005091A7096091A8097091A909CE0122E082
:1027A00030E00E948994B2CF10922503CE0169EFE8
:1027B00070E00E946692CE016091AA094AE050E062
:1027C0000E944393CE0167EF70E00E946692CE01B3
:1027D0006091AB094AE050E00E944393CE0165EF5F
:1027E00070E00E946692CE016091AC094AE050E030
:1027F0000E9454938BCF10922A03CE0160EE70E0BA
:102800000E9466924091E5035091E6036091E703D0
:102810007091E803CE0124E030E00E948794CE015D
:102820006EED70E00E9466924091E9035091EA03D8
:102830006091EB037091EC03CE0124E030E00E9444
:102840008794CE016CED70E00E9466924091ED039A
:102850005091EE036091EF037091F003CE0124E0FC
:1028600030E09FCF10922603CE0162EF70E00E940D
:1028700066926091F7017091F801CE010E94B193C8
:10288000CE0160EF70E00E946692CE0161E04AE006
:1028900050E00E944393CE0163EE70E035CF0E947A
:1028A0001D8F20918C0330918D0340918E035091A8
:1028B0008F03621B730B840B950B633371058105CA
:1028C000910508F4CDCE0E941D8F60938C03709308
:1028D0008D0380938E0390938F03CE0169ED70E09A
:1028E0000E946692409150035091510360915203AF
:1028F00070915303CE0122E030E00E948794CE0114
:1029000067ED70E00E946692409158035091590320
:1029100060915A0370915B03CE0122E030E00E9487
:102920008794CE0165ED70E00E94669240915C0351
:1029300050915D0360915E0370915F032FCF2F92E2
:102940003F924F925F926F927F928F929F92AF923F
:10295000BF92CF92DF92EF92FF920F931F93DF937C
:10296000CF93CDB7DEB760970FB6F894DEBF0FBE3A
:10297000CDBF1C012B0129873A874B875C87ED86E9
:10298000FE860F87188B0E94D60A5B016C010E949D
:10299000E10A3B014C0182EA9AE06EE071E00E949C
:1029A000A5923AC0F10160817181828193812DEC01
:1029B0003CEC4CEC5DE30E94BD94F10160837183BB
:1029C00082839383D601C50189539F4FAF4FBF4F79
:1029D0008F589140A040B04008F0BEC0F201608125
:1029E0007181828193812DEC3CEC4CEC5DE30E9483
:1029F000BD94F201608371838283938364E670E007
:102A000080E090E00E94958F69807A808B809C8026
:102A1000AD80BE80CF80D88482EA9AE00E94F19097
:102A20008F5F9F4F09F0BEC069857A858B859C8535
:102A3000F10120813181428153810E9402979B01E3
:102A4000AC0187E090E065E070E00E94EE096D85E2
:102A50007E858F859889F201208131814281538161
:102A60000E9402979B01AC0188E090E065E070E075
:102A70000E94EE090E94D60A6D837E838F83988719
:102A80007B018C01EA18FB080C091D090E94E10A70
:102A900069837A838B839C835B016C01A618B708DA
:102AA000C808D90882EA9AE0B801A7012AE030E014
:102AB0000E94669382EA9AE06CE071E00E9466925E
:102AC00082EA9AE0B601A5012AE030E00E9466930E
:102AD00082EA9AE06AE071E00E946692F101408128
:102AE00051816281738182EA9AE022E030E00E94A3
:102AF000879482EA9AE068E071E00E946692F201AF
:102B0000408151816281738182EA9AE022E030E063
:102B10000E948994D801C70189539F4FAF4FBF4F7F
:102B20008F589140A040B04008F43CCFB801A701B5
:102B300017FD28C04C3C5105610571050CF442CFCE
:102B4000F10160817181828193812DEC3CEC4CEC30
:102B50005DE30E94BC9431CFB601A501D7FC1AC039
:102B60004C3C5105610571050CF448CFF2016081C0
:102B70007181828193812DEC3CEC4CEC5DE30E94F1
:102B8000BC9437CF70956095509541955F4F6F4FCE
:102B90007F4FD0CF70956095509541955F4F6F4FA7
:102BA0007F4FDECFF101E080F1800281138120C0F0
:102BB00087E090E065E070E0A80197010E94EE09CF
:102BC00088E090E065E070E0A80197010E94EE09BE
:102BD00062E370E080E090E00E94958FC801B70149
:102BE00020E030E040E85FE30E94BC947B018C0170
:102BF000C801B70120E030E040E050E00E94F796C5
:102C00001816B4F287E090E00E94DD0988E090E0B9
:102C10000E94DD0960960FB6F894DEBF0FBECDBFEF
:102C2000CF91DF911F910F91FF90EF90DF90CF90A8
:102C3000BF90AF909F908F907F906F905F904F90DC
:102C40003F902F9008956F927F928F929F92AF92B4
:102C5000BF92CF92DF92EF92FF920F931F93DF9379
:102C6000CF93CDB7DEB728970FB6F894DEBF0FBE6F
:102C7000CDBF82EA9AE061EB72E00E94A59282EAFF
:102C80009AE00E94F1908F5F9F4FC9F382EA9AE029
:102C900067E372E00E94A59260ED77E080E090E04B
:102CA0000E94958F80E090E0A0E2B1E489839A834E
:102CB000AB83BC838D839E83AF83B887CE0101969F
:102CC000BE016B5F7F4F20E030E040E85FE37901B9
:102CD0008A0135DE82EA9AE068E172E00E9466923B
:102CE00049815A816B817C8182EA9AE022E030E05E
:102CF0000E94879482EA9AE066E172E00E946692FE
:102D00004D815E816F81788582EA9AE022E030E031
:102D10000E948994A980BA80CB80DC80ED80FE80FF
:102D20000F811885C601B501A80197010E94F79689
:102D300018160CF0DDC080E090E0A0E8BFE38093BF
:102D4000C1099093C209A093C309B093C409C801F3
:102D5000B701A60195010E9487956093C5097093FC
:102D6000C6098093C7099093C80982EA9AE064EF84
:102D700071E00E9466924091C1095091C209609130
:102D8000C3097091C40982EA9AE022E030E00E940F
:102D9000879482EA9AE062EF71E00E946692409125
:102DA000C5095091C6096091C7097091C80982EAA6
:102DB0009AE022E030E00E94899482EA9AE065E895
:102DC00071E00E94A59260ED77E080E090E00E94C3
:102DD000958F80E090E0A0E2B1E48D839E83AF8385
:102DE000B88789839A83AB83BC832091C1093091D2
:102DF000C2094091C3095091C409E090C509F090FF
:102E0000C6090091C7091091C809CE010196BE01FB
:102E10006B5F7F4F94DD99808A807B806C801D8101
:102E20000E81FF80E884692D782D872D962D212F26
:102E3000302F4F2D5E2D0E94F79618160CF473C09C
:102E4000812F902FAF2DBE2D5C016D01692D782D46
:102E5000872D962D212F302F4F2D5E2D0E9483958B
:102E600087FD66C0812F902FAF2DBE2D7C018D0177
:102E700082EA9AE06DE671E00E946692C601B501B1
:102E8000A80197010E94BC94A60195010E94879514
:102E900020E030E048EC52E40E940297AB01BC0114
:102EA00082EA9AE022E030E00E94879482EA9AE087
:102EB00062E971E00E949B9412D882EA9AE06BE486
:102EC00071E00E94A59228960FB6F894DEBF0FBE5F
:102ED000CDBFCF91DF911F910F91FF90EF90DF90C9
:102EE000CF90BF90AF909F908F907F906F900895FC
:102EF000C601B501A80197010E9487956093C10999
:102F00007093C2098093C3099093C40980E090E054
:102F1000A0E8BFE38093C5099093C609A093C709B1
:102F2000B093C80922CF892D982DA72DB62D8CCF0F
:102F3000892D982DA72DB62D99CFBF92CF92DF92D4
:102F4000EF92FF920F931F93CF93DF93182F062FCB
:102F5000F72EB42E89E19AE068E60E940B8B89E196
:102F60009AE0612F0E94788B89E19AE060E00E94EC
:102F7000A78BC82E8823C1F589E19AE068E64B2D1E
:102F800021E00E94B98B802F9F2D9C01E901DD2457
:102F90000DC089E19AE00E94158B892BE9F189E146
:102FA0009AE00E941E8B8883D3942196DB1448F507
:102FB00089E19AE00E94158B892B89F70E942B8F5B
:102FC0007B018C010E942B8F6E197F09800B910B66
:102FD0006436710581059105E0F689E19AE00E9469
:102FE000158B892BB1F6EECF82EA9AE065ED78E099
:102FF0000E94669282EA9AE06C2D4AE050E00E94BC
:1030000054938C2DDF91CF911F910F91FF90EF90F2
:10301000DF90CF90BF90089582EA9AE065EC78E067
:103020000E94A592B5E0CB2EECCFAF92BF92CF928B
:10303000DF92EF92FF920F931F93DF93CF93CDB761
:10304000DEB7E2970FB6F894DEBF0FBECDBF5E01CC
:103050000894A11CB11C650113E3E12EF12CEC0EC8
:10306000FD1E83E468E473E042E067DF8823C9F76C
:103070001091480300E08091490390E0802B912B50
:10308000F601819391936F016AE070E080E090E037
:103090000E94958FCE14DF0421F7CE01019669E1DD
:1030A00040ED57E00E94B30E8823E9F1E09044031D
:1030B000F09045030091460310914703F50161919B
:1030C00071915F01882777FD8095982F0E94229645
:1030D0009B01AC01C801B7010E94BD947B018C012A
:1030E000AC14BD0459F720E030E048EC51E40E94F4
:1030F00087956093440370934503809346039093B0
:10310000470380E0E2960FB6F894DEBF0FBECDBF56
:10311000CF91DF911F910F91FF90EF90DF90CF90B3
:10312000BF90AF90089582EA9AE069EB70E00E9448
:1031300066922B9A81E0E6CF4F925F926F927F92D8
:103140008F929F92AF92BF92CF92DF92EF92FF92B7
:103150000F931F93DF93CF93CDB7DEB7C456D04004
:103160000FB6F894DEBF0FBECDBF82EA9AE063E8E7
:1031700073E00E94A59282EA9AE00E94F1908F5F2C
:103180009F4FC9F3CC24DD245E010894A11CB11C1F
:1031900093E3892E912C8C0E9D1E8DE368E473E0E1
:1031A00044E0CBDE8823C9F7F501EC0DFD1DF0905E
:1031B0004803EE248091490390E08E299F29918352
:1031C0008083F401EC0DFD1D10914A0300E0809115
:1031D0004B0390E0802B912B918380836AE070E019
:1031E00080E090E00E94958F82E090E0C80ED91EAA
:1031F00092E3C916D10489F6C50169E148EE53E0AE
:103200000E94B30E882341F482EA9AE063E673E0F9
:103210000E9466922B9AFFCFC40169E148EE53E009
:103220000E94B30E882381F3A090BD09B090BE091F
:10323000C090BF09D090C009E090B909F090BA09D8
:103240000091BB091091BC09882499242E0108948F
:10325000411C511C83E3682E712C6C0E7D1EF20103
:10326000E80DF91D60817181882777FD8095982F81
:103270000E9422969B01AC01C801B7010E94BD9437
:103280007B018C01F301E80DF91D608171818827B4
:1032900077FD8095982F0E9422969B01AC01C60174
:1032A000B5010E94BD945B016C0182E090E0880E44
:1032B000991E92E38916910491F6C801B70120E0A6
:1032C00030E048EC51E40E9487957B018C01C601F7
:1032D000B50120E030E048EC51E40E94879560930E
:1032E000BD097093BE098093BF099093C009C801BE
:1032F000B70120E030E040E050E00E948395882351
:103300000CF468C0C801B70120E030E040E856E4A2
:103310000E94BC946093B9097093BA098093BB0969
:103320009093BC0982EA9AE06BE473E00E94669293
:103330006091B9097091BA098091BB099091BC095B
:1033400020E030E040E858E30E940297AB01BC0166
:1033500082EA9AE022E030E00E94879482EA9AE0D2
:1033600069E473E00E9466926091BD097091BE09A4
:103370008091BF099091C00920E030E040E858E317
:103380000E940297AB01BC0182EA9AE022E030E0A1
:103390000E9489940E946F0F82EA9AE060E273E0D3
:1033A0000E94A592CC59DF4F0FB6F894DEBF0FBE36
:1033B000CDBFCF91DF911F910F91FF90EF90DF90E4
:1033C000CF90BF90AF909F908F907F906F905F90C5
:1033D0004F900895C801B70120E030E040E856E47E
:1033E0000E94BD9497CFDF92EF92FF920F931F93AD
:1033F000F82E8B01E42ED22E89E19AE068E60E9435
:103400000B8B89E19AE06F2D0E94788B89E19AE01D
:10341000B8014E2D50E00E94488B89E19AE06D2D55
:103420000E94A78B082F882369F082EA9AE066EE53
:1034300078E00E94669282EA9AE0602F4AE050E0CB
:103440000E945493802F1F910F91FF90EF90DF9077
:103450000895DF93CF930F92CDB7DEB76983242F02
:10346000BE016F5F7F4F41E0BEDF0F90CF91DF91D4
:103470000895EF92FF920F931F93CF93DF93FC0178
:10348000C689D7896130710589F164897589882772
:1034900077FD8095982F0E9422967B018C01BE01BA
:1034A000882777FD8095982F0E9422969B01AC017A
:1034B000C801B7010E9430952BED3FE049E450E48C
:1034C0000E94BD9421EE3EE245E652E40E9402973E
:1034D000E62F2E2F372F482F592FB901CA01DF9120
:1034E000CF911F910F91FF90EF900895608D718D96
:1034F000CECFEF92FF920F931F93CF93DF93EC0108
:103500008C818823A1F0FE01E159FF4FA0817181D8
:10351000828163812A2F372F482F562FB901CA0184
:10352000DF91CF911F910F91FF90EF9008956885E3
:103530007985882777FD8095982F0E9422967B01B8
:103540008C016A857B85882777FD8095982F0E945E
:1035500022969B01AC01C801B7010E9430952BED6A
:103560003FE049E450E40E94BD9421EE3EE245E68E
:1035700052E40E940297A62F692FCCCFEF92FF92C0
:103580000F931F93CF93DF93EC018C818823A1F0DD
:10359000FE01ED58FF4FA0817181828163812A2F46
:1035A000372F482F562FB901CA01DF91CF911F91B4
:1035B0000F91FF90EF9008956E817F81882777FDAE
:1035C0008095982F0E9422967B018C016A857B85CD
:1035D000882777FD8095982F0E9422969B01AC0149
:1035E000C801B7010E9430952BED3FE049E450E45B
:1035F0000E94BD9421EE3EE245E652E40E9402970D
:10360000A62F692FCCCF8F929F92AF92BF92CF926D
:10361000DF92EF92FF920F931F93CF93DF93EC0112
:1036200081E08093D4031092F90180E090E0A0E063
:10363000B0E08093A9039093AA03A093AB03B09347
:10364000AC038093A5039093A603A093A703B09324
:10365000A803CA30D10509F4D8C0C930D10509F48E
:103660004BC2209709F05DC18091B907882309F406
:10367000EBC187EB97E06EE070E00E94254D882358
:1036800009F4E7C387EB97E061E070E00E9416540D
:1036900020E030E044E353E40E94F796181614F05B
:1036A0000C94EB2387EB97E061E070E00E941654E6
:1036B0007B018C0100D000D08DB69EB60894811C91
:1036C000911C6091AB0970E080E090E00E94209630
:1036D000F4016083718382839383C801B70120E082
:1036E00030E044E353E40F2EF0E0EF2EF0E0FF2E45
:1036F000F8E50F2FF3E41F2FF02D0F2EF0E0AF2E83
:10370000F0E0BF2EF0E0CF2EF0E0DF2EF02D0E9493
:1037100041090F900F900F900F906093A503709345
:10372000A6038093A7039093A80387EB97E062E03A
:1037300070E00E94165420E030E044E353E40E941D
:10374000F796181614F00C94A62387EB97E062E026
:1037500070E00E9416547B018C0100D000D08DB621
:103760009EB60894811C911C6091AC0970E080E0C9
:1037700090E00E942096F40160837183828393839A
:10378000C801B70120E030E044E353E40F2EF0E03D
:10379000EF2EF0E0FF2EF1E60F2FF3E41F2FF02DB8
:1037A0000F2EF0E0AF2EF0E0BF2EF0E0CF2EF0E0D5
:1037B000DF2EF02D0E9441090F900F900F900F9077
:1037C0006093A9037093AA038093AB039093AC0317
:1037D000C230D10509F40DC2C330D10509F42FC49C
:1037E000C430D10509F419C1D0932C03C0932B0325
:1037F000DF91CF911F910F91FF90EF90DF90CF90CD
:10380000BF90AF909F908F900895E090D003F0907C
:10381000D1030091D2031091D303C801B70120E076
:1038200030E040E050E00E94F79618160CF0D9C244
:1038300000D000D08DB69EB60894811C911C60917A
:10384000AB0970E080E090E00E942096F401608374
:10385000718382839383C801B70120E030E040E0A8
:1038600050E00F2EF0E0EF2EF0E0FF2EF0E80F2FEB
:10387000FFE31F2FF02D59016A010E9441090F90AB
:103880000F900F900F906093A5037093A603809301
:10389000A7039093A803E090CC03F090CD03009190
:1038A000CE031091CF03C801B70120E030E040E023
:1038B00050E00E94F79618160CF074C400D000D0A7
:1038C0008DB69EB60894811C911C6091AC0970E085
:1038D00080E090E00E942096F401608371838283EF
:1038E0009383C801B70120E030E040E050E00F2EA4
:1038F000F0E0EF2EF0E0FF2EF0E80F2FFFE31F2F98
:10390000F02D59016A010E9441090F900F900F900C
:103910000F906093A9037093AA038093AB039093D5
:10392000AC03C130D10509F053CF88EC98E06EE0CC
:1039300070E00E940055882309F4D7C488EC98E011
:1039400061E070E096DD20E030E044E353E40E9463
:10395000F79618160CF4F5C788EC98E061E070E073
:1039600088DD20E030E044E353E40E94839588231F
:1039700014F40C94852988EC98E062E070E079DD1D
:1039800020E030E044E353E40E948395882314F060
:103990000C94A82688EC98E062E070E06ADD7B0178
:1039A0008C0100D000D08DB69EB60894811C911C6D
:1039B0006091AC0970E080E090E00E942096F401F4
:1039C0006083718382839383C801B70120E030E074
:1039D00044E353E40F2EF0E0EF2EF0E0FF2EF7E08B
:1039E0000F2FF3E41F2FF02D0F2EF0E0AF2EF0E09D
:1039F000BF2EF0E0CF2EF0E0DF2EF02D0E94410927
:103A00000F900F900F900F906093A9037093AA03EB
:103A10008093AB039093AC03DFCE81E08093F901F8
:103A200080912B0390912C03049709F4DDCE0E9422
:103A3000EC0A6093E1037093E2038093E3039093B5
:103A4000E4031092A403D0CE87EB97E061E070E02E
:103A50000E947B4D853708F477C287EB97E061E0E1
:103A600070E00E947B4D8A3810F00C94892787EB18
:103A700097E060E070E00E947B4D873308F0CAC396
:103A800087EB97E060E070E00E947B4D00D000D0B3
:103A90008DB69EB60894811C911C90E0A0E0B0E029
:103AA000BC01CD010E9420967B018C016091AC0984
:103AB00070E080E090E00E942096F40160837183C2
:103AC00082839383C801B70120E030E048E552E4E7
:103AD0000F2EF0E0EF2EF0E0FF2EF0E00F2FF0E0E1
:103AE0001F2FF02D570168010E9441090F900F9080
:103AF0000F900F90905864CEE090CC03F090CD03DF
:103B00000091CE031091CF03C801B70120E030E04F
:103B100040E050E00E94F79618160CF058C200D012
:103B200000D08DB69EB60894811C911C6091AB09A3
:103B300070E080E090E00E942096F4016083718341
:103B400082839383C801B70120E030E040E050E079
:103B50000F2EF0E0EF2EF0E0FF2EF0E10F2FF2E459
:103B60001F2FF02D59016A010E9441090F900F90FB
:103B70000F900F906093A5037093A6038093A70303
:103B80009093A803E090D003F090D1030091D2036A
:103B90001091D303C801B70120E030E040E050E0CD
:103BA0000E94F79618160CF071C300D000D08DB6A5
:103BB0009EB60894811C911C6091AC0970E080E075
:103BC00090E00E942096F401608371838283938346
:103BD000C801B70120E030E040E050E00F2EF0E0F7
:103BE000EF2EF0E0FF2EF4E30F2FF2E41F2FF02D65
:103BF00088CE80911C09882309F48BC087E199E065
:103C000061E070E00E94FE6B8959984010F00C94BE
:103C1000492687E199E061E070E00E94FE6B8850E0
:103C2000974010F40C94C82887E199E063E070E0B5
:103C30000E94FE6B8C0187E199E061E070E00E94D8
:103C4000FE6B081B190B093C11050CF464C487E1D9
:103C500099E061E070E00E94FE6B8C0187E199E0E1
:103C600063E070E00E94FE6B081B190B1016110632
:103C700014F00C941F2987E199E061E070E00E9444
:103C8000FE6B7C0187E199E063E070E00E94FE6BCF
:103C9000E81AF90A0027F7FC0095102FC801B701B0
:103CA0000E9422967B018C0100D000D08DB69EB67A
:103CB0000894811C911C6091AC0970E080E090E058
:103CC0000E942096F4016083718382839383C801EC
:103CD000B70120E030E040E050E00F2EF0E0EF2EA2
:103CE000F0E0FF2EF6E10F2FF5E41F2FF02D590124
:103CF0006A010E9441090F900F900F900F90905809
:103D00006093A9037093AA038093AB039093AC03D1
:103D100067CD87E199E06CE070E00E946F6B8823CB
:103D200009F45EC487E199E0E4DB20E030E044E39D
:103D300053E40E94F79618160CF4B2C687E199E096
:103D4000D8DB20E030E044E353E40E9483958823ED
:103D500014F40C94CF2987E199E010DC20E030E0E6
:103D600044E353E40E94F796181614F00C94462787
:103D700087E199E003DC7B018C0100D000D08DB697
:103D80009EB60894811C911C6091AC0970E080E0A3
:103D900090E00E942096F401608371838283938374
:103DA000C801B70120E030E044E353E40F2EF0E017
:103DB000EF2EF0E0FF2EF1E60F2FF3E41F2FF02D92
:103DC0000F2EF0E0AF2EF0E0BF2EF0E0CF2EF0E0AF
:103DD000DF2EF02D0E9441090F900F900F900F9051
:103DE0008FCFC801B70120E030E040E050E00E94F2
:103DF000839588230CF04FCD00D000D08DB69EB6B1
:103E00000894811C911C6091AB0970E080E090E007
:103E10000E942096F4016083718382839383C8019A
:103E2000B70120E030E040E050E00F2EF0E0EF2E50
:103E3000F0E0FF2EF0E80F2FFFEB1F2FF02D5901C0
:103E40006A010E9441090F900F900F900F909058B7
:103E50001ACD87EB97E061E070E00E947B4D8537DB
:103E600008F4BCC787EB97E061E070E00E947B4DEF
:103E70008A3810F00C942C2987EB97E061E070E011
:103E80000E947B4D082F87EB97E063E070E00E9473
:103E90007B4D10E0081B1109003111050CF4EEC335
:103EA00087EB97E061E070E00E947B4D082F87EB85
:103EB00097E063E070E00E947B4D10E0081B110961
:103EC000101611060CF0D9C687EB97E061E070E0A0
:103ED0000E947B4DE82E87EB97E063E070E00E9444
:103EE0007B4DFF24E81AF1080027F7FC0095102FFE
:103EF000C801B7010E9422967B018C0100D000D03E
:103F00008DB69EB60894811C911C6091AC0970E03E
:103F100080E090E00E942096F401608371838283A8
:103F20009383C801B70120E030E040E050E00F2E5D
:103F3000F0E0EF2EF0E0FF2EFFE70F2FF3E41F2F4E
:103F4000F02D59016A01D0CD87EB97E061E070E078
:103F50000E947B4D00D000D08DB69EB60894811C87
:103F6000911C90E0A0E0B0E0BC01CD010E94209641
:103F70007B018C016091AB0970E080E090E00E94D1
:103F80002096F4016083718382839383C801B70113
:103F900020E030E048EE52E40F2EF0E0EF2EF0E0AB
:103FA000FF2EF0E00F2FF0E01F2FF02D57016801DA
:103FB0000E9441090F900F900F900F906093A503FE
:103FC0007093A6038093A7039093A80350CDC801D4
:103FD000B70120E030E040E050E00E948395882364
:103FE0000CF0D0CD00D000D08DB69EB60894811CC8
:103FF000911C6091AB0970E080E090E00E942096F7
:10400000F4016083718382839383C801B70120E048
:1040100030E040E050E00F2EF0E0EF2EF0E0FF2E19
:10402000F0E10F2FF2EC1F2FF02D59016A010E94D1
:1040300041090F900F900F900F9090589BCD83EBFC
:1040400094E061E070E040E00E944E7D8D549D411F
:104050000CF00FC483EB94E061E070E040E00E945C
:104060004E7D845B924E0CF4D5C783EB94E063E005
:1040700070E040E00E944E7D7C0183EB94E061E0C3
:1040800070E040E00E944E7D0027F7FC0095102F65
:10409000AA2797FDA095BA2FE81AF90A0A0B1B0B5D
:1040A000FDE4EF16FDE1FF06F0E00F07F0E01F076B
:1040B0000CF49DC183EB94E061E070E040E00E946D
:1040C0004E7D7C0183EB94E063E070E040E00E9471
:1040D0004E7D0027F7FC0095102FAA2797FDA0958D
:1040E000BA2FE81AF90A0A0B1B0B1E141F0410063C
:1040F000110614F00C94BA2883EB94E061E070E0B0
:1041000040E00E944E7D7C0183EB94E063E070E030
:1041100040E00E944E7D0027F7FC0095102FAA2753
:1041200097FDA095BA2FE81AF90A0A0B1B0BC801D4
:10413000B7010E9422967B018C0100D000D08DB681
:104140009EB60894811C911C6091AC0970E080E0DF
:1041500090E00E942096F4016083718382839383B0
:10416000C801B70120E030E040E050E00F2EF0E061
:10417000EF2EFFEFFF2EFFE70F2FF7E41F2FF02D9D
:1041800059016A010E9441090F900F900F900F9002
:1041900090586093A9037093AA038093AB03909304
:1041A000AC0322CBC801B70120E030E040E050E092
:1041B0000E94839588230CF0B4CB00D000D08DB63C
:1041C0009EB60894811C911C6091AC0970E080E05F
:1041D00090E00E942096F401608371838283938330
:1041E000C801B70120E030E040E050E00F2EF0E0E1
:1041F000EF2EF0E0FF2EF0E80F2FFFEB1F2FF02D3A
:1042000059016A010E9441090F900F900F900F9081
:1042100090587FCB87EB97E060E070E00E947B4D89
:10422000893C08F4D5CA87EB97E060E070E00E9413
:104230007B4D00D000D08DB69EB60894811C911C99
:1042400090E0A0E0B0E0BC01CD010E9420967B018F
:104250008C016091AC0970E080E090E00E942096B3
:10426000F4016083718382839383C801B70120E0E6
:1042700030E049E453E40F2EF0E0EF2EF0E0FF2EA3
:10428000FFE70F2FF3E41F2FF02D8ACAC801B701F3
:1042900020E030E040E050E00E94839588230CF05D
:1042A00040CB00D000D08DB69EB60894811C911CE6
:1042B0006091AC0970E080E090E00E942096F401EB
:1042C0006083718382839383C801B70120E030E06B
:1042D00040E050E00F2EF0E0EF2EF0E0FF2EF4E390
:1042E0000F2FF2EC1F2FF02D8BCF88EC98E061E0C0
:1042F00070E00E946955853708F4EDC688EC98E0B7
:1043000061E070E00E9469558A3808F056C488EC74
:1043100098E061E070E00E946955082F88EC98E011
:1043200063E070E00E94695510E0081B110900313C
:1043300011050CF44BC388EC98E061E070E00E943A
:104340006955082F88EC98E063E070E00E94695599
:1043500010E0081B11091016110614F00C94C22964
:1043600088EC98E061E070E00E946955E82E88ECE6
:1043700098E063E070E00E946955FF24E81AF108B4
:104380000027F7FC0095102FC801B7010E94229664
:104390007B018C0100D000D08DB69EB60894811CA4
:1043A000911C6091AC0970E080E090E00E94209642
:1043B000F4016083718382839383C801B70120E095
:1043C00030E040E050E00F2EF0E0EF2EF0E0FF2E66
:1043D000FFE70F2FF3E41F2FF02D59016A010E9410
:1043E00041090F900F900F900F9090580DCB83EBD9
:1043F00094E061E070E040E00E944E7D7C0183EB40
:1044000094E063E070E040E00E944E7D0027F7FCFE
:104410000095102FAA2797FDA095BA2FE81AF90A40
:104420000A0B1B0BFDE4EF16FDE1FF06F0E00F07A2
:10443000F0E01F070CF4D8C983EB94E061E070E072
:1044400040E00E944E7D7C0183EB94E063E070E0ED
:1044500040E00E944E7D0027F7FC0095102FAA2710
:1044600097FDA095BA2FE81AF90A0A0B1B0B1E1428
:104470001F041006110614F00C944E2A83EB94E0EE
:1044800061E070E040E00E944E7D7C0183EB94E0AF
:1044900063E070E040E00E944E7D0027F7FC00954D
:1044A000102FAA2797FDA095BA2FE81AF90A0A0B30
:1044B0001B0BC801B7010E9422967B018C0100D022
:1044C00000D08DB69EB60894811C911C6091AC09F9
:1044D00070E080E090E00E942096F4016083718398
:1044E00082839383C801B70120E030E040E050E0D0
:1044F0000F2EF0E0EF2EFFEFFF2EFFE70F2FF7E478
:104500001F2FF02D59016A010E9441090F900F9051
:104510000F900F903ECE87E199E061E070E00E943D
:10452000FE6B8C0187E199E063E070E00E94FE6B16
:10453000081B190B093C11050CF452C987E199E0DD
:1045400061E070E00E94FE6B8C0187E199E063E01E
:1045500070E00E94FE6B081B190B101611060CF080
:10456000ABC787E199E061E070E00E94FE6B7C01DF
:1045700087E199E063E070E00E94FE6BE81AF90AB7
:104580000027F7FC0095102FC801B7010E94229662
:104590007B018C0100D000D08DB69EB60894811CA2
:1045A000911C6091AC0970E080E090E00E94209640
:1045B000F4016083718382839383C801B70120E093
:1045C00030E040E050E00F2EF0E0EF2EF0E0FF2E64
:1045D000F6E10F2FF5E41F2FF02D59016A01FACBF8
:1045E00087E199E061E070E00E94E96B8A3808F0A9
:1045F00099C287E199E061E070E00E94E96B85373C
:1046000008F408C787E199E060E070E00E94E96B78
:104610008A3808F4C2C487E199E060E070E00E9443
:10462000E96B00D000D08DB69EB60894811C911C19
:1046300090E0A0E0B0E0BC01CD010E9420967B019B
:104640008C016091AC0970E080E090E00E942096BF
:10465000F4016083718382839383C801B70120E0F2
:1046600030E04AE053E40F2EF0E0EF2EF0E0FF2EB2
:10467000F6E60F2FF3E41F2FF02DA2CB87EB97E088
:1046800063E070E00E947B4D082F87EB97E061E0CC
:1046900070E00E947B4D10E0081B110900311105EC
:1046A0000CF496C887EB97E061E070E00E947B4DC8
:1046B000082F87EB97E063E070E00E947B4D10E0ED
:1046C000081B1109101611060CF002C787EB97E0C2
:1046D00061E070E00E947B4DE82E87EB97E063E09D
:1046E00070E00E947B4DFF24E81AF1080027F7FCD8
:1046F0000095102FC801B7010E9422967B018C0102
:1047000000D000D08DB69EB60894811C911C60919B
:10471000AC0970E080E090E00E942096F401608394
:10472000718382839383C801B70120E030E040E0C9
:1047300050E00F2EF0E0EF2EF0E0FF2EFFE70F2FFE
:10474000F3E41F2FF02D59016A0134C887EB97E07D
:1047500062E070E00E94165420E030E044E353E44D
:104760000E94839588230CF033C887EB97E062E0C2
:1047700070E00E9416547B018C0100D000D08DB6F1
:104780009EB60894811C911C6091AC0970E080E099
:1047900090E00E942096F40160837183828393836A
:1047A000C801B70120E030E044E353E40F2EF0E00D
:1047B000EF2EF0E0FF2EF7E00F2FF3E41F2FF02D88
:1047C0000F2EF0E0AF2EF0E0BF2EF0E0CF2EF0E0A5
:1047D000DF2EF02D89C987EB97E061E070E00E9441
:1047E000165420E030E044E353E40E94839588238C
:1047F00014F00C94951B87EB97E061E070E00E9449
:1048000016547B018C0100D000D08DB69EB6089462
:10481000811C911C6091AB0970E080E090E00E94E7
:104820002096F4016083718382839383C801B7016A
:1048300020E030E044E353E40F2EF0E0EF2EF0E010
:10484000FF2EF0E10F2FF3E41F2FF02D0F2EF0E0DD
:10485000AF2EF0E0BF2EF0E0CF2EF0E0DF2EF02DF7
:104860000E9441090F900F900F900F9090580C9458
:104870008D1B83EB94E063E070E040E00E944E7D8E
:104880008D549D410CF4E6CB83EB94E061E070E045
:1048900040E00E944E7D7C0183EB94E063E070E099
:1048A00040E00E944E7D00D000D08DB69EB60894A8
:1048B000811C911CAA2797FDA095BA2F0027F7FC11
:1048C0000095102F8E0D9F1DA01FB11FBC01CD01A3
:1048D0000E9422967B018C016091AB0970E080E020
:1048E00090E00E942096F401608371838283938319
:1048F000C801B70120E038E64AE656E40F2EF0E0A2
:10490000EF2EFEEFFF2EFFE70F2FF7E41F2FF02D06
:104910000F2EF0E0AF2EF0E0BF2EF0E0CF2EF0E053
:10492000DF2EF02D0E9441090F900F900F900F90F5
:104930006093A5037093A6038093A7039093A803A5
:1049400094CB88EC98E061E070E00E94391A7B011A
:104950008C0100D000D08DB69EB60894811C911CAD
:104960006091AB0970E080E090E00E942096F40135
:104970006083718382839383C801B70120E030E0B4
:1049800044E353E40F2EF0E0EF2EF0E0FF2EF8E5C5
:104990000F2FF3E41F2FF02D0F2EF0E0AF2EF0E0DD
:1049A000BF2EF0E0CF2EF0E0DF2EF02D0E94410967
:1049B0000F900F900F900F906093A5037093A60334
:1049C0008093A7039093A8030C94BB1C88EC98E0F9
:1049D00063E070E00E946955082F88EC98E061E080
:1049E00070E00E94695510E0081B110900311105A3
:1049F00014F40C94EC1B88EC98E061E070E00E94E9
:104A00006955082F88EC98E063E070E00E946955D2
:104A100010E0081B1109101611060CF065C588EC92
:104A200098E061E070E00E946955E82E88EC98E01B
:104A300063E070E00E946955FF24E81AF10800273E
:104A4000F7FC0095102FC801B7010E9422967B0148
:104A50008C0100D000D08DB69EB60894811C911CAC
:104A60006091AC0970E080E090E00E942096F40133
:104A70006083718382839383C801B70120E030E0B3
:104A800040E050E00F2EF0E0EF2EF0E0FF2EFFE7C9
:104A90000F2FF3E41F2FF02D59016A010C94FE1C17
:104AA00087E199E00E94791A7B018C0100D000D047
:104AB0008DB69EB60894811C911C6091AB0970E084
:104AC00080E090E00E942096F401608371838283ED
:104AD0009383C801B70120E030E044E353E40F2E94
:104AE000F0E0EF2EF0E0FF2EF8E50F2FF3E41F2F9C
:104AF000F02D0F2EF0E0AF2EF0E0BF2EF0E0CF2E25
:104B0000F0E0DF2EF02D0E9441090F900F900F90E2
:104B10000F906093A5037093A6038093A7039093CF
:104B2000A80319C987E199E061E070E00E94E96B90
:104B300000D000D08DB69EB60894811C911C90E0E8
:104B4000A0E0B0E0BC01CD010E9420967B018C0169
:104B50006091AB0970E080E090E00E942096F40143
:104B60006083718382839383C801B70120E030E0C2
:104B70004AE053E40F2EF0E0EF2EF0E0FF2EF6E6D1
:104B80000F2FF3E41F2FF02D0F2EF0E0AF2EF0E0EB
:104B9000BF2EF0E0CF2EF0E0DF2EF02D0E94410975
:104BA0000F900F900F900F906093A5037093A60342
:104BB0008093A7039093A80325CD88EC98E063E049
:104BC00070E00E9469558A3808F4A1CB88EC98E01F
:104BD00061E070E00E946955E82E88EC98E063E09F
:104BE00070E00E94695500D000D08DB69EB6089442
:104BF000811C911CFF24E80EF11C0027F7FC009596
:104C0000102FC801B7010E9422967B018C01609190
:104C1000AB0970E080E090E00E942096F401608390
:104C2000718382839383C801B70120E030E04AE8B2
:104C300053E40F2EF0E0EF2EF0E0FF2EFFEF0F2FEA
:104C4000F3E41F2FF02D0F2EF0E0AF2EF0E0BF2E7B
:104C5000F0E0CF2EF0E0DF2EF02D0E9441090F9002
:104C60000F900F900F9090586093A5037093A60338
:104C70008093A7039093A8034ACB87EB97E063E068
:104C800070E00E947B4DE82E87EB97E061E070E0DA
:104C900026C987E199E063E070E00E94FE6B8959C4
:104CA000984010F40C94091E87E199E061E070E0EF
:104CB0000E94FE6B7C0187E199E063E070E00E9456
:104CC000FE6B00D000D08DB69EB60894811C911C5E
:104CD000E80EF91E00E010E0C801B7010E9420961E
:104CE0007B018C016091AB0970E080E090E00E9454
:104CF0002096F4016083718382839383C801B70196
:104D000020E030E949E855E40F2EF0E0EF2EF0E026
:104D1000FF2EF8EC0F2FF5E41F2FF02D0F2EF0E0F3
:104D2000AF2EF0E0BF2EF0E0CF2EF0E0DF2EF02D22
:104D30000E9441090F900F900F900F906093A50370
:104D40007093A6038093A7039093A8030C94141E5A
:104D500088EC98E062E070E00E94391A20E030E0D0
:104D600044E353E40E94F796181614F00C94EC1BDD
:104D700088EC98E062E070E00E94391A7B018C01B7
:104D800000D000D08DB69EB60894811C911C609115
:104D9000AC0970E080E090E00E942096F40160830E
:104DA000718382839383C801B70120E030E044E33C
:104DB00053E40F2EF0E0EF2EF0E0FF2EF1E60F2F80
:104DC000F3E41F2FF02D0F2EF0E0AF2EF0E0BF2EFA
:104DD000F0E0CF2EF0E0DF2EF02D01CB87EB97E057
:104DE00063E070E00E947B4D853708F03BC887EB9D
:104DF00097E061E070E00E947B4DE82E87EB97E042
:104E000063E070E00E947B4D00D000D08DB69EB66E
:104E10000894811C911CFF24E80EF11C0027F7FC6C
:104E20000095102FC801B7010E9422967B018C01CA
:104E30006091AB0970E080E090E00E942096F40160
:104E40006083718382839383C801B70120E030E0DF
:104E500048E653E40F2EF0E0EF2EF0E0FF2EF0E0F6
:104E60000F2FF0E01F2FF02D570168010E9441091C
:104E70000F900F900F900F906093A5037093A6036F
:104E80008093A7039093A8030C943C1F87E199E0BB
:104E90000E94BE1A20E030E044E353E40E94839570
:104EA000882314F00C94F01B87E199E00E94BE1A4D
:104EB0007B018C0100D000D08DB69EB60894811C79
:104EC000911C6091AC0970E080E090E00E94209617
:104ED000F4016083718382839383C801B70120E06A
:104EE00030E044E353E40F2EF0E0EF2EF0E0FF2E2D
:104EF000F7E00F2FF3E41F2FF02D0F2EF0E0AF2E71
:104F0000F0E0BF2EF0E0CF2EF0E0DF2EF02D0C947D
:104F1000791E87EB97E061E070E00E947B4D00D046
:104F200000D08DB69EB60894811C911C90E0A0E044
:104F3000B0E0BC01CD010E9420967B018C01609104
:104F4000AB0970E080E090E00E942096F40160835D
:104F5000718382839383C801B70120E030E04AE087
:104F600053E40F2EF0E0EF2EF0E0FF2EFFE70F2FBF
:104F7000F3E41F2FF02D0F2EF0E0AF2EF0E0BF2E48
:104F8000F0E0CF2EF0E0DF2EF02D0E9441090F90CF
:104F90000F900F900F90905811C887E199E060E052
:104FA00070E00E94E96B853710F00C94F01B87E1EC
:104FB00099E060E070E00E94E96B00D000D08DB60F
:104FC0009EB60894811C911C90E0A0E0B0E0BC016A
:104FD000CD010E9420967B018C016091AC0970E0AC
:104FE00080E090E00E942096F401608371838283C8
:104FF0009383C801B70120E030E048EE52E40F2E61
:10500000F0E0EF2EF0E0FF2EF8EC0F2FF1E41F2F71
:10501000F02D73CF83EB94E063E070E040E00E94FA
:105020004E7D845B924E0CF020C883EB94E061E0EF
:1050300070E040E00E944E7D7C0183EB94E063E0F1
:1050400070E040E00E944E7D00D000D08DB69EB64C
:105050000894811C911CAA2797FDA095BA2F0027C0
:10506000F7FC0095102F8E0D9F1DA01FB11FBC01D6
:10507000CD010E9422967B018C016091AB0970E00A
:1050800080E090E00E942096F40160837183828327
:105090009383C801B70120E038E64AE656EC0F2EAC
:1050A000F0E0EF2EF0E0FF2EF0E80F2FF7EC1F2FCF
:1050B000F02D0F2EF0E0AF2EF0E0BF2EF0E0CF2E5F
:1050C000F0E0DF2EF02D0E9441090F900F900F901D
:1050D0000F9090582DCC88EC98E063E070E00E942F
:1050E0006955853708F00AC988EC98E061E070E0FE
:1050F0000E946955E82E88EC98E063E070E00E9419
:10510000695500D000D08DB69EB60894811C911CC4
:10511000FF24E80EF11C0027F7FC0095102FC801B2
:10512000B7010E9422967B018C016091AB0970E06F
:1051300080E090E00E942096F40160837183828376
:105140009383C801B70120E030E048E653E40F2E16
:10515000F0E0EF2EF0E0FF2EF0E00F2FF0E01F2F39
:10516000F02D570168010E9441090F900F900F9098
:105170000F907ACD83EB94E063E070E040E00E9412
:105180004E7D7C0183EB94E061E070E00C9488201C
:1051900087E199E063E070E00E94FE6B88509740E1
:1051A00010F00C94141E87E199E061E070E00E9419
:1051B000FE6B7C0187E199E063E070E00E94FE6B8A
:1051C00000D000D08DB69EB60894811C911CE80ECC
:1051D000F91E00E010E0C801B7010E9420967B0193
:1051E0008C016091AB0970E080E090E00E94209615
:1051F000F4016083718382839383C801B70120E047
:1052000030EE40E655E40F2EF0E0EF2EF0E0FF2EFA
:10521000F8EC0F2FF4E41F2FF02D0F2EF0E0AF2E3F
:10522000F0E0BF2EF0E0CF2EF0E0DF2EF02D0E9458
:1052300041090F900F900F900F9090587FCD87E10C
:1052400099E063E070E00E94FE6B7C0187E199E0E9
:1052500061E070E00C94461E87EB97E063E070E03D
:105260000E947B4D8A3810F40C943C1F87EB97E02A
:1052700061E070E00E947B4DE82E87EB97E063E0F1
:1052800070E00E947B4D00D000D08DB69EB6089491
:10529000811C911CFF24E80EF11C0027F7FC0095EF
:1052A000102FC801B7010E9422967B018C016091EA
:1052B000AB0970E080E090E00E942096F4016083EA
:1052C000718382839383C801B70120E030E04AE80C
:1052D00053E40F2EF0E0EF2EF0E0FF2EFFEF0F2F44
:1052E000F3E41F2FF02D0F2EF0E0AF2EF0E0BF2ED5
:1052F000F0E0CF2EF0E0DF2EF02D0E9441090F905C
:105300000F900F900F909058B7CD88EC98E061E027
:1053100070E00E94391A7B018C0100D000D08DB65C
:105320009EB60894811C911C6091AB0970E080E0EE
:1053300090E00E942096F4016083718382839383BE
:10534000C801B70120E030E044E353E40F2EF0E061
:10535000EF2EF0E0FF2EF0E10F2FF3E41F2FF02DE2
:105360000F2EF0E0AF2EF0E0BF2EF0E0CF2EF0E0F9
:10537000DF2EF02D0E9441090F900F900F900F909B
:1053800090581ACB88EC98E063E070E00E94695571
:10539000E82E88EC98E061E070E00C94BB2187E196
:1053A00099E00E94791A7B018C0100D000D08DB663
:1053B0009EB60894811C911C6091AB0970E080E05E
:1053C00090E00E942096F40160837183828393832E
:1053D000C801B70120E030E044E353E40F2EF0E0D1
:1053E000EF2EF0E0FF2EF0E10F2FF3E41F2FF02D52
:1053F0000F2EF0E0AF2EF0E0BF2EF0E0CF2EF0E069
:10540000DF2EF02D0E9441090F900F900F900F900A
:1054100090587FCB87E199E061E070E00E94E96BF2
:1054200000D000D08DB69EB60894811C911C90E0EF
:10543000A0E0B0E0BC01CD010E9420967B018C0170
:105440006091AB0970E080E090E00E942096F4014A
:105450006083718382839383C801B70120E030E0C9
:1054600048EE52E40F2EF0E0EF2EF0E0FF2EF8ECC5
:105470000F2FF1E41F2FF02D0F2EF0E0AF2EF0E0F4
:10548000BF2EF0E0CF2EF0E0DF2EF02D0E9441097C
:105490000F900F900F900F90905886CB83EB94E075
:1054A00063E070E040E00E944E7D7C0183EB94E07D
:1054B00061E070E00C944A2287E199E063E070E0DB
:1054C0000E94FE6B7C0187E199E061E070E054C8C6
:1054D00087EB97E063E070E00E947B4DE82E87EB5E
:1054E00097E061E070E0FDC888EC98E063E070E070
:1054F0000E946955E82E88EC98E061E070E09ACA55
:10550000CF93DF93EC0188818134C1F18D3401F1B7
:10551000873429F18335D1F58981803509F4CAC0F2
:10552000893409F4DDC0843409F4F4C0843509F405
:1055300007C18B3409F41AC1813409F466C1853579
:1055400009F473C1823409F46FC00E946F0F04C064
:105550008981833409F4A3C0DF91CF9108958981B3
:105560008035F9F0833509F444C0893409F49AC0D0
:105570008B3491F781E080932A03EECF89818B33BE
:10558000E1F1833449F70E949C18E6CF893469F42D
:105590008981823409F48AC08335F1F6109224039C
:1055A000DBCF81E080932803D7CF8235C1F08334ED
:1055B00099F68981833509F448C18A34E1F18D3443
:1055C00009F446C1803509F407C1823529F60E94E5
:1055D000A50F81E08093280380932A030BC0898163
:1055E000823409F493C0833509F0B6CF10922703B3
:1055F000B3CF81E080932503AFCF0E94030B82EAF3
:105600009AE00E94F1908334910509F4A5CF81E7D7
:1056100096E00E94CC578334910509F49DCF8DE12B
:1056200094E00E940F6AEBCF8B81813309F442C171
:105630001092AA098ACF0E941D8F6093D5037093A0
:10564000D6038093D7039093D803CE0164E971E029
:105650000E94110780E090E064E971E00E94110768
:105660000E94F1066093CC037093CD038093CE0328
:105670009093CF0380E090E066E971E00E9411070B
:105680000E94F1066093D0037093D1038093D203FC
:105690009093D3038AE090E00E94031B5DCF0E94A9
:1056A00023165ACF81E08093260356CF81E0809362
:1056B000240352CFCE0164E971E00E94110780E01B
:1056C00090E066E971E00E9411070E94F106609384
:1056D0009A0970939B0980939C0990939D0935CFFB
:1056E000CE0164E971E00E94110780E090E066E974
:1056F00071E00E9411070E94F10660939E09709369
:105700009F098093A0099093A1091FCF81E0809306
:10571000270322CFCE0164E971E00E94110780E0E7
:1057200090E066E971E00E9411070E94F106609323
:10573000A2097093A3098093A4099093A50905CFAA
:10574000CE0164E971E00E94110780E090E066E913
:1057500071E00E9411070E94F1066093A609709300
:10576000A7098093A8099093A909EFCECE0164E917
:1057700071E00E94110780E090E064E971E00E940E
:1057800011070E94F1066093AD097093AE098093F2
:10579000AF099093B00980E090E064E971E00E9465
:1057A00011070E94F1066093B1097093B2098093CA
:1057B000B3099093B40980E090E066E971E00E943B
:1057C00011070E94F1066093B5097093B6098093A2
:1057D000B7099093B809B9CE8A81873509F46EC0AC
:1057E0008A81803509F0B8CEE091AE08F091AF081B
:1057F000309739F0E05CFF4F81E08083B89686E017
:10580000808381E080932903A7CECE0164E971E013
:105810000E94110780E090E066E971E00E941107A4
:105820000E94F4068093AB0990CECE0164E971E04A
:105830000E94110780E090E066E971E00E94110784
:105840000E94F4068093AC0980CE84E090E024CFDF
:105850000E941D8F6093D5037093D6038093D70366
:105860009093D803CE0164E971E00E94110780E0B3
:1058700090E064E971E00E9411070E94F1066093D4
:10588000CC037093CD038093CE039093CF0380E03D
:1058900090E066E971E00E9411070E94F1066093B2
:1058A000D0037093D1038093D2039093D30389E004
:1058B00090E0F2CE81E08093AA0947CEE0915309AF
:1058C000F0915409309731F081E083AFE859FF4FF0
:1058D00086E0808381E08093290382CFCF93DF939A
:1058E00082EA9AE00E94D590892B19F4DF91CF913A
:1058F000089582EA9AE00E94F1908D36F9F0809343
:10590000AD0361E070E080E090E00E94958FCEEA08
:10591000D3E005C0219683E0CB3CD80739F382EA77
:105920009AE00E94F19088838F3F01F38B3391F7C7
:105930001092CB038DEA93E0E3DDD8CF0E94721280
:10594000D5CF8091B604882309F408950E941D8F55
:10595000645F714080409040609398037093990316
:1059600080939A0390939B0383EB94E060E04FEF66
:1059700020E00E94967D81E08093A30308958091AA
:10598000B907882309F457C08091A003882309F040
:10599000ABC08091A203882309F09DC087EB97E0FC
:1059A00061E077E20E94D84D882309F4CAC0809153
:1059B0009609882309F4C3C060E0809196096817AE
:1059C00031F06093960987EB97E00E94614F8091D8
:1059D0001909882309F048C080911C09882309F01F
:1059E00043C08091B604882329F18091A3038823C2
:1059F00009F05DC083EB94E060E00E945E7D882347
:105A000009F492C0813009F4B9C0823009F4B9C0F8
:105A100064E070E08091980990919909681779077E
:105A200049F0709399096093980983EB94E040E002
:105A30000C940C7E08958091BB07882341F287EB7C
:105A400097E061E077E20E94D84D882309F08FC08B
:105A500080919609813009F4BACF81E0809396094C
:105A600087EB97E061E0B1CF8091A103882349F0F3
:105A70001092A10387E199E00E94006E10929709AD
:105A8000B0CF87E199E00E94686D8C33F0F08E36DC
:105A900008F04FC060E180919709681709F4A1CF21
:105AA0006093970987E199E00E94D96D9ACF10928F
:105AB000A30383EB94E060E040E020E00E94967D49
:105AC0001092990910929809089580919709882356
:105AD00071F160E0E0CF1092A20387EB97E00E94A3
