:10000000F4C500000C9494820C94C5820C94F68282
:1000100017C6000015C6000013C6000011C6000078
:100020000FC600000DC600000BC6000009C6000088
:1000300007C6000005C6000003C6000001C6000098
:10004000FFC50000FDC500000C942783F9C5000022
:100050000C941F850C94B485F3C50000F1C5000015
:10006000EFC50000EDC500000C94B780E9C50000A5
:100070000C945B850C94E885E3C50000E1C50000A5
:10008000DFC50000DDC50000DBC50000084AD73B26
:100090003BCE016E84BCBFFDC12F3D6C74319ABD57
:1000A00056833DDA3D00C77F11BED9E4BB4C3E917B
:1000B0006BAAAABE000000803F4779726F2063617F
:1000C0006C6962726174696F6E206572726F720022
:1000D0002C00522C002C002C00562C002C002C0044
:1000E0004B2C002C41546D6567613132383450001F
:1000F0002C00492C002C002C00532C002C002C0030
:100100002C00502C005743002C002C002C0056656E
:100110006C6F6369747920284C292C2056656C6FAC
:1001200063697479202852292C20537065656420F6
:1001300076616C756520284C292C205370656564A8
:100140002076616C7565202852290043616C6962D4
:10015000726174696F6E206F6620746865206D6FC0
:10016000746F727320697320646F6E6500546865E4
:1001700020646966666572656E6365206973206ECA
:100180006F773A20004E6F7720746865206D6F742A
:100190006F72732077696C6C207370696E20757054
:1001A00020616761696E2E204E6F7720746865202C
:1001B00073706565642076616C7565732073686F14
:1001C000756C6420626520616C6D6F73742065715D
:1001D00075616C2E2053656E6420616E79206368B2
:1001E0006172616374657220746F20657869740D43
:1001F0000A002C00546865206D6F746F7220736361
:10020000616C61727320617265206E6F7720284C7B
:100210002F52293A20002C000D0A54686520737073
:100220006565642076616C75657320617265202850
:100230004C2F52293A2000457374696D6174696EC0
:1002400067206D696E696D756D2073746172746974
:100250006E672076616C75652E205768656E207418
:1002600068652066697273742074776F2076616C9C
:1002700075657320646F206E6F74206368616E67AC
:100280006520616E796D6F72652C207468656E20D3
:1002900073656E6420616E79206368617261637456
:1002A000657220746F20636F6E74696E75650D0AD8
:1002B000005075742074686520726F626F742073CB
:1002C0006F2074686520776865656C732063616E64
:1002D000206D6F766520667265656C7920616E644D
:1002E000207468656E2073656E6420616E7920638A
:1002F000686172616374657220746F2073746172D7
:100300007420746865206D6F746F722063616C690E
:1003100062726174696F6E20726F7574696E6500C8
:1003200043616C6962726174696F6E206F662074DC
:10033000686520616363656C65726F6D6574657275
:1003400020697320646F6E65002C004E6577207AFB
:1003500065726F2076616C75657320286727732935
:100360003A2000416363656C65726F6D65746572F8
:100370002063616C6962726174696F6E206572726C
:100380006F7200506C6561736520707574207468BD
:100390006520726F626F7420706572666563746C3D
:1003A0007920686F72697A6F6E74616C206F6E204D
:1003B000697473207369646520616E642074686574
:1003C0006E2073656E6420616E792063686172616E
:1003D0006374657220746F20737461727420746822
:1003E000652063616C6962726174696F6E20726FFF
:1003F0007574696E65000D0A3D3D3D3D3D3D3D3DD9
:100400003D3D3D3D3D3D3D3D3D3D3D3D3D3D3D3D1C
:100410003D3D3D3D3D3D3D3D3D3D3D3D3D3D3D3D0C
:100420003D3D3D3D3D3D3D3D3D3D3D3D3D3D3D3DFC
:100430003D3D3D3D3D3D3D3D3D3D3D3D3D3D3D3DEC
:100440003D3D3D3D3D3D3D3D3D3D3D3D3D3D3D3DDC
:100450003D3D0D0A0043523B090909095265737479
:100460006F72652064656661756C742045455052F5
:100470004F4D2076616C7565730043573B09090940
:1004800009537461727420706172696E67207365BC
:100490007175656E63652077697468205769696D49
:1004A0006F746500434D2C70697463682C726F6CB7
:1004B0006C3B090909537465657220726F626F7431
:1004C000207573696E6720706974636820616E645B
:1004D00020726F6C6C00434A2C782C793B09090917
:1004E00009537465657220726F626F742075736949
:1004F0006E6720782C792D636F6F7264696E6174FA
:1005000065730043533B0909090953656E64207301
:10051000746F7020636F6D6D616E640052533B09A0
:1005200009090953746F702073656E64696E6720E2
:100530007265706F72742076616C7565730D0A0058
:1005400052423B0909090953746172742073656E44
:1005500064696E67207265706F72742076616C7565
:1005600065730049533B0909090953746F7020737F
:10057000656E64696E6720494D552076616C7565BE
:10058000730049423B09090909537461727420736D
:10059000656E64696E6720494D552076616C75659E
:1005A000730053422C76616C75653B0909095573DC
:1005B000656420746F2073657420746865206261BF
:1005C000636B20746F2073706F742076616C756537
:1005D000202874727565203D20312C2066616C7373
:1005E00065203D2030290D0A0053552C76616C752D
:1005F000653B0909095573656420746F2073657440
:1006000020746865206D6178696D756D20747572F0
:100610006E696E672076616C75650053412C616E62
:10062000676C653B0909095573656420746F207315
:10063000657420746865206D6178696D756D2063DF
:100640006F6E74726F6C6C696E6720616E676C653B
:1006500000534B2C51616E676C652C51626961735C
:100660002C526D6561737572653B09557365642025
:10067000746F2073657420746865204B616C6D61C4
:100680006E2066696C7465722076616C75657300A6
:1006900053542C746172676574416E676C653B09D5
:1006A00009095573656420746F207365742074683C
:1006B000652074617267657420616E676C650053B4
:1006C000442C4B643B090909095573656420746F18
:1006D0002073657420746865204B642076616C75A6
:1006E000650053492C4B693B090909095573656439
:1006F00020746F2073657420746865204B692076C0
:10070000616C75650053502C4B703B090909095504
:1007100073656420746F2073657420746865204B62
:10072000702076616C75650047493B0909090947E6
:10073000657420696E666F2076616C7565730D0A4D
:100740000047533B090909094765742073657474B0
:10075000696E67732076616C75657300474B3B0962
:10076000090909476574204B616C6D616E206669EB
:100770006C7465722076616C7565730047503B0937
:10078000090909476574205049442076616C7565F4
:1007900073004D433B0909090953656E6420746F6A
:1007A0002063616C69627261746520746865206D94
:1007B0006F746F72730D0A0041433B0909090953B5
:1007C000656E6420746F2063616C69627261746528
:1007D0002074686520616363656C65726F6D657414
:1007E000657200413B0909090953656E6420746F05
:1007F0002061626F72742E2053656E642027432738
:1008000020616761696E20746F20636F6E74696E1A
:1008100075650D0A000D0A3D3D3D3D3D3D3D3D3DAB
:100820003D3D3D3D3D3D3D3D3D3D3D3D3D3D3D3DF8
:100830003D3D3D3D3D3D3D3D3D3D3D3D3D3D3D3DE8
:100840003D204D656E75203D3D3D3D3D3D3D3D3D71
:100850003D3D3D3D3D3D3D3D3D3D3D3D3D3D3D3DC8
:100860003D3D3D3D3D3D3D3D3D3D3D3D3D3D3D3DB8
:100870003D0D0A00693263526561642074696D65DB
:100880006F75740069326352656164206661696CDA
:1008900065643A2000693263577269746520666145
:1008A000696C65643A2000555342206661696C00AA
:1008B0004572726F722072656164696E672073653C
:1008C0006E736F72004F534320646964206E6F74BF
:1008D0002073746172740001020408090A0C0D0E81
:1008E0000F00000000000000000000FF2710003291
:1008F000FF27100032FF27100032FF2710003200C0
:1009000000000000000000000000000000000000E7
:10091000001718191A000000001B1C1D1E1F2021A3
:100920002200000F10000000200000004000000026
:10093000800000000100000008000000020000002C
:10094000040000000001000000020000000400009C
:10095000000800000010000000200000004000001F
:1009600000800000000001000000080000001000EE
:100970000091E3720796E4750E9FED7C0998EA7B7F
:100980001C8DFF6E1B8AF8691283F1601584F6676F
:1009900038A9DB4A3FAEDC4D36A7D54431A0D2435F
:1009A00024B5C75623B2C0512ABBC9582DBCCE5F4F
:1009B00070E1930277E694057EEF9D0C79E89A0B3F
:1009C0006CFD8F1E6BFA881962F3811065F486172F
:1009D00048D9AB3A4FDEAC3D46D7A53441D0A2331F
:1009E00054C5B72653C2B0215ACBB9285DCCBE2F0F
:1009F000E0710392E7760495EE7F0D9CE9780A9BFF
:100A0000FC6D1F8EFB6A1889F2631180F5641687EE
:100A1000D8493BAADF4E3CADD64735A4D14032A3DE
:100A2000C45527B6C35220B1CA5B29B8CD5C2EBFCE
:100A3000900173E2970674E59E0F7DEC99087AEBBE
:100A40008C1D6FFE8B1A68F9821361F0851466F7AE
:100A5000A8394BDAAF3E4CDDA63745D4A13042D39E
:100A6000B42557C6B32250C1BA2B59C8BD2C5ECF8E
:100A700000010000800000004000000000020000B3
:100A8000000000000400000000000200000001005F
:100A9000100000000800000000000000000000003E
:100AA00000400000001000000008000000200000CE
:100AB0002000000002000000008000000004000090
:100AC0000800000002000000040000000100000017
:100AD0000000000010000000000100000002000003
:100AE0000010000000800000000001000000020073
:100AF00000040000000800001020408090A0C0D03A
:100B0000E0F00203040501000100080002000400F7
:100B100020001000400080000000000100020020C2
:100B200000100040008000040008000000210024A4
:100B30000027002A0000002200250028002B0000CA
:100B400000200023002600290004040204040202FD
:100B5000010101010101030304040404030303036D
:100B60000303020202020201010102044080081094
:100B700001020408102002010408102004081020BB
:100B800040800102204080408000000007060102F2
:100B9000000000000000000000000403000000004E
:100BA000000000000000000000494E46494E495434
:100BB000594E414ECDCCCC3D0AD7233C17B7D13846
:100BC00077CC2B329595E6241FB14F0A00002041C7
:100BD0000000C84200401C4620BCBE4CCA1B0E5A36
:100BE000AEC59D74EA0F607F208711241FBECFEF32
:100BF000D0E4DEBFCDBF12E0A0E0B1E0EAE2FBE16D
:100C000001E00BBF02C007900D92AA3CB107D9F7D3
:100C10001BBE1BE0AAECB2E001C01D92A032B107DE
:100C2000E1F71BE0CAEEDBE004C02297FE010E9460
:100C30004D8DC43ED107C9F70E94388A0C94938D1C
:100C4000DFC96627772768C0FC0188279927E894C1
:100C500021912032E9F3293010F02E30C8F32B32E5
:100C600039F02D3231F4689403C04ED0820F911DBB
:100C7000219120532A30C8F31EF4909581959F4FFF
:100C800008954AEC52E00EC0FB01DC014150504097
:100C900030F08D910190801919F40020B9F7881B6C
:100CA000990B0895009731F4DA018D919C9100978A
:100CB00009F40EC0DC01FB013D912191222319F0C2
:100CC0003217C9F3FACF332331F4DA011D921C92A3
:100CD0008827992708951197AF93BF93FB013D9102
:100CE0002191321771F4332321F488279927119722
:100CF00002C01E921196FA01A193B0839F918F9129
:100D00000895222369F7EACF7AE0979F902D879F75
:100D1000802D910D11240895A0E0B0E0E2E9F6E005
:100D20000C94628DEC015B016115710519F0FB01FA
:100D300091838083F9908F2D90E00E94518D892BB3
:100D4000C9F7FDE2FF1621F4F990EE24E39405C003
:100D50002BE2F21609F4F990EE248E0101501040B6
:100D6000C80169EA7BE043E050E033D1892BF9F414
:100D70008E010E5F1F4FC8016CEA7BE045E050E03A
:100D800028D1892B19F48E01095F1F4FA114B104DA
:100D900019F0F50111830083E0FC04C070E090E0DD
:100DA00080E813C070E090E080E86FEF07C1C801F1
:100DB00061EB7BE043E050E00CD1892B69F4A11496
:100DC000B10429F470E090E080EC6FE7F7C0229660
:100DD000F501D183C083F6CF8824992440E050E008
:100DE00060E070E0EF2DE053EA30A0F5F2E0EF2A8A
:100DF0008E2D90E09C0128703070E2FE06C0232BFF
:100E000079F50894811C911C2BC0232B19F00894B0
:100E100081089108DB01CA0112E0880F991FAA1FFF
:100E2000BB1F1A95D1F7480F591F6A1F7B1F440F2C
:100E3000551F661F771F4E0F511D611D711D4839CB
:100E400029E9520729E9620729E1720748F084E09D
:100E5000E82A06C0EE3F31F4E3FC39C098E0E92A05
:100E6000F990C0CFE53311F0E53189F529912D32A4
:100E700019F4E0E1EE2A05C02B3219F081E090E090
:100E800003C0299182E090E0E22FE053EA3018F0AD
:100E9000C81BD90B1CC020E030E0FCE020383F0725
:100EA0005CF4C901880F991F880F991F280F391FFB
:100EB000220F331F2E0F311DE991E053EA3068F302
:100EC000E4FE03C0309521953F4F820E931ECE2C39
:100ED000DD24E1FE07C0A114B10421F02197F50142
:100EE000D183C083CB01BA010E94AA8B7B018C0104
:100EF000F3E0CF22DD2423E0C216D10421F417FB56
:100F0000109517F9109557016801C801B70120E045
:100F100030E040E050E00E940D8B882309F44AC085
:100F200097FE0DC028ECE22E2BE0F22E90948194D7
:100F300091089394C0E2D0E000E010E012C090EE7F
:100F4000E92E9BE0F92EF6CFF701259135914591D9
:100F50005491C601B5010E948C8C5B016C018C1A06
:100F60009D0A8C169D0684F7D595C7950F5F1F4F78
:100F70000630110529F08CEF9FEFE80EF91EF1CF36
:100F8000C501D6017C018D018C2D880F8D2D881F08
:100F90008F3F51F0C601B50120E030E040E050E065
:100FA0000E940D8B882331F482E290E090931F0B16
:100FB00080931E0B7E2D9F2D802F612F272F392F81
:100FC000482F562FB901CA01CDB7DEB7ECE00C941B
:100FD0007E8DFB01DC014150504088F08D918134C1
:100FE0001CF08B350CF4805E659161341CF06B3520
:100FF0000CF4605E861B611171F3990B0895881BD8
:10100000FCCF2F923F924F925F926F927F928F927E
:101010009F92AF92BF92CF92DF92EF92FF920F9387
:101020001F93DF93CF9300D000D0CDB7DEB71B0165
:101030002C0139014A01A982BA82CB82DC82CA0121
:10104000B901A80197010E940D8B88230CF057C0AD
:10105000C201B101A40193010E94468A5B016C01A7
:10106000C801B701A40193010E94468A7B018C014B
:10107000698D7A8D8B8D9C8D29813A814B815C8124
:101080000E94468A9B01AC01C801B7010E94118BE6
:101090009B01AC01C601B5010E94118B7B018C0143
:1010A000298D3A8D4B8D5C8D0E94818C1816A4F190
:1010B000C801B70129813A814B815C810E940D8B67
:1010C000882324F4E980FA800B811C81B701C801D0
:1010D0000F900F900F900F90CF91DF911F910F9174
:1010E000FF90EF90DF90CF90BF90AF909F908F9048
:1010F0007F906F905F904F903F902F900895C40124
:10110000B301A20191010E94468A5B016C01C401F6
:10111000B301A8019701A8CFE98CFA8C0B8D1C8D27
:10112000D5CFF999FECFE4EDF8E021E030E0F99970
:10113000FECF32BD21BDF89A80B580832F5F3F4F2F
:1011400089E0E230F80711F03196F1CF8091E7089D
:101150009091E808A091E908B091EA08809394037F
:1011600090939503A0939603B09397038091EB0817
:101170009091EC08A091ED08B091EE08809398034F
:1011800090939903A0939A03B0939B038091EF08E7
:101190009091F008A091F108B091F20880939C031F
:1011A00090939D03A0939E03B0939F030895F99994
:1011B000FECFE4EDF8E021E030E0F999FECF32BD5A
:1011C00021BDF89A80B59081891759F0F999FECF21
:1011D0001FBA32BD21BD90BD0FB6F894FA9AF99AA4
:1011E0000FBE2F5F3F4F89E0E230F80711F03196D4
:1011F000E4CF8091E7089091E808A091E908B091C8
:10120000EA088093940390939503A0939603B09378
:1012100097038091EB089091EC08A091ED08B091B4
:10122000EE088093980390939903A0939A03B09348
:101230009B038091EF089091F008A091F108B09184
:10124000F20880939C0390939D03A0939E03B09318
:101250009F03089580E090E0A0E2B1E48093D40879
:101260009093D508A093D608B093D70880E090E07B
:10127000A0E0B0E48093D8089093D908A093DA084E
:10128000B093DB0880E090E0A0E4B0E48093DC0859
:101290009093DD08A093DE08B093DF0880E090E033
:1012A000A4E3B3E48093E0089093E108A093E208FC
:1012B000B093E30881E08093E40888E08093E50838
:1012C00089E18093E6088FE692E1A3E8BAE3809390
:1012D000E7089093E808A093E908B093EA0886EA43
:1012E0009BE9A4E4BBE38093EB089093EC08A09304
:1012F000ED08B093EE088FE892ECA5EFBCE3809385
:10130000EF089093F008A093F108B093F20880E002
:1013100090E0A0E0B0E08093F7089093F808A093E5
:10132000F908B093FA088093F3089093F408A09317
:10133000F508B093F60880E090E0A0E8BFE3809362
:10134000FF0890930009A0930109B09302098093CC
:10135000FB089093FC08A093FD08B093FE0827CFEC
:10136000DF93CF930F92CDB7DEB7F999FECFF999FE
:10137000FECF12BC11BCF89A80B58130E1F08983B0
:1013800069DFF999FECFF999FECF12BC11BCF89A2A
:1013900080B5813061F0F999FECF1FBA12BC11BC43
:1013A00081E080BD0FB6F894FA9AF99A0FBE0F90BB
:1013B000CF91DF91089580E0FACFCF92DF92EF9244
:1013C000FF920F931F93CF93DF936C01EB01790191
:1013D0008A01CA01B90120E030E048EC52E40E94E1
:1013E000818C181654F40F2EF0E0EF2EF0E0FF2E53
:1013F000F8EC0F2FF2E41F2FF02DC801B70120E009
:1014000030E04AE753E40E948C8C20E030E048EC66
:1014100052E40E94118B0E947E8B26E0C216D104FA
:10142000C9F027E0C216D10449F0DF91CF911F9196
:101430000F91FF90EF90DF90CF90089570938B0005
:1014400060938A00C430D10589F0259771F72898F8
:10145000299AEBCF7093890060938800C430D1053E
:1014600041F0259711F7469A4798DFCF289A299897
:10147000DCCF4698479AD9CF2F923F924F925F92F6
:101480006F927F928F929F92AF92BF92CF92DF9294
:10149000EF92FF920F931F93DF93CF93CDB7DEB7F9
:1014A00028970FB6F894DEBF0FBECDBF1B012C01ED
:1014B00039014A01E982FA820B831C83AD82BE8224
:1014C000CF82D88680914F03882309F420C260918F
:1014D0008C0370918D0380918E0390918F0397FD03
:1014E000DFC2C201B101A40193010E94468A7B01BF
:1014F0008C01A090E202B090E302C090E402D09090
:10150000E502C801B701A60195010E94468A3B0188
:101510004C0120E030E040E85FE30E94818C181627
:101520000CF089C2C601B50120E030E040E85FE37D
:101530000E94478A7B018C01E092E202F092E30272
:101540000093E4021093E502C801B701209104035F
:101550003091050340910603509107030E94468A8B
:101560003B014C01609310037093110380931203AD
:10157000909313032091D4083091D5084091D60858
:101580005091D7080E948C8C1B012C01609314038E
:10159000709315038093160390931703C401B3014E
:1015A0002D813E814F8158850E948C8C20910C03A7
:1015B00030910D0340910E0350910F030E94478A12
:1015C0007B018C0120E030E040E85FEB0E940D8B56
:1015D00088230CF444C2C801B70120E030E040E8A1
:1015E0005FE30E94818C181654F40F2EF0E0EF2E6A
:1015F000F0E0FF2EF0E80F2FFFE31F2FF02DE09219
:101600000C03F0920D0300930E0310930F036091EF
:10161000D8087091D9088091DA089091DB0820E011
:1016200030E048EC52E40E948C8CA80197010E94A3
:101630008C8C5B016C016093180370931903809389
:101640001A0390931B036091DC087091DD08809170
:10165000DE089091DF0820E030E048EC52E40E9480
:10166000118B7B018C01C401B301209108033091DF
:10167000090340910A0350910B030E94468A9B0183
:10168000AC01C801B7010E948C8C2D813E814F8135
:1016900058850E94118B7B018C0160931C03709311
:1016A0001D0380931E0390931F03609208037092A2
:1016B000090380920A0390920B03C201B101A601B3
:1016C00095010E94478AA80197010E94478A5B0101
:1016D0006C01609320037093210380932203909305
:1016E000230380915103882309F4C7C060918C03C0
:1016F00070918D0380918E0390918F030E94AC8B2B
:101700003B014C0120E030E04CE852E40E94118B98
:101710007B018C0120E030E040E050E00E94818CB1
:1017200018160CF0A7C169817A818B819C81A80170
:1017300097010E94468A7B018C0120E030E040E066
:1017400050E00E940D8B88230CF49FC1C601B501A7
:10175000A80197010E94468A609324037093250391
:101760008093260390932703C601B501A801970132
:101770000E94478A609328037093290380932A0369
:1017800090932B036091240370912503809126038D
:10179000909127032091FB083091FC084091FD08AF
:1017A0005091FE080E948C8C7B018C016093240375
:1017B0007093250380932603909327036091280359
:1017C0007091290380912A0390912B032091FF08A7
:1017D0003091000940910109509102090E948C8CBE
:1017E000609328037093290380932A0390932B031B
:1017F000C801B70120E030E040E050E00E94818C59
:1018000088230CF410C186E090E064E070E0A80149
:101810009701D3DDE0902803F090290300912A037B
:1018200010912B03C801B70120E030E040E050E008
:101830000E94818C88230CF4EEC087E090E064E085
:1018400070E0A8019701B9DD28960FB6F894DEBFC5
:101850000FBECDBFCF91DF911F910F91FF90EF9001
:10186000DF90CF90BF90AF909F908F907F906F90C0
:101870005F904F903F902F9008958091520388235E
:1018800009F4B8C060918C0370918D0380918E0330
:1018900090918F030E94AC8B3B014C0120E030E023
:1018A0004CE852E40E94118B7B018C0120E030E077
:1018B00040E050E00E94818C18160CF010C1698144
:1018C0007A818B819C81A80197010E94468A7B01C5
:1018D0008C0120E030E040E050E00E940D8B882336
:1018E0000CF4F2C0C601B501A80197010E94478A15
:1018F000609324037093250380932603909327031A
:10190000C601B501A80197010E94468A33CF809194
:101910005003882321F160918C0370918D03809195
:101920008E0390918F03161617061806190684F475
:101930000E94AC8B20E030E04CE852EC0E94118B0E
:101940009B01AC01C401B3010E94478A3B014C01D9
:10195000C201B101A40193010E94478AC8CD8091C0
:10196000E501882309F4ADC08091D4029091D5029D
:10197000A091D602B091D702E090D802F090D9029F
:101980000091DA021091DB02E80EF91E0A1F1B1FFC
:101990008091900390919103A0919203B091930351
:1019A000A8019701281B390B4A0B5B0B8091E408B7
:1019B000882309F49FC0DA01C90157FD15C181349C
:1019C0006FE1960760E0A60760E0B6070CF0F8C08C
:1019D000813AEFE09E07E0E0AE07E0E0BE070CF4DE
:1019E0000BC1CA01B9010E94AC8B20E030E048E491
:1019F00054EC94C0A0922403B0922503C092260315
:101A0000D0922703A0922803B0922903C0922A0300
:101A1000D0922B03B7CEA8019701505887E090E0F1
:101A200065E070E010CFA8019701505886E090E083
:101A300065E070E0EECEC401B30120E030E040E8A4
:101A40005FEB0E940D8B88230CF076CDC601B501AB
:101A500020E030E040E85FE30E94468A6BCD0F2E25
:101A6000F0E0EF2EF0E0FF2EF0E80F2FFFEB1F2F3E
:101A7000F02DC5CDC401B30120E030E04CE852ECBC
:101A80000E94118B7B018C014ECE0F2EF0E0EF2EC9
:101A9000F0E0FF2EF0E00F2FF0E01F2FF02D56CEDC
:101AA0000E94AC8B20E030E04CE852E40E94118BA5
:101AB0009B01AC01C401B3010E94478A3B014C0168
:101AC00010CD8201710115CD0F2EF0E0EF2EF0E068
:101AD000FF2EF0E00F2FF0E01F2FF02D03CFC401F9
:101AE000B30120E030E04CE852EC0E94118B7B0106
:101AF0008C01E5CEDA01C90189519C4FAF4FBF4F30
:101B00008F5C9740A040B04008F063C0CA01B901A3
:101B10000E94AC8B20E030E04AEF53EC0E94118B26
:101B20009B01AC01C201B1010E94478A7B018C017B
:101B300060918C0370918D0380918E0390918F033F
:101B40000E94AC8B20E030E040E752EC0E94118B09
:101B50009B01AC01C801B7010E94478A7B018C013F
:101B60006090E0087090E1088090E2089090E308AF
:101B7000C401B30120E030E040E251E40E94468A13
:101B80005B016C01C801B701A60195010E940D8B94
:101B900088239CF0C401B30120E030E040E251E42E
:101BA0000E94478A5B016C01C801B701A60195013B
:101BB0000E94818C18160CF09CCC8601750199CC82
:101BC000CA01B9010E94AC8B20E030E046E154EC40
:101BD000A5CFE0929003F0929103009392031093AB
:101BE000930382017101A4CF88279927DC01821B0E
:101BF000930BA40BB50BE3CE895E9340A040B0409D
:101C00000CF484CFCA01B9010E94AC8B20E030E013
:101C10004AE754EC83CF8630910559F0079709F0D5
:101C2000089510928B008AEF80938A00289A299A4F
:101C30000895109289008AEF80938800469A479A07
:101C4000089586E090E0E7DF87E090E0E4DF80E061
:101C500090E0A0E0B0E08093080390930903A09384
:101C60000A03B0930B0380930C0390930D03A0938E
:101C70000E03B0930F032091D4023091D50240910E
:101C8000D6025091D7028091D8029091D902A091AA
:101C9000DA02B091DB02820F931FA41FB51F80935D
:101CA000900390939103A0939203B0939303809138
:101CB000E0089091E108A091E208B091E3088093D8
:101CC000E2029093E302A093E402B093E502089548
:101CD00099B180B1969596958295869586958370F3
:101CE000982790FF14C08091D4029091D502A091C2
:101CF000D602B091D7020196A11DB11D8093D402E6
:101D00009093D502A093D602B093D7020895809104
:101D1000D4029091D502A091D602B091D70201973A
:101D2000A109B109EBCF89B190B1869586958695C9
:101D300080958170991F9927991F8917A1F080912B
:101D4000D8029091D902A091DA02B091DB020196FB
:101D5000A11DB11D8093D8029093D902A093DA02FD
:101D6000B093DB0208958091D8029091D902A0919E
:101D7000DA02B091DB020197A109B109EBCFFC01B6
:101D8000A081B1819D0171E0761778F48281938101
:101D90008A179B0734F4DC01C9017F5F32969C01EE
:101DA000F3CF28173907CCF3F7CF80E02A1B3B0B82
:101DB0002417350708F481E00895439888EF8EBD15
:101DC0000DB407FEFDCF1EBC0DB407FEFDCF439A38
:101DD0008EB5807C8034E9F0813428F08038A9F118
:101DE000803C99F00895882309F04BC043988AED10
:101DF0008EBD0DB407FEFDCF81ED8EBD0DB407FE87
:101E0000FDCF439A10920309089581E0809303095E
:101E10000895439888ED8EBD0DB407FEFDCF1EBC1E
:101E20000DB407FEFDCF439A0EB401FC37C04398B2
:101E30008AED8EBD0DB407FEFDCF8BEC8EBD0DB4CB
:101E400007FEFDCF439A83E0E1CF439888ED8EBD36
:101E50000DB407FEFDCF1EBC0DB407FEFDCF439AA7
:101E60000EB401FC0FC043988AED8EBD0DB407FE81
:101E7000FDCF89EC8EBD0DB407FEFDCF439A82E005
:101E8000C5CF089543988AED8EBD0DB407FEFDCFF2
:101E90008BEC8EBD0DB407FEFDCFD4CF43988AEDF9
:101EA0008EBD0DB407FEFDCF89EC8EBD0DB407FECF
:101EB000FDCFE4CFFC0143988AE78EBD0DB407FE49
:101EC000FDCF80E28EBD0DB407FEFDCF439A43984F
:101ED0008AE78EBD0DB407FEFDCF1EBC0DB407FE14
:101EE000FDCF439A20E030E061E070E088E6AB018E
:101EF000421B530B2150304009F467C043988EBDFC
:101F00000DB407FEFDCF1EBC0DB407FEFDCF439AF6
:101F10000EB400FEECCF43988AE88EBD0DB407FEE8
:101F2000FDCF88E18EBD0DB407FEFDCF439A4398E7
:101F30008AED8EBD0DB407FEFDCF81EC8EBD0DB4D4
:101F400007FEFDCF439A439882ED8EBD0DB407FE88
:101F5000FDCF80E68EBD0DB407FEFDCF439A4398BA
:101F60008AEE8EBD0DB407FEFDCF84E08EBD0DB4AC
:101F700007FEFDCF439A88EE43988EBD0DB407FE51
:101F8000FDCF1EBC0DB407FEFDCF439A0EB402FE7A
:101F9000F3CFCF0112DF43988AEC8EBD0DB407FE5C
:101FA000FDCF80E28EBD0DB407FEFDCF439A43986E
:101FB00082E88EBD0DB407FEFDCF81E08EBD0DB46D
:101FC00007FEFDCF439A80E00895452B09F0A3CF8B
:101FD0008FEF08954F925F926F927F928F929F92B0
:101FE000AF92BF92CF92DF92EF92FF920F931F9327
:101FF0008FE692E1A3E8BAE380939403909395036C
:10200000A0939603B093970386EA9BE9A4E4BBE30D
:102010008093980390939903A0939A03B0939B03A2
:102020008FE892ECA5EFBCE380939C0390939D0313
:10203000A0939E03B0939F0380E090E0A0E0B0E007
:102040008093A4039093A503A093A603B093A70342
:102050008093AC039093AD03A093AE03B093AF0312
:102060008093B0039093B103A093B203B093B303F2
:102070008093B4039093B503A093B603B093B703D2
:102080008093B8039093B903A093BA03B093BB03B2
:102090001CEC812E13E0912EC4010E94DE53B0E1AE
:1020A0004B2EB1E05B2E83E494E0B40140E051E0BC
:1020B00092010BE111E0A6E3EA2EA1E0FA2EFCE387
:1020C000CF2EF1E0DF2EE8E8AE2EE1E0BE2E0E943A
:1020D0009A7682E694E0B4010E945C7181E195E019
:1020E000B4010E94C87A82E2682E85E0782EC3018E
:1020F000B4010E94D13184E196E0B301A2012DE840
:1021000031E00E94B74988E597E0B30140E020E064
:1021100000E0EE24CC24AA240E94CA418AE498E07C
:10212000B30140E00E94FF5E1F910F91FF90EF907E
:10213000DF90CF90BF90AF909F908F907F906F90E7
:102140005F904F9008950F931F930AED19E0C80117
:1021500065E178E00E942F88C80163EE77E00E9475
:102160002F88C80168EB77E00E942F88C80162E9D8
:1021700077E00E942F88C8016CE777E00E942F88E3
:10218000C8016CE577E00E942F88C80161E477E020
:102190000E942F88C80168E277E00E942F88C8015A
:1021A00065E077E00E942F88C80162EE76E00E9429
:1021B0002F88C8016FEB76E00E942F88C80160E984
:1021C00076E00E942F88C80161E576E00E942F88A2
:1021D000C8016BE176E00E942F88C80169EE75E0C6
:1021E0000E942F88C80162EA75E00E942F88C8010A
:1021F00062E875E00E942F88C80163E675E00E94DE
:102200002F88C80160E475E00E942F88C8016CE146
:1022100075E00E942F88C80163E075E00E942F8856
:10222000C80166ED74E00E942F88C80164EA74E07A
:102230000E942F88C8016AE774E00E942F88C801B5
:1022400065E574E00E942F88C80166EF73E00E9484
:102250002F881F910F910895CF93DF9380912206CD
:10226000882329F080917A03882309F06CC0CAED95
:10227000D9E08091D102882309F068C08091D00212
:10228000882309F06DC08091CD02882309F0B3C086
:102290008091CE02882309F00CC18091D20288235C
:1022A00009F0D0C08091CC02882309F01FC1809131
:1022B000CF02882309F451C00E946F8320913C0310
:1022C00030913D0340913E0350913F03621B730BDD
:1022D000840B950B655F714080409040F0F10E9447
:1022E0006F8360933C0370933D0380933E03909310
:1022F0003F03CE0162ED70E00E94EC874091DC026A
:102300005091DD026091DE027091DF02CE0122E089
:1023100030E00E94148ACE0160ED70E00E94EC87EC
:1023200060913C0370913D0380913E0390913F0387
:102330000E94AA8B20E030E64AE657E40E94118B07
:10234000AB01BC0152C0C6E1D6E093CF1092D102DE
:10235000CE0165E071E00E942F88DF91CF91089552
:102360001092D002CE0162E071E00E94EC874091B1
:10237000D4085091D5086091D6087091D708CE0145
:1023800022E030E00E94148ACE0160E071E00E94F9
:10239000EC874091D8085091D9086091DA08709183
:1023A000DB08CE0122E030E00E94148ACE016EEFFD
:1023B00070E00E94EC874091DC085091DD0860914C
:1023C000DE087091DF08CE0122E030E00E94148A1E
:1023D000CE016CEF70E00E94EC874091E0085091D4
:1023E000E1086091E2087091E308CE0122E030E05C
:1023F0000E94168AB2CF1092CD02CE0169EF70E032
:102400000E94EC87CE016091E4084AE050E00E940F
:10241000CD88CE0167EF70E00E94EC87CE0160911D
:10242000E5084AE050E00E94CD88CE0165EF70E0FB
:102430000E94EC87CE016091E6084AE050E00E94DD
:10244000DE888BCF1092D202CE0160EE70E00E9447
:10245000EC8740919403509195036091960370919D
:102460009703CE0124E030E00E94148ACE016EED85
:1024700070E00E94EC87409198035091990360911D
:102480009A0370919B03CE0124E030E00E94148AED
:10249000CE016CED70E00E94EC8740919C0350915E
:1024A0009D0360919E0370919F03CE0124E030E074
:1024B0009FCF1092CE02CE0162EF70E00E94EC87B7
:1024C0006091E3017091E401CE010E943889CE0150
:1024D00060EF70E00E94EC87CE0161E04AE050E0DE
:1024E0000E94CD88CE0163EE70E035CF0E946F83ED
:1024F000209138033091390340913A0350913B03C6
:10250000621B730B840B950B633371058105910579
:1025100008F4CDCE0E946F83609338037093390323
:1025200080933A0390933B03CE0169ED70E00E94E3
:10253000EC874091F8025091F9026091FA02709193
:10254000FB02CE0122E030E00E94148ACE0167ED4A
:1025500070E00E94EC87409100035091010360916C
:10256000020370910303CE0122E030E00E94148A3E
:10257000CE0165ED70E00E94EC874091040350911C
:10258000050360910603709107032FCF2F923F92AE
:102590004F925F926F927F928F929F92AF92BF9273
:1025A000CF92DF92EF92FF920F931F93DF93CF931F
:1025B000CDB7DEB72C970FB6F894DEBF0FBECDBFF8
:1025C0001C014B012D833E834F835887E986FA8691
:1025D0000B871C87E090D402F090D5020091D602C0
:1025E0001091D702A090D802B090D902C090DA0220
:1025F000D090DB028AED99E06EE071E00E942F88B6
:1026000038C0D1016D917D918D919C912DEC3CEC68
:102610004CEC5DE30E94478AF10160837183828301
:102620009383D601C50189539F4FAF4FBF4F8F583A
:102630009140A040B04008F0C6C0D4016D917D919A
:102640008D919C912DEC3CEC4CEC5DE30E94478A13
:10265000F401608371838283938364E670E080E099
:1026600090E00E94E783E980FA800B811C8163017E
:1026700052018AED99E00E94B5868F5F9F4F09F065
:10268000C8C06D817E818F819885D1012D913D914A
:102690004D915C910E948C8C9B01AC0186E090E096
:1026A00064E070E00E94DD0969857A858B859C85F0
:1026B000F40120813181428153810E948C8C9B01E5
:1026C000AC0187E090E064E070E00E94DD09809159
:1026D000D4029091D502A091D602B091D7028983FD
:1026E0009A83AB83BC838E199F09A00BB10B7C012D
:1026F0008D014090D8025090D9026090DA0270901B
:10270000DB02D301C2018A199B09AC09BD095C0136
:102710006D018AED99E0B801A7012AE030E00E943E
:10272000FA888AED99E06CE071E00E94EC878AED0E
:1027300099E0B601A5012AE030E00E94FA888AED0E
:1027400099E06AE071E00E94EC87D1014D915D91C2
:102750006D917C918AED99E022E030E00E94148A2C
:102760008AED99E068E071E00E94EC87F401408115
:102770005181628173818AED99E022E030E00E940C
:10278000168AD801C70189539F4FAF4FBF4F8F584B
:102790009140A040B04008F434CFB801A70117FD24
:1027A00028C04C3C5105610571050CF43ACFD101AC
:1027B0006D917D918D919C912DEC3CEC4CEC5DE309
:1027C0000E94468A29CFB601A501D7FC1AC04C3C0D
:1027D0005105610571050CF440CFD4016D917D91D7
:1027E0008D919C912DEC3CEC4CEC5DE30E94468A73
:1027F0002FCF70956095509541955F4F6F4F7F4FEC
:10280000D0CF70956095509541955F4F6F4F7F4F3A
:10281000DECFD101ED90FD900D911C9120C086E09E
:1028200090E064E070E0A80197010E94DD0987E074
:1028300090E064E070E0A80197010E94DD0962E386
:1028400070E080E090E00E94E783C801B70120E0DB
:1028500030E040E85FE30E94468A7B018C01C801BA
:10286000B70120E030E040E050E00E94818C181673
:10287000B4F286E090E0CFD987E090E0CCD92C96F6
:102880000FB6F894DEBF0FBECDBFCF91DF911F9181
:102890000F91FF90EF90DF90CF90BF90AF909F90FF
:1028A0008F907F906F905F904F903F902F90089502
:1028B0006F927F928F929F92AF92BF92CF92DF9250
:1028C000EF92FF920F931F93DF93CF93CDB7DEB7B5
:1028D00028970FB6F894DEBF0FBECDBF8AED99E002
:1028E00061EB72E00E942F888AED99E00E94B58624
:1028F0008F5F9F4FC9F38AED99E067E372E00E9412
:102900002F8860ED77E080E090E00E94E78380E030
:1029100090E0A0E2B1E489839A83AB83BC838D838A
:102920009E83AF83B887CE010196BE016B5F7F4F58
:1029300020E030E040E85FE379018A0127DE8AED9C
:1029400099E068E172E00E94EC8749815A816B81CD
:102950007C818AED99E022E030E00E94148A8AEDC1
:1029600099E066E172E00E94EC874D815E816F81A3
:1029700078858AED99E022E030E00E94168AA980ED
:10298000BA80CB80DC80ED80FE800F811885C60187
:10299000B501A80197010E94818C18160CF0DEC0C9
:1029A00080E090E0A0E8BFE38093FB089093FC08F0
:1029B000A093FD08B093FE08C801B701A6019501D8
:1029C0000E94118B6093FF087093000980930109A6
:1029D000909302098AED99E064EF71E00E94EC8720
:1029E0004091FB085091FC086091FD087091FE0831
:1029F0008AED99E022E030E00E94148A8AED99E0A5
:102A000062EF71E00E94EC874091FF08509100094D
:102A100060910109709102098AED99E022E030E0AD
:102A20000E94168A8AED99E065E871E00E942F887D
:102A300060ED77E080E090E00E94E78380E090E046
:102A4000A0E2B1E48D839E83AF83B88789839A83A4
:102A5000AB83BC832091FB083091FC084091FD08BA
:102A60005091FE08E090FF08F090000900910109E4
:102A700010910209CE010196BE016B5F7F4F86DD8A
:102A800099808A807B806C801D810E81FF80E88424
:102A9000692D782D872D962D212F302F4F2D5E2DCE
:102AA0000E94818C18160CF474C0812F902FAF2DCA
:102AB000BE2D5C016D01692D782D872D962D212F5E
:102AC000302F4F2D5E2D0E940D8B87FD67C0812F0B
:102AD000902FAF2DBE2D7C018D018AED99E06DE622
:102AE00071E00E94EC87C601B501A80197010E9420
:102AF000468AA60195010E94118B20E030E048EC47
:102B000052E40E948C8CAB01BC018AED99E022E07A
:102B100030E00E94148A8AED99E062E971E00E9437
:102B2000278A0E94D7088AED99E06BE471E00E9441
:102B30002F8828960FB6F894DEBF0FBECDBFCF9179
:102B4000DF911F910F91FF90EF90DF90CF90BF909A
:102B5000AF909F908F907F906F900895C601B501C0
:102B6000A80197010E94118B6093FB087093FC08E9
:102B70008093FD089093FE0880E090E0A0E8BFE31A
:102B80008093FF0890930009A0930109B093020974
:102B900021CF892D982DA72DB62D8BCF892D982D3E
:102BA000A72DB62D98CFBF92CF92DF92EF92FF92D2
:102BB0000F931F93CF93DF93182F062FF72EB42E6A
:102BC00081E599E068E60E94267F81E599E0612F22
:102BD0000E94A77F81E599E060E00E94D67FC82E21
:102BE0008823C1F581E599E068E64B2D21E00E943C
:102BF000E87F802F9F2D9C01E901DD240DC081E538
:102C000099E00E94307F892BE9F181E599E00E94EB
:102C1000397F8883D3942196DB1448F581E599E0C8
:102C20000E94307F892B89F70E947D837B018C0174
:102C30000E947D836E197F09800B910B64367105AC
:102C400081059105E0F681E599E00E94307F892BAE
:102C5000B1F6EECF8AED99E064E878E00E94EC8767
:102C60008AED99E06C2D4AE050E00E94DE888C2DC0
:102C7000DF91CF911F910F91FF90EF90DF90CF9058
:102C8000BF9008958AED99E064E778E00E942F886C
:102C900005E0C02EECCFAF92BF92CF92DF92EF92C1
:102CA000FF920F931F93DF93CF93CDB7DEB7E297D9
:102CB0000FB6F894DEBF0FBECDBF5E010894A11C15
:102CC000B11C650183E3E82EF12CEC0EFD1E83E4BC
:102CD00060EF72E042E067DF8823C9F71091F002ED
:102CE00000E08091F10290E0802B912BF60181931E
:102CF00091936F016AE070E080E090E00E94E783CA
:102D0000CE14DF0421F7CE01019669E140ED57E0D2
:102D100036D88823E1F1E090EC02F090ED020091CA
:102D2000EE021091EF02F501619171915F01882728
:102D300077FD8095982F0E94AC8B9B01AC01C80158
:102D4000B7010E94478A7B018C01AC14BD0459F77E
:102D500020E030E048EC51E40E94118B6093EC02DB
:102D60007093ED028093EE029093EF02E2960FB61D
:102D7000F894DEBF0FBECDBFCF91DF911F910F91B1
:102D8000FF90EF90DF90CF90BF90AF9008958AEDC5
:102D900099E069EB70E00E94EC8785E061E00E94B9
:102DA000EB84FFCF4F925F926F927F928F929F92B0
:102DB000AF92BF92CF92DF92EF92FF920F931F9349
:102DC000DF93CF93CDB7DEB7C456D0400FB6F8949B
:102DD000DEBF0FBECDBF8AED99E063E873E00E94CD
:102DE0002F888AED99E00E94B5868F5F9F4FC9F3C7
:102DF000CC24DD245E010894A11CB11C23E3822EA7
:102E0000912C8C0E9D1E8DE360EF72E044E0CBDED2
:102E10008823C9F7F501EC0DFD1DF090F002EE24BA
:102E20008091F10290E08E299F2991838083F401A3
:102E3000EC0DFD1D1091F20200E08091F30290E094
:102E4000802B912B918380836AE070E080E090E09A
:102E50000E94E78382E090E0C80ED91E92E3C91673
:102E6000D10489F6C50169E148EE53E00E94BF0E26
:102E7000882359F48AED99E063E673E00E94EC87B9
:102E800085E061E00E94EB84FFCFC40169E148EE78
:102E900053E00E94BF0E882369F3A090F708B0901A
:102EA000F808C090F908D090FA08E090F308F09084
:102EB000F4080091F5081091F608882499242E0151
:102EC0000894411C511C93E3692E712C6C0E7D1EDD
:102ED000F201E80DF91D60817181882777FD8095E9
:102EE000982F0E94AC8B9B01AC01C801B7010E94D6
:102EF000478A7B018C01F301E80DF91D6081718126
:102F0000882777FD8095982F0E94AC8B9B01AC01A0
:102F1000C601B5010E94478A5B016C0182E090E026
:102F2000880E991E92E38916910491F6C801B701A3
:102F300020E030E048EC51E40E94118B7B018C01D1
:102F4000C601B50120E030E048EC51E40E94118B4D
:102F50006093F7087093F8088093F9089093FA0843
:102F6000C801B70120E030E040E050E00E940D8B46
:102F700088230CF468C0C801B70120E030E040E8C5
:102F800056E40E94468A6093F3087093F408809395
:102F9000F5089093F6088AED99E06BE473E00E94DF
:102FA000EC876091F3087091F4088091F508909196
:102FB000F60820E030E040E858E30E948C8CAB013A
:102FC000BC018AED99E022E030E00E94148A8AED8B
:102FD00099E069E473E00E94EC876091F7087091D2
:102FE000F8088091F9089091FA0820E030E040E874
:102FF00058E30E948C8CAB01BC018AED99E022E081
:1030000030E00E94168A0E94D7088AED99E060E2BB
:1030100073E00E942F88CC59DF4F0FB6F894DEBFC3
:103020000FBECDBFCF91DF911F910F91FF90EF9019
:10303000DF90CF90BF90AF909F908F907F906F90D8
:103040005F904F900895C801B70120E030E040E85C
:1030500056E40E94478A97CFDF92EF92FF920F9338
:103060001F93F82E8B01E42ED22E81E599E068E6BD
:103070000E94267F81E599E06F2D0E94A77F81E560
:1030800099E0B8014E2D50E00E94777F81E599E0EC
:103090006D2D0E94D67F082F882369F08AED99E074
:1030A00065E978E00E94EC878AED99E0602F4AE0BC
:1030B00050E00E94DE88802F1F910F91FF90EF90CB
:1030C000DF900895DF93CF930F92CDB7DEB769837A
:1030D000242FBE016F5F7F4F41E0BEDF0F90CF9185
:1030E000DF9108957F928F929F92AF92BF92CF927D
:1030F000DF92EF92FF920F931F93CF93DF93EC0138
:10310000772473947092830310924F0310925003AC
:103110001092E501109251031092520389309105EB
:1031200009F4B0C08830910509F449C2009709F04C
:103130003AC180915A07882309F4F1C188E597E0E4
:1031400061E070E00E94A742853708F476C488E504
:1031500097E061E070E00E94A7428A3810F00C947A
:10316000CA2088E597E061E070E00E94A742082F3E
:1031700088E597E063E070E00E94A74210E0081B3A
:103180001109003111050CF459C388E597E061E09D
:1031900070E00E94A742082F88E597E063E070E0A6
:1031A0000E94A74210E0081B11091016110614F026
:1031B0000C94842288E597E061E070E00E94A742C9
:1031C000E82E88E597E063E070E00E94A742FF24C4
:1031D000E81AF1080027F7FC0095102FC801B70185
:1031E0000E94AC8B7B018C0100D000D08DB69EB6C6
:1031F0000894811C911C6091E60870E080E090E0EA
:103200000E94AA8BF4016083718382839383C80137
:10321000B70120E030E040E050E00F2EF0E0EF2E6C
:10322000F0E0FF2EFFE70F2FF3E41F2FF02D5901E1
:103230006A010E9401080F900F900F900F90609309
:1032400058037093590380935A0390935B0381E072
:1032500080935103C230D10509F448C4C330D1056D
:1032600009F436C1C093D302DF91CF911F910F9122
:10327000FF90EF90DF90CF90BF90AF909F908F9096
:103280007F900895E0907F03F09080030091810388
:1032900010918203C801B70120E030E040E050E027
:1032A0000E94818C18160CF088C200D000D08DB618
:1032B0009EB60894811C911C6091E50870E080E046
:1032C00090E00E94AA8BF4016083718382839383D0
:1032D000C801B70120E030E040E050E00F2EF0E000
:1032E000EF2EF0E0FF2EF0E80F2FFFE31F2FF02D61
:1032F00059016A010E9401080F900F900F900F90E2
:10330000609354037093550380935603909357032F
:1033100070924F03E0907B03F0907C0300917D035B
:1033200010917E03C801B70120E030E040E050E09A
:103330000E94818C18160CF08DC400D000D08DB680
:103340009EB60894811C911C6091E60870E080E0B4
:1033500090E00E94AA8BF40160837183828393833F
:10336000C801B70120E030E040E050E00F2EF0E06F
:10337000EF2EF0E0FF2EF0E80F2FFFE31F2FF02DD0
:1033800059016A010E9401080F900F900F900F9051
:10339000609358037093590380935A0390935B038F
:1033A00081E080935203C130D10509F053CF809161
:1033B0004F08882309F48DC18AE498E061E070E049
:1033C0000E9408608959984008F0F0C78AE498E0A4
:1033D00061E070E00E9408608850974010F40C94FF
:1033E00090238AE498E063E070E00E9408608C011A
:1033F0008AE498E061E070E00E940860081B190B05
:10340000093C11050CF44CC58AE498E061E070E0D9
:103410000E9408608C018AE498E063E070E00E94FA
:103420000860081B190B1016110614F00C94872461
:103430008AE498E061E070E00E9408607C018AE420
:1034400098E063E070E00E940860E81AF90A00273B
:10345000F7FC0095102FC801B7010E94AC8B7B01CF
:103460008C0100D000D08DB69EB60894811C911CB2
:103470006091E60870E080E090E00E94AA8BF40181
:103480006083718382839383C801B70120E030E0B9
:1034900040E050E00F2EF0E0EF2EF0E0FF2EF6E1DE
:1034A0000F2FF5E41F2FF02D59016A010E9401082A
:1034B0000F900F900F900F906093580370935903E3
:1034C00080935A0390935B0381E080935103C6CEAF
:1034D00081E08093E5018091D302833009F4C2CE6C
:1034E0002091D4023091D5024091D6025091D7025A
:1034F0008091D8029091D902A091DA02B091DB02BA
:10350000820F931FA41FB51F809390039093910384
:10351000A0939203B093930310925303A3CE88E534
:1035200097E061E070E00E94A742853708F4FFC190
:1035300088E597E061E070E00E94A7428A3808F0D1
:1035400096C788E597E060E070E00E94A742873365
:1035500008F0C2C388E597E060E070E00E94A742EF
:1035600000D000D08DB69EB60894811C911C90E0CE
:10357000A0E0B0E0BC01CD010E94AA8B7B018C01D0
:103580006091E60870E080E090E00E94AA8BF40170
:103590006083718382839383C801B70120E030E0A8
:1035A00048E552E40F2EF0E0EF2EF0E0FF2EF0E0C1
:1035B0000F2FF0E01F2FF02D570168013ACEE09059
:1035C0007B03F0907C0300917D0310917E03C80182
:1035D000B70120E030E040E050E00E94818C1816F6
:1035E0000CF0EAC100D000D08DB69EB60894811CC4
:1035F000911C6091E50870E080E090E00E94AA8B49
:10360000F4016083718382839383C801B70120E052
:1036100030E040E050E00F2EF0E0EF2EF0E0FF2E23
:10362000F0E10F2FF2E41F2FF02D59016A010E94E3
:1036300001080F900F900F900F90609354037093B8
:103640005503809356039093570370924F03E09075
:103650007F03F09080030091810310918203C801E1
:10366000B70120E030E040E050E00E940D8B88235D
:103670000CF457C7C801B70120E030E040E050E04B
:103680000E94818C18160CF08ECE00D000D08DB622
:103690009EB60894811C911C6091E60870E080E061
:1036A00090E00E94AA8BF4016083718382839383EC
:1036B000C801B70120E030E040E050E00F2EF0E01C
:1036C000EF2EF0E0FF2EF4E30F2FF2E41F2FF02D8A
:1036D00057CE8AE498E06CE070E00E94785F88231F
:1036E00009F4C8C5E090C008F090C1080091C20874
:1036F0001091C308C801B70120E030E044E353E46F
:103700000E94818C18160CF430C7C801B70120E064
:1037100030E044E353E40E940D8B882314F40C94AE
:103720009424E090C408F090C5080091C608109158
:10373000C708C801B70120E030E044E353E40E9429
:10374000818C18160CF450C7C801B70120E030E096
:1037500044E353E40E940D8B88230CF07FCD00D00E
:1037600000D08DB69EB60894811C911C6091E6082D
:1037700070E080E090E00E94AA8BF4016083718386
:1037800082839383C801B70120E030E044E353E42F
:103790000F2EF0E0EF2EF0E0FF2EF7E00F2FF3E416
:1037A0001F2FF02D0F2EF0E0AF2EF0E0BF2EF0E037
:1037B000CF2EF0E0DF2EF02D79CEC801B70120E04A
:1037C00030E040E050E00E940D8B88230CF0A2CD49
:1037D00000D000D08DB69EB60894811C911C6091DB
:1037E000E50870E080E090E00E94AA8BF40160831D
:1037F000718382839383C801B70120E030E040E009
:1038000050E00F2EF0E0EF2EF0E0FF2EF0E80F2F4B
:10381000FFEB1F2FF02D59016A010E9401080F9044
:103820000F900F900F906093540370935503809303
:10383000560390935703709250036CCD88E597E040
:1038400063E070E00E94A742082F88E597E061E0FE
:1038500070E00E94A74210E0081B11090031110519
:103860000CF494C388E597E061E070E00E94A74201
:10387000082F88E597E063E070E00E94A74210E01F
:10388000081B1109101611060CF0E8C488E597E032
:1038900061E070E00E94A742E82E88E597E063E0CF
:1038A00070E00E94A742FF24E81AF1080027F7FC05
:1038B0000095102FC801B7010E94AC8B7B018C01D1
:1038C00000D000D08DB69EB60894811C911C6091EA
:1038D000E60870E080E090E00E94AA8BF40160832B
:1038E000718382839383C801B70120E030E040E018
:1038F00050E00F2EF0E0EF2EF0E0FF2EFFE70F2F4D
:10390000F3E41F2FF02D59016A010E9401080F9066
:103910000F900F900F90609358037093590380930A
:103920005A0390935B0381E08093520393CC88E524
:1039300097E061E070E00E94A74200D000D08DB611
:103940009EB60894811C911C90E0A0E0B0E0BC0100
:10395000CD010E94AA8B7B018C016091E50870E08B
:1039600080E090E00E94AA8BF401608371838283DF
:103970009383C801B70120E030E048EE52E40F2EF7
:10398000F0E0EF2EF0E0FF2EF0E00F2FF0E01F2F21
:10399000F02D570168010E9401080F900F900F90C1
:1039A0000F90609354037093550380935603909344
:1039B000570370924F03C5CDC801B70120E030E036
:1039C00040E050E00E940D8B88230CF040CE00D0E8
:1039D00000D08DB69EB60894811C911C6091E508BC
:1039E00070E080E090E00E94AA8BF4016083718314
:1039F00082839383C801B70120E030E040E050E0CB
:103A00000F2EF0E0EF2EF0E0FF2EF0E10F2FF2ECA2
:103A10001F2FF02D59016A010E9401080F900F908D
:103A20000F900F9060935403709355038093560347
:103A300090935703709250030ACE88E597E063E0B5
:103A400070E00E94A742853708F081CB88E597E0B7
:103A500061E070E00E94A742E82E88E597E063E00D
:103A600070E00E94A74200D000D08DB69EB60894A8
:103A7000811C911CFF24E80EF11C0027F7FC009527
:103A8000102FC801B7010E94AC8B7B018C016091A3
:103A9000E50870E080E090E00E94AA8BF40160836A
:103AA000718382839383C801B70120E030E048E648
:103AB00053E40F2EF0E0EF2EF0E0FF2EF0E00F2F9A
:103AC000F0E01F2FF02D570168010E9401080F90B0
:103AD0000F900F900F906093540370935503809351
:103AE00056039093570370924F033BCB82E694E0CA
:103AF00061E070E040E00E942B728D549D410CF01B
:103B0000DEC282E694E061E070E040E00E942B7249
:103B1000845B924E0CF48CC582E694E063E070E026
:103B200040E00E942B727C0182E694E061E070E04C
:103B300040E00E942B720027F7FC0095102FAA2767
:103B400097FDA095BA2FE81AF90A0A0B1B0BFDE4A2
:103B5000EF16FDE1FF06F0E00F07F0E01F070CF4A1
:103B600001C182E694E061E070E040E00E942B72C7
:103B70007C0182E694E063E070E040E00E942B72FA
:103B80000027F7FC0095102FAA2797FDA095BA2FC4
:103B9000E81AF90A0A0B1B0B1E141F041006110663
:103BA0000CF0B1C582E694E061E070E040E00E9474
:103BB0002B727C0182E694E063E070E040E00E94BA
:103BC0002B720027F7FC0095102FAA2797FDA095D0
:103BD000BA2FE81AF90A0A0B1B0BC801B7010E9499
:103BE000AC8B7B018C0100D000D08DB69EB60894C2
:103BF000811C911C6091E60870E080E090E00E94DA
:103C0000AA8BF4016083718382839383C801B70117
:103C100020E030E040E050E00F2EF0E0EF2EFFEF2C
:103C2000FF2EFFE70F2FF7E41F2FF02D59016A0138
:103C30000E9401080F900F900F900F90609358030F
:103C40007093590380935A0390935B0381E08093B0
:103C5000510308CBC801B70120E030E040E050E05C
:103C60000E940D8B88230CF09ECB00D000D08DB627
:103C70009EB60894811C911C6091E60870E080E07B
:103C800090E00E94AA8BF401608371838283938306
:103C9000C801B70120E030E040E050E00F2EF0E036
:103CA000EF2EF0E0FF2EF0E80F2FFFEB1F2FF02D8F
:103CB00059016A010E9401080F900F900F900F9018
:103CC000609358037093590380935A0390935B0356
:103CD00081E08093510367CB88E597E060E070E076
:103CE0000E94A742893C08F4B5CA88E597E060E0E5
:103CF00070E00E94A74200D000D08DB69EB6089416
:103D0000811C911C90E0A0E0B0E0BC01CD010E94BC
:103D1000AA8B7B018C016091E60870E080E090E066
:103D20000E94AA8BF4016083718382839383C8010C
:103D3000B70120E030E049E453E40F2EF0E0EF2E2D
:103D4000F0E0FF2EFFE70F2FF3E41F2FF02D0F2ED3
:103D5000F0E0AF2EF0E0BF2EF0E0CF2EF0E0DF2E4F
:103D6000F02DD3CD82E694E061E070E040E00E9467
:103D70002B727C0182E694E063E070E040E00E94F8
:103D80002B720027F7FC0095102FAA2797FDA0950E
:103D9000BA2FE81AF90A0A0B1B0BFDE4EF16FDE136
:103DA000FF06F0E00F07F0E01F070CF45BCA82E6A5
:103DB00094E061E070E040E00E942B727C0182E6BA
:103DC00094E063E070E040E00E942B720027F7FC73
:103DD0000095102FAA2797FDA095BA2FE81AF90A87
:103DE0000A0B1B0B1E141F04100611060CF079C6DB
:103DF00082E694E061E070E040E00E942B727C017A
:103E000082E694E063E070E040E00E942B720027BD
:103E1000F7FC0095102FAA2797FDA095BA2FE81A56
:103E2000F90A0A0B1B0BC801B7010E94AC8B7B017E
:103E30008C0100D000D08DB69EB60894811C911CD8
:103E40006091E60870E080E090E00E94AA8BF401A7
:103E50006083718382839383C801B70120E030E0DF
:103E600040E050E00F2EF0E0EF2EFFEFFF2EFFE7D7
:103E70000F2FF7E41F2FF02D59016A010E9401084E
:103E80000F900F900F900F90609358037093590309
:103E900080935A0390935B0381E080935203E2C9BD
:103EA0008AE498E061E070E00E9408608C018AE496
:103EB00098E063E070E00E940860081B190B093C61
:103EC00011050CF4CBC98AE498E061E070E00E942F
:103ED00008608C018AE498E063E070E00E9408606A
:103EE000081B190B101611060CF008C68AE498E09E
:103EF00061E070E00E9408607C018AE498E063E081
:103F000070E00E940860E81AF90A0027F7FC0095A3
:103F1000102FC801B7010E94AC8B7B018C0100D02F
:103F200000D08DB69EB60894811C911C6091E60865
:103F300070E080E090E00E94AA8BF40160837183BE
:103F400082839383C801B70120E030E040E050E075
:103F50000F2EF0E0EF2EF0E0FF2EF6E10F2FF5E44C
:103F60001F2FF02D59016A010E9401080F900F9038
:103F70000F900F90609358037093590380935A03E6
:103F800090935B0381E08093520368C988E597E0D2
:103F90006EE070E00E945142882309F45BC988E515
:103FA00097E061E070E00E94F94820E030E044E3EF
:103FB00053E40E94818C18160CF03DC588E597E00B
:103FC00061E070E00E94F9487B018C0100D000D0D4
:103FD0008DB69EB60894811C911C6091E50870E036
:103FE00080E090E00E94AA8BF40160837183828359
:103FF0009383C801B70120E030E044E353E40F2E7F
:10400000F0E0EF2EF0E0FF2EF8E50F2FF3E41F2F86
:10401000F02D0F2EF0E0AF2EF0E0BF2EF0E0CF2E0F
:10402000F0E0DF2EF02D0E9401080F900F900F900E
:104030000F906093540370935503809356039093AD
:10404000570381E080934F0388E597E062E070E0DA
:104050000E94F94820E030E044E353E40E94818C60
:1040600018160CF0A1C488E597E062E070E00E94A9
:10407000F9487B018C0100D000D08DB69EB6089423
:10408000811C911C6091E60870E080E090E00E9445
:10409000AA8BF4016083718382839383C801B70183
:1040A00020E030E044E353E40F2EF0E0EF2EF0E0A8
:1040B000FF2EF1E60F2FF3E41F2FF02D48CE82E6FE
:1040C00094E063E070E040E00E942B728D549D41CB
:1040D0000CF417CD82E694E061E070E040E00E94CD
:1040E0002B727C0182E694E063E070E040E00E9485
:1040F0002B7200D000D08DB69EB60894811C911C06
:10410000AA2797FDA095BA2F0027F7FC0095102F3E
:104110008E0D9F1DA01FB11FBC01CD010E94AC8B55
:104120007B018C016091E50870E080E090E00E94E6
:10413000AA8BF4016083718382839383C801B701E2
:1041400020E038E64AE656E40F2EF0E0EF2EFEEFD0
:10415000FF2EFFE70F2FF7E41F2FF02D0F2EF0E0BB
:10416000AF2EF0E0BF2EF0E0CF2EF0E0DF2EF02DEE
:104170000E9401080F900F900F900F9060935403CE
:1041800070935503809356039093570381E0809377
:104190004F03C2CC88E597E063E070E00E94A7423D
:1041A0008A3810F40C94B11888E597E061E070E06B
:1041B0000E94A742E82E88E597E063E070E00E9445
:1041C000A74200D000D08DB69EB60894811C911CE9
:1041D000FF24E80EF11C0027F7FC0095102FC80102
:1041E000B7010E94AC8B7B018C016091E50870E007
:1041F00080E090E00E94AA8BF40160837183828347
:104200009383C801B70120E030E04AE853E40F2E61
:10421000F0E0EF2EF0E0FF2EFFEF0F2FF3E41F2F63
:10422000F02D0F2EF0E0AF2EF0E0BF2EF0E0CF2EFD
:10423000F0E0DF2EF02D0E9401080F900F900F90FC
:104240000F9060935403709355038093560390939B
:10425000570381E0809350030C94B11888E597E0F0
:1042600063E070E00E94A742E82E88E597E061E0F5
:1042700070E017CB8AE498E061E070E00E94F25FA2
:104280008A3808F4EDC28AE498E061E070E00E94A8
:10429000F25F00D000D08DB69EB60894811C911CB0
:1042A00090E0A0E0B0E0BC01CD010E94AA8B7B01B0
:1042B0008C016091E50870E080E090E00E94AA8B9C
:1042C000F4016083718382839383C801B70120E086
:1042D00030E04AE053E40F2EF0E0EF2EF0E0FF2E46
:1042E000F6E60F2FF3E41F2FF02D0F2EF0E0AF2E88
:1042F000F0E0BF2EF0E0CF2EF0E0DF2EF02D0E9498
:1043000001080F900F900F900F90609354037093DB
:104310005503809356039093570381E080934F0396
:104320008AE498E060E070E00E94F25F8A3808F466
:1043300059C28AE498E060E070E00E94F25F00D029
:1043400000D08DB69EB60894811C911C90E0A0E030
:10435000B0E0BC01CD010E94AA8B7B018C01609171
:10436000E60870E080E090E00E94AA8BF401608390
:10437000718382839383C801B70120E030E04AE073
:1043800053E40F2EF0E0EF2EF0E0FF2EF6E60F2FB5
:10439000F3E41F2FF02D0F2EF0E0AF2EF0E0BF2E34
:1043A000F0E0CF2EF0E0DF2EF02DDECD8AE498E0B5
:1043B00063E070E00E9408608959984008F406C8DC
:1043C0008AE498E061E070E00E9408607C018AE481
:1043D00098E063E070E00E94086000D000D08DB6E5
:1043E0009EB60894811C911CE80EF91E00E010E0B6
:1043F000C801B7010E94AA8B7B018C016091E5087E
:1044000070E080E090E00E94AA8BF40160837183E9
:1044100082839383C801B70120E030E949E855E47D
:104420000F2EF0E0EF2EF0E0FF2EF8EC0F2FF5E46A
:104430001F2FF02D0F2EF0E0AF2EF0E0BF2EF0E09A
:10444000CF2EF0E0DF2EF02D0E9401080F900F908C
:104450000F900F906093540370935503809356030D
:104460009093570381E080934F030C94F11988E5F2
:1044700097E061E070E00E94A74200D000D08DB6C6
:104480009EB60894811C911C90E0A0E0B0E0BC01B5
:10449000CD010E94AA8B7B018C016091E50870E040
:1044A00080E090E00E94AA8BF40160837183828394
:1044B0009383C801B70120E030E04AE053E40F2EB7
:1044C000F0E0EF2EF0E0FF2EFFE70F2FF3E41F2FB9
:1044D000F02D0F2EF0E0AF2EF0E0BF2EF0E0CF2E4B
:1044E000F0E0DF2EF02D0E9401080F900F900F904A
:1044F0000F906093540370935503809356039093E9
:104500005703709250031DC888E597E063E070E0A0
:104510000E94A742E82E88E597E061E070E00C94E5
:10452000E51800D000D08DB69EB60894811C911C71
:104530006091E60870E080E090E00E94AA8BF401B0
:104540006083718382839383C801B70120E030E0E8
:1045500040E050E00F2EF0E0EF2EF0E0FF2EF4E30D
:104560000F2FF2EC1F2FF02DA3CB00D000D08DB673
:104570009EB60894811C911C6091E50870E080E073
:1045800090E00E94AA8BF4016083718382839383FD
:10459000C801B70120E030E044E353E40F2EF0E01F
:1045A000EF2EF0E0FF2EF8E50F2FF3E41F2FF02D94
:1045B0000F2EF0E0AF2EF0E0BF2EF0E0CF2EF0E0B7
:1045C000DF2EF02D0E9401080F900F900F900F909A
:1045D000609354037093550380935603909357034D
:1045E00081E080934F039DC800D000D08DB69EB669
:1045F0000894811C911C6091E60870E080E090E0D6
:104600000E94AA8BF4016083718382839383C80123
:10461000B70120E030E044E353E40F2EF0E0EF2E4A
:10462000F0E0FF2EF1E60F2FF3E41F2FF02DB3CEB5
:1046300082E694E063E070E040E00E942B72845BCD
:10464000924E0CF069CA82E694E061E070E040E0CE
:104650000E942B727C0182E694E063E070E040E00F
:104660000E942B7200D000D08DB69EB60894811C9B
:10467000911CAA2797FDA095BA2F0027F7FC00955B
:10468000102F8E0D9F1DA01FB11FBC01CD010E94D8
:10469000AC8B7B018C016091E50870E080E090E0DC
:1046A0000E94AA8BF4016083718382839383C80183
:1046B000B70120E038E64AE656EC0F2EF0E0EF2E88
:1046C000F0E0FF2EF0E80F2FF7EC1F2FF02D0F2E4C
:1046D000F0E0AF2EF0E0BF2EF0E0CF2EF0E0DF2EC6
:1046E000F02D0E9401080F900F900F900F90609393
:1046F000540370935503809356039093570381E0BE
:104700008093500309CA82E694E063E070E040E0E1
:104710000E942B727C0182E694E061E070E04ECA58
:104720008AE498E063E070E00E9408608850974057
:1047300010F00C94F1198AE498E061E070E00E94B6
:1047400008607C018AE498E063E070E00E94086001
:1047500000D000D08DB69EB60894811C911CE80E46
:10476000F91E00E010E0C801B7010E94AA8B7B018E
:104770008C016091E50870E080E090E00E94AA8BD7
:10478000F4016083718382839383C801B70120E0C1
:1047900030EE40E655E40F2EF0E0EF2EF0E0FF2E75
:1047A000F8EC0F2FF4E41F2FF02D0F2EF0E0AF2EBA
:1047B000F0E0BF2EF0E0CF2EF0E0DF2EF02D0E94D3
:1047C00001080F900F900F900F9060935403709317
:1047D0005503809356039093570381E080935003D1
:1047E0000C94F1198AE498E060E070E00E94F25FB6
:1047F000853710F00C942E198AE498E060E070E0A0
:104800000E94F25F00D000D08DB69EB60894811C45
:10481000911C90E0A0E0B0E0BC01CD010E94AA8B09
:104820007B018C016091E60870E080E090E00E94DE
:10483000AA8BF4016083718382839383C801B701DB
:1048400020E030E048EE52E40F2EF0E0EF2EF0E0F2
:10485000FF2EF8EC0F2FF1E41F2FF02D0C94D21B3C
:104860008AE498E061E070E00E94F25F853708F02A
:1048700057CD8AE498E061E070E00E94F25F00D0DA
:1048800000D08DB69EB60894811C911C90E0A0E0EB
:10489000B0E0BC01CD010E94AA8B7B018C0160912C
:1048A000E50870E080E090E00E94AA8BF40160834C
:1048B000718382839383C801B70120E030E048EE22
:1048C00052E40F2EF0E0EF2EF0E0FF2EF8EC0F2F69
:1048D000F1E41F2FF02D0F2EF0E0AF2EF0E0BF2EF1
:1048E000F0E0CF2EF0E0DF2EF02D0E9401080F90B7
:1048F0000F900F900F906093540370935503809323
:1049000056039093570381E08093500309CD8AE4C6
:1049100098E063E070E00E9408607C018AE498E01F
:1049200061E070E00C94231A00D000D08DB69EB6E2
:104930000894811C911C6091E50870E080E090E093
:104940000E94AA8BF4016083718382839383C801E0
:10495000B70120E030E044E353E40F2EF0E0EF2E07
:10496000F0E0FF2EF0E10F2FF3E41F2FF02D0F2EBC
:10497000F0E0AF2EF0E0BF2EF0E0CF2EF0E0DF2E23
:10498000F02D0E9401080F900F900F900F906093F0
:10499000540370935503809356039093570381E01B
:1049A000809350030C94911B88E597E062E070E0DF
:1049B0000E94F94820E030E044E353E40E940D8B6C
:1049C000882314F00C942A1988E597E062E070E0DF
:1049D0000E94F9487B018C0100D000D08DB69EB6B4
:1049E0000894811C911C6091E60870E080E090E0E2
:1049F0000E94AA8BF4016083718382839383C80130
:104A0000B70120E030E044E353E40F2EF0E0EF2E56
:104A1000F0E0FF2EF7E00F2FF3E41F2FF02D0F2E05
:104A2000F0E0AF2EF0E0BF2EF0E0CF2EF0E0DF2E72
:104A3000F02D0C94191988E597E061E070E00E9470
:104A4000F94820E030E044E353E40E940D8B8823D2
:104A50000CF0FACA88E597E061E070E00E94F9483E
:104A60007B018C0100D000D08DB69EB60894811CCD
:104A7000911C6091E50870E080E090E00E94AA8BB4
:104A8000F4016083718382839383C801B70120E0BE
:104A900030E044E353E40F2EF0E0EF2EF0E0FF2E81
:104AA000F0E10F2FF3E41F2FF02D0F2EF0E0AF2ECB
:104AB000F0E0BF2EF0E0CF2EF0E0DF2EF02D0E94D0
:104AC00001080F900F900F900F9060935403709314
:104AD0005503809356039093570381E080935003CE
:104AE000B3CA82E694E063E070E040E00E942B727B
:104AF0007C0182E694E061E070E086C98AE498E097
:104B000063E070E00E9408607C018AE498E061E064
:104B100070E0F7C9CF93DF93EC0188818134C1F154
:104B20008D3401F1873429F18335D1F589818035C0
:104B300009F4C8C0893409F4DBC0843409F4F2C034
:104B4000843509F405C18B3409F418C1813409F4A2
:104B50005BC1853509F468C1823409F46FC00E94D5
:104B6000D70804C08981833409F4A1C0DF91CF91B3
:104B7000089589818035F9F0833509F444C089347A
:104B800009F498C08B3491F781E08093D202EECF84
:104B900089818B33E1F1833449F70E94D216E6CF45
:104BA000893469F48981823409F488C08335F1F647
:104BB0001092CC02DBCF81E08093D002D7CF823538
:104BC000C1F0833499F68981833509F43DC18A3473
:104BD000D1F18D3409F43BC1873509F405C1823523
:104BE00029F60E942A0981E08093D0028093D202A4
:104BF0000BC08981823409F491C0833509F0B6CFA6
:104C00001092CF02B3CF81E08093CD02AFCF0E944C
:104C1000210E8AED99E00E94B5868334910509F44E
:104C2000A5CF84E196E00E945C4B8334910509F4A2
:104C30009DCF8CEC93E00E94BE5DEBCF8A818053C8
:104C40008093E4088CCF0E946F83609384037093F9
:104C500085038093860390938703CE0164E971E016
:104C60000E94410680E090E064E971E00E94410604
:104C70000E94210660937B0370937C0380937D03E5
:104C800090937E0380E090E066E971E00E94410627
:104C90000E94210660937F037093800380938103B9
:104CA0009093820389E090E00E9472185FCF0E9487
:104CB00058145CCF81E08093CE0258CF81E080937E
:104CC000CC0254CFCE0164E971E00E94410680E03D
:104CD00090E066E971E00E9441060E94210660931F
:104CE000D4087093D5088093D6089093D70837CF0F
:104CF000CE0164E971E00E94410680E090E066E93F
:104D000071E00E9441060E9421066093D8087093CA
:104D1000D9088093DA089093DB0821CF81E0809353
:104D2000CF0224CFCE0164E971E00E94410680E009
:104D300090E066E971E00E9441060E9421066093BE
:104D4000DC087093DD088093DE089093DF0807CFBE
:104D5000CE0164E971E00E94410680E090E066E9DE
:104D600071E00E9441060E9421066093E008709362
:104D7000E1088093E2089093E308F1CECE0164E964
:104D800071E00E94410680E090E064E971E00E94D9
:104D900041060E9421066093E7087093E80880931B
:104DA000E9089093EA0880E090E064E971E00E94ED
:104DB00041060E9421066093EB087093EC088093F3
:104DC000ED089093EE0880E090E066E971E00E94C3
:104DD00041060E9421066093EF087093F0088093CB
:104DE000F1089093F208BBCEE0919008F091910801
:104DF000309731F081E083AFE35AFF4F86E0808344
:104E000081E08093D102B2CECE0164E971E00E94CC
:104E1000410680E090E066E971E00E9441060E9450
:104E200024068093E5089BCECE0164E971E00E94E0
:104E3000410680E090E066E971E00E9441060E9430
:104E400024068093E6088BCE83E090E02DCF0E946D
:104E50006F8360938403709385038093860390939C
:104E60008703CE0164E971E00E94410680E090E092
:104E700064E971E00E9441060E94210660937B0371
:104E800070937C0380937D0390937E0380E090E099
:104E900066E971E00E9441060E94210660937F034B
:104EA00070938003809381039093820388E090E065
:104EB000FBCECF93DF938AED99E00E949986892BF0
:104EC00019F4DF91CF9108958AED99E00E94B5869B
:104ED0008D36F9F080935C0361E070E080E090E053
:104EE0000E94E783CDE5D3E005C0219683E0CA3771
:104EF000D80739F38AED99E00E94B58688838F3F01
:104F000001F38B3391F710927A038CE593E002DE84
:104F1000D8CF0E94A310D5CF80915A07882309F4D7
:104F200057C080914B03882309F0A2C080914E03A3
:104F3000882309F096C088E597E061E077E20E9457
:104F40000E43882309F4C1C08091D008882309F456
:104F5000BAC060E08091D008681731F06093D00843
:104F600088E597E00E94FC4480914C08882309F072
:104F700048C080914F08882309F043C080916504A0
:104F8000882329F180914D03882309F05BC082E6D4
:104F900094E060E00E943B72882309F489C081306C
:104FA00009F4B0C0823009F4B0C063E070E08091D1
:104FB000D2089091D3086817790749F07093D30805
:104FC0006093D20882E694E040E00C94E972089580
:104FD00080915C07882341F288E597E061E077E201
:104FE0000E940E43882309F086C08091D00881304A
:104FF00009F4BACF81E08093D00888E597E061E0BA
:10500000B1CF80914C03882339F010924C038AE48D
:1050100098E00E941362B2CF8AE498E00E94776120
:105020008C33C8F08E3608F048C060E18091D1081A
:10503000681709F4A3CF6093D1088AE498E00E942E
:10504000EC619CCF10924D0382E694E060E040E07A
:1050500020E00C9473728091D108882361F160E0A4
:10506000E5CF10924E0388E597E00E9429457CCF5A
:1050700010924B0388E597E060E270E00E941B45C8
:1050800081E080934E038091400390914103A09171
:105090004203B0914303845F9140A040B0408093AD
:1050A000400390934103A0934203B09343035CCF2A
:1050B00060E070E07CCF60EFB9CF803A80F0823D55
:1050C000D0F760E7B3CF6FE045CF88E597E062E0C7
:1050D00077E20E940E43882321F061E03BCF60E33A
:1050E000A5CF88E597E063E077E20E940E4388232E
:1050F00079F063E02FCF88E597E060E070E00E94F0
:10510000224432CF61E070E052CF62E070E04FCFD6
:1051100088E597E064E077E20E940E43882311F06F
:1051200067E018CF88E597E065E077E20E940E43DC
:10513000882349F688E597E06EEE77E20E940E43F9
:105140006091D008882309F405CF6F3031F2660FE3
:105150006E706160FFCE1F93DFDE80915A07882357
:1051600021F080914803882369F180914C088823BD
:1051700021F0809149038823C9F180916504882337
:1051800021F080914A03882311F01F91089511E0C6
:1051900010934A030E946F83645F71408040904087
:1051A00060934003709341038093420390934303C1
:1051B00082E694E060E04FEF20E00E94737210936B
:1051C0004D03E3CF11E0109348030E946F83645FA7
:1051D00071408040904060934003709341038093FE
:1051E00042039093430310934B03BFCF11E01093FE
:1051F00049030E946F83645F7140804090406093D8
:1052000040037093410380934203909343038AE4E5
:1052100098E00E94006210934C03AFCFCF93DF93CE
:1052200080912206882319F4DF91CF91089584E1BB
:1052300096E00E94604A892BB9F3CCE5D3E005C023
:10524000219683E0CA37D80779F384E196E00E947B
:105250005C4B88838F3F41F38B3391F781E08093E0
:105260007A038CE593E056DCDFCF8CEC93E00E9470
:10527000BE5D8CEC93E00E942554803A09F4AAC0EC
:10528000CDDF0E946F83209184033091850340918C
:105290008603509187032C503E4F4F4F5F4F261788
:1052A00037074807590760F51092830380915A0722
:1052B000882309F0A5C080915C07882309F024C1E8
:1052C00080914C08882329F080914F08882309F4A5
:1052D000B0C080914F08882329F0809183038823F0
:1052E00009F4E2C080916504882329F0809183034A
:1052F000882309F4BEC080918303882309F47BC00E
:1053000080915A078823B9F580915C07882399F525
:1053100080915A07882329F480915C07882309F437
:105320004BC080914C088823A9F580914F088823B1
:1053300089F580914C08882321F480914F088823B7
:10534000C1F180916504882311F410924A030E94F0
:105350006F8320914003309141034091420350916B
:105360004303621B730B840B950B695E7340804093
:10537000904028F5089588E597E060E170E00E948C
:105380006F42882329F288E597E00E943845109201
:10539000D008BECF8AE498E069E070E00E94AB5F7D
:1053A000882339F28AE498E00E9426621092D1089C
:1053B000C0CF10924903C5CF10924803B2CF0E94CC
:1053C0006F836093400370934103809342039093F3
:1053D0004303A2CD8091E601882309F451CF8AEDE1
:1053E00099E067EA78E00E942F888CEC93E061E115
:1053F0000E94285445CF83E090E00E94721880CF2D
:1054000088E597E064E070E00E945142882309F447
:1054100089C00E94210E04C08CEC93E00E94BE5D06
:1054200088E597E065E070E00E9451428823A1F38F
:1054300047CF80918303882309F04BCF8AE498E01B
:105440006CE070E00E94785F882371F480914D08D1
:10545000882309F447CF8AE498E060E070E00E9476
:10546000F25F8A3808F4E4C081E090E00E9472188C
:1054700039CF82E694E064E070E040E00E94DD71A4
:10548000882309F479C00E94210E04C08CEC93E0BB
:105490000E94BE5D82E694E065E070E040E00E941C
:1054A000DD71882399F327CF8AE498E068E070E003
:1054B0000E94785F882309F06EC08AE498E061E07A
:1054C00070E00E9408608959984070F68AE498E07C
:1054D00061E070E00E9408608850974028F28AE4FA
:1054E00098E063E070E00E9408608959984008F0F5
:1054F000BBCF8AE498E063E070E00E9408608850C7
:10550000974008F0EFCEB0CF88E597E060E070E01C
:105510000E94A742893C08F44EC080E090E00E94BF
:105520007218CECE88E597E061E070E00E94A74255
:10553000853798F388E597E063E070E00E94A74222
:10554000853758F388E597E061E070E00E94A74254
:105550008A3818F788E597E063E070E00E94A74278
:105560008A38D8F688E597E06EE070E00E945142F4
:10557000882309F4A5CED1CF82E694E061E070E003
:1055800040E00E942B72845B924E8CF582E090E0AA
:105590000E947218B0CE0E94210E04C08CEC93E0E1
:1055A0000E94BE5D8AE498E065E070E00E94785F4A
:1055B0008823A1F397CE88E597E060E070E00E9431
:1055C000A742873308F4A9CF88E597E061E070E04F
:1055D0000E94A7428A3808F0A0CF88E597E061E0F2
:1055E00070E00E94A742853708F06ACE96CF82E627
:1055F00094E063E070E040E00E942B72845B924E86
:105600002CF282E694E061E070E040E00E942B72B0
:105610008D549D410CF0BACF82E694E063E070E0D7
:1056200040E00E942B728D549D410CF464CEAECFAD
:105630008AE498E060E070E00E94F25F853708F449
:1056400013CF8AE498E061E070E00E94F25F8A384C
:1056500008F00ACF8AE498E061E070E00E94F25F0F
:10566000853708F03FCE00CF2F923F924F925F9246
:105670006F927F928F929F92AF92BF92CF92DF9262
:10568000EF92FF920F931F93DF93CF93CDB7DEB7C7
:105690006C970FB6F894DEBF0FBECDBF80914C085B
:1056A000882309F079C48DE360EF72E048E00E943E
:1056B000D3158823C1F73091F00220E06091F10208
:1056C00070E0622B732B7093E7026093E6023091D7
:1056D000F20220E0E090F302FF24E22AF32AF092A3
:1056E000E902E092E8023091F60220E04091F702F0
:1056F000842E9924822A932A9092EB028092EA02C5
:10570000882777FD8095982F0E94AC8B2091F30815
:105710003091F4084091F5085091F6080E94468AAD
:105720005B016C010027F7FC0095102FC801B70141
:105730000E94AC8B2091F7083091F8084091F9084D
:105740005091FA080E94468A9B01AC01C601B5013E
:105750000E94BA8A2BED3FE049E450E40E94478A58
:1057600021EE3EE245E652E40E948C8C7B018C01E6
:105770006093F8027093F9028093FA029093FB020F
:1057800020E030E044EB52E40E940D8B88230CF0C3
:10579000ACC0609104037091050380910603909161
:1057A000070320E030E047E853E40E94818C18169C
:1057B0000CF09BC0E092A003F092A1030093A2031F
:1057C0001093A303E0920403F092050300930603F1
:1057D00010930703E0920003F09201030093020389
:1057E000109303030E947D8360932C0370932D0319
:1057F00080932E0390932F0380914C08882309F007
:1058000034C38091E601E0900403F0900503009119
:10581000060310910703882309F0B2C2A090E008A4
:10582000B090E108C090E208D090E308C601B5014D
:1058300020E030E044E352E40E94468A9B01AC0140
:10584000C801B7010E940D8B87FF08C381E08093D8
:10585000E6010E94210E0E947D83609330037093C5
:10586000310380933203909333030E947D83209110
:105870003403309135034091360350913703621B56
:10588000730B840B950B605A76488140904008F06A
:10589000F1C2EBDC0EDB0E942C1180917D05882388
:1058A00009F4D0C280912605882309F07AC380913B
:1058B0002605882309F49BC36C960FB6F894DEBFC7
:1058C0000FBECDBFCF91DF911F910F91FF90EF9051
:1058D000DF90CF90BF90AF909F908F907F906F9010
:1058E0005F904F903F902F900895C801B70120E03E
:1058F00030E047E853E40E94818C18168CF46091E4
:10590000040370910503809106039091070320E042
:1059100030E044EB52E40E940D8B88230CF44ACF14
:10592000B401882777FD8095982F0E94AC8B209139
:10593000EC023091ED024091EE025091EF020E9494
:10594000468A20E030E043E053E40E94118B7B0163
:105950008C016093FC027093FD028093FE02909391
:10596000FF02A0900003B0900103C0900203D0900A
:1059700003030E947D8320912C0330912D034091DD
:105980002E0350912F03621B730B840B950B0E9407
:10599000AA8B20E034E244E759E40E94118B9B017A
:1059A000AC01C801B7010E948C8C9B01AC01C601FF
:1059B000B5010E94478A7B018C01609300037093BC
:1059C0000103809302039093030320E030E040E062
:1059D00050E00E940D8B87FD0AC0C801B70120E08E
:1059E00030E044EB53E40E94818C181684F48091DB
:1059F000040390910503A0910603B09107038093DF
:105A0000000390930103A0930203B0930303E0907B
:105A1000F802F090F9020091FA021091FB02ED8277
:105A2000FE820F831887E090FC02F090FD02009147
:105A3000FE021091FF020E947D8320912C03309181
:105A40002D0340912E0350912F03621B730B840B87
:105A5000950B0E94AA8B20E034E244E759E40E94AF
:105A6000118B5B016C01C801B7012091A403309137
:105A7000A5034091A6035091A7030E94468A9B016B
:105A8000AC016093A8037093A9038093AA03909339
:105A9000AB03C601B5010E948C8C2091A00330910C
:105AA000A1034091A2035091A3030E94478A6987F2
:105AB0007A878B879C878091B8039091B903A091D6
:105AC000BA03B091BB0389839A83AB83BC83C601BD
:105AD000B50129813A814B815C810E948C8C7B01CC
