:100000002FC700000C94C7900C94F8900C94299181
:100010000C94190B50C700004EC700004CC70000DD
:100020004AC7000048C7000046C7000044C7000098
:1000300042C7000040C700003EC700003CC70000A8
:100040003AC7000038C700000C945A9134C700002A
:100050000C941C940C94A2942EC700002CC7000092
:100060002AC7000028C700000C94258F24C7000071
:1000700022C7000020C700001EC700001CC70000E8
:100080001AC7000018C7000016C70000084AD73B6F
:100090003BCE016E84BCBFFDC12F3D6C74319ABD57
:1000A00056833DDA3D00C77F11BED9E4BB4C3E917B
:1000B0006BAAAABE000000803F4779726F2063617F
:1000C0006C6962726174696F6E206572726F720022
:1000D0004E6F77207475726E207468652042616C73
:1000E000616E6475696E6F20616E6420746865204E
:1000F000736174656C6C697465207265636569769B
:100100006572206F66662062792072656D6F766910
:100110006E672074686520706F7765722E20546852
:1001200065206E6578742074696D6520697420742B
:1001300075726E73206F6E2069742077696C6C2005
:100140007374617274207468652062696E64696E8C
:10015000672070726F6365737320776974682074A9
:10016000686520736174656C6C6974652072656381
:100170006569766572002C00522C002C002C00560C
:100180002C002C002C004B2C002C41546D65676119
:100190003132383450002C00492C002C002C0053F4
:1001A0002C002C002C002C00502C005043002C0064
:1001B0002C002C0056656C6F6369747920284C29DB
:1001C0002C2056656C6F63697479202852292C2085
:1001D00053706565642076616C756520284C292C08
:1001E0002053706565642076616C756520285229FE
:1001F0000043616C6962726174696F6E206F662082
:10020000746865206D6F746F727320697320646FFA
:100210006E650054686520646966666572656E6324
:1002200065206973206E6F773A20004E6F772074D7
:100230006865206D6F746F72732077696C6C2073C2
:1002400070696E20757020616761696E2E204E6F37
:1002500077207468652073706565642076616C75BD
:1002600065732073686F756C6420626520616C6DC6
:100270006F737420657175616C2E2053656E6420F8
:10028000616E792063686172616374657220746F56
:1002900020657869740D0A002C00546865206D6F24
:1002A000746F72207363616C617273206172652078
:1002B0006E6F7720284C2F52293A20002C000D0A0F
:1002C0005468652073706565642076616C7565732C
:1002D0002061726520284C2F52293A200045737402
:1002E000696D6174696E67206D696E696D756D20E9
:1002F0007374617274696E672076616C75652E2007
:100300005768656E2074686520666972737420741E
:10031000776F2076616C75657320646F206E6F74E3
:10032000206368616E676520616E796D6F72652C00
:10033000207468656E2073656E6420616E79206339
:10034000686172616374657220746F20636F6E748C
:10035000696E75650D0A00507574207468652072A9
:100360006F626F7420736F207468652077686565AD
:100370006C732063616E206D6F76652066726565B3
:100380006C7920616E64207468656E2073656E649C
:1003900020616E7920636861726163746572207494
:1003A0006F20737461727420746865206D6F746F50
:1003B000722063616C6962726174696F6E20726F22
:1003C0007574696E650043616C6962726174696F0E
:1003D0006E206F662074686520616363656C65726A
:1003E0006F6D6574657220697320646F6E65002C93
:1003F000004E6577207A65726F2076616C75657343
:100400002028672773293A2000416363656C657271
:100410006F6D657465722063616C69627261746985
:100420006F6E206572726F7200506C65617365202B
:100430007075742074686520726F626F74207065C7
:1004400072666563746C7920686F72697A6F6E7416
:10045000616C206F6E20697473207369646520611C
:100460006E64207468656E2073656E6420616E79B9
:100470002063686172616374657220746F207374A5
:10048000617274207468652063616C696272617462
:10049000696F6E20726F7574696E65000D0A3D3D5F
:1004A0003D3D3D3D3D3D3D3D3D3D3D3D3D3D3D3D7C
:1004B0003D3D3D3D3D3D3D3D3D3D3D3D3D3D3D3D6C
:1004C0003D3D3D3D3D3D3D3D3D3D3D3D3D3D3D3D5C
:1004D0003D3D3D3D3D3D3D3D3D3D3D3D3D3D3D3D4C
:1004E0003D3D3D3D3D3D3D3D3D3D3D3D3D3D3D3D3C
:1004F0003D3D3D3D3D3D3D3D0D0A0042533B09091B
:10050000090942696E642077697468205370656BCD
:100510007472756D20736174656C6C69746520729A
:10052000656365697665720043523B0909090952A2
:100530006573746F72652064656661756C742045BF
:100540004550524F4D2076616C7565730D0A00431E
:1005500050503B090909095374617274207061722B
:10056000696E672073657175656E63652077697460
:10057000682050533420636F6E74726F6C6C6572B8
:10058000004350573B090909095374617274207084
:100590006172696E672073657175656E636520773A
:1005A000697468205769696D6F746500434D2C70DC
:1005B000697463682C726F6C6C3B0909095374652C
:1005C000657220726F626F74207573696E67207038
:1005D0006974636820616E6420726F6C6C00434ABA
:1005E0002C782C793B0909090953746565722072CE
:1005F0006F626F74207573696E6720782C792D6334
:100600006F6F7264696E617465730043533B0909CF
:10061000090953656E642073746F7020636F6D6D8C
:10062000616E640052533B0909090953746F7020CD
:1006300073656E64696E67207265706F7274207680
:10064000616C7565730D0A0052423B090909095333
:10065000746172742073656E64696E672072657070
:100660006F72742076616C7565730049533B09099C
:10067000090953746F702073656E64696E67204951
:100680004D552076616C7565730049423B09090937
:100690000953746172742073656E64696E672049D2
:1006A0004D552076616C7565730053422C76616CF4
:1006B00075653B0909095573656420746F2073657E
:1006C0007420746865206261636B20746F2073709E
:1006D0006F742076616C7565202874727565203D95
:1006E00020312C2066616C7365203D2030290D0A75
:1006F0000053552C76616C75653B09090955736586
:100700006420746F2073657420746865206D61784F
:10071000696D756D207475726E696E672076616C97
:1007200075650053412C616E676C653B090909557D
:1007300073656420746F2073657420746865206D20
:100740006178696D756D20636F6E74726F6C6C6922
:100750006E6720616E676C6500534B2C51616E674C
:100760006C652C51626961732C526D656173757291
:10077000653B095573656420746F2073657420743C
:100780006865204B616C6D616E2066696C74657282
:100790002076616C7565730053542C7461726765C3
:1007A00074416E676C653B09090955736564207473
:1007B0006F20736574207468652074617267657456
:1007C00020616E676C650053442C4B643B0909093A
:1007D000095573656420746F2073657420746865AF
:1007E000204B642076616C75650053492C4B693B46
:1007F000090909095573656420746F2073657420B5
:10080000746865204B692076616C75650053502CC7
:100810004B703B090909095573656420746F207397
:10082000657420746865204B702076616C75650076
:1008300047493B0909090947657420696E666F20BD
:1008400076616C7565730D0A0047533B0909090908
:100850004765742073657474696E67732076616C84
:1008600075657300474B3B09090909476574204BBF
:10087000616C6D616E2066696C7465722076616C66
:100880007565730047503B09090909476574205095
:1008900049442076616C756573004D433B09090935
:1008A0000953656E6420746F2063616C69627261C4
:1008B000746520746865206D6F746F72730D0A0023
:1008C00041433B0909090953656E6420746F206335
:1008D000616C69627261746520746865206163632C
:1008E000656C65726F6D6574657200413B0909093D
:1008F0000953656E6420746F2061626F72742E20DC
:1009000053656E642027432720616761696E2074F8
:100910006F20636F6E74696E75650D0A006D09094D
:10092000090953656E6420746F2073686F772074B3
:10093000686973206D656E750D0A000D0A3D3D3DB9
:100940003D3D3D3D3D3D3D3D3D3D3D3D3D3D3D3DD7
:100950003D3D3D3D3D3D3D3D3D3D3D3D3D3D3D3DC7
:100960003D3D3D3D3D3D3D204D656E75203D3D3D50
:100970003D3D3D3D3D3D3D3D3D3D3D3D3D3D3D3DA7
:100980003D3D3D3D3D3D3D3D3D3D3D3D3D3D3D3D97
:100990003D3D3D3D3D3D3D0D0A006932635265617F
:1009A000642074696D656F757400693263526561A6
:1009B00064206661696C65643A200069326357722D
:1009C000697465206661696C65643A20005553421C
:1009D000206661696C004572726F72207265616495
:1009E000696E672073656E736F72004F53432064A6
:1009F0006964206E6F742073746172740000010268
:100A00000408090A0C0D0E0F000000000000000091
:100A10000000FF27100032FF27100032FF271000D0
:100A200032FF27100032000000000000000000002C
:100A300000000000000000004572726F72004572F5
:100A4000726F720046756C6C0048696768004C6F85
:100A500077004479696E670053687574646F776EC8
:100A6000004E6F74204368617267696E6700436867
:100A7000617267696E6700506F7765725261746961
:100A80006E673A20004572726F7200426C75657431
:100A90006F6F7468202D2052756D626C65206973CC
:100AA000206F666600426C7565746F6F7468202DE8
:100AB0002052756D626C65206973206F6E00436112
:100AC000626C65202D2052756D626C652069732003
:100AD0006F6666004361626C65202D2052756D6201
:100AE0006C65206973206F6E00202D205769726538
:100AF0006C6573735374617475733A200045727238
:100B00006F720046756C6C0048696768004C6F77BF
:100B1000004479696E670053687574646F776E007E
:100B20004E6F74204368617267696E670043686145
:100B30007267696E6700202D20506F776572526171
:100B400074696E673A20004572726F7200556E705C
:100B50006C756767656400506C7567676564004312
:100B60006F6E6E656374696F6E5374617475733AFA
:100B700020001718191A000000001B1C1D1E1F2042
:100B8000212200000F1000000020000000400000A3
:100B900000800000000100000008000000020000CA
:100BA000000400000000010000000200000004003A
:100BB00000000800000010000000200000004000BD
:100BC000000080000000000100000008000000108C
:100BD00000000102030C0D0E0F0A0B0809070605A1
:100BE0000410110091E3720796E4750E9FED7C09E5
:100BF00098EA7B1C8DFF6E1B8AF8691283F16015E1
:100C000084F66738A9DB4A3FAEDC4D36A7D54431C0
:100C1000A0D24324B5C75623B2C0512ABBC9582D10
:100C2000BCCE5F70E1930277E694057EEF9D0C7970
:100C3000E89A0B6CFD8F1E6BFA881962F3811065C0
:100C4000F4861748D9AB3A4FDEAC3D46D7A53441C0
:100C5000D0A23354C5B72653C2B0215ACBB9285DB0
:100C6000CCBE2FE0710392E7760495EE7F0D9CE9F0
:100C7000780A9BFC6D1F8EFB6A1889F2631180F560
:100C8000641687D8493BAADF4E3CADD64735A4D180
:100C90004032A3C45527B6C35220B1CA5B29B8CD90
:100CA0005C2EBF900173E2970674E59E0F7DEC9970
:100CB000087AEB8C1D6FFE8B1A68F9821361F08540
:100CC0001466F7A8394BDAAF3E4CDDA63745D4A100
:100CD0003042D3B42557C6B32250C1BA2B59C8BD30
:100CE0002C5ECF00010000800000004000000000EA
:100CF00002000000000000040000000000020000EC
:100D000000010010000000080000000000000000CA
:100D1000000000004000000010000000080000007B
:100D20002000002000000002000000008000000001
:100D300004000008000000020000000400000001A0
:100D40000000000000000010000000000100000092
:100D50000200000010000000800000000001000000
:100D60000002000004000000080000001020408085
:100D700090A0C0D0E0F000020304050100010008CB
:100D8000000200040020001000400080000000006D
:100D90000100020020001000400080000400080054
:100DA00000002100240027002A0000002200250066
:100DB00028002B0000002000230026002900040446
:100DC00002040402020101010101010303040404FD
:100DD00004030303030303020202020201010102EE
:100DE00004408008100102040810200201040810C9
:100DF0002004081020408001022040804080000034
:100E000000070601020000000000000000000004CE
:100E10000300000000000000000008090000494E27
:100E200046494E4954594E414ECDCCCC3D0AD7236C
:100E30003C17B7D13877CC2B329595E6241FB14FAC
:100E40000A000020410000C84200401C4620BCBEF1
:100E50004CCA1B0E5AAEC59D74005F11CA8D5694C4
:100E600011241FBECFEFD0E4DEBFCDBF13E0A0E062
:100E7000B1E0E4E3F5E301E00BBF02C007900D929F
:100E8000AA33B107D9F71BBE1BE0AAE3B3E001C048
:100E90001D92A837B107E1F71EE0C0E6DEE004C00E
:100EA0002297FE010E94529ACA35D107C9F70E94C3
:100EB0003C970C94989AA4C86627772771C0FC01C8
:100EC00088279927E89421912032E9F3293010F0FE
:100ED0002E30C8F32B3239F02D3231F4689403C030
:100EE00057D0820F911D219120532A30C8F31EF450
:100EF000909581959F4F08954AE353E017C0FB01F9
:100F0000DC0102C001900D9241505040D8F7089585
:100F1000FB01DC014150504030F08D91019080196F
:100F200019F40020B9F7881B990B0895009731F444
:100F3000DA018D919C91009709F40EC0DC01FB0150
:100F40003D912191222319F03217C9F3FACF3323AF
:100F500031F4DA011D921C92882799270895119780
:100F6000AF93BF93FB013D912191321771F433236D
:100F700021F488279927119702C01E921196FA0131
:100F8000A193B0839F918F910895222369F7EACFAF
:100F90007AE0979F902D879F802D910D11240895C1
:100FA000A0E0B0E0E6EDF7E00C94679AEC015B019D
:100FB0006115710519F0FB0191838083F9908F2DE4
:100FC00090E00E94569A892BC9F7FDE2FF1621F4A2
:100FD000F990EE24E39405C02BE2F21609F4F9909F
:100FE000EE248E0101501040C8016EE17EE043E026
:100FF00050E033D1892BF9F48E010E5F1F4FC801E9
:1010000061E27EE045E050E028D1892B19F48E01A1
:10101000095F1F4FA114B10419F0F501118300837A
:10102000E0FC04C070E090E080E813C070E090E065
:1010300080E86FEF07C1C80166E27EE043E050E060
:101040000CD1892B69F4A114B10429F470E090E06B
:1010500080EC6FE7F7C02296F501D183C083F6CF0D
:101060008824992440E050E060E070E0EF2DE053E8
:10107000EA30A0F5F2E0EF2A8E2D90E09C01287076
:101080003070E2FE06C0232B79F50894811C911C78
:101090002BC0232B19F0089481089108DB01CA01A9
:1010A00012E0880F991FAA1FBB1F1A95D1F7480F8E
:1010B000591F6A1F7B1F440F551F661F771F4E0F56
:1010C000511D611D711D483929E9520729E962073F
:1010D00029E1720748F084E0E82A06C0EE3F31F4C7
:1010E000E3FC39C098E0E92AF990C0CFE53311F06C
:1010F000E53189F529912D3219F4E0E1EE2A05C098
:101100002B3219F081E090E003C0299182E090E059
:10111000E22FE053EA3018F0C81BD90B1CC020E0C6
:1011200030E0FCE020383F075CF4C901880F991FCC
:10113000880F991F280F391F220F331F2E0F311DC3
:10114000E991E053EA3068F3E4FE03C0309521955D
:101150003F4F820E931ECE2CDD24E1FE07C0A1146A
:10116000B10421F02197F501D183C083CB01BA01ED
:101170000E94AF987B018C01F3E0CF22DD2423E0B5
:10118000C216D10421F417FB109517F910955701D9
:101190006801C801B70120E030E040E050E00E9463
:1011A0001298882309F44AC097FE0DC02DE3E22E61
:1011B0002EE0F22E9094819491089394C0E2D0E0B6
:1011C00000E010E012C095E5E92E9EE0F92EF6CF82
:1011D000F7012591359145915491C601B5010E94C1
:1011E00091995B016C018C1A9D0A8C169D0684F7FF
:1011F000D595C7950F5F1F4F0630110529F08CEF6D
:101200009FEFE80EF91EF1CFC501D6017C018D01DB
:101210008C2D880F8D2D881F8F3F51F0C601B50191
:1012200020E030E040E050E00E941298882331F442
:1012300082E290E09093770B8093760B7E2D9F2D2A
:10124000802F612F272F392F482F562FB901CA0120
:10125000CDB7DEB7ECE00C94839AFB01DC01415082
:10126000504088F08D9181341CF08B350CF4805EF9
:10127000659161341CF06B350CF4605E861B611166
:1012800071F3990B0895881BFCCFDC018FE7129650
:101290008C93129713968C93139714968C931497A0
:1012A00015968C93159716961C92169717961C9266
:1012B000179718961C921897DE961C92DE97DF9669
:1012C0001C92DF97A05CBF4F1C92A054B0401996AF
:1012D0001C9219971A961C921A9720E030E0F90197
:1012E00083E0EE0FFF1F8A95E1F7E20FF31FEA0F8D
:1012F000FB1F84A1806884A380A5806880A72F5FDE
:101300003F4F2330310559F716968C911697807F01
:10131000886016968C931697DE968C91DE97807F68
:101320008860DE968C93DE97FD01EF5BFF4F808136
:10133000807F8083A45BBF4F1C9217971C921E92E4
:1013400014961C921E921E9214961C921E92129635
:101350001C9208954D9699CF2F923F924F925F9293
:101360006F927F928F929F92AF92BF92CF92DF92B5
:10137000EF92FF920F931F93DF93CF9300D000D093
:10138000CDB7DEB71B012C0139014A01A982BA820F
:10139000CB82DC82CA01B901A80197010E94129890
:1013A00088230CF057C0C201B101A40193010E942F
:1013B0004B975B016C01C801B701A40193010E9426
:1013C0004B977B018C01698D7A8D8B8D9C8D29814A
:1013D0003A814B815C810E944B979B01AC01C80113
:1013E000B7010E9416989B01AC01C601B5010E948D
:1013F00016987B018C01298D3A8D4B8D5C8D0E9456
:1014000086991816A4F1C801B70129813A814B8148
:101410005C810E941298882324F4E980FA800B8171
:101420001C81B701C8010F900F900F900F90CF91C2
:10143000DF911F910F91FF90EF90DF90CF90BF90C1
:10144000AF909F908F907F906F905F904F903F9064
:101450002F900895C401B301A20191010E944B97FE
:101460005B016C01C401B301A8019701A8CFE98C0D
:10147000FA8C0B8D1C8DD5CF089729F070938B00BB
:1014800060938A000895709389006093880008959E
:101490000F931F938C016AEF70E0EEDF08301105A7
:1014A00029F0289A299A1F910F910895469A479AF0
:1014B000FACFCF92DF92EF92FF920F931F93CF93C9
:1014C000DF93EC016B0179018A01CA01B90120E0C7
:1014D00030E048EC52E40E948699181654F40F2E1E
:1014E000F0E0EF2EF0E0FF2EF8EC0F2FF2E41F2FCC
:1014F000F02DC801B70120E030E04AE753E40E9434
:10150000919920E030E048EC52E40E9416980E9445
:1015100083989B01AC01CE01B901AEDF289779F029
:1015200086E0C816D10491F02898299ADF91CF91CE
:101530001F910F91FF90EF90DF90CF90089586E07C
:10154000C816D10431F0469A4798F0CF289A2998C6
:10155000EDCF4698479AEACF29B180B1247030E0A8
:1015600035952795807490E036E0959587953A9566
:10157000E1F7282B8091010A880F880F282B2093F0
:10158000010A4091450350914603609147037091D1
:101590004803E22FF0E0EF70F070EC5CFD4F8081CB
:1015A000992787FD9095A92FB92F840F951FA61F06
:1015B000B71F8093450390934603A0934703B093CE
:1015C0004803089529B180B1287030E035952795FA
:1015D00035952795807890E0880F892F881F990B83
:1015E000282B8091000A880F880F282B2093000A4F
:1015F0004091490350914A0360914B0370914C0311
:10160000E22FF0E0EF70F070EC5CFD4F80819927E5
:1016100087FD9095A92FB92F481B590B6A0B7B0B9F
:101620004093490350934A0360934B0370934C03D8
:1016300008951F920F920FB60F920BB60F921124BE
:101640002F933F934F935F936F937F938F939F93CA
:10165000AF93BF93EF93FF937FDFB4DFFF91EF91E1
:10166000BF91AF919F918F917F916F915F914F91BA
:101670003F912F910F900BBE0F900FBE0F901F90B8
:1016800018952091450330914603409147035091AE
:101690004803B901CA0108952091490330914A03D2
:1016A00040914B0350914C03B901CA0108958091B8
:1016B000450390914603A0914703B09148032091C0
:1016C000490330914A0340914B0350914C03280F3A
:1016D000391F4A1F5B1FB901CA01089588E090E0D5
:1016E000D7DE89E090E0D4DE80E090E0A0E0B0E0DA
:1016F0008093780390937903A0937A03B0937B034C
:1017000080937C0390937D03A0937E03B0937F032B
:10171000CEDF6093F9037093FA038093FB039093F9
:10172000FC038091C7099091C809A091C909B091A3
:10173000CA098093520390935303A0935403B09328
:10174000550308952F923F924F925F926F927F922E
:101750008F929F92AF92BF92CF92DF92EF92FF92C1
:101760000F931F93DF93CF93CDB7DEB728970FB6B4
:10177000F894DEBF0FBECDBF1B012C0139014A0119
:10178000E982FA820B831C83AD82BE82CF82D88627
:101790008091F901882309F067C2CA01B90120E0EC
:1017A00030E040E050E00E948699181654F4809191
:1017B000F5039091F603A091F703B091F803B7FDFC
:1017C00019C0C401B30120E030E040E050E00E94C5
:1017D000129888230CF0F9C18091F5039091F603DB
:1017E000A091F703B091F803181619061A061B0604
:1017F0000CF0EBC16091F5037091F6038091F70353
:101800009091F8030E94B19820E030E04CE053E45E
:101810000E9416989B01AC01C401B3010E944C9731
:101820003B014C01C201B101A40193010E944B97FD
:101830007B018C016090520370905303809054039D
:1018400090905503C401B30120E030E040E85FE32D
:101850000E944B975B016C01C801B701A60195017D
:101860000E941298882394F0C401B30120E030E074
:1018700040E85FE30E944C975B016C01C801B7012F
:10188000A60195010E948699181614F48601750127
:10189000E0925203F09253030093540310935503C4
:1018A000C801B7012091740330917503409176030C
:1018B000509177030E944B973B014C01609380034A
:1018C0007093810380938203909383032091BB09DB
:1018D0003091BC094091BD095091BE090E94919977
:1018E0001B012C016093840370938503809386030E
:1018F00090938703C401B3012D813E814F815885A8
:101900000E94919920917C0330917D0340917E0348
:1019100050917F030E944C977B018C0160937C0364
:1019200070937D0380937E0390937F03A090BF0903
:10193000B090C009C090C109D090C20920E030E049
:1019400040E85FEB0E94129888230CF407C2C8019C
:10195000B70120E030E040E85FE30E948699181666
:1019600054F40F2EF0E0EF2EF0E0FF2EF0E80F2FF2
:10197000FFE31F2FF02DC601B50120E030E048EC59
:1019800052E40E949199A80197010E9491995B01EC
:101990006C01609388037093890380938A0390930A
:1019A0008B036091C3097091C4098091C50990911E
:1019B000C60920E030E048EC52E40E9416987B0112
:1019C0008C01C401B30120917803309179034091D7
:1019D0007A0350917B030E944B979B01AC01C80195
:1019E000B7010E9491992D813E814F8158850E94B7
:1019F00016987B018C0160938C0370938D03809308
:101A00008E0390938F036092780370927903809293
:101A10007A0390927B03C201B101A60195010E9455
:101A20004C97A80197010E944C973B014C01609391
:101A30009003709391038093920390939303698131
:101A40007A818B819C8120E030E040E050E00E9470
:101A5000129888230CF4C5C069817A818B819C819E
:101A600020E030E040E050E00E948699181694F59E
:101A70006091F5037091F6038091F7039091F8035C
:101A80000E94B1985B016C0120E030E04CE053E42F
:101A90000E9416987B018C0120E030E040E050E08D
:101AA0000E94869918160CF083C169817A818B8116
:101AB0009C81A80197010E944B9769837A838B834D
:101AC0009C8320E030E040E050E00E9412988823A0
:101AD0000CF4B9C0C401B30129813A814B815C8106
:101AE0000E944C972091E2093091E3094091E4096A
:101AF0005091E5090E9491997B018C0160939403B8
:101B0000709395038093960390939703C401B30158
:101B100029813A814B815C810E944B972091E60993
:101B20003091E7094091E8095091E9090E949199A3
:101B3000609398037093990380939A0390939B0307
:101B4000C801B70120E030E040E050E00E948699F3
:101B500088230CF4FBC088E090E066E070E0A80108
:101B60009701A7DCE0909803F090990300919A0305
:101B700010919B03C801B70120E030E040E050E045
:101B80000E94869988230CF467C089E090E066E0A3
:101B900070E0A80197018DDC28960FB6F894DEBF9F
:101BA0000FBECDBFCF91DF911F910F91FF90EF90AE
:101BB000DF90CF90BF90AF909F908F907F906F906D
:101BC0005F904F903F902F900895C401B30120E0A3
:101BD00030E040E050E00E941298882309F022CEC5
:101BE00009CE6091F5037091F6038091F70390910F
:101BF000F8030E94B1985B016C0120E030E04CE0FA
:101C000053E40E9416987B018C0120E030E040E014
:101C100050E00E94869918160CF0DEC069817A8126
:101C20008B819C81A80197010E944C9769837A83DC
:101C30008B839C8320E030E040E050E00E94869956
:101C400018160CF047CF80E090E0A0E0B0E0898368
:101C50009A83AB83BC833ECFA8019701505889E09B
:101C600090E067E070E097CF22DD7B018C018091EE
:101C7000F9039091FA03A091FB03B091FC03A80132
:101C80009701281B390B4A0B5B0B8091CB098823EA
:101C900009F06FC0DA01C9018153984FAF4FBF4FB0
:101CA0008F599F40A040B04008F48DC0E092F903E6
:101CB000F092FA030093FB031093FC036091F50389
:101CC0007091F6038091F7039091F8030E94B19808
:101CD00020E030E040EF52EC0E9416989B01AC01EE
:101CE000C201B1010E944C977B018C016090C70931
:101CF0007090C8098090C9099090CA09C401B301C5
:101D000020E030E040E251E40E944B975B016C011F
:101D1000C801B701A60195010E94129888239CF082
:101D2000C401B30120E030E040E251E40E944C974E
:101D30005B016C01C801B701A60195010E9486995B
:101D400018160CF077CD8601750174CDA8019701A6
:101D5000505888E090E067E070E003CF0F2EF0E08D
:101D6000EF2EF0E0FF2EF0E80F2FFFEB1F2FF02DEE
:101D700002CEDA01C90157FD59C081386EE39607DA
:101D800060E0A60760E0B60794F1CA01B9010E94BD
:101D9000B19820E030E046E954EC0E9416989B018F
:101DA000AC01C201B1010E944C971B012C0186CFEE
:101DB000C601B50120E030E04CE053EC0E941698DB
:101DC0007B018C0172CECA01B9010E94B19820E05A
:101DD00030E04AE754ECE1CFC601B50120E030E045
:101DE0004CE053EC0E9416987B018C0117CF813494
:101DF000EFE19E07E0E0AE07E0E0BE0774F4815D2E
:101E00009740A040B040FCF2CA01B9010E94B198CD
:101E100020E030E04AEF54ECC0CFCA01B9010E9483
:101E2000B19820E030E048EC54ECB7CF88279927F0
:101E3000DC01821B930BA40BB50B9FCFFC01A0818F
:101E4000B1819D0171E0761778F4828193818A17C0
:101E50009B0734F4DC01C9017F5F32969C01F3CF0C
:101E600028173907CCF3F7CF80E02A1B3B0B241748
:101E700035070CF481E00895FB01F999FECFF9993B
:101E8000FECF92BD81BDF89A80B5808381E090E05D
:101E900008959C01FB01F999FECFF999FECF32BD5F
:101EA00021BDF89A80B56081861759F0F999FECF67
:101EB0001FBA32BD21BD60BD0FB6F894FA9AF99AE7
:101EC0000FBE81E090E00895AC01F999FECFFB01CF
:101ED000615D7F4F9A012F5F3F4FF999FECF52BD51
:101EE00041BDF89A80B58083E617F70719F031965F
:101EF000A901F0CF80E390E0089581E090E06BEBE2
:101F000079E0E2DF8091CE099091CF09A091D009CC
:101F1000B091D1098093020490930304A093040428
:101F2000B09305048091D2099091D309A091D4096E
:101F3000B091D5098093060490930704A0930804F8
:101F4000B09309048091D6099091D709A091D8093E
:101F5000B091D90980930A0490930B04A0930C04C8
:101F6000B0930D040895DC01F999FECF20E030E034
:101F7000A9014A0F5B1FF999FECF52BD41BDF89AE6
:101F800080B5FB01E20FF31FE0818E1759F0F9993C
:101F9000FECF1FBA52BD41BDE0BD0FB6F894FA9A0C
:101FA000F99A0FBE2F5F3F4F2033310509F780E3C9
:101FB00090E0089581E090E06BEB79E0D4DF8091D0
:101FC000CE099091CF09A091D009B091D109809309
:101FD000020490930304A0930404B0930504809139
:101FE000D2099091D309A091D409B091D5098093D9
:101FF000060490930704A0930804B0930904809109
:10200000D6099091D709A091D809B091D9098093A8
:102010000A0490930B04A0930C04B0930D0408954C
:1020200080E090E0A0E1B1E48093BB099093BC090B
:10203000A093BD09B093BE0980E090E0A0E0B0E4B9
:102040008093BF099093C009A093C109B093C209BE
:1020500080E090E0A0E4B0E48093C3099093C409C9
:10206000A093C509B093C60980E090E0A4E3B3E46F
:102070008093C7099093C809A093C909B093CA096E
:1020800081E08093CB0987E08093CC0989E180933C
:10209000CD098FE692E1A3E8BAE38093CE0990934D
:1020A000CF09A093D009B093D10986EA9BE9A4E4B3
:1020B000BBE38093D2099093D309A093D409B09342
:1020C000D5098FE892ECA5EFBCE38093D6099093F5
:1020D000D709A093D809B093D90980E090E0A0E097
:1020E000B0E08093DE099093DF09A093E009B093FC
:1020F000E1098093DA099093DB09A093DC09B0939E
:10210000DD0980E090E0A0E8BFE38093E6099093CA
:10211000E709A093E809B093E9098093E209909355
:10212000E309A093E409B093E5091092EA0942CFCC
:10213000DF93CF930F92CDB7DEB780E090E0BE0182
:102140006F5F7F4F99DE8981823059F069DF80E0CF
:1021500090E064E472E09DDE81E00F90CF91DF912A
:10216000089580E0FACF439862606EBD0DB407FE1B
:10217000FDCF4EBD0DB407FEFDCF439A08954398A1
:102180006EBD0DB407FEFDCF1EBC0DB407FEFDCF26
:10219000439A8EB50895CF92DF92EF92FF920F93FC
:1021A0001F93CF93DF938C0168E740E2DCDFC80127
:1021B00068E740E0D8DFC0E0D0E071E0C72ED12C66
:1021C0007601EC1AFD0A219729F0C80168E6D7DFED
:1021D00080FFF6CFC701DF91CF911F910F91FF9044
:1021E000EF90DF90CF900895CF93DF93EC0168EFED
:1021F000C6DF807C8034B1F0813438F08038E9F07B
:10220000803C61F0DF91CF9108958823D9F7CE010A
:1022100068ED41EDA8DF1092020AF4CF81E08093CF
:10222000020AF0CFCE0168EDAADF81FD0BC0CE011E
:1022300068ED4BEC98DF83E0F2CFCE0168ED9FDFD5
:1022400081FDF5CFCE0168ED49EC8DDF82E0E7CF6F
:10225000CF93DF93EC013B9A439A279A259A2698CD
:10226000249A80E58CBD81E08DBD3A98CE0168E866
:1022700048E179DFCE018FDF892B21F48FEFDF91E9
:10228000CF910895CE0168ED41EC6DDFCE0160ED98
:1022900040E669DFCE0168EE44E065DFCE0168EE1E
:1022A0006EDF82FFFBCFCE019FDFCE0168EC40E204
:1022B0005ADFCE0160E841E056DF80E0E0CF4F9288
:1022C0005F926F927F928F929F92AF92BF92CF92C6
:1022D000DF92EF92FF920F931F938FE692E1A3E8B4
:1022E000BAE38093020490930304A0930404B09390
:1022F000050486EA9BE9A4E4BBE38093060490937B
:102300000704A0930804B09309048FE892ECA5EFAA
:10231000BCE380930A0490930B04A0930C04B09345
:102320000D0480E090E0A0E0B0E080930E04909374
:102330000F04A0931004B09311048093120490939F
:102340001304A0931404B093150480931A0490937B
:102350001B04A0931C04B0931D0480931E0490934F
:102360001F04A0932004B09321048093220490932F
:102370002304A0932404B09325048093260490930F
:102380002704A0932804B0932904AAE38A2EA4E08A
:102390009A2EC4010E94AD63F0E14F2EF1E05F2E52
:1023A00081EB94E0B40140E051E092010BE111E0D7
:1023B000E6E3EE2EE1E0FE2EBCE3CB2EB1E0DB2E19
:1023C000A8E8AA2EA1E0BA2E0E94488480ED94E0ED
:1023D000B4010E94BF7E8FE795E0B4010E9422897C
:1023E000F0E96F2EF5E07F2EC301B4010E94613A3F
:1023F000EDE88E2EE1E09E2E8EE896E0B301A2017C
:1024000094010E94A35884ED97E0B30140E020E0DE
:1024100000E0EE24CC24AA240E9475500CEC18E0B5
:10242000C801B30140E094010E94CF4B035E1F4FEF
:1024300082E392E09093EA088093E908C8010E9441
:10244000450988E192E09093CD088093CC084496AA
:102450009093EA088093E908C8010E94450988E33F
:1024600099E0B30140E00E94B76D1F910F91FF907A
:10247000EF90DF90CF90BF90AF909F908F907F9024
:102480006F905F904F9008954D9700C0EF92FF922C
:102490000F93DF93CF93CDB7DEB7CF54D0400FB6B5
:1024A000F894DEBF0FBECDBF7C01FB019E012F5F04
:1024B0003F4F8FE4D9011D928A95E9F782E5898320
:1024C00081E18A8380E88B838FEF8D838181888788
:1024D0008081898782818A8783818B8784818C87A9
:1024E00085818D8786818E871782F7016581768148
:1024F00083819481A9012FE40781E0840E94C33E77
:10250000C15BDF4F0FB6F894DEBF0FBECDBFCF91DA
:10251000DF910F91FF90EF900895CF92DF92EF92AD
:102520000F93DF93CF9300D0CDB7DEB76C014D96FC
:102530000E94450983E4898382E08A83D601159647
:102540006D917C91169713968D919C911497AE0185
:102550004F5F5F4F22E017960C9117971896EC90FB
:102560000E94C33EEAE6F0E0CE0EDF1ED601ED91FA
:10257000FC9186E99FEFC80ED91E309751F009955E
:102580000F900F90CF91DF910F91EF90DF90CF9050
:102590000895A3E6B0E0CA0EDB1EF6011192DF013A
:1025A0001D926D018FEF8C93E3E0F0E0CE0EDF1E05
:1025B00081E0D6018C93E4CF4D960C94F3570F93A2
:1025C0001F9309ED1AE0C8016BE379E00E9434958E
:1025D000C8016DE179E00E943495C8016BEE78E0A6
:1025E0000E943495C80160EC78E00E943495C801DF
:1025F0006AE978E00E943495C80164E878E00E94B6
:102600003495C80164E678E00E943495C80169E415
:1026100078E00E943495C80160E378E00E94349528
:10262000C8016DE078E00E943495C8016AEE77E059
:102630000E943495C80167EC77E00E943495C80188
:1026400068E977E00E943495C80169E577E00E9467
:102650003495C80163E277E00E943495C80161EFC8
:1026600076E00E943495C8016AEA76E00E943495CB
:10267000C8016AE876E00E943495C8016BE676E00E
:102680000E943495C80168E476E00E943495C80140
:1026900064E276E00E943495C8016BE076E00E9427
:1026A0003495C8016EED75E00E943495C8016CEA5E
:1026B00075E00E943495C80161E875E00E94349588
:1026C000C8016FE475E00E943495C80168E275E0C6
:1026D0000E943495C8016BEF74E00E943495C801E4
:1026E0006CE974E00E9434951F910F9108951F9337
:1026F000182F8091FB09882309F04FC00E94A291F6
:102700006093FC097093FD098093FE099093FF0983
:102710008091FB09E82FF0E0E551F64F10838F5FC1
:102720008093FB09803111F01F910895ADEEB9E05F
:102730008C9111964C911197282F30E0C9019595F5
:102740008795959587958F708C3090F4E82FF0E001
:10275000EE0FFF1FE550FE4F842F90E084529C4FF8
:1027600023703070322F2227820F931F9183808332
:10277000129689E0AB3FB807D9F61092FB0981E0C9
:102780008093FD030E94A2916093FE037093FF0368
:102790008093000490930104C7CF0E94A2912091DE
:1027A000FC093091FD094091FE095091FF09621B1F
:1027B000730B840B950B6B3071058105910508F443
:1027C0009DCF1092FB099ACFCF93DF9380919C0607
:1027D000882329F08091E303882309F06CC0C9EDB8
:1027E000DAE080914103882309F068C080914003BA
:1027F000882309F06DC080913D03882309F0B3C0A0
:1028000080913E03882309F00CC180914203882304
:1028100009F0D0C080913C03882309F01FC180914A
:102820003F03882309F451C00E94A2912091AC0378
:102830003091AD034091AE035091AF03621B730B17
:10284000840B950B655F714080409040F0F10E94D1
:10285000A2916093AC037093AD038093AE03909309
:10286000AF03CE0168E771E00E94F59440914D03FB
:1028700050914E0360914F0370915003CE0122E0BE
:1028800030E00E941697CE0166E771E00E94F59451
:102890006091AC037091AD038091AE039091AF0352
:1028A0000E94AF9820E030E64AE657E40E9416986E
:1028B000AB01BC0152C0C0E9D6E093CF10924103F6
:1028C000CE016BEA71E00E943495DF91CF910895BB
:1028D00010924003CE0168EA71E00E94F5944091A5
:1028E000BB095091BC096091BD097091BE09CE0130
:1028F00022E030E00E941697CE0166EA71E00E9465
:10290000F5944091BF095091C0096091C10970913F
:10291000C209CE0122E030E00E941697CE0164EA9F
:1029200071E00E94F5944091C3095091C4096091EF
:10293000C5097091C609CE0122E030E00E941697C9
:10294000CE0162EA71E00E94F5944091C70950916E
:10295000C8096091C9097091CA09CE0122E030E02E
:102960000E941897B2CF10923D03CE016FE971E03B
:102970000E94F594CE016091CB094AE050E00E949C
:10298000D295CE016DE971E00E94F594CE0160917F
:10299000CC094AE050E00E94D295CE016BE971E08B
:1029A0000E94F594CE016091CD094AE050E00E946A
:1029B000E3958BCF10924203CE0166E871E00E944E
:1029C000F5944091020450910304609104047091C5
:1029D0000504CE0124E030E00E941697CE0164E8A1
:1029E00071E00E94F59440910604509107046091B3
:1029F000080470910904CE0124E030E00E9416978B
:102A0000CE0162E871E00E94F59440910A04509171
:102A10000B0460910C0470910D04CE0124E030E0B1
:102A20009FCF10923E03CE0168E971E00E94F594B9
:102A30006091F7017091F801CE010E944096CE019D
:102A400066E971E00E94F594CE0162E04AE050E050
:102A50000E94D295CE0169E871E035CF0E94A29123
:102A60002091A4033091A5034091A6035091A703A0
:102A7000621B730B840B950B633371058105910504
:102A800008F4CDCE0E94A2916093A4037093A50395
:102A90008093A6039093A703CE016FE771E00E9495
:102AA000F594409168035091690360916A037091B5
:102AB0006B03CE0122E030E00E941697CE016DE755
:102AC00071E00E94F5944091700350917103609100
:102AD000720370917303CE0122E030E00E941697DA
:102AE000CE016BE771E00E94F59440917403509120
:102AF000750360917603709177032FCF2F923F92E9
:102B00004F925F926F927F928F929F92AF92BF92FD
:102B1000CF92DF92EF92FF920F931F93DF93CF93A9
:102B2000CDB7DEB760970FB6F894DEBF0FBECDBF4E
:102B30001C012B0129873A874B875C87ED86FE862F
:102B40000F87188B0E94410B5B016C010E944C0B9C
:102B50003B014C0189ED9AE064EB71E00E943495F1
:102B60003AC0F10160817181828193812DEC3CEC4E
:102B70004CEC5DE30E944C97F1016083718382838A
:102B80009383D601C50189539F4FAF4FBF4F8F58D5
:102B90009140A040B04008F0BEC0F2016081718158
:102BA000828193812DEC3CEC4CEC5DE30E944C97D0
:102BB000F201608371838283938364E670E080E036
:102BC00090E00E94249269807A808B809C80AD8006
:102BD000BE80CF80D88489ED9AE00E9480938F5F79
:102BE0009F4F09F0BEC069857A858B859C85F10170
:102BF00020813181428153810E9491999B01AC01D6
:102C000088E090E066E070E00E94590A6D857E855C
:102C10008F859889F20120813181428153810E9400
:102C200091999B01AC0189E090E066E070E00E9420
:102C3000590A0E94410B6D837E838F8398877B01A5
:102C40008C01EA18FB080C091D090E944C0B6983D2
:102C50007A838B839C835B016C01A618B708C80834
:102C6000D90889ED9AE0B801A7012AE030E00E9476
:102C7000F59589ED9AE062EB71E00E94F59489ED9B
:102C80009AE0B601A5012AE030E00E94F59589EDB1
:102C90009AE060EB71E00E94F594F101408151816E
:102CA0006281738189ED9AE022E030E00E941697FC
:102CB00089ED9AE06EEA71E00E94F594F20140819C
:102CC00051816281738189ED9AE022E030E00E94B7
:102CD0001897D801C70189539F4FAF4FBF4F8F58E7
:102CE0009140A040B04008F43CCFB801A70117FDC7
:102CF00028C04C3C5105610571050CF442CFF1012F
:102D000060817181828193812DEC3CEC4CEC5DE320
:102D10000E944B9731CFB601A501D7FC1AC04C3C9D
:102D20005105610571050CF448CFF2016081718194
:102D3000828193812DEC3CEC4CEC5DE30E944B973F
:102D400037CF70956095509541955F4F6F4F7F4F8E
:102D5000D0CF70956095509541955F4F6F4F7F4FE5
:102D6000DECFF101E080F1800281138120C088E094
:102D700090E066E070E0A80197010E94590A89E09E
:102D800090E066E070E0A80197010E94590A62E3B2
:102D900070E080E090E00E942492C801B70120E03A
:102DA00030E040E85FE30E944B977B018C01C80153
:102DB000B70120E030E040E050E00E94869918160C
:102DC000B4F288E090E00E94480A89E090E00E9416
:102DD000480A60960FB6F894DEBF0FBECDBFCF9104
:102DE000DF911F910F91FF90EF90DF90CF90BF90F8
:102DF000AF909F908F907F906F905F904F903F909B
:102E00002F9008956F927F928F929F92AF92BF9270
:102E1000CF92DF92EF92FF920F931F93DF93CF93A6
:102E2000CDB7DEB728970FB6F894DEBF0FBECDBF83
:102E300089ED9AE067E573E00E94349589ED9AE0A8
:102E40000E9480938F5F9F4FC9F389ED9AE06DEDEB
:102E500072E00E94349560ED77E080E090E00E949F
:102E6000249280E090E0A0E2B1E489839A83AB836E
:102E7000BC838D839E83AF83B887CE010196BE014C
:102E80006B5F7F4F20E030E040E85FE379018A012B
:102E900035DE89ED9AE06EEB72E00E94F59449818F
:102EA0005A816B817C8189ED9AE022E030E00E94BA
:102EB000169789ED9AE06CEB72E00E94F5944D81D3
:102EC0005E816F81788589ED9AE022E030E00E9492
:102ED0001897A980BA80CB80DC80ED80FE800F81BE
:102EE0001885C601B501A80197010E948699181698
:102EF0000CF0DEC080E090E0A0E8BFE38093E20940
:102F00009093E309A093E409B093E509C801B701E0
:102F1000A60195010E9416986093E6097093E7094F
:102F20008093E8099093E90989ED9AE06AE972E0F3
:102F30000E94F5944091E2095091E3096091E409FF
:102F40007091E50989ED9AE022E030E00E94169741
:102F500089ED9AE068E972E00E94F5944091E609F3
:102F60005091E7096091E8097091E90989ED9AE0CB
:102F700022E030E00E94189789ED9AE06BE272E05F
:102F80000E94349560ED77E080E090E00E9424920A
:102F900080E090E0A0E2B1E48D839E83AF83B887A8
:102FA00089839A83AB83BC832091E2093091E30942
:102FB0004091E4095091E509E090E609F090E709B5
:102FC0000091E8091091E909CE010196BE016B5FFD
:102FD0007F4F94DD99808A807B806C801D810E817B
:102FE000FF80E884692D782D872D962D212F302F95
:102FF0004F2D5E2D0E94869918160CF474C0812FF7
:10300000902FAF2DBE2D5C016D01692D782D872D80
:10301000962D212F302F4F2D5E2D0E94129887FD67
:1030200067C0812F902FAF2DBE2D7C018D0189EDC2
:103030009AE063E172E00E94F594C601B501A8012F
:1030400097010E944B97A60195010E94169820E0D7
:1030500030E048EC52E40E949199AB01BC0189ED4B
:103060009AE022E030E00E94169789ED9AE062E94A
:1030700071E00E942A970E94DA0F89ED9AE061EFD1
:1030800071E00E94349528960FB6F894DEBF0FBE0B
:10309000CDBFCF91DF911F910F91FF90EF90DF9007
:1030A000CF90BF90AF909F908F907F906F9008953A
:1030B000C601B501A80197010E9416986093E20924
:1030C0007093E3098093E4099093E50980E090E030
:1030D000A0E8BFE38093E6099093E709A093E8098D
:1030E000B093E90921CF892D982DA72DB62D8BCF2F
:1030F000892D982DA72DB62D98CF1F9358986FE343
:1031000070E080E090E00E942492509AF89410E0E1
:10311000589886E790E00E94D291589A8AE790E00A
:103120000E94D2911F5F133099F778945098589A63
:103130001092EA090E94DA0F2B9A1F910895BF920C
:10314000CF92DF92EF92FF920F931F93CF93DF9373
:10315000182F062FF72EB42E80E59AE068E60E941D
:10316000908D80E59AE0612F0E94FD8D80E59AE0C8
:1031700060E00E942C8EC82E8823C1F580E59AE07D
:1031800068E64B2D21E00E943E8E802F9F2D9C01F2
:10319000E901DD240DC080E59AE00E949A8D892B1B
:1031A000E9F180E59AE00E94A38D8883D39421966B
:1031B000DB1448F580E59AE00E949A8D892B89F707
:1031C0000E94B0917B018C010E94B0916E197F0921
:1031D000800B910B6436710581059105E0F680E561
:1031E0009AE00E949A8D892BB1F6EECF89ED9AE094
:1031F0006AEA79E00E94F59489ED9AE06C2D4AE044
:1032000050E00E94E3958C2DDF91CF911F910F919B
:10321000FF90EF90DF90CF90BF90089589ED9AE0F6
:103220006AE979E00E94349565E0C62EECCFAF9252
:10323000BF92CF92DF92EF92FF920F931F93DF9393
:10324000CF93CDB7DEB7E2970FB6F894DEBF0FBECF
:10325000CDBF5E010894A11CB11C650173E3E72E8C
:10326000F12CEC0EFD1E83E460E673E042E067DFC4
:103270008823C9F71091600300E08091610390E01A
:10328000802B912BF601819391936F016AE070E09E
:1032900080E090E00E942492CE14DF0421F7CE015A
:1032A000019669E140ED57E00E941E0F8823E9F185
:1032B000E0905C03F0905D0300915E0310915F036A
:1032C000F501619171915F01882777FD8095982FB5
:1032D0000E94B1989B01AC01C801B7010E944C97B4
:1032E0007B018C01AC14BD0459F720E030E048ECC0
:1032F00051E40E94169860935C0370935D03809381
:103300005E0390935F0380E0E2960FB6F894DEBF11
:103310000FBECDBFCF91DF911F910F91FF90EF9026
:10332000DF90CF90BF90AF90089589ED9AE069EB60
:1033300070E00E9434952B9A81E0E6CF4F925F9225
:103340006F927F928F929F92AF92BF92CF92DF92B5
:10335000EF92FF920F931F93DF93CF93CDB7DEB71A
:10336000C456D0400FB6F894DEBF0FBECDBF89ED76
:103370009AE069E274E00E94349589ED9AE00E9437
:1033800080938F5F9F4FC9F3CC24DD245E010894A6
:10339000A11CB11CF3E38F2E912C8C0E9D1E8DE38E
:1033A00060E673E044E0CBDE8823C9F7F501EC0D5D
:1033B000FD1DF0906003EE248091610390E08E2962
:1033C0009F2991838083F401EC0DFD1D1091620310
:1033D00000E08091630390E0802B912B91838083A8
:1033E0006AE070E080E090E00E94249282E090E049
:1033F000C80ED91E92E3C916D10489F6C50169E148
:1034000048EE53E00E941E0F882341F489ED9AE0B4
:1034100069E074E00E94F5942B9AFFCFC40169E142
:1034200048EE53E00E941E0F882381F3A090DE092E
:10343000B090DF09C090E009D090E109E090DA098E
:10344000F090DB090091DC091091DD0988249924B2
:103450002E010894411C511CE3E36E2E712C6C0E5E
:103460007D1EF201E80DF91D60817181882777FDCD
:103470008095982F0E94B1989B01AC01C801B701BB
:103480000E944C977B018C01F301E80DF91D6081CE
:103490007181882777FD8095982F0E94B1989B01B4
:1034A000AC01C601B5010E944C975B016C0182E042
:1034B00090E0880E991E92E38916910491F6C80156
:1034C000B70120E030E048EC51E40E9416987B01FF
:1034D0008C01C601B50120E030E048EC51E40E94C7
:1034E00016986093DE097093DF098093E00990934A
:1034F000E109C801B70120E030E040E050E00E945F
:10350000129888230CF468C0C801B70120E030E0AD
:1035100040E856E40E944B976093DA097093DB0908
:103520008093DC099093DD0989ED9AE061EF73E007
:103530000E94F5946091DA097091DB098091DC09B1
:103540009091DD0920E030E040E858E30E94919935
:10355000AB01BC0189ED9AE022E030E00E941697B1
:1035600089ED9AE06FEE73E00E94F5946091DE09B8
:103570007091DF098091E0099091E10920E030E04D
:1035800040E858E30E949199AB01BC0189ED9AE0B3
:1035900022E030E00E9418970E94DA0F89ED9AE04D
:1035A00066EC73E00E943495CC59DF4F0FB6F89467
:1035B000DEBF0FBECDBFCF91DF911F910F91FF9066
:1035C000EF90DF90CF90BF90AF909F908F907F90C3
:1035D0006F905F904F900895C801B70120E030E0F0
:1035E00040E856E40E944C9797CFDF92EF92FF920B
:1035F0000F931F93F82E8B01E42ED22E80E59AE0D4
:1036000068E60E94908D80E59AE06F2D0E94FD8D06
:1036100080E59AE0B8014E2D50E00E94CD8D80E506
:103620009AE06D2D0E942C8E082F882369F089ED79
:103630009AE06BEB79E00E94F59489ED9AE0602FB7
:103640004AE050E00E94E395802F1F910F91FF9078
:10365000EF90DF900895DF93CF930F92CDB7DEB751
:103660006983242FBE016F5F7F4F41E0BEDF0F9063
:10367000CF91DF910895EF92FF920F931F93CF9315
:10368000DF93FC01C689D7896130710589F16489AE
:103690007589882777FD8095982F0E94B1987B01C6
:1036A0008C01BE01882777FD8095982F0E94B198E4
:1036B0009B01AC01C801B7010E94BF972BED3FE011
:1036C00049E450E40E944C9721EE3EE245E652E484
:1036D0000E949199E62F2E2F372F482F592FB9018D
:1036E000CA01DF91CF911F910F91FF90EF90089544
:1036F000608D718DCECFEF92FF920F931F93CF937A
:10370000DF93EC018C818823A1F0FE01E159FF4F8A
:10371000A0817181828163812A2F372F482F562FF4
:10372000B901CA01DF91CF911F910F91FF90EF90E6
:10373000089568857985882777FD8095982F0E9460
:10374000B1987B018C016A857B85882777FD809500
:10375000982F0E94B1989B01AC01C801B7010E944B
:10376000BF972BED3FE049E450E40E944C9721EED7
:103770003EE245E652E40E949199A62F692FCCCFF4
:10378000EF92FF920F931F93CF93DF93EC018C8105
:103790008823A1F0FE01ED58FF4FA0817181828145
:1037A00063812A2F372F482F562FB901CA01DF9185
:1037B000CF911F910F91FF90EF9008956E817F81BF
:1037C000882777FD8095982F0E94B1987B018C0106
:1037D0006A857B85882777FD8095982F0E94B19810
:1037E0009B01AC01C801B7010E94BF972BED3FE0E0
:1037F00049E450E40E944C9721EE3EE245E652E453
:103800000E949199A62F692FCCCF8F929F92AF9251
:10381000BF92CF92DF92EF92FF920F931F93CF93BD
:10382000DF93EC0181E08093EC031092F90180E0DA
:1038300090E0A0E0B0E08093C1039093C203A09316
:10384000C303B093C4038093BD039093BE03A093BE
:10385000BF03B093C003CB30D10509F4F0C0CA3028
:10386000D10509F44DC2209709F075C18091D607A2
:10387000882309F4EDC184ED97E06EE070E00E94CA
:103880009F4F882309F447C484ED97E061E070E01E
:103890000E949B5620E030E044E353E40E94869966
:1038A000181614F00C94A02584ED97E061E070E008
:1038B0000E949B567B018C0100D000D08DB69EB635
:1038C0000894811C911C6091CC0970E080E090E02C
:1038D0000E94AF98F4016083718382839383C8014F
:1038E000B70120E030E044E353E40F2EF0E0EF2E88
:1038F000F0E0FF2EF8E50F2FF3E41F2FF02D0F2E31
:10390000F0E0AF2EF0E0BF2EF0E0CF2EF0E0DF2EA3
:10391000F02D0E94AC090F900F900F900F906093C4
:10392000BD037093BE038093BF039093C00384EDE7
:1039300097E062E070E00E949B5620E030E044E3B4
:1039400053E40E948699181614F00C945A2584EDBD
:1039500097E062E070E00E949B567B018C0100D0F2
:1039600000D08DB69EB60894811C911C6091CD0943
:1039700070E080E090E00E94AF98F4016083718372
:1039800082839383C801B70120E030E044E353E42D
:103990000F2EF0E0EF2EF0E0FF2EF1E60F2FF3E414
:1039A0001F2FF02D0F2EF0E0AF2EF0E0BF2EF0E035
:1039B000CF2EF0E0DF2EF02D0E94AC090F900F907B
:1039C0000F900F906093C1037093C2038093C30361
:1039D0009093C403C230D10509F40FC2C330D1059E
:1039E00009F4D3C4C430D10509F497C2C530D10558
:1039F000A9F481E08093F9018091430390914403FD
:103A0000059761F00E94570B6093F9037093FA03D6
:103A10008093FB039093FC031092BC03D093440368
:103A2000C0934303DF91CF911F910F91FF90EF90CF
:103A3000DF90CF90BF90AF909F908F900895E090CF
:103A4000E803F090E9030091EA031091EB03C80149
:103A5000B70120E030E040E050E00E94869918165F
:103A60000CF021C300D000D08DB69EB60894811C06
:103A7000911C6091CC0970E080E090E00E94AF98CA
:103A8000F4016083718382839383C801B70120E0CE
:103A900030E040E050E00F2EF0E0EF2EF0E0FF2E9F
:103AA000F0E80F2FFFE31F2FF02D59016A010E944C
:103AB000AC090F900F900F900F906093BD0370931F
:103AC000BE038093BF039093C003E090E403F090A3
:103AD000E5030091E6031091E703C801B70120E078
:103AE00030E040E050E00E94869918160CF001C5C5
:103AF00000D000D08DB69EB60894811C911C6091B8
:103B0000CD0970E080E090E00E94AF98F4016083FE
:103B1000718382839383C801B70120E030E040E0E5
:103B200050E00F2EF0E0EF2EF0E0FF2EF0E80F2F28
:103B3000FFE31F2FF02D59016A010E94AC090F907D
:103B40000F900F900F906093C1037093C203809306
:103B5000C3039093C403C130D10509F03BCF89EE74
:103B600098E06EE070E00E948557882309F4D9C57B
:103B700089EE98E061E070E07EDD20E030E044E333
:103B800053E40E948699181614F40C94C02689EE0A
:103B900098E061E070E06FDD20E030E044E353E462
:103BA0000E941298882314F40C94A72B89EE98E0B5
:103BB00062E070E060DD20E030E044E353E40E9426
:103BC0001298882314F00C94C72889EE98E062E0DC
:103BD00070E051DD7B018C0100D000D08DB69EB627
:103BE0000894811C911C6091CD0970E080E090E008
:103BF0000E94AF98F4016083718382839383C8012C
:103C0000B70120E030E044E353E40F2EF0E0EF2E64
:103C1000F0E0FF2EF7E00F2FF3E41F2FF02D0F2E13
:103C2000F0E0AF2EF0E0BF2EF0E0CF2EF0E0DF2E80
:103C3000F02D0E94AC090F900F900F900F906093A1
:103C4000C1037093C2038093C3039093C403C6CE91
:103C500084ED97E061E070E00E94F14F853708F451
:103C6000D6C284ED97E061E070E00E94F14F8A389F
:103C700010F00C94A92984ED97E060E070E00E94B8
:103C8000F14F873308F06DC484ED97E060E070E099
:103C90000E94F14F00D000D08DB69EB60894811CD2
:103CA000911C90E0A0E0B0E0BC01CD010E94AF9873
:103CB0007B018C016091CD0970E080E090E00E9472
:103CC000AF98F4016083718382839383C801B70145
:103CD00020E030E048E552E40F2EF0E0EF2EF0E077
:103CE000FF2EF0E00F2FF0E01F2FF02D570168019D
:103CF0000E94AC090F900F900F900F90905862CED9
:103D0000E090E403F090E5030091E6031091E703EF
:103D1000C801B70120E030E040E050E00E94869901
:103D200018160CF0B7C200D000D08DB69EB608941D
:103D3000811C911C6091CC0970E080E090E00E94B1
:103D4000AF98F4016083718382839383C801B701C4
:103D500020E030E040E050E00F2EF0E0EF2EF0E009
:103D6000FF2EF0E10F2FF2E41F2FF02D59016A0111
:103D70000E94AC090F900F900F900F906093BD03BD
:103D80007093BE038093BF039093C003E090E80359
:103D9000F090E9030091EA031091EB03C801B70129
:103DA00020E030E040E050E00E94869918160CF0C8
:103DB00014C400D000D08DB69EB60894811C911C0E
:103DC0006091CD0970E080E090E00E94AF98F4012E
:103DD0006083718382839383C801B70120E030E060
:103DE00040E050E00F2EF0E0EF2EF0E0FF2EF4E385
:103DF0000F2FF2E41F2FF02D9ECE80913D098823D6
:103E000009F4E9C088E399E061E070E00E94836E04
:103E10008959984010F00C94682888E399E061E093
:103E200070E00E94836E8850974010F40C94EA2A48
:103E300088E399E063E070E00E94836E8C0188E380
:103E400099E061E070E00E94836E081B190B093C49
:103E500011050CF47CC588E399E061E070E00E94F4
:103E6000836E8C0188E399E063E070E00E94836ECA
:103E7000081B190B1016110614F00C94412B88E343
:103E800099E061E070E00E94836E7C0188E399E034
:103E900063E070E00E94836EE81AF90A0027F7FCDD
:103EA0000095102FC801B7010E94B1987B018C01C9
:103EB00000D000D08DB69EB60894811C911C6091F4
:103EC000CD0970E080E090E00E94AF98F40160833B
:103ED000718382839383C801B70120E030E040E022
:103EE00050E00F2EF0E0EF2EF0E0FF2EF6E10F2F66
:103EF000F5E41F2FF02D59016A010E94AC090F90C3
:103F00000F900F900F9090586093C1037093C2036D
:103F10008093C3039093C40365CD6091FF017091BA
:103F20000002F5E06D3D7F0708F0C1C3F5E06C3D90
:103F30007F0709F0E7C16091FD017091FE01F5E096
:103F40006C3D7F0708F478C3F5E06C3D7F0709F40A
:103F500065CD00D000D08DB69EB60894811C911C12
:103F600080E090E00E94AF987B018C016091CD09C8
:103F700070E080E090E00E94AF98F401608371836C
:103F800082839383C801B70120E030E84BEB54E40F
:103F90000F2EF0E0EF2EF0E0FF2EFAEF0F2FF4E4FB
:103FA0001F2FF02D0F2EF0E0AF2EF0E0BF2EF0E02F
:103FB000CF2EF0E0DF2EF02D0E94AC090F900F9075
:103FC0000F900F906093C1037093C2038093C3035B
:103FD0009093C40323CD88E399E06CE070E00E94E5
:103FE000F46D882309F418C588E399E084DB20E0A8
:103FF00030E044E353E40E94869918160CF46FC72E
:1040000088E399E078DB20E030E044E353E40E9469
:104010001298882314F40C94352C88E399E0B0DBD3
:1040200020E030E044E353E40E948699181614F02F
:104030000C94662988E399E0A3DB7B018C0100D016
:1040400000D08DB69EB60894811C911C6091CD095C
:1040500070E080E090E00E94AF98F401608371838B
:1040600082839383C801B70120E030E044E353E446
:104070000F2EF0E0EF2EF0E0FF2EF1E60F2FF3E42D
:104080001F2FF02D0F2EF0E0AF2EF0E0BF2EF0E04E
:10409000CF2EF0E0DF2EF02D0E94AC090F900F9094
:1040A0000F900F9031CFC801B70120E030E040E021
:1040B00050E00E94129888230CF007CD00D000D069
:1040C0008DB69EB60894811C911C6091CC0970E05D
:1040D00080E090E00E94AF98F40160837183828356
:1040E0009383C801B70120E030E040E050E00F2E9C
:1040F000F0E0EF2EF0E0FF2EF0E80F2FFFEB1F2F88
:10410000F02D59016A010E94AC090F900F900F9099
:104110000F909058D2CC84ED97E061E070E00E945F
:10412000F14F853710F40C940D2984ED97E061E090
:1041300070E00E94F14F8A3810F00C944E2B84ED01
:1041400097E061E070E00E94F14F082F84ED97E066
:1041500063E070E00E94F14F10E0081B110900318C
:1041600011050CF43BC584ED97E061E070E00E941E
:10417000F14F082F84ED97E063E070E00E94F14F6B
:1041800010E0081B1109101611060CF095C784EDFC
:1041900097E061E070E00E94F14FE82E84ED97E037
:1041A00063E070E00E94F14FFF24E81AF108002755
:1041B000F7FC0095102FC801B7010E94B1987B0150
:1041C0008C0100D000D08DB69EB60894811C911C45
:1041D0006091CD0970E080E090E00E94AF98F4011A
:1041E0006083718382839383C801B70120E030E04C
:1041F00040E050E00F2EF0E0EF2EF0E0FF2EFFE762
:104200000F2FF3E41F2FF02D59016A0171CD84EDBA
:1042100097E061E070E00E94F14F00D000D08DB6D1
:104220009EB60894811C911C90E0A0E0B0E0BC0117
:10423000CD010E94AF987B018C016091CC0970E0A8
:1042400080E090E00E94AF98F401608371838283E4
:104250009383C801B70120E030E048EE52E40F2E0E
:10426000F0E0EF2EF0E0FF2EF0E00F2FF0E01F2F38
:10427000F02D570168010E94AC090F900F900F902C
:104280000F906093BD037093BE038093BF03909320
:10429000C003F1CCC801B70120E030E040E050E0BD
:1042A0000E94129888230CF071CD00D000D08DB6FA
:1042B0009EB60894811C911C6091CC0970E080E04E
:1042C00090E00E94AF98F4016083718382839383AE
:1042D000C801B70120E030E040E050E00F2EF0E0F0
:1042E000EF2EF0E0FF2EF0E10F2FF2EC1F2FF02D5C
:1042F00059016A010E94AC090F900F900F900F9026
:1043000090583CCD00D000D08DB69EB60894811C4C
:10431000911C80E090E00E94AF987B018C0160913D
:10432000CC0970E080E090E00E94AF98F4016083D7
:10433000718382839383C801B70120E030E84BEB9F
:1043400054E40F2EF0E0EF2EF0E0FF2EFAE70F2FEF
:10435000F4E41F2FF02D0F2EF0E0AF2EF0E0BF2E73
:10436000F0E0CF2EF0E0DF2EF02D0E94AC090F9090
:104370000F900F900F9090586093BD037093BE0301
:104380008093BF039093C003D6CD80ED94E061E0AD
:1043900070E040E00E94D37F8D549D410CF088C4B2
:1043A00080ED94E061E070E040E00E94D37F845BA8
:1043B000924E14F40C942B2A80ED94E063E070E0AC
:1043C00040E00E94D37F7C0180ED94E061E070E0EA
:1043D00040E00E94D37F0027F7FC0095102FAA270A
:1043E00097FDA095BA2FE81AF90A0A0B1B0BFDE4FA
:1043F000EF16FDE1FF06F0E00F07F0E01F070CF4F9
:1044000012C280ED94E061E070E040E00E94D37F52
:104410007C0180ED94E063E070E040E00E94D37F97
:104420000027F7FC0095102FAA2797FDA095BA2F1B
:10443000E81AF90A0A0B1B0B1E141F0410061106BA
:1044400014F00C94DC2A80ED94E061E070E040E030
:104450000E94D37F7C0180ED94E063E070E040E057
:104460000E94D37F0027F7FC0095102FAA2797FD05
:10447000A095BA2FE81AF90A0A0B1B0BC801B7015D
:104480000E94B1987B018C0100D000D08DB69EB601
:104490000894811C911C6091CD0970E080E090E04F
:1044A0000E94AF98F4016083718382839383C80173
:1044B000B70120E030E040E050E00F2EF0E0EF2EBA
:1044C000FFEFFF2EFFE70F2FF7E41F2FF02D59010D
:1044D0006A010E94AC090F900F900F900F909058B6
:1044E0006093C1037093C2038093C3039093C4038A
:1044F0007DCAC801B70120E030E040E050E00E94F2
:10450000129888230CF027CB00D000D08DB69EB631
:104510000894811C911C6091CD0970E080E090E0CE
:104520000E94AF98F4016083718382839383C801F2
:10453000B70120E030E040E050E00F2EF0E0EF2E39
:10454000F0E0FF2EF0E80F2FFFEB1F2FF02D5901A9
:104550006A010E94AC090F900F900F900F90905835
:10456000F2CA84ED97E060E070E00E94F14F893C70
:1045700008F430CA84ED97E060E070E00E94F14FEB
:1045800000D000D08DB69EB60894811C911C90E09E
:10459000A0E0B0E0BC01CD010E94AF987B018C018E
:1045A0006091CD0970E080E090E00E94AF98F40146
:1045B0006083718382839383C801B70120E030E078
:1045C00049E453E40F2EF0E0EF2EF0E0FF2EFFE77A
:1045D0000F2FF3E41F2FF02DE5C9C801B70120E02C
:1045E00030E040E050E00E94129888230CF0B3CAFB
:1045F00000D000D08DB69EB60894811C911C6091AD
:10460000CD0970E080E090E00E94AF98F4016083F3
:10461000718382839383C801B70120E030E040E0DA
:1046200050E00F2EF0E0EF2EF0E0FF2EF4E30F2F1E
:10463000F2EC1F2FF02D8BCF00D000D08DB69EB6A0
:104640000894811C911C80E090E00E94AF987B014F
:104650008C016091CD0970E080E090E00E94AF98FD
:10466000F4016083718382839383C801B70120E0E2
:1046700030E84BEB54E40F2EF0E0EF2EF0E0FF2E8D
:10468000FAE70F2FF4E41F2FF02D0F2EF0E0AF2EDE
:10469000F0E0BF2EF0E0CF2EF0E0DF2EF02D0E94F4
:1046A000AC090F900F900F900F9090588BCC00D0CA
:1046B00000D08DB69EB60894811C911C80E090E0DD
:1046C0000E94AF987B018C016091CC0970E080E082
:1046D00090E00E94AF98F40160837183828393839A
:1046E000C801B70120E030E84BEB54E40F2EF0E0B6
:1046F000EF2EF0E0FF2EFAEF0F2FF4E41F2FF02D36
:104700000F2EF0E0AF2EF0E0BF2EF0E0CF2EF0E065
:10471000DF2EF02D0E94AC090F900F900F900F909C
:104720002BCE89EE98E061E070E00E94EE5785376D
:1047300008F4F3C689EE98E061E070E00E94EE575D
:104740008A3808F059C489EE98E061E070E00E9470
:10475000EE57082F89EE98E063E070E00E94EE5774
:1047600010E0081B1109003111050CF44EC389EE4D
:1047700098E061E070E00E94EE57082F89EE98E023
:1047800063E070E00E94EE5710E0081B110910165C
:10479000110614F00C94E42B89EE98E061E070E0CF
:1047A0000E94EE57E82E89EE98E063E070E00E94E8
:1047B000EE57FF24E81AF1080027F7FC0095102FA8
:1047C000C801B7010E94B1987B018C0100D000D0D4
:1047D0008DB69EB60894811C911C6091CD0970E045
:1047E00080E090E00E94AF98F4016083718382833F
:1047F0009383C801B70120E030E040E050E00F2E85
:10480000F0E0EF2EF0E0FF2EFFE70F2FF3E41F2F75
:10481000F02D59016A010E94AC090F900F900F9082
:104820000F9090580CCA80ED94E061E070E040E099
:104830000E94D37F7C0180ED94E063E070E040E073
:104840000E94D37F0027F7FC0095102FAA2797FD21
:10485000A095BA2FE81AF90A0A0B1B0BFDE4EF1614
:10486000FDE1FF06F0E00F07F0E01F070CF4BEC803
:1048700080ED94E061E070E040E00E94D37F7C0135
:1048800080ED94E063E070E040E00E94D37F002779
:10489000F7FC0095102FAA2797FDA095BA2FE81ACC
:1048A000F90A0A0B1B0B1E141F041006110614F044
:1048B0000C94702C80ED94E061E070E040E00E9488
:1048C000D37F7C0180ED94E063E070E040E00E94E3
:1048D000D37F0027F7FC0095102FAA2797FDA095FE
:1048E000BA2FE81AF90A0A0B1B0BC801B7010E947C
:1048F000B1987B018C0100D000D08DB69EB6089493
:10490000811C911C6091CD0970E080E090E00E94D4
:10491000AF98F4016083718382839383C801B701E8
:1049200020E030E040E050E00F2EF0E0EF2EFFEF0F
:10493000FF2EFFE70F2FF7E41F2FF02D59016A011B
:104940000E94AC090F900F900F900F90C9CD88E393
:1049500099E061E070E00E94836E8C0188E399E049
:1049600063E070E00E94836E081B190B093C11057F
:104970000CF438C888E399E061E070E00E94836E2F
:104980008C0188E399E063E070E00E94836E081B6D
:10499000190B101611060CF0B1C788E399E061E01D
:1049A00070E00E94836E7C0188E399E063E070E030
:1049B0000E94836EE81AF90A0027F7FC0095102F71
:1049C000C801B7010E94B1987B018C0100D000D0D2
:1049D0008DB69EB60894811C911C6091CD0970E043
:1049E00080E090E00E94AF98F4016083718382833D
:1049F0009383C801B70120E030E040E050E00F2E83
:104A0000F0E0EF2EF0E0FF2EF6E10F2FF5E41F2F80
:104A1000F02D59016A0140CB88E399E061E070E034
:104A20000E946E6E8A3808F09CC288E399E061E0CB
:104A300070E00E946E6E853708F4D3C688E399E073
:104A400060E070E00E946E6E8A3808F4C7C488E3A4
:104A500099E060E070E00E946E6E00D000D08DB6EC
:104A60009EB60894811C911C90E0A0E0B0E0BC01CF
:104A7000CD010E94AF987B018C016091CD0970E05F
:104A800080E090E00E94AF98F4016083718382839C
:104A90009383C801B70120E030E04AE053E40F2ED1
:104AA000F0E0EF2EF0E0FF2EF6E60F2FF3E41F2FDD
:104AB000F02DE8CA84ED97E062E070E00E949B561A
:104AC00020E030E044E353E40E941298882314F07D
:104AD0000C94EA1C84ED97E062E070E00E949B5623
:104AE0007B018C0100D000D08DB69EB60894811C4D
:104AF000911C6091CD0970E080E090E00E94AF9839
:104B0000F4016083718382839383C801B70120E03D
:104B100030E044E353E40F2EF0E0EF2EF0E0FF2E00
:104B2000F7E00F2FF3E41F2FF02D0F2EF0E0AF2E44
:104B3000F0E0BF2EF0E0CF2EF0E0DF2EF02DD8C851
:104B400084ED97E061E070E00E949B5620E030E049
:104B500044E353E40E941298882314F00C94971CA9
:104B600084ED97E061E070E00E949B567B018C0130
:104B700000D000D08DB69EB60894811C911C609127
:104B8000CC0970E080E090E00E94AF98F40160836F
:104B9000718382839383C801B70120E030E044E34E
:104BA00053E40F2EF0E0EF2EF0E0FF2EF0E10F2F98
:104BB000F3E41F2FF02D0F2EF0E0AF2EF0E0BF2E0C
:104BC000F0E0CF2EF0E0DF2EF02D0E94AC090F9028
:104BD0000F900F900F9090580C948F1C84ED97E0DD
:104BE00063E070E00E94F14F082F84ED97E061E0F0
:104BF00070E00E94F14F10E0081B1109003111050F
:104C000014F40C94EA1C84ED97E061E070E00E94DB
:104C1000F14F082F84ED97E063E070E00E94F14FC0
:104C200010E0081B1109101611060CF073C684ED74
:104C300097E061E070E00E94F14FE82E84ED97E08C
:104C400063E070E00E94F14FFF24E81AF1080027AA
:104C5000F7FC0095102FC801B7010E94B1987B01A5
:104C60008C0100D000D08DB69EB60894811C911C9A
:104C70006091CD0970E080E090E00E94AF98F4016F
:104C80006083718382839383C801B70120E030E0A1
:104C900040E050E00F2EF0E0EF2EF0E0FF2EFFE7B7
:104CA0000F2FF3E41F2FF02D59016A010C94DC1C27
:104CB00080ED94E063E070E040E00E94D37F8D548B
:104CC0009D410CF46DCB80ED94E061E070E040E03C
:104CD0000E94D37F7C0180ED94E063E070E040E0CF
:104CE0000E94D37F00D000D08DB69EB60894811C60
:104CF000911CAA2797FDA095BA2F0027F7FC0095D5
:104D0000102F8E0D9F1DA01FB11FBC01CD010E9451
:104D1000B1987B018C016091CC0970E080E090E05B
:104D20000E94AF98F4016083718382839383C801EA
:104D3000B70120E038E64AE656E40F2EF0E0EF2E09
:104D4000FEEFFF2EFFE70F2FF7E41F2FF02D0F2EA2
:104D5000F0E0AF2EF0E0BF2EF0E0CF2EF0E0DF2E3F
:104D6000F02D0E94AC090F900F900F900F90609360
:104D7000BD037093BE038093BF039093C0031CCB0D
:104D800089EE98E061E070E00E943B1B7B018C01A2
:104D900000D000D08DB69EB60894811C911C609105
:104DA000CC0970E080E090E00E94AF98F40160834D
:104DB000718382839383C801B70120E030E044E32C
:104DC00053E40F2EF0E0EF2EF0E0FF2EF8E50F2F6A
:104DD000F3E41F2FF02D0F2EF0E0AF2EF0E0BF2EEA
:104DE000F0E0CF2EF0E0DF2EF02D0E94AC090F9006
:104DF0000F900F900F906093BD037093BE0380934C
:104E0000BF039093C0030C94D61D89EE98E063E035
:104E100070E00E94EE57082F89EE98E061E070E0A4
:104E20000E94EE5710E0081B11090031110514F41F
:104E30000C94EE1C89EE98E061E070E00E94EE5761
:104E4000082F89EE98E063E070E00E94EE5710E0D2
:104E5000081B1109101611060CF068C589EE98E0C0
:104E600061E070E00E94EE57E82E89EE98E063E082
:104E700070E00E94EE57FF24E81AF1080027F7FCC3
:104E80000095102FC801B7010E94B1987B018C01D9
:104E900000D000D08DB69EB60894811C911C609104
:104EA000CD0970E080E090E00E94AF98F40160834B
:104EB000718382839383C801B70120E030E040E032
:104EC00050E00F2EF0E0EF2EF0E0FF2EFFE70F2F67
:104ED000F3E41F2FF02D59016A010C94191E88E389
:104EE00099E00E947B1B7B018C0100D000D08DB625
:104EF0009EB60894811C911C6091CC0970E080E002
:104F000090E00E94AF98F401608371838283938361
:104F1000C801B70120E030E044E353E40F2EF0E095
:104F2000EF2EF0E0FF2EF8E50F2FF3E41F2FF02D0A
:104F30000F2EF0E0AF2EF0E0BF2EF0E0CF2EF0E02D
:104F4000DF2EF02D0E94AC090F900F900F900F9064
:104F50006093BD037093BE038093BF039093C0031F
:104F60005CC888E399E061E070E00E946E6E00D05A
:104F700000D08DB69EB60894811C911C90E0A0E0F4
:104F8000B0E0BC01CD010E94AF987B018C01609123
:104F9000CC0970E080E090E00E94AF98F40160835B
:104FA000718382839383C801B70120E030E04AE037
:104FB00053E40F2EF0E0EF2EF0E0FF2EF6E60F2F79
:104FC000F3E41F2FF02D0F2EF0E0AF2EF0E0BF2EF8
:104FD000F0E0CF2EF0E0DF2EF02D0E94AC090F9014
:104FE0000F900F900F906093BD037093BE0380935A
:104FF000BF039093C00322CD89EE98E063E070E098
:105000000E94EE578A3808F49ECB89EE98E061E062
:1050100070E00E94EE57E82E89EE98E063E070E0C1
:105020000E94EE5700D000D08DB69EB60894811C29
:10503000911CFF24E80EF11C0027F7FC0095102FAF
:10504000C801B7010E94B1987B018C016091CC0925
:1050500070E080E090E00E94AF98F401608371837B
:1050600082839383C801B70120E030E04AE853E42B
:105070000F2EF0E0EF2EF0E0FF2EFFEF0F2FF3E406
:105080001F2FF02D0F2EF0E0AF2EF0E0BF2EF0E03E
:10509000CF2EF0E0DF2EF02D0E94AC090F900F9084
:1050A0000F900F9090586093BD037093BE03809350
:1050B000BF039093C00347CB84ED97E063E070E0BB
:1050C0000E94F14FE82E84ED97E061E070E06AC83D
:1050D00088E399E063E070E00E94836E895998400C
:1050E00010F40C940D1F88E399E061E070E00E94D9
:1050F000836E7C0188E399E063E070E00E94836E38
:1051000000D000D08DB69EB60894811C911CE80E8C
:10511000F91E00E010E0C801B7010E94AF987B01C2
:105120008C016091CC0970E080E090E00E94AF9823
:10513000F4016083718382839383C801B70120E007
:1051400030E949E855E40F2EF0E0EF2EF0E0FF2EB5
:10515000F8EC0F2FF5E41F2FF02D0F2EF0E0AF2EFF
:10516000F0E0BF2EF0E0CF2EF0E0DF2EF02D0E9419
:10517000AC090F900F900F900F906093BD03709348
:10518000BE038093BF039093C0030C94181F89EE55
:1051900098E062E070E00E943B1B20E030E044E3D6
:1051A00053E40E948699181614F00C94EE1C89EEB4
:1051B00098E062E070E00E943B1B7B018C0100D014
:1051C00000D08DB69EB60894811C911C6091CD09CB
:1051D00070E080E090E00E94AF98F40160837183FA
:1051E00082839383C801B70120E030E044E353E4B5
:1051F0000F2EF0E0EF2EF0E0FF2EF1E60F2FF3E49C
:105200001F2FF02D0F2EF0E0AF2EF0E0BF2EF0E0BC
:10521000CF2EF0E0DF2EF02DFECA84ED97E063E0A4
:1052200070E00E94F14F853710F00C94952084EDCA
:1052300097E061E070E00E94F14FE82E84ED97E086
:1052400063E070E00E94F14F00D000D08DB69EB6B2
:105250000894811C911CFF24E80EF11C0027F7FC28
:105260000095102FC801B7010E94B1987B018C01F5
:105270006091CC0970E080E090E00E94AF98F4016A
:105280006083718382839383C801B70120E030E09B
:1052900048E653E40F2EF0E0EF2EF0E0FF2EF0E0B2
:1052A0000F2FF0E01F2FF02D570168010E94AC096D
:1052B0000F900F900F900F906093BD037093BE03FB
:1052C0008093BF039093C0030C949F2088E399E0E0
:1052D0000E94C01B20E030E044E353E40E94129897
:1052E000882314F00C94F21C88E399E00E94C01B00
:1052F0007B018C0100D000D08DB69EB60894811C35
:10530000911C6091CD0970E080E090E00E94AF9820
:10531000F4016083718382839383C801B70120E025
:1053200030E044E353E40F2EF0E0EF2EF0E0FF2EE8
:10533000F7E00F2FF3E41F2FF02D0F2EF0E0AF2E2C
:10534000F0E0BF2EF0E0CF2EF0E0DF2EF02D0C9439
:105350007D1F84ED97E061E070E00E94F14F00D086
:1053600000D08DB69EB60894811C911C90E0A0E000
:10537000B0E0BC01CD010E94AF987B018C0160912F
:10538000CC0970E080E090E00E94AF98F401608367
:10539000718382839383C801B70120E030E04AE043
:1053A00053E40F2EF0E0EF2EF0E0FF2EFFE70F2F7B
:1053B000F3E41F2FF02D0F2EF0E0AF2EF0E0BF2E04
:1053C000F0E0CF2EF0E0DF2EF02D0E94AC090F9020
:1053D0000F900F900F9090580C94412188E399E022
:1053E00060E070E00E946E6E853710F00C94F21C45
:1053F00088E399E060E070E00E946E6E00D000D01B
:105400008DB69EB60894811C911C90E0A0E0B0E09F
:10541000BC01CD010E94AF987B018C016091CD0948
:1054200070E080E090E00E94AF98F40160837183A7
:1054300082839383C801B70120E030E048EE52E454
:105440000F2EF0E0EF2EF0E0FF2EF8EC0F2FF1E43E
:105450001F2FF02D72CF80ED94E063E070E040E00C
:105460000E94D37F845B924E14F00C94DC2180ED7B
:1054700094E061E070E040E00E94D37F7C0180ED29
:1054800094E063E070E040E00E94D37F00D000D061
:105490008DB69EB60894811C911CAA2797FDA095F5
:1054A000BA2F0027F7FC0095102F8E0D9F1DA01F0F
:1054B000B11FBC01CD010E94B1987B018C016091AC
:1054C000CC0970E080E090E00E94AF98F401608326
:1054D000718382839383C801B70120E038E64AE6EE
:1054E00056EC0F2EF0E0EF2EF0E0FF2EF0E80F2F3D
:1054F000F7EC1F2FF02D0F2EF0E0AF2EF0E0BF2EB7
:10550000F0E0CF2EF0E0DF2EF02D0E94AC090F90DE
:105510000F900F900F9090582ACC89EE98E063E09E
:1055200070E00E94EE57853708F004C989EE98E0D4
:1055300061E070E00E94EE57E82E89EE98E063E0AB
:1055400070E00E94EE5700D000D08DB69EB6089451
:10555000811C911CFF24E80EF11C0027F7FC00952C
:10556000102FC801B7010E94B1987B018C01609196
:10557000CC0970E080E090E00E94AF98F401608375
:10558000718382839383C801B70120E030E048E64D
:1055900053E40F2EF0E0EF2EF0E0FF2EF0E00F2F9F
:1055A000F0E01F2FF02D570168010E94AC090F9009
:1055B0000F900F900F9077CD80ED94E063E070E056
:1055C00040E00E94D37F7C0180ED94E061E070E0D8
:1055D0000C942F2288E399E063E070E00E94836ED0
:1055E0008850974010F00C94181F88E399E061E010
:1055F00070E00E94836E7C0188E399E063E070E0D4
:105600000E94836E00D000D08DB69EB60894811C97
:10561000911CE80EF91E00E010E0C801B7010E94DD
:10562000AF987B018C016091CC0970E080E090E044
:105630000E94AF98F4016083718382839383C801D1
:10564000B70120E030EE40E655E40F2EF0E0EF2EFB
:10565000F0E0FF2EF8EC0F2FF4E41F2FF02D0F2EAB
:10566000F0E0AF2EF0E0BF2EF0E0CF2EF0E0DF2E26
:10567000F02D0E94AC090F900F900F900F90905852
:105680007CCD88E399E063E070E00E94836E7C014A
:1056900088E399E061E070E00C944A1F84ED97E0A4
:1056A00063E070E00E94F14F8A3810F40C949F2060
:1056B00084ED97E061E070E00E94F14FE82E84ED08
:1056C00097E063E070E00E94F14F00D000D08DB60B
:1056D0009EB60894811C911CFF24E80EF11C002743
:1056E000F7FC0095102FC801B7010E94B1987B010B
:1056F0008C016091CC0970E080E090E00E94AF984E
:10570000F4016083718382839383C801B70120E031
:1057100030E04AE853E40F2EF0E0EF2EF0E0FF2EE9
:10572000FFEF0F2FF3E41F2FF02D0F2EF0E0AF2E21
:10573000F0E0BF2EF0E0CF2EF0E0DF2EF02D0E9443
:10574000AC090F900F900F900F909058B5CD89EE47
:1057500098E061E070E00E943B1B7B018C0100D06F
:1057600000D08DB69EB60894811C911C6091CC0926
:1057700070E080E090E00E94AF98F4016083718354
:1057800082839383C801B70120E030E044E353E40F
:105790000F2EF0E0EF2EF0E0FF2EF0E10F2FF3E4FC
:1057A0001F2FF02D0F2EF0E0AF2EF0E0BF2EF0E017
:1057B000CF2EF0E0DF2EF02D0E94AC090F900F905D
:1057C0000F900F90905817CB89EE98E063E070E04F
:1057D0000E94EE57E82E89EE98E061E070E00C94AC
:1057E000D72388E399E061E070E00E946E6E00D0FC
:1057F00000D08DB69EB60894811C911C90E0A0E06C
:10580000B0E0BC01CD010E94AF987B018C0160919A
:10581000CC0970E080E090E00E94AF98F4016083D2
:10582000718382839383C801B70120E030E048EEA2
:1058300052E40F2EF0E0EF2EF0E0FF2EF8EC0F2FE9
:10584000F1E41F2FF02D0F2EF0E0AF2EF0E0BF2E71
:10585000F0E0CF2EF0E0DF2EF02D0E94AC090F908B
:105860000F900F900F909058BECB88E399E00E9464
:105870007B1B7B018C0100D000D08DB69EB60894B6
:10588000811C911C6091CC0970E080E090E00E9446
:10589000AF98F4016083718382839383C801B70159
:1058A00020E030E044E353E40F2EF0E0EF2EF0E090
:1058B000FF2EF0E10F2FF3E41F2FF02D0F2EF0E05D
:1058C000AF2EF0E0BF2EF0E0CF2EF0E0DF2EF02D77
:1058D0000E94AC090F900F900F900F90905838CB0A
:1058E00080ED94E063E070E040E00E94D37F7C01B3
:1058F00080ED94E061E070E00C94662488E399E028
:1059000063E070E00E94836E7C0188E399E061E0CF
:1059100070E04EC884ED97E063E070E00E94F14FC4
:10592000E82E84ED97E061E070E08CC989EE98E0A4
:1059300063E070E00E94EE57E82E89EE98E061E0A7
:1059400070E097CACF93DF93EC018881813469F0CE
:105950008234A1F0813461F08D3491F589818334F2
:1059600009F4DCC0DF91CF91089589818B3399F0E0
:1059700089818334B9F70E949E19F4CF89818335D8
:1059800089F789ED9AE060ED70E00E94349581E03E
:105990008093EA0942C00E946E0B89ED9AE00E9452
:1059A000809383349105F1F28EE896E00E94515A7B
:1059B00083349105B9F28AE394E00E94946CEDCFB0
:1059C000873481F48981803509F45CC0833509F41A
:1059D0005DC0893409F4A5C08B3421F681E0809341
:1059E0004203C0CF8335E1F48981803509F4A1C039
:1059F000893409F4B4C0843409F4CBC0843509F483
:105A0000DEC08B3409F4F8C0813409F444C1853513
:105A100009F440C0823409F4E8C00E94DA0FA2CF32
:105A2000893451F48981823409F47FC0833509F0C7
:105A300099CF10923C0396CF8235D1F0833409F090
:105A400091CF8981833509F436C18A3499F18D3437
:105A500009F434C1803509F405C1823509F082CFDB
:105A60000E94101081E080934003809342030FC096
:105A70008981823409F489C0833509F073CF10928B
:105A80003F0370CF81E0809340036CCF81E080932F
:105A90003D0368CFCE0164E971E00E947C0780E09D
:105AA00090E066E971E00E947C070E945F078093A6
:105AB000CD09B3CF0E94A2916093ED037093EE03E2
:105AC0008093EF039093F003CE0164E971E00E94AC
:105AD0007C0780E090E064E971E00E947C070E940E
