:10000000C4C600000C94A08D0C94D18D0C94028E6B
:100010000C949F0AE5C60000E3C60000E1C600009C
:10002000DFC60000DDC60000DBC60000D9C6000048
:10003000D7C60000D5C60000D3C60000D1C6000058
:10004000CFC60000CDC600000C94338EC9C6000098
:100050000C94EB900C947191C3C60000C1C60000D3
:10006000BFC60000BDC600000C94FE8BB9C60000E0
:10007000B7C60000B5C60000B3C60000B1C6000098
:10008000AFC60000ADC60000ABC60000084AD73BB3
:100090003BCE016E84BCBFFDC12F3D6C74319ABD57
:1000A00056833DDA3D00C77F11BED9E4BB4C3E917B
:1000B0006BAAAABE000000803F4779726F2063617F
:1000C0006C6962726174696F6E206572726F720022
:1000D0002C00522C002C002C00562C002C002C0044
:1000E0004B2C002C41546D6567613132383450001F
:1000F0002C00492C002C002C00532C002C002C0030
:100100002C00502C005043002C002C002C00566575
:100110006C6F6369747920284C292C2056656C6FAC
:1001200063697479202852292C20537065656420F6
:1001300076616C756520284C292C205370656564A8
:100140002076616C7565202852290043616C6962D4
:10015000726174696F6E206F6620746865206D6FC0
:10016000746F727320697320646F6E6500546865E4
:1001700020646966666572656E6365206973206ECA
:100180006F773A20004E6F7720746865206D6F742A
:100190006F72732077696C6C207370696E20757054
:1001A00020616761696E2E204E6F7720746865202C
:1001B00073706565642076616C7565732073686F14
:1001C000756C6420626520616C6D6F73742065715D
:1001D00075616C2E2053656E6420616E79206368B2
:1001E0006172616374657220746F20657869740D43
:1001F0000A002C00546865206D6F746F7220736361
:10020000616C61727320617265206E6F7720284C7B
:100210002F52293A20002C000D0A54686520737073
:100220006565642076616C75657320617265202850
:100230004C2F52293A2000457374696D6174696EC0
:1002400067206D696E696D756D2073746172746974
:100250006E672076616C75652E205768656E207418
:1002600068652066697273742074776F2076616C9C
:1002700075657320646F206E6F74206368616E67AC
:100280006520616E796D6F72652C207468656E20D3
:1002900073656E6420616E79206368617261637456
:1002A000657220746F20636F6E74696E75650D0AD8
:1002B000005075742074686520726F626F742073CB
:1002C0006F2074686520776865656C732063616E64
:1002D000206D6F766520667265656C7920616E644D
:1002E000207468656E2073656E6420616E7920638A
:1002F000686172616374657220746F2073746172D7
:100300007420746865206D6F746F722063616C690E
:1003100062726174696F6E20726F7574696E6500C8
:1003200043616C6962726174696F6E206F662074DC
:10033000686520616363656C65726F6D6574657275
:1003400020697320646F6E65002C004E6577207AFB
:1003500065726F2076616C75657320286727732935
:100360003A2000416363656C65726F6D65746572F8
:100370002063616C6962726174696F6E206572726C
:100380006F7200506C6561736520707574207468BD
:100390006520726F626F7420706572666563746C3D
:1003A0007920686F72697A6F6E74616C206F6E204D
:1003B000697473207369646520616E642074686574
:1003C0006E2073656E6420616E792063686172616E
:1003D0006374657220746F20737461727420746822
:1003E000652063616C6962726174696F6E20726FFF
:1003F0007574696E65000D0A3D3D3D3D3D3D3D3DD9
:100400003D3D3D3D3D3D3D3D3D3D3D3D3D3D3D3D1C
:100410003D3D3D3D3D3D3D3D3D3D3D3D3D3D3D3D0C
:100420003D3D3D3D3D3D3D3D3D3D3D3D3D3D3D3DFC
:100430003D3D3D3D3D3D3D3D3D3D3D3D3D3D3D3DEC
:100440003D3D3D3D3D3D3D3D3D3D3D3D3D3D3D3DDC
:100450003D3D0D0A0043523B090909095265737479
:100460006F72652064656661756C742045455052F5
:100470004F4D2076616C756573004350503B090900
:100480000909537461727420706172696E67207318
:10049000657175656E6365207769746820505334A3
:1004A00020636F6E74726F6C6C6572004350573BC3
:1004B00009090909537461727420706172696E6769
:1004C0002073657175656E63652077697468205760
:1004D00069696D6F746500434D2C70697463682C95
:1004E000726F6C6C3B090909537465657220726FF9
:1004F000626F74207573696E672070697463682019
:10050000616E6420726F6C6C00434A2C782C793BCE
:1005100009090909537465657220726F626F74204E
:100520007573696E6720782C792D636F6F726469BB
:100530006E617465730043533B0909090953656E85
:10054000642073746F7020636F6D6D616E64005210
:10055000533B0909090953746F702073656E646910
:100560006E67207265706F72742076616C7565734A
:100570000D0A0052423B0909090953746172742043
:1005800073656E64696E67207265706F7274207631
:10059000616C7565730049533B0909090953746F10
:1005A000702073656E64696E6720494D55207661D1
:1005B0006C7565730049423B0909090953746172FE
:1005C000742073656E64696E6720494D55207661AD
:1005D0006C7565730053422C76616C75653B090937
:1005E000095573656420746F2073657420746865A1
:1005F000206261636B20746F2073706F742076616A
:100600006C7565202874727565203D20312C20663C
:10061000616C7365203D2030290D0A0053552C76FE
:10062000616C75653B0909095573656420746F2019
:1006300073657420746865206D6178696D756D20CF
:100640007475726E696E672076616C7565005341D2
:100650002C616E676C653B090909557365642074EC
:100660006F2073657420746865206D6178696D759D
:100670006D20636F6E74726F6C6C696E6720616E53
:10068000676C6500534B2C51616E676C652C516231
:100690006961732C526D6561737572653B095573A1
:1006A000656420746F2073657420746865204B61E5
:1006B0006C6D616E2066696C7465722076616C7514
:1006C00065730053542C746172676574416E676C76
:1006D000653B0909095573656420746F207365745F
:1006E000207468652074617267657420616E676C40
:1006F000650053442C4B643B090909095573656433
:1007000020746F2073657420746865204B642076B4
:10071000616C75650053492C4B693B090909095502
:1007200073656420746F2073657420746865204B52
:10073000692076616C75650053502C4B703B09093C
:1007400009095573656420746F207365742074689B
:1007500065204B702076616C75650047493B09093F
:10076000090947657420696E666F2076616C75654E
:10077000730D0A0047533B09090909476574207343
:10078000657474696E67732076616C756573004774
:100790004B3B09090909476574204B616C6D616E1B
:1007A0002066696C7465722076616C7565730047AC
:1007B000503B090909094765742050494420766176
:1007C0006C756573004D433B0909090953656E64F7
:1007D00020746F2063616C69627261746520746853
:1007E00065206D6F746F72730D0A0041433B0909F8
:1007F000090953656E6420746F2063616C696272CD
:100800006174652074686520616363656C65726FEF
:100810006D6574657200413B0909090953656E6491
:1008200020746F2061626F72742E2053656E642095
:1008300027432720616761696E20746F20636F6EA4
:1008400074696E75650D0A006D0909090953656EB5
:100850006420746F2073686F772074686973206DEB
:10086000656E750D0A000D0A3D3D3D3D3D3D3D3D2A
:100870003D3D3D3D3D3D3D3D3D3D3D3D3D3D3D3DA8
:100880003D3D3D3D3D3D3D3D3D3D3D3D3D3D3D3D98
:100890003D3D204D656E75203D3D3D3D3D3D3D3D21
:1008A0003D3D3D3D3D3D3D3D3D3D3D3D3D3D3D3D78
:1008B0003D3D3D3D3D3D3D3D3D3D3D3D3D3D3D3D68
:1008C0003D3D0D0A00693263526561642074696DB3
:1008D000656F757400693263526561642066616991
:1008E0006C65643A200069326357726974652066EA
:1008F00061696C65643A2000555342206661696CF9
:10090000004572726F722072656164696E67207350
:10091000656E736F72004F534320646964206E6F7D
:1009200074207374617274000001020408090A0CD7
:100930000D0E0F00000000000000000000FF271057
:100940000032FF27100032FF27100032FF2710006F
:100950003200000000000000000000000000000065
:100960000000004572726F72004572726F7200462D
:10097000756C6C0048696768004C6F770044796952
:100980006E670053687574646F776E004E6F7420E5
:100990004368617267696E67004368617267696E78
:1009A0006700506F776572526174696E673A200014
:1009B0004572726F7200426C7565746F6F74682057
:1009C0002D2052756D626C65206973206F6666001C
:1009D000426C7565746F6F7468202D2052756D625E
:1009E0006C65206973206F6E004361626C65202D19
:1009F0002052756D626C65206973206F66660043D6
:100A000061626C65202D2052756D626C6520697382
:100A1000206F6E00202D20576972656C65737353CB
:100A200074617475733A20004572726F7200467576
:100A30006C6C0048696768004C6F77004479696E98
:100A4000670053687574646F776E004E6F7420434F
:100A500068617267696E67004368617267696E6793
:100A600000202D20506F776572526174696E673A6D
:100A700020004572726F7200556E706C7567676505
:100A80006400506C756767656400436F6E6E6563E4
:100A900074696F6E5374617475733A200017181976
:100AA0001A000000001B1C1D1E1F20212200000F29
:100AB0001000000020000000400000008000000046
:100AC0000100000008000000020000000400000017
:100AD0000001000000020000000400000008000007
:100AE0000010000000200000004000000080000016
:100AF00000000100000008000000100000010203D7
:100B00000C0D0E0F0A0B08090706050410110091C1
:100B1000E3720796E4750E9FED7C0998EA7B1C8DC5
:100B2000FF6E1B8AF8691283F1601584F66738A995
:100B3000DB4A3FAEDC4D36A7D54431A0D24324B5C5
:100B4000C75623B2C0512ABBC9582DBCCE5F70E135
:100B5000930277E694057EEF9D0C79E89A0B6CFD85
:100B60008F1E6BFA881962F3811065F4861748D9D5
:100B7000AB3A4FDEAC3D46D7A53441D0A23354C585
:100B8000B72653C2B0215ACBB9285DCCBE2FE07135
:100B90000392E7760495EE7F0D9CE9780A9BFC6D45
:100BA0001F8EFB6A1889F2631180F5641687D84995
:100BB0003BAADF4E3CADD64735A4D14032A3C45545
:100BC00027B6C35220B1CA5B29B8CD5C2EBF9001B5
:100BD00073E2970674E59E0F7DEC99087AEB8C1D05
:100BE0006FFE8B1A68F9821361F0851466F7A839D5
:100BF0004BDAAF3E4CDDA63745D4A13042D3B42505
:100C000057C6B32250C1BA2B59C8BD2C5ECF0001C4
:100C10000000800000004000000000020000000012
:100C200000000400000000000200000001001000AD
:100C3000000008000000000000000000000000406C
:100C4000000000100000000800000020000020004C
:100C50000000020000000080000000040000080006
:100C6000000002000000040000000100000000007D
:100C70000000100000000001000000020000001051
:100C800000000080000000000100000002000004DD
:100C9000000000080000001020408090A0C0D0E0BC
:100CA000F000020304050100010008000200040036
:100CB0002000100040008000000000010002002021
:100CC0000010004000800004000800000021002403
:100CD0000027002A0000002200250028002B000029
:100CE000002000230026002900040402040402025C
:100CF00001010101010103030404040403030303CC
:100D000003030202020202010101020440800810F2
:100D10000102040810200201040810200408102019
:100D20004080010220408040800000000706010250
:100D300000000000000000000000040300000000AC
:100D4000000000000008090000494E46494E495481
:100D5000594E414ECDCCCC3D0AD7233C17B7D138A4
:100D600077CC2B329595E6241FB14F0A0000204125
:100D70000000C84200401C4620BCBE4CCA1B0E5A94
:100D8000AEC59D74EC10A38A259111241FBECFEF30
:100D9000D0E4DEBFCDBF13E0A0E0B1E0E0EDFEE2C5
:100DA00001E00BBF02C007900D92A431B107D9F743
:100DB0001BBE1BE0A4E1B3E001C01D92A732B10746
:100DC000E1F71DE0CAE8DDE004C02297FE010E94C1
:100DD0002097C438D107C9F70E940B940C946697EA
:100DE0000FC96627772771C0FC0188279927E894E7
:100DF00021912032E9F3293010F02E30C8F32B3244
:100E000039F02D3231F4689403C057D0820F911D10
:100E1000219120532A30C8F31EF4909581959F4F5D
:100E2000089544E153E017C0FB01DC0102C00190CA
:100E30000D9241505040D8F70895FB01DC0141501C
:100E4000504030F08D910190801919F40020B9F7CD
:100E5000881B990B0895009731F4DA018D919C91CC
:100E6000009709F40EC0DC01FB013D912191222382
:100E700019F03217C9F3FACF332331F4DA011D9296
:100E80001C928827992708951197AF93BF93FB0170
:100E90003D912191321771F4332321F4882799274A
:100EA000119702C01E921196FA01A193B0839F91EF
:100EB0008F910895222369F7EACF7AE0979F902DCA
:100EC000879F802D910D11240895A0E0B0E0EBE6FE
:100ED000F7E00C943597EC015B016115710519F091
:100EE000FB0191838083F9908F2D90E00E942497DD
:100EF000892BC9F7FDE2FF1621F4F990EE24E39463
:100F000005C02BE2F21609F4F990EE248E0101508F
:100F10001040C80169E47DE043E050E033D1892B03
:100F2000F9F48E010E5F1F4FC8016CE47DE045E0CF
:100F300050E028D1892B19F48E01095F1F4FA114AD
:100F4000B10419F0F50111830083E0FC04C070E0E6
:100F500090E080E813C070E090E080E86FEF07C198
:100F6000C80161E57DE043E050E00CD1892B69F4D4
:100F7000A114B10429F470E090E080EC6FE7F7C0B1
:100F80002296F501D183C083F6CF8824992440E0CE
:100F900050E060E070E0EF2DE053EA30A0F5F2E0C1
:100FA000EF2A8E2D90E09C0128703070E2FE06C082
:100FB000232B79F50894811C911C2BC0232B19F04D
:100FC000089481089108DB01CA0112E0880F991F7B
:100FD000AA1FBB1F1A95D1F7480F591F6A1F7B1F05
:100FE000440F551F661F771F4E0F511D611D711D48
:100FF000483929E9520729E9620729E1720748F0CF
:1010000084E0E82A06C0EE3F31F4E3FC39C098E002
:10101000E92AF990C0CFE53311F0E53189F529913E
:101020002D3219F4E0E1EE2A05C02B3219F081E0EF
:1010300090E003C0299182E090E0E22FE053EA3093
:1010400018F0C81BD90B1CC020E030E0FCE02038B1
:101050003F075CF4C901880F991F880F991F280F5B
:10106000391F220F331F2E0F311DE991E053EA3053
:1010700068F3E4FE03C0309521953F4F820E931E26
:10108000CE2CDD24E1FE07C0A114B10421F021978C
:10109000F501D183C083CB01BA010E947D957B010C
:1010A0008C01F3E0CF22DD2423E0C216D10421F429
:1010B00017FB109517F9109557016801C801B70182
:1010C00020E030E040E050E00E94E094882309F402
:1010D0004AC097FE0DC028E6E22E2DE0F22E909435
:1010E000819491089394C0E2D0E000E010E012C037
:1010F00090E8E92E9DE0F92EF6CFF7012591359184
:1011000045915491C601B5010E945F965B016C0147
:101110008C1A9D0A8C169D0684F7D595C7950F5F8E
:101120001F4F0630110529F08CEF9FEFE80EF91ED6
:10113000F1CFC501D6017C018D018C2D880F8D2D3D
:10114000881F8F3F51F0C601B50120E030E040E03C
:1011500050E00E94E094882331F482E290E0909382
:10116000260B8093250B7E2D9F2D802F612F272FFF
:10117000392F482F562FB901CA01CDB7DEB7ECE0A1
:101180000C945197FB01DC014150504088F08D9147
:1011900081341CF08B350CF4805E659161341CF059
:1011A0006B350CF4605E861B611171F3990B089529
:1011B000881BFCCFDC018FE78C9311968C931197E1
:1011C00012968C93129713968C93139714961C92E5
:1011D0001497DC961C92DC9715961C921597DD9659
:1011E0001C92DD9716961C921697DE961C92DE973F
:1011F00017961C92179718961C92189720E030E0CB
:10120000F90183E0EE0FFF1F8A95E1F7E20FF31F6C
:10121000EA0FFB1F82A1806882A386A1806886A353
:101220002F5F3F4F2330310559F714968C91149757
:10123000807F886014968C931497DC968C91DC9751
:10124000807F8860DC968C93DC97DF968C91DF97AB
:10125000807FDF968C93DF97AE5BBF4F1C92089523
:101260004D96A8CF2F923F924F925F926F927F92AE
:101270008F929F92AF92BF92CF92DF92EF92FF92A6
:101280000F931F93DF93CF9300D000D0CDB7DEB77D
:101290001B012C0139014A01A982BA82CB82DC826E
:1012A000CA01B901A80197010E94E09488230CF0BB
:1012B00057C0C201B101A40193010E9419945B01BE
:1012C0006C01C801B701A40193010E9419947B012C
:1012D0008C01698D7A8D8B8D9C8D29813A814B8112
:1012E0005C810E9419949B01AC01C801B7010E9466
:1012F000E4949B01AC01C601B5010E94E4947B011A
:101300008C01298D3A8D4B8D5C8D0E945496181658
:10131000A4F1C801B70129813A814B815C810E9407
:10132000E094882324F4E980FA800B811C81B701C2
:10133000C8010F900F900F900F90CF91DF911F91E8
:101340000F91FF90EF90DF90CF90BF90AF909F9064
:101350008F907F906F905F904F903F902F90089567
:10136000C401B301A20191010E9419945B016C01B7
:10137000C401B301A8019701A8CFE98CFA8C0B8DA9
:101380001C8DD5CF079729F070938B0060938A004E
:101390000895709389006093880008950F931F93B8
:1013A0008C016AEF70E0EEDF0730110529F0289A12
:1013B000299A1F910F910895469A479AFACFCF9292
:1013C000DF92EF92FF920F931F93CF93DF93EC0185
:1013D0006B0179018A01CA01B90120E030E048ECD3
:1013E00052E40E945496181654F40F2EF0E0EF2E9B
:1013F000F0E0FF2EF8EC0F2FF2E41F2FF02DC801C4
:10140000B70120E030E04AE753E40E945F9620E015
:1014100030E048EC52E40E94E4940E9451959B0114
:10142000AC01CE01B901AEDF279779F085E0C8168F
:10143000D10491F02898299ADF91CF911F910F91B3
:10144000FF90EF90DF90CF90089585E0C816D1040B
:1014500031F0469A4798F0CF289A2998EDCF4698D0
:10146000479AEACF29B180B1247030E035952795AD
:10147000807490E036E0959587953A95E1F7282BB2
:101480008091B009880F880F282B2093B0094091D4
:101490001F03509120036091210370912203E22FDA
:1014A000F0E0EF70F070E25FFD4F8081992787FDDB
:1014B0009095A92FB92F840F951FA61FB71F809352
:1014C0001F0390932003A0932103B0932203089558
:1014D00029B180B1287030E035952795359527954D
:1014E000807890E0880F892F881F990B282B809196
:1014F000AF09880F880F282B2093AF094091230351
:10150000509124036091250370912603E22FF0E0AF
:10151000EF70F070E25FFD4F8081992787FD909515
:10152000A92FB92F481B590B6A0B7B0B4093230340
:1015300050932403609325037093260308951F920C
:101540000F920FB60F920BB60F9211242F933F9369
:101550004F935F936F937F938F939F93AF93BF93BB
:10156000EF93FF937FDFB4DFFF91EF91BF91AF91D6
:101570009F918F917F916F915F914F913F912F91AB
:101580000F900BBE0F900FBE0F901F9018952091DB
:101590001F03309120034091210350912203B90190
:1015A000CA0108952091230330912403409125031B
:1015B00050912603B901CA01089580911F039091AB
:1015C0002003A0912103B0912203209123033091A5
:1015D00024034091250350912603280F391F4A1FE9
:1015E0005B1FB901CA01089587E090E0D7DE88E06B
:1015F00090E0D4DE80E090E0A0E0B0E08093520381
:1016000090935303A0935403B093550380935603D0
:1016100090935703A0935803B0935903CEDF609380
:10162000D3037093D4038093D5039093D603809112
:101630008C0990918D09A0918E09B0918F098093AA
:101640002C0390932D03A0932E03B0932F030895A2
:101650002F923F924F925F926F927F928F929F92C2
:10166000AF92BF92CF92DF92EF92FF920F931F93B0
:10167000DF93CF93CDB7DEB728970FB6F894DEBFD0
:101680000FBECDBF1B012C0139014A01E982FA824C
:101690000B831C83AD82BE82CF82D8868091F901F4
:1016A000882309F05CC2CA01B90120E030E040E0C3
:1016B00050E00E945496181654F48091CF039091F4
:1016C000D003A091D103B091D203B7FD19C0C401DA
:1016D000B30120E030E040E050E00E94E094882335
:1016E0000CF0EEC18091CF039091D003A091D10373
:1016F000B091D203181619061A061B060CF0E0C1A9
:101700006091CF037091D0038091D1039091D20367
:101710000E947F9520E030E04CE053E40E94E49486
:101720009B01AC01C401B3010E941A943B014C011E
:10173000C201B101A40193010E9419947B018C01A3
:10174000A0902C03B0902D03C0902E03D0902F03B7
:10175000C801B701A60195010E9419943B014C01F3
:1017600020E030E040E85FE30E94549618160CF049
:1017700070C2C601B50120E030E040E85FE30E949E
:101780001A947B018C01E0922C03F0922D030093BC
:101790002E0310932F03C801B70120914E033091FF
:1017A0004F0340915003509151030E9419943B0103
:1017B0004C0160935A0370935B0380935C03909396
:1017C0005D032091800930918109409182095091F7
:1017D00083090E945F961B012C0160935E03709346
:1017E0005F038093600390936103C401B3012D8173
:1017F0003E814F8158850E945F962091560330911B
:10180000570340915803509159030E941A947B0149
:101810008C01609356037093570380935803909301
:101820005903A0908409B0908509C0908609D09092
:10183000870920E030E040E85FEB0E94E0948823D5
:101840000CF41BC2C801B70120E030E040E85FE3C0
:101850000E945496181654F40F2EF0E0EF2EF0E08C
:10186000FF2EF0E80F2FFFE31F2FF02DC601B5016B
:1018700020E030E048EC52E40E945F96A801970116
:101880000E945F965B016C01609362037093630337
:10189000809364039093650360918809709189092E
:1018A00080918A0990918B0920E030E048EC52E465
:1018B0000E94E4947B018C01C401B3012091520386
:1018C0003091530340915403509155030E94199451
:1018D0009B01AC01C801B7010E945F962D813E813A
:1018E0004F8158850E94E4947B018C0160936603CC
:1018F0007093670380936803909369036092520327
:10190000709253038092540390925503C201B10127
:10191000A60195010E941A94A80197010E941A94A9
:101920003B014C0160936A0370936B0380936C03DB
:1019300090936D0369817A818B819C8120E030E0F6
:1019400040E050E00E94E09488230CF4C5C0698117
:101950007A818B819C8120E030E040E050E00E9461
:101960005496181694F56091CF037091D00380912E
:10197000D1039091D2030E947F955B016C0120E01E
:1019800030E04CE053E40E94E4947B018C0120E0C1
:1019900030E040E050E00E94549618160CF097C1D9
:1019A00069817A818B819C81A80197010E94199499
:1019B00069837A838B839C8320E030E040E050E0B1
:1019C0000E94E09488230CF4B9C0C401B3012981BA
:1019D0003A814B815C810E941A942091A709309131
:1019E000A8094091A9095091AA090E945F967B011C
:1019F0008C0160936E0370936F03809370039093D8
:101A00007103C401B30129813A814B815C810E9439
:101A100019942091AB093091AC094091AD095091D6
:101A2000AE090E945F966093720370937303809374
:101A3000740390937503C801B70120E030E040E0E3
:101A400050E00E94549688230CF4FBC087E090E09D
:101A500065E070E0A8019701B2DCE0907203F090BD
:101A600073030091740310917503C801B70120E05E
:101A700030E040E050E00E94549688230CF467C0A8
:101A800088E090E065E070E0A801970198DC289676
:101A90000FB6F894DEBF0FBECDBFCF91DF911F917F
:101AA0000F91FF90EF90DF90CF90BF90AF909F90FD
:101AB0008F907F906F905F904F903F902F90089500
:101AC000C401B30120E030E040E050E00E94E09427
:101AD000882309F02DCE14CE6091CF037091D003EE
:101AE0008091D1039091D2030E947F955B016C019C
:101AF00020E030E04CE053E40E94E4947B018C0150
:101B000020E030E040E050E00E94549618160CF0BF
:101B1000F2C069817A818B819C81A80197010E9422
:101B20001A9469837A838B839C8320E030E040E0C1
:101B300050E00E94549618160CF047CF80E090E0D9
:101B4000A0E0B0E089839A83AB83BC833ECFA80139
:101B50009701505888E090E066E070E097CF2DDD67
:101B60007B018C018091D3039091D403A091D50384
:101B7000B091D603A8019701281B390B4A0B5B0BC8
:101B800080919009882309F083C0DA01C90181534B
:101B9000984FAF4FBF4F8F599F40A040B04008F4BF
:101BA000A1C0E092D303F092D4030093D503109325
:101BB000D6036091CF037091D0038091D1039091AF
:101BC000D2030E947F9520E030E040EF52EC0E946B
:101BD000E4949B01AC01C201B1010E941A947B0103
:101BE0008C0160908C0970908D0980908E09909086
:101BF0008F09C401B30120E030E040E251E40E94CB
:101C000019945B016C01C801B701A60195010E94FE
:101C1000E09488239CF0C401B30120E030E040E26E
:101C200051E40E941A945B016C01C801B701A6013E
:101C300095010E94549618160CF082CD860175010C
:101C40007FCDA8019701505887E090E066E070E0F2
:101C500003CFC401B30120E030E040E85FEB0E9415
:101C6000E09488230CF08FCDC601B50120E030E070
:101C700040E85FE30E94199484CD0F2EF0E0EF2E30
:101C8000F0E0FF2EF0E80F2FFFEB1F2FF02DEECD31
:101C9000DA01C90157FD59C081386EE3960760E04B
:101CA000A60760E0B60794F1CA01B9010E947F95CA
:101CB00020E030E046E954EC0E94E4949B01AC0142
:101CC000C201B1010E941A941B012C0172CFC601FE
:101CD000B50120E030E04CE053EC0E94E4947B013D
:101CE0008C015ECECA01B9010E947F9520E030E0F0
:101CF0004AE754ECE1CFC601B50120E030E04CE00A
:101D000053EC0E94E4947B018C0103CF8134EFE11A
:101D10009E07E0E0AE07E0E0BE0774F4815D974007
:101D2000A040B040FCF2CA01B9010E947F9520E0BA
:101D300030E04AEF54ECC0CFCA01B9010E947F9550
:101D400020E030E048EC54ECB7CF88279927DC013D
:101D5000821B930BA40BB50B9FCFFC01A081B1811B
:101D60009D0171E0761778F4828193818A179B0731
:101D700034F4DC01C9017F5F32969C01F3CF281750
:101D80003907CCF3F7CF80E02A1B3B0B241735072C
:101D90000CF481E00895FB01F999FECFF999FECF8B
:101DA00092BD81BDF89A80B5808381E090E008956E
:101DB0009C01FB01F999FECFF999FECF32BD21BDFF
:101DC000F89A80B56081861759F0F999FECF1FBA4D
:101DD00032BD21BD60BD0FB6F894FA9AF99A0FBED4
:101DE00081E090E00895AC01F999FECFFB01625DBE
:101DF0007F4F9A012F5F3F4FF999FECF52BD41BDF2
:101E0000F89A80B58083E617F70719F03196A90193
:101E1000F0CF8FE290E0089581E090E060E879E013
:101E2000E2DF8091930990919409A0919509B09176
:101E300096098093D7039093D803A093D903B093C6
:101E4000DA038091970990919809A0919909B0912E
:101E50009A098093DB039093DC03A093DD03B09396
:101E6000DE0380919B0990919C09A0919D09B091FE
:101E70009E098093DF039093E003A093E103B09366
:101E8000E2030895DC01F999FECF20E030E0A901DA
:101E90004A0F5B1FF999FECF52BD41BDF89A80B53C
:101EA000FB01E20FF31FE0818E1759F0F999FECF85
:101EB0001FBA52BD41BDE0BD0FB6F894FA9AF99A27
:101EC0000FBE2F5F3F4F2F32310509F78FE290E0B1
:101ED000089581E090E060E879E0D4DF8091930993
:101EE00090919409A0919509B09196098093D70398
:101EF0009093D803A093D903B093DA038091970904
:101F000090919809A0919909B0919A098093DB0367
:101F10009093DC03A093DD03B093DE0380919B09D3
:101F200090919C09A0919D09B0919E098093DF0337
:101F30009093E003A093E103B093E203089580E05F
:101F400090E0A0E2B1E48093800990938109A0938E
:101F50008209B093830980E090E0A0E0B0E4809330
:101F6000840990938509A0938609B093870980E03E
:101F700090E0A0E4B0E48093880990938909A0934D
:101F80008A09B0938B0980E090E0A4E3B3E48093E6
:101F90008C0990938D09A0938E09B0938F0981E0ED
:101FA0008093900987E08093910989E18093920959
:101FB0008FE692E1A3E8BAE38093930990939409A2
:101FC000A0939509B093960986EA9BE9A4E4BBE344
:101FD0008093970990939809A0939909B0939A09CF
:101FE0008FE892ECA5EFBCE380939B0990939C094A
:101FF000A0939D09B0939E0980E090E0A0E0B0E03E
:102000008093A3099093A409A093A509B093A6096E
:1020100080939F099093A009A093A109B093A2096E
:1020200080E090E0A0E8BFE38093AB099093AC0917
:10203000A093AD09B093AE098093A7099093A80926
:10204000A093A909B093AA0944CFDF93CF930F922D
:10205000CDB7DEB780E090E0BE016F5F7F4F9BDEC3
:102060008981813059F06BDF80E090E06EE172E0B1
:102070009FDE81E00F90CF91DF91089580E0FACF4D
:10208000439862606EBD0DB407FEFDCF4EBD0DB42A
:1020900007FEFDCF439A089543986EBD0DB407FE29
:1020A000FDCF1EBC0DB407FEFDCF439A8EB508953B
:1020B000CF92DF92EF92FF920F931F93CF93DF9314
:1020C0008C0168E740E2DCDFC80168E740E0D8DF68
:1020D000C0E0D0E071E0C72ED12C7601EC1AFD0AE9
:1020E000219729F0C80168E6D7DF80FFF6CFC70146
:1020F000DF91CF911F910F91FF90EF90DF90CF90E4
:102100000895CF93DF93EC0168EFC6DF807C8034C5
:10211000B1F0813438F08038E9F0803C61F0DF9133
:10212000CF9108958823D9F7CE0168ED41EDA8DF5E
:102130001092B109F4CF81E08093B109F0CFCE01C4
:1021400068EDAADF81FD0BC0CE0168ED4BEC98DF96
:1021500083E0F2CFCE0168ED9FDF81FDF5CFCE01A8
:1021600068ED49EC8DDF82E0E7CFCF93DF93EC01A0
:102170003B9A439A279A259A2698249A80E58CBD03
:1021800081E08DBD3A98CE0168E848E179DFCE0163
:102190008FDF892B21F48FEFDF91CF910895CE014E
:1021A00068ED41EC6DDFCE0160ED40E669DFCE0108
:1021B00068EE44E065DFCE0168EE6EDF82FFFBCFA4
:1021C000CE019FDFCE0168EC40E25ADFCE0160E82D
:1021D00041E056DF80E0E0CF4F925F926F927F92B6
:1021E0008F929F92AF92BF92CF92DF92EF92FF9227
:1021F0000F931F938FE692E1A3E8BAE38093D7038E
:102200009093D803A093D903B093DA0386EA9BE9AD
:10221000A4E4BBE38093DB039093DC03A093DD0392
:10222000B093DE038FE892ECA5EFBCE38093DF036D
:102230009093E003A093E103B093E20380E090E089
:10224000A0E0B0E08093E3039093E403A093E50360
:10225000B093E6038093E7039093E803A093E90328
:10226000B093EA038093EF039093F003A093F103FC
:10227000B093F2038093F3039093F403A093F503D8
:10228000B093F6038093F7039093F803A093F903B8
:10229000B093FA038093FB039093FC03A093FD0398
:1022A000B093FE03AFE08A2EA4E09A2EC4010E94F0
:1022B0008660F0E14F2EF1E05F2E86E894E0B401F5
:1022C00040E051E092010BE111E0E6E3EE2EE1E0A7
:1022D000FE2EBCE3CB2EB1E0DB2EA8E8AA2EA1E0B7
:1022E000BA2E0E94218185EA94E0B4010E94987B75
:1022F00084E595E0B4010E94FB85F5E66F2EF5E0DC
:102300007F2EC301B4010E944937EDE88E2EE1E033
:102310009E2E83E696E0B301A20194010E947C55B3
:1023200089EA97E0B30140E020E000E0EE24CC240D
:10233000AA240E94614D0DE918E0C801B30140E0F4
:1023400094010E94B748035E1F4FC8010E94DA083B
:1023500080E092E090939E0880939D08C8010E94BF
:10236000DA088DEF98E0B30140E00E94906A1F9177
:102370000F91FF90EF90DF90CF90BF90AF909F9024
:102380008F907F906F905F904F900895EF920F9392
:10239000DF93CF9300D0CDB7DEB7FC0183E4898310
:1023A00082E08A836581768183819481AE014F5F6B
:1023B0005F4F22E00781E0840E94AB3B0F900F90BB
:1023C000CF91DF910F91EF9008954D960C94DE54CC
:1023D0000F931F9308E81AE0C80166E678E00E94B0
:1023E0000392C80168E478E00E940392C80166E1A4
:1023F00078E00E940392C8016BEE77E00E9403929E
:10240000C80165EC77E00E940392C8016FEA77E0AB
:102410000E940392C8016FE877E00E940392C8010E
:1024200064E777E00E940392C8016BE577E00E94C1
:102430000392C80168E377E00E940392C80165E156
:1024400077E00E940392C80162EF76E00E94039257
:10245000C80163EC76E00E940392C80164E876E06C
:102460000E940392C8016EE476E00E940392C801C4
:102470006CE176E00E940392C80165ED75E00E9470
:102480000392C80165EB75E00E940392C80166E9FA
:1024900075E00E940392C80163E775E00E94039211
:1024A000C8016FE475E00E940392C80166E375E01D
:1024B0000E940392C80169E075E00E940392C8017E
:1024C00067ED74E00E940392C8016CEA74E00E9418
:1024D0000392C8016AE774E00E940392C80165E5AF
:1024E00074E00E940392C80166EF73E00E940392B9
:1024F0001F910F910895CF93DF93809171068823E8
:1025000029F08091BD03882309F06CC0C8E8DAE0A7
:1025100080911B03882309F068C080911A038823E7
:1025200009F06DC080911703882309F0B3C0809132
:102530001803882309F00CC180911C03882309F03B
:10254000D0C080911603882309F01FC18091190320
:10255000882309F451C00E947B8E2091860330911C
:1025600087034091880350918903621B730B840B8E
:10257000950B655F714080409040F0F10E947B8E2A
:1025800060938603709387038093880390938903F5
:10259000CE0162ED70E00E94C491409127035091FA
:1025A00028036091290370912A03CE0122E030E0D4
:1025B0000E94E593CE0160ED70E00E94C4916091AD
:1025C00086037091870380918803909189030E940C
:1025D0007D9520E030E64AE657E40E94E494AB01A2
:1025E000BC0152C0C5E6D6E093CF10921B03CE01CA
:1025F00065E071E00E940392DF91CF9108951092FF
:102600001A03CE0162E071E00E94C49140918009FA
:10261000509181096091820970918309CE0122E075
:1026200030E00E94E593CE0160E071E00E94C49129
:1026300040918409509185096091860970918709BC
:10264000CE0122E030E00E94E593CE016EEF70E013
:102650000E94C491409188095091890960918A092A
:1026600070918B09CE0122E030E00E94E593CE010B
:102670006CEF70E00E94C49140918C0950918D09DB
:1026800060918E0970918F09CE0122E030E00E94A6
:10269000E793B2CF10921703CE0169EF70E00E946A
:1026A000C491CE01609190094AE050E00E94A1924D
:1026B000CE0167EF70E00E94C491CE016091910954
:1026C0004AE050E00E94A192CE0165EF70E00E94C6
:1026D000C491CE01609192094AE050E00E94B2920A
:1026E0008BCF10921C03CE0160EE70E00E94C4916B
:1026F0004091D7035091D8036091D9037091DA03C8
:10270000CE0124E030E00E94E593CE016EED70E052
:102710000E94C4914091DB035091DC036091DD0382
:102720007091DE03CE0124E030E00E94E593CE01FB
:102730006CED70E00E94C4914091DF035091E00382
:102740006091E1037091E203CE0124E030E09FCF7D
:1027500010921803CE0162EF70E00E94C491609164
:10276000F7017091F801CE010E940F93CE0160EF46
:1027700070E00E94C491CE0161E04AE050E00E9406
:10278000A192CE0163EE70E035CF0E947B8E209146
:102790007E0330917F034091800350918103621B3F
:1027A000730B840B950B633371058105910508F458
:1027B000CDCE0E947B8E60937E0370937F038093C7
:1027C000800390938103CE0169ED70E00E94C49173
:1027D000409142035091430360914403709145033B
:1027E000CE0122E030E00E94E593CE0167ED70E07B
:1027F0000E94C49140914A0350914B0360914C0355
:1028000070914D03CE0122E030E00E94E593CE01AD
:1028100065ED70E00E94C49140914E0350914F03CA
:1028200060915003709151032FCF2F923F924F929E
:102830005F926F927F928F929F92AF92BF92CF9250
:10284000DF92EF92FF920F931F93DF93CF93CDB759
:10285000DEB760970FB6F894DEBF0FBECDBF1C0188
:102860002B0129873A874B875C87ED86FE860F8789
:10287000188B0E94C70A5B016C010E94D20A3B01BF
:102880004C0188E89AE06EE071E00E9403923AC041
:10289000F10160817181828193812DEC3CEC4CECE3
:1028A0005DE30E941A94F1016083718382839383B4
:1028B000D601C50189539F4FAF4FBF4F8F589140ED
:1028C000A040B04008F0BEC0F201608171818281F9
:1028D00093812DEC3CEC4CEC5DE30E941A94F201E8
:1028E000608371838283938364E670E080E090E08C
:1028F0000E94F38E69807A808B809C80AD80BE8040
:10290000CF80D88488E89AE00E944F908F5F9F4FD5
:1029100009F0BEC069857A858B859C85F10120818F
:102920003181428153810E945F969B01AC0187E017
:1029300090E065E070E00E94DF096D857E858F85FF
:102940009889F20120813181428153810E945F96F2
:102950009B01AC0188E090E065E070E00E94DF0937
:102960000E94C70A6D837E838F8398877B018C01C9
:10297000EA18FB080C091D090E94D20A69837A83B0
:102980008B839C835B016C01A618B708C808D90823
:1029900088E89AE0B801A7012AE030E00E94C492DA
:1029A00088E89AE06CE071E00E94C49188E89AE0BF
:1029B000B601A5012AE030E00E94C49288E89AE0BE
:1029C0006AE071E00E94C491F1014081518162810D
:1029D000738188E89AE022E030E00E94E59388E87D
:1029E0009AE068E071E00E94C491F2014081518157
:1029F0006281738188E89AE022E030E00E94E793E8
:102A0000D801C70189539F4FAF4FBF4F8F58914097
:102A1000A040B04008F43CCFB801A70117FD28C082
:102A20004C3C5105610571050CF442CFF101608108
:102A30007181828193812DEC3CEC4CEC5DE30E9432
:102A4000199431CFB601A501D7FC1AC04C3C5105F1
:102A5000610571050CF448CFF201608171818281BA
:102A600093812DEC3CEC4CEC5DE30E94199437CF44
:102A700070956095509541955F4F6F4F7F4FD0CFC8
:102A800070956095509541955F4F6F4F7F4FDECFAA
:102A9000F101E080F1800281138120C087E090E0A5
:102AA00065E070E0A80197010E94DF0988E090E0EE
:102AB00065E070E0A80197010E94DF0962E370E021
:102AC00080E090E00E94F38EC801B70120E030E082
:102AD00040E85FE30E9419947B018C01C801B701B3
:102AE00020E030E040E050E00E9454961816B4F226
:102AF00087E090E00E94CE0988E090E00E94CE0935
:102B000060960FB6F894DEBF0FBECDBFCF91DF91B8
:102B10001F910F91FF90EF90DF90CF90BF90AF90FB
:102B20009F908F907F906F905F904F903F902F90ED
:102B300008956F927F928F929F92AF92BF92CF92A1
:102B4000DF92EF92FF920F931F93DF93CF93CDB756
:102B5000DEB728970FB6F894DEBF0FBECDBF88E86A
:102B60009AE061EB72E00E94039288E89AE00E948A
:102B70004F908F5F9F4FC9F388E89AE067E372E058
:102B80000E94039260ED77E080E090E00E94F38E77
:102B900080E090E0A0E2B1E489839A83AB83BC83B8
:102BA0008D839E83AF83B887CE010196BE016B5F94
:102BB0007F4F20E030E040E85FE379018A0135DEB5
:102BC00088E89AE068E172E00E94C49149815A81E4
:102BD0006B817C8188E89AE022E030E00E94E593F6
:102BE00088E89AE066E172E00E94C4914D815E81BE
:102BF0006F81788588E89AE022E030E00E94E793D0
:102C0000A980BA80CB80DC80ED80FE800F811885A2
:102C1000C601B501A80197010E94549618160CF040
:102C2000DDC080E090E0A0E8BFE38093A709909327
:102C3000A809A093A909B093AA09C801B701A601E0
:102C400095010E94E4946093AB097093AC09809362
:102C5000AD099093AE0988E89AE064EF71E00E94B4
:102C6000C4914091A7095091A8096091A909709158
:102C7000AA0988E89AE022E030E00E94E59388E81B
:102C80009AE062EF71E00E94C4914091AB095091CB
:102C9000AC096091AD097091AE0988E89AE022E034
:102CA00030E00E94E79388E89AE065E871E00E94CE
:102CB000039260ED77E080E090E00E94F38E80E088
:102CC00090E0A0E2B1E48D839E83AF83B8878983CF
:102CD0009A83AB83BC832091A7093091A8094091C6
:102CE000A9095091AA09E090AB09F090AC090091B4
:102CF000AD091091AE09CE010196BE016B5F7F4F09
:102D000094DD99808A807B806C801D810E81FF809C
:102D1000E884692D782D872D962D212F302F4F2D6A
:102D20005E2D0E94549618160CF473C0812F902FBC
:102D3000AF2DBE2D5C016D01692D782D872D962D4F
:102D4000212F302F4F2D5E2D0E94E09487FD66C00D
:102D5000812F902FAF2DBE2D7C018D0188E89AE048
:102D60006DE671E00E94C491C601B501A80197010A
:102D70000E941994A60195010E94E49420E030E09D
:102D800048EC52E40E945F96AB01BC0188E89AE0EF
:102D900022E030E00E94E59388E89AE062E971E081
:102DA0000E94F99396D888E89AE06BE471E00E945B
:102DB000039228960FB6F894DEBF0FBECDBFCF9119
:102DC000DF911F910F91FF90EF90DF90CF90BF9018
:102DD000AF909F908F907F906F900895C601B5013E
:102DE000A80197010E94E4946093A7097093A80931
:102DF0008093A9099093AA0980E090E0A0E8BFE33E
:102E00008093AB099093AC09A093AD09B093AE0940
:102E100022CF892D982DA72DB62D8CCF892D982DB9
:102E2000A72DB62D99CFBF92CF92DF92EF92FF924E
:102E30000F931F93CF93DF93182F062FF72EB42EE7
:102E40008FEF99E068E60E94698A8FEF99E0612F21
:102E50000E94D68A8FEF99E060E00E94058BC82E11
:102E60008823C1F58FEF99E068E64B2D21E00E94A1
:102E7000178B802F9F2D9C01E901DD240DC08FEF62
:102E800099E00E94738A892BE9F18FEF99E00E9403
:102E90007C8A8883D3942196DB1448F58FEF99E0E0
:102EA0000E94738A892B89F70E94898E7B018C018D
:102EB0000E94898E6E197F09800B910B6436710513
:102EC00081059105E0F68FEF99E00E94738A892BC6
:102ED000B1F6EECF88E89AE065ED78E00E94C49103
:102EE00088E89AE06C2D4AE050E00E94B2928C2D66
:102EF000DF91CF911F910F91FF90EF90DF90CF90D6
:102F0000BF90089588E89AE065EC78E00E9403920B
:102F1000B5E0CB2EECCFAF92BF92CF92DF92EF9283
:102F2000FF920F931F93DF93CF93CDB7DEB7E29756
:102F30000FB6F894DEBF0FBECDBF5E010894A11C92
:102F4000B11C650113E3E12EF12CEC0EFD1E83E4B0
:102F50006AE373E042E067DF8823C9F710913A0320
:102F600000E080913B0390E0802B912BF601819350
:102F700091936F016AE070E080E090E00E94F38E30
:102F8000CE14DF0421F7CE01019669E140ED57E050
:102F90000E94AD0E8823E1F1E0903603F0903703F4
:102FA0000091380310913903F501619171915F012E
:102FB000882777FD8095982F0E947F959B01AC0113
:102FC000C801B7010E941A947B018C01AC14BD04A6
:102FD00059F720E030E048EC51E40E94E49460931B
:102FE0003603709337038093380390933903E29646
:102FF0000FB6F894DEBF0FBECDBFCF91DF911F910A
:103000000F91FF90EF90DF90CF90BF90AF90089519
:1030100088E89AE069EB70E00E94C4912B9AFFCF98
:103020004F925F926F927F928F929F92AF92BF92D8
:10303000CF92DF92EF92FF920F931F93DF93CF9384
:10304000CDB7DEB7C456D0400FB6F894DEBF0FBE82
:10305000CDBF88E89AE063E873E00E94039288E8B5
:103060009AE00E944F908F5F9F4FC9F3CC24DD24DC
:103070005E010894A11CB11C93E3892E912C8C0E47
:103080009D1E8DE36AE373E044E0CDDE8823C9F73B
:10309000F501EC0DFD1DF0903A03EE2480913B0309
:1030A00090E08E299F2991838083F401EC0DFD1D12
:1030B00010913C0300E080913D0390E0802B912B28
:1030C000918380836AE070E080E090E00E94F38E5C
:1030D00082E090E0C80ED91E92E3C916D10489F6A9
:1030E000C50169E148EE53E00E94AD0E882341F42A
:1030F00088E89AE063E673E00E94C4912B9AFFCFC0
:10310000C40169E148EE53E00E94AD0E882381F3CB
:10311000A090A309B090A409C090A509D090A609D9
:10312000E0909F09F090A0090091A1091091A209D7
:10313000882499242E010894411C511C83E3682E95
:10314000712C6C0E7D1EF201E80DF91D60817181FC
:10315000882777FD8095982F0E947F959B01AC0171
:10316000C801B7010E941A947B018C01F301E80D9C
:10317000F91D60817181882777FD8095982F0E94C5
:103180007F959B01AC01C601B5010E941A945B01B9
:103190006C0182E090E0880E991E92E389169104FA
:1031A00091F6C801B70120E030E048EC51E40E94FC
:1031B000E4947B018C01C601B50120E030E048ECCD
:1031C00051E40E94E4946093A3097093A40980934E
:1031D000A5099093A609C801B70120E030E040E0BE
:1031E00050E00E94E09488230CF468C0C801B70145
:1031F00020E030E040E856E40E94199460939F0973
:103200007093A0098093A1099093A20988E89AE09D
:103210006BE473E00E94C49160919F097091A009D2
:103220008091A1099091A20920E030E040E858E3A4
:103230000E945F96AB01BC0188E89AE022E030E092
:103240000E94E59388E89AE069E473E00E94C491E3
:103250006091A3097091A4098091A5099091A60994
:1032600020E030E040E858E30E945F96AB01BC01EB
:1032700088E89AE022E030E00E94E7930E94690F1C
:1032800088E89AE060E273E00E940392CC59DF4F35
:103290000FB6F894DEBF0FBECDBFCF91DF911F9167
:1032A0000F91FF90EF90DF90CF90BF90AF909F90E5
:1032B0008F907F906F905F904F900895C801B701F5
:1032C00020E030E040E856E40E941A9497CFDF9265
:1032D000EF92FF920F931F93F82E8B01E42ED22EC4
:1032E0008FEF99E068E60E94698A8FEF99E06F2D71
:1032F0000E94D68A8FEF99E0B8014E2D50E00E94CF
:10330000A68A8FEF99E06D2D0E94058B082F8823E8
:1033100069F088E89AE066EE78E00E94C49188E857
:103320009AE0602F4AE050E00E94B292802F1F91F5
:103330000F91FF90EF90DF900895DF93CF930F925E
:10334000CDB7DEB76983242FBE016F5F7F4F41E0A9
:10335000BEDF0F90CF91DF910895EF92FF920F9310
:103360001F93CF93DF93FC01C489D5896130710528
:1033700089F162897389882777FD8095982F0E944B
:103380007F957B018C01BE01882777FD8095982F62
:103390000E947F959B01AC01C801B7010E948D94EA
:1033A0002BED3FE049E450E40E941A9421EE3EE206
:1033B00045E652E40E945F96E62F2E2F372F482FC6
:1033C000592FB901CA01DF91CF911F910F91FF9041
:1033D000EF90089566897789CECFEF92FF920F9391
:1033E0001F93CF93DF93EC018C818823A1F0FE0122
:1033F000E159FF4FA0817181828163812A2F372F8C
:10340000482F562FB901CA01DF91CF911F910F911B
:10341000FF90EF90089568857985882777FD8095DE
:10342000982F0E947F957B018C016A857B85882778
:1034300077FD8095982F0E947F959B01AC01C80174
:10344000B7010E948D942BED3FE049E450E40E94C7
:103450001A9421EE3EE245E652E40E945F96A62FC2
:10346000692FCCCFEF92FF920F931F93CF93DF93EF
:10347000EC018C818823A1F0FE01ED58FF4FA08163
:103480007181828163812A2F372F482F562FB901EE
:10349000CA01DF91CF911F910F91FF90EF90089596
:1034A0006E817F81882777FD8095982F0E947F9578
:1034B0007B018C016A857B85882777FD8095982F15
:1034C0000E947F959B01AC01C801B7010E948D94B9
:1034D0002BED3FE049E450E40E941A9421EE3EE2D5
:1034E00045E652E40E945F96A62F692FCCCF8F92BB
:1034F0009F92AF92BF92CF92DF92EF92FF920F9383
:103500001F93CF93DF93EC0181E08093C603109269
:10351000F90180E090E0A0E0B0E080939B039093FD
:103520009C03A0939D03B0939E0380939703909375
:103530009803A0939903B0939A03CA30D10509F474
:10354000D8C0C930D10509F44BC2209709F05DC13C
:103550008091AB07882309F4EBC189EA97E06EE01C
:1035600070E00E94874C882309F4E7C389EA97E05A
:1035700061E070E00E94785320E030E044E353E4DF
:103580000E945496181614F00C945F2389EA97E071
:1035900061E070E00E9478537B018C0100D000D084
:1035A0008DB69EB60894811C911C6091910970E0C3
:1035B00080E090E00E947D95F401608371838283B6
:1035C0009383C801B70120E030E044E353E40F2EB9
:1035D000F0E0EF2EF0E0FF2EF8E50F2FF3E41F2FC1
:1035E000F02D0F2EF0E0AF2EF0E0BF2EF0E0CF2E4A
:1035F000F0E0DF2EF02D0E9432090F900F900F9017
:103600000F9060939703709398038093990390931E
:103610009A0389EA97E062E070E00E94785320E024
:1036200030E044E353E40E945496181614F00C94CE
:103630001A2389EA97E062E070E00E9478537B01E8
:103640008C0100D000D08DB69EB60894811C911CD0
:103650006091920970E080E090E00E947D95F40115
:103660006083718382839383C801B70120E030E0D7
:1036700044E353E40F2EF0E0EF2EF0E0FF2EF1E6EE
:103680000F2FF3E41F2FF02D0F2EF0E0AF2EF0E000
:10369000BF2EF0E0CF2EF0E0DF2EF02D0E94320999
:1036A0000F900F900F900F9060939B0370939C036B
:1036B00080939D0390939E03C230D10509F40DC2FF
:1036C000C330D10509F42FC4C430D10509F419C1A0
:1036D000D0931E03C0931D03DF91CF911F910F91D3
:1036E000FF90EF90DF90CF90BF90AF909F908F9022
:1036F0000895E090C203F090C3030091C4031091B9
:10370000C503C801B70120E030E040E050E00E946E
:10371000549618160CF0D9C200D000D08DB69EB6C3
:103720000894811C911C6091910970E080E090E008
:103730000E947D95F4016083718382839383C80125
:10374000B70120E030E040E050E00F2EF0E0EF2E37
:10375000F0E0FF2EF0E80F2FFFE31F2FF02D5901AF
:103760006A010E9432090F900F900F900F906093A2
:103770009703709398038093990390939A03E09032
:10378000BE03F090BF030091C0031091C103C801B4
:10379000B70120E030E040E050E00E945496181657
:1037A0000CF074C400D000D08DB69EB60894811C75
:1037B000911C6091920970E080E090E00E947D95FC
:1037C000F4016083718382839383C801B70120E091
:1037D00030E040E050E00F2EF0E0EF2EF0E0FF2E62
:1037E000F0E80F2FFFE31F2FF02D59016A010E940F
:1037F00032090F900F900F900F9060939B0370937E
:103800009C0380939D0390939E03C130D10509F0E2
:1038100053CF8AEB98E06EE070E00E9462548823F8
:1038200009F4D7C48AEB98E061E070E096DD20E00F
:1038300030E044E353E40E94549618160CF4F5C7A4
:103840008AEB98E061E070E088DD20E030E044E35E
:1038500053E40E94E094882314F40C94F9288AEB32
:1038600098E062E070E079DD20E030E044E353E48A
:103870000E94E094882314F00C941C268AEB98E0B4
:1038800062E070E06ADD7B018C0100D000D08DB673
:103890009EB60894811C911C6091920970E080E0B2
:1038A00090E00E947D95F40160837183828393830D
:1038B000C801B70120E030E044E353E40F2EF0E00C
:1038C000EF2EF0E0FF2EF7E00F2FF3E41F2FF02D87
:1038D0000F2EF0E0AF2EF0E0BF2EF0E0CF2EF0E0A4
:1038E000DF2EF02D0E9432090F900F900F900F9055
:1038F00060939B0370939C0380939D0390939E031E
:10390000DFCE81E08093F90180911D0390911E0329
:10391000049709F4DDCE0E94DD0A6093D30370930F
:10392000D4038093D5039093D60310929603D0CE00
:1039300089EA97E061E070E00E94DD4C853708F489
:1039400077C289EA97E061E070E00E94DD4C8A3836
:1039500010F00C94FD2689EA97E060E070E00E9488
:10396000DD4C873308F0CAC389EA97E060E070E075
:103970000E94DD4C00D000D08DB69EB60894811C0C
:10398000911C90E0A0E0B0E0BC01CD010E947D95CB
:103990007B018C016091920970E080E090E00E94D0
:1039A0007D95F4016083718382839383C801B7019D
:1039B00020E030E048E552E40F2EF0E0EF2EF0E09A
:1039C000FF2EF0E00F2FF0E01F2FF02D57016801C0
:1039D0000E9432090F900F900F900F90905864CE74
:1039E000E090BE03F090BF030091C0031091C103AB
:1039F000C801B70120E030E040E050E00E9454965A
:103A000018160CF058C200D000D08DB69EB608949F
:103A1000811C911C6091910970E080E090E00E940F
:103A20007D95F4016083718382839383C801B7011C
:103A300020E030E040E050E00F2EF0E0EF2EF0E02C
:103A4000FF2EF0E10F2FF2E41F2FF02D59016A0134
:103A50000E9432090F900F900F900F906093970380
:103A6000709398038093990390939A03E090C20314
:103A7000F090C3030091C4031091C503C801B701BE
:103A800020E030E040E050E00E94549618160CF020
:103A900071C300D000D08DB69EB60894811C911CD5
:103AA0006091920970E080E090E00E947D95F401C1
:103AB0006083718382839383C801B70120E030E083
:103AC00040E050E00F2EF0E0EF2EF0E0FF2EF4E3A8
:103AD0000F2FF2E41F2FF02D88CE8091020988234A
:103AE00009F48BC08DEF98E061E070E00E945C6BA0
:103AF0008959984010F00C94BD258DEF98E061E055
:103B000070E00E945C6B8850974010F40C943C2845
:103B10008DEF98E063E070E00E945C6B8C018DEFAC
:103B200098E061E070E00E945C6B081B190B093C97
:103B300011050CF464C48DEF98E061E070E00E9420
:103B40005C6B8C018DEF98E063E070E00E945C6B31
:103B5000081B190B1016110614F00C9493288DEF06
:103B600098E061E070E00E945C6B7C018DEF98E072
:103B700063E070E00E945C6BE81AF90A0027F7FC2A
:103B80000095102FC801B7010E947F957B018C0121
:103B900000D000D08DB69EB60894811C911C609117
:103BA000920970E080E090E00E947D95F4016083CE
:103BB000718382839383C801B70120E030E040E045
:103BC00050E00F2EF0E0EF2EF0E0FF2EF6E10F2F89
:103BD000F5E41F2FF02D59016A010E9432090F9060
:103BE0000F900F900F90905860939B0370939C03DD
:103BF00080939D0390939E0367CD8DEF98E06CE0DA
:103C000070E00E94CD6A882309F45EC48DEF98E0CD
:103C1000E4DB20E030E044E353E40E9454961816BD
:103C20000CF4B2C68DEF98E0D8DB20E030E044E33E
:103C300053E40E94E094882314F40C9443298DEFFC
:103C400098E010DC20E030E044E353E40E94549616
:103C5000181614F00C94BA268DEF98E003DC7B0163
:103C60008C0100D000D08DB69EB60894811C911CAA
:103C70006091920970E080E090E00E947D95F401EF
:103C80006083718382839383C801B70120E030E0B1
:103C900044E353E40F2EF0E0EF2EF0E0FF2EF1E6C8
:103CA0000F2FF3E41F2FF02D0F2EF0E0AF2EF0E0DA
:103CB000BF2EF0E0CF2EF0E0DF2EF02D0E94320973
:103CC0000F900F900F900F908FCFC801B70120E099
:103CD00030E040E050E00E94E09488230CF04FCDAB
:103CE00000D000D08DB69EB60894811C911C6091C6
:103CF000910970E080E090E00E947D95F40160837E
:103D0000718382839383C801B70120E030E040E0F3
:103D100050E00F2EF0E0EF2EF0E0FF2EF0E80F2F36
:103D2000FFEB1F2FF02D59016A010E9432090F90FD
:103D30000F900F900F9090581ACD89EA97E061E0AC
:103D400070E00E94DD4C853708F4BCC789EA97E033
:103D500061E070E00E94DD4C8A3810F00C94A028DD
:103D600089EA97E061E070E00E94DD4C082F89EA63
:103D700097E063E070E00E94DD4C10E0081B110941
:103D8000003111050CF4EEC389EA97E061E070E0C0
:103D90000E94DD4C082F89EA97E063E070E00E9402
:103DA000DD4C10E0081B1109101611060CF0D9C6E5
:103DB00089EA97E061E070E00E94DD4CE82E89EA34
:103DC00097E063E070E00E94DD4CFF24E81AF10800
:103DD0000027F7FC0095102FC801B7010E947F95BE
:103DE0007B018C0100D000D08DB69EB60894811C5A
:103DF000911C6091920970E080E090E00E947D95B6
:103E0000F4016083718382839383C801B70120E04A
:103E100030E040E050E00F2EF0E0EF2EF0E0FF2E1B
:103E2000FFE70F2FF3E41F2FF02D59016A01D0CDCA
:103E300089EA97E061E070E00E94DD4C00D000D09C
:103E40008DB69EB60894811C911C90E0A0E0B0E075
:103E5000BC01CD010E947D957B018C01609191098F
:103E600070E080E090E00E947D95F40160837183B2
:103E700082839383C801B70120E030E048EE52E42A
:103E80000F2EF0E0EF2EF0E0FF2EF0E00F2FF0E02D
:103E90001F2FF02D570168010E9432090F900F90DB
:103EA0000F900F90609397037093980380939903FA
:103EB00090939A0350CDC801B70120E030E040E074
:103EC00050E00E94E09488230CF0D0CD00D000D0C8
:103ED0008DB69EB60894811C911C6091910970E08A
:103EE00080E090E00E947D95F4016083718382837D
:103EF0009383C801B70120E030E040E050E00F2E8E
:103F0000F0E0EF2EF0E0FF2EF0E10F2FF2EC1F2F8C
:103F1000F02D59016A010E9432090F900F900F9005
:103F20000F9090589BCD85EA94E061E070E040E00E
:103F30000E94AC7C8D549D410CF00FC485EA94E046
:103F400061E070E040E00E94AC7C845B924E0CF437
:103F5000D5C785EA94E063E070E040E00E94AC7C65
:103F60007C0185EA94E061E070E040E00E94AC7C76
:103F70000027F7FC0095102FAA2797FDA095BA2FD0
:103F8000E81AF90A0A0B1B0BFDE4EF16FDE1FF0628
:103F9000F0E00F07F0E01F070CF49DC185EA94E004
:103FA00061E070E040E00E94AC7C7C0185EA94E036
:103FB00063E070E040E00E94AC7C0027F7FC0095D5
:103FC000102FAA2797FDA095BA2FE81AF90A0A0B15
:103FD0001B0B1E141F041006110614F00C942E283F
:103FE00085EA94E061E070E040E00E94AC7C7C01F6
:103FF00085EA94E063E070E040E00E94AC7C00273A
:10400000F7FC0095102FAA2797FDA095BA2FE81A64
:10401000F90A0A0B1B0BC801B7010E947F957B01AF
:104020008C0100D000D08DB69EB60894811C911CE6
:104030006091920970E080E090E00E947D95F4012B
:104040006083718382839383C801B70120E030E0ED
:1040500040E050E00F2EF0E0EF2EFFEFFF2EFFE7E5
:104060000F2FF7E41F2FF02D59016A010E9432092A
:104070000F900F900F900F90905860939B03709348
:104080009C0380939D0390939E0322CBC801B701AC
:1040900020E030E040E050E00E94E09488230CF003
:1040A000B4CB00D000D08DB69EB60894811C911C74
:1040B0006091920970E080E090E00E947D95F401AB
:1040C0006083718382839383C801B70120E030E06D
:1040D00040E050E00F2EF0E0EF2EF0E0FF2EF0E891
:1040E0000F2FFFEB1F2FF02D59016A010E9432099B
:1040F0000F900F900F900F9090587FCB89EA97E028
:1041000060E070E00E94DD4C893C08F4D5CA89EA81
:1041100097E060E070E00E94DD4C00D000D08DB6EA
:104120009EB60894811C911C90E0A0E0B0E0BC0118
:10413000CD010E947D957B018C016091920970E018
:1041400080E090E00E947D95F4016083718382831A
:104150009383C801B70120E030E049E453E40F2E17
:10416000F0E0EF2EF0E0FF2EFFE70F2FF3E41F2F1C
:10417000F02D8ACAC801B70120E030E040E050E0ED
:104180000E94E09488230CF040CB00D000D08DB684
:104190009EB60894811C911C6091920970E080E0A9
:1041A00090E00E947D95F401608371838283938304
:1041B000C801B70120E030E040E050E00F2EF0E011
:1041C000EF2EF0E0FF2EF4E30F2FF2EC1F2FF02D77
:1041D0008BCF8AEB98E061E070E00E94D95485377C
:1041E00008F4EDC68AEB98E061E070E00E94D954D3
:1041F0008A3808F056C48AEB98E061E070E00E94CB
:10420000D954082F8AEB98E063E070E00E94D954FB
:1042100010E0081B1109003111050CF44BC38AEBA7
:1042200098E061E070E00E94D954082F8AEB98E092
:1042300063E070E00E94D95410E0081B11091016C9
:10424000110614F00C9436298AEB98E061E070E0D6
:104250000E94D954E82E8AEB98E063E070E00E9457
:10426000D954FF24E81AF1080027F7FC0095102F15
:10427000C801B7010E947F957B018C0100D000D05E
:104280008DB69EB60894811C911C6091920970E0D5
:1042900080E090E00E947D95F401608371838283C9
:1042A0009383C801B70120E030E040E050E00F2EDA
:1042B000F0E0EF2EF0E0FF2EFFE70F2FF3E41F2FCB
:1042C000F02D59016A010E9432090F900F900F9052
:1042D0000F9090580DCB85EA94E061E070E040E0EB
:1042E0000E94AC7C7C0185EA94E063E070E040E0F1
:1042F0000E94AC7C0027F7FC0095102FAA2797FDA1
:10430000A095BA2FE81AF90A0A0B1B0BFDE4EF1669
:10431000FDE1FF06F0E00F07F0E01F070CF4D8C93D
:1043200085EA94E061E070E040E00E94AC7C7C01B2
:1043300085EA94E063E070E040E00E94AC7C0027F6
:10434000F7FC0095102FAA2797FDA095BA2FE81A21
:10435000F90A0A0B1B0B1E141F041006110614F099
:104360000C94C22985EA94E061E070E040E00E948C
:10437000AC7C7C0185EA94E063E070E040E00E9460
:10438000AC7C0027F7FC0095102FAA2797FDA0957D
:10439000BA2FE81AF90A0A0B1B0BC801B7010E94D1
:1043A0007F957B018C0100D000D08DB69EB608941D
:1043B000811C911C6091920970E080E090E00E9465
:1043C0007D95F4016083718382839383C801B70173
:1043D00020E030E040E050E00F2EF0E0EF2EFFEF65
:1043E000FF2EFFE70F2FF7E41F2FF02D59016A0171
:1043F0000E9432090F900F900F900F903ECE8DEFDC
:1044000098E061E070E00E945C6B8C018DEF98E0B9
:1044100063E070E00E945C6B081B190B093C1105FE
:104420000CF452C98DEF98E061E070E00E945C6B83
:104430008C018DEF98E063E070E00E945C6B081BDC
:10444000190B101611060CF0ABC78DEF98E061E068
:1044500070E00E945C6B7C018DEF98E063E070E09F
:104460000E945C6BE81AF90A0027F7FC0095102FF0
:10447000C801B7010E947F957B018C0100D000D05C
:104480008DB69EB60894811C911C6091920970E0D3
:1044900080E090E00E947D95F401608371838283C7
:1044A0009383C801B70120E030E040E050E00F2ED8
:1044B000F0E0EF2EF0E0FF2EF6E10F2FF5E41F2FD6
:1044C000F02D59016A01FACB8DEF98E061E070E0C0
:1044D0000E94476B8A3808F099C28DEF98E061E03E
:1044E00070E00E94476B853708F408C78DEF98E0AD
:1044F00060E070E00E94476B8A3808F4C2C48DEF18
:1045000098E060E070E00E94476B00D000D08DB66C
:104510009EB60894811C911C90E0A0E0B0E0BC0124
:10452000CD010E947D957B018C016091920970E024
:1045300080E090E00E947D95F40160837183828326
:104540009383C801B70120E030E04AE053E40F2E26
:10455000F0E0EF2EF0E0FF2EF6E60F2FF3E41F2F32
:10456000F02DA2CB89EA97E063E070E00E94DD4C79
:10457000082F89EA97E061E070E00E94DD4C10E0CE
:10458000081B1109003111050CF496C889EA97E05F
:1045900061E070E00E94DD4C082F89EA97E063E05B
:1045A00070E00E94DD4C10E0081B11091016110686
:1045B0000CF002C789EA97E061E070E00E94DD4CF0
:1045C000E82E89EA97E063E070E00E94DD4CFF246A
:1045D000E81AF1080027F7FC0095102FC801B70171
:1045E0000E947F957B018C0100D000D08DB69EB6D5
:1045F0000894811C911C6091920970E080E090E029
:104600000E947D95F4016083718382839383C80146
:10461000B70120E030E040E050E00F2EF0E0EF2E58
:10462000F0E0FF2EFFE70F2FF3E41F2FF02D5901CD
:104630006A0134C889EA97E062E070E00E9478532A
:1046400020E030E044E353E40E94E09488230CF03F
:1046500033C889EA97E062E070E00E9478537B01FA
:104660008C0100D000D08DB69EB60894811C911CA0
:104670006091920970E080E090E00E947D95F401E5
:104680006083718382839383C801B70120E030E0A7
:1046900044E353E40F2EF0E0EF2EF0E0FF2EF7E0BE
:1046A0000F2FF3E41F2FF02D0F2EF0E0AF2EF0E0D0
:1046B000BF2EF0E0CF2EF0E0DF2EF02D89C989EA81
:1046C00097E061E070E00E94785320E030E044E33E
:1046D00053E40E94E094882314F00C94091B89EAA7
:1046E00097E061E070E00E9478537B018C0100D07C
:1046F00000D08DB69EB60894811C911C60919109E2
:1047000070E080E090E00E947D95F4016083718309
:1047100082839383C801B70120E030E044E353E48F
:104720000F2EF0E0EF2EF0E0FF2EF0E10F2FF3E47C
:104730001F2FF02D0F2EF0E0AF2EF0E0BF2EF0E097
:10474000CF2EF0E0DF2EF02D0E9432090F900F9057
:104750000F900F9090580C94011B85EA94E063E051
:1047600070E040E00E94AC7C8D549D410CF4E6CB9F
:1047700085EA94E061E070E040E00E94AC7C7C015E
:1047800085EA94E063E070E040E00E94AC7C00D0F9
:1047900000D08DB69EB60894811C911CAA2797FD67
:1047A000A095BA2F0027F7FC0095102F8E0D9F1DA6
:1047B000A01FB11FBC01CD010E947F957B018C0120
:1047C0006091910970E080E090E00E947D95F40195
:1047D0006083718382839383C801B70120E038E648
:1047E0004AE656E40F2EF0E0EF2EFEEFFF2EFFE735
:1047F0000F2FF7E41F2FF02D0F2EF0E0AF2EF0E07B
:10480000BF2EF0E0CF2EF0E0DF2EF02D0E94320917
:104810000F900F900F900F906093970370939803F1
:104820008093990390939A0394CB8AEB98E061E08C
:1048300070E00E94AD197B018C0100D000D08DB6D4
:104840009EB60894811C911C6091910970E080E0F3
:1048500090E00E947D95F40160837183828393834D
:10486000C801B70120E030E044E353E40F2EF0E04C
:10487000EF2EF0E0FF2EF8E50F2FF3E41F2FF02DC1
:104880000F2EF0E0AF2EF0E0BF2EF0E0CF2EF0E0E4
:10489000DF2EF02D0E9432090F900F900F900F9095
:1048A00060939703709398038093990390939A036E
:1048B0000C942F1C8AEB98E063E070E00E94D954BE
:1048C000082F8AEB98E061E070E00E94D95410E074
:1048D000081B11090031110514F40C94601B8AEBBC
:1048E00098E061E070E00E94D954082F8AEB98E0CC
:1048F00063E070E00E94D95410E0081B1109101603
:1049000011060CF065C58AEB98E061E070E00E944A
:10491000D954E82E8AEB98E063E070E00E94D95405
:10492000FF24E81AF1080027F7FC0095102FC801B2
:10493000B7010E947F957B018C0100D000D08DB61D
:104940009EB60894811C911C6091920970E080E0F1
:1049500090E00E947D95F40160837183828393834C
:10496000C801B70120E030E040E050E00F2EF0E059
:10497000EF2EF0E0FF2EFFE70F2FF3E41F2FF02DB7
:1049800059016A010C94721C8DEF98E00E94ED1998
:104990007B018C0100D000D08DB69EB60894811C9E
:1049A000911C6091910970E080E090E00E947D95FB
:1049B000F4016083718382839383C801B70120E08F
:1049C00030E044E353E40F2EF0E0EF2EF0E0FF2E52
:1049D000F8E50F2FF3E41F2FF02D0F2EF0E0AF2E90
:1049E000F0E0BF2EF0E0CF2EF0E0DF2EF02D0E94A1
:1049F00032090F900F900F900F9060939703709370
:104A000098038093990390939A0319C98DEF98E0C6
:104A100061E070E00E94476B00D000D08DB69EB67A
:104A20000894811C911C90E0A0E0B0E0BC01CD0195
:104A30000E947D957B018C016091910970E080E07E
:104A400090E00E947D95F40160837183828393835B
:104A5000C801B70120E030E04AE053E40F2EF0E057
:104A6000EF2EF0E0FF2EF6E60F2FF3E41F2FF02DD0
:104A70000F2EF0E0AF2EF0E0BF2EF0E0CF2EF0E0F2
:104A8000DF2EF02D0E9432090F900F900F900F90A3
:104A900060939703709398038093990390939A037C
:104AA00025CD8AEB98E063E070E00E94D9548A3803
:104AB00008F4A1CB8AEB98E061E070E00E94D95441
:104AC000E82E8AEB98E063E070E00E94D95400D0B1
:104AD00000D08DB69EB60894811C911CFF24E80E70
:104AE000F11C0027F7FC0095102FC801B7010E94A8
:104AF0007F957B018C016091910970E080E090E0EE
:104B00000E947D95F4016083718382839383C80141
:104B1000B70120E030E04AE853E40F2EF0E0EF2E3A
:104B2000F0E0FF2EFFEF0F2FF3E41F2FF02D0F2EDD
:104B3000F0E0AF2EF0E0BF2EF0E0CF2EF0E0DF2E61
:104B4000F02D0E9432090F900F900F900F90905807
:104B500060939703709398038093990390939A03BB
:104B60004ACB89EA97E063E070E00E94DD4CE82ED2
:104B700089EA97E061E070E026C98DEF98E063E094
:104B800070E00E945C6B8959984010F40C947D1D74
:104B90008DEF98E061E070E00E945C6B7C018DEF2E
:104BA00098E063E070E00E945C6B00D000D08DB6AE
:104BB0009EB60894811C911CE80EF91E00E010E0DE
:104BC000C801B7010E947D957B018C01609191091C
:104BD00070E080E090E00E947D95F4016083718335
:104BE00082839383C801B70120E030E949E855E4A6
:104BF0000F2EF0E0EF2EF0E0FF2EF8EC0F2FF5E493
:104C00001F2FF02D0F2EF0E0AF2EF0E0BF2EF0E0C2
:104C1000CF2EF0E0DF2EF02D0E9432090F900F9082
:104C20000F900F906093970370939803809399036C
:104C300090939A030C94881D8AEB98E062E070E0F0
:104C40000E94AD1920E030E044E353E40E94549602
:104C5000181614F00C94601B8AEB98E062E070E088
:104C60000E94AD197B018C0100D000D08DB69EB69C
:104C70000894811C911C6091920970E080E090E0A2
:104C80000E947D95F4016083718382839383C801C0
:104C9000B70120E030E044E353E40F2EF0E0EF2EC4
:104CA000F0E0FF2EF1E60F2FF3E41F2FF02D0F2E73
:104CB000F0E0AF2EF0E0BF2EF0E0CF2EF0E0DF2EE0
:104CC000F02D01CB89EA97E063E070E00E94DD4CB3
:104CD000853708F03BC889EA97E061E070E00E9400
:104CE000DD4CE82E89EA97E063E070E00E94DD4C3D
:104CF00000D000D08DB69EB60894811C911CFF2474
:104D0000E80EF11C0027F7FC0095102FC801B70131
:104D10000E947F957B018C016091910970E080E099
:104D200090E00E947D95F401608371838283938378
:104D3000C801B70120E030E048E653E40F2EF0E070
:104D4000EF2EF0E0FF2EF0E00F2FF0E01F2FF02D00
:104D5000570168010E9432090F900F900F900F9039
:104D600060939703709398038093990390939A03A9
:104D70000C94B01E8DEF98E00E94321A20E030E0D3
:104D800044E353E40E94E094882314F00C94641BE1
:104D90008DEF98E00E94321A7B018C0100D000D088
:104DA0008DB69EB60894811C911C6091920970E0AA
:104DB00080E090E00E947D95F4016083718382839E
:104DC0009383C801B70120E030E044E353E40F2EA1
:104DD000F0E0EF2EF0E0FF2EF7E00F2FF3E41F2FAF
:104DE000F02D0F2EF0E0AF2EF0E0BF2EF0E0CF2E32
:104DF000F0E0DF2EF02D0C94ED1D89EA97E061E0E4
:104E000070E00E94DD4C00D000D08DB69EB60894B4
:104E1000811C911C90E0A0E0B0E0BC01CD010E949B
:104E20007D957B018C016091910970E080E090E0BC
:104E30000E947D95F4016083718382839383C8010E
:104E4000B70120E030E04AE053E40F2EF0E0EF2E0F
:104E5000F0E0FF2EFFE70F2FF3E41F2FF02D0F2EB2
:104E6000F0E0AF2EF0E0BF2EF0E0CF2EF0E0DF2E2E
:104E7000F02D0E9432090F900F900F900F909058D4
:104E800011C88DEF98E060E070E00E94476B8537B5
:104E900010F00C94641B8DEF98E060E070E00E94CD
:104EA000476B00D000D08DB69EB60894811C911C33
:104EB00090E0A0E0B0E0BC01CD010E947D957B01B7
:104EC0008C016091920970E080E090E00E947D95F5
:104ED000F4016083718382839383C801B70120E06A
:104EE00030E048EE52E40F2EF0E0EF2EF0E0FF2E1F
:104EF000F8EC0F2FF1E41F2FF02D73CF85EA94E02B
:104F000063E070E040E00E94AC7C845B924E0CF069
:104F100020C885EA94E061E070E040E00E94AC7C4B
:104F20007C0185EA94E063E070E040E00E94AC7CA4
:104F300000D000D08DB69EB60894811C911CAA2783
:104F400097FDA095BA2F0027F7FC0095102F8E0D26
:104F50009F1DA01FB11FBC01CD010E947F957B0149
:104F60008C016091910970E080E090E00E947D9555
:104F7000F4016083718382839383C801B70120E0C9
:104F800038E64AE656EC0F2EF0E0EF2EF0E0FF2E6A
:104F9000F0E80F2FF7EC1F2FF02D0F2EF0E0AF2EC3
:104FA000F0E0BF2EF0E0CF2EF0E0DF2EF02D0E94DB
:104FB00032090F900F900F900F9090582DCC8AEBE4
:104FC00098E063E070E00E94D954853708F00AC980
:104FD0008AEB98E061E070E00E94D954E82E8AEBF9
:104FE00098E063E070E00E94D95400D000D08DB604
:104FF0009EB60894811C911CFF24E80EF11C00272A
:10500000F7FC0095102FC801B7010E947F957B0126
:105010008C016091910970E080E090E00E947D95A4
:10502000F4016083718382839383C801B70120E018
:1050300030E048E653E40F2EF0E0EF2EF0E0FF2ED4
:10504000F0E00F2FF0E01F2FF02D570168010E94B4
:1050500032090F900F900F900F907ACD85EA94E06F
:1050600063E070E040E00E94AC7C7C0185EA94E063
:1050700061E070E00C94FC1F8DEF98E063E070E05D
:105080000E945C6B8850974010F00C94881D8DEF47
:1050900098E061E070E00E945C6B7C018DEF98E02D
:1050A00063E070E00E945C6B00D000D08DB69EB6CD
:1050B0000894811C911CE80EF91E00E010E0C80164
:1050C000B7010E947D957B018C016091910970E090
:1050D00080E090E00E947D95F4016083718382837B
:1050E0009383C801B70120E030EE40E655E40F2E6F
:1050F000F0E0EF2EF0E0FF2EF8EC0F2FF4E41F2F7E
:10510000F02D0F2EF0E0AF2EF0E0BF2EF0E0CF2E0E
:10511000F0E0DF2EF02D0E9432090F900F900F90DB
:105120000F9090587FCD8DEF98E063E070E00E9483
:105130005C6B7C018DEF98E061E070E00C94BA1D2F
:1051400089EA97E063E070E00E94DD4C8A3810F451
:105150000C94B01E89EA97E061E070E00E94DD4C9B
:10516000E82E89EA97E063E070E00E94DD4C00D011
:1051700000D08DB69EB60894811C911CFF24E80EC9
:10518000F11C0027F7FC0095102FC801B7010E9401
:105190007F957B018C016091910970E080E090E047
:1051A0000E947D95F4016083718382839383C8019B
:1051B000B70120E030E04AE853E40F2EF0E0EF2E94
:1051C000F0E0FF2EFFEF0F2FF3E41F2FF02D0F2E37
:1051D000F0E0AF2EF0E0BF2EF0E0CF2EF0E0DF2EBB
:1051E000F02D0E9432090F900F900F900F90905861
:1051F000B7CD8AEB98E061E070E00E94AD197B01C9
:105200008C0100D000D08DB69EB60894811C911CF4
:105210006091910970E080E090E00E947D95F4013A
:105220006083718382839383C801B70120E030E0FB
:1052300044E353E40F2EF0E0EF2EF0E0FF2EF0E118
:105240000F2FF3E41F2FF02D0F2EF0E0AF2EF0E024
:10525000BF2EF0E0CF2EF0E0DF2EF02D0E943209BD
:105260000F900F900F900F9090581ACB8AEB98E008
:1052700063E070E00E94D954E82E8AEB98E061E088
:1052800070E00C942F218DEF98E00E94ED197B01C6
:105290008C0100D000D08DB69EB60894811C911C64
:1052A0006091910970E080E090E00E947D95F401AA
:1052B0006083718382839383C801B70120E030E06B
:1052C00044E353E40F2EF0E0EF2EF0E0FF2EF0E188
:1052D0000F2FF3E41F2FF02D0F2EF0E0AF2EF0E094
:1052E000BF2EF0E0CF2EF0E0DF2EF02D0E9432092D
:1052F0000F900F900F900F9090587FCB8DEF98E00C
:1053000061E070E00E94476B00D000D08DB69EB681
:105310000894811C911C90E0A0E0B0E0BC01CD019C
:105320000E947D957B018C016091910970E080E085
:1053300090E00E947D95F401608371838283938362
:10534000C801B70120E030E048EE52E40F2EF0E053
:10535000EF2EF0E0FF2EF8EC0F2FF1E41F2FF02DD1
:105360000F2EF0E0AF2EF0E0BF2EF0E0CF2EF0E0F9
:10537000DF2EF02D0E9432090F900F900F900F90AA
:10538000905886CB85EA94E063E070E040E00E94AC
:10539000AC7C7C0185EA94E061E070E00C94BE2175
:1053A0008DEF98E063E070E00E945C6B7C018DEF14
:1053B00098E061E070E054C889EA97E063E070E04B
:1053C0000E94DD4CE82E89EA97E061E070E0FDC8BC
:1053D0008AEB98E063E070E00E94D954E82E8AEBF3
:1053E00098E061E070E09ACACF93DF93EC01888186
:1053F0008134C1F18D3401F1873429F18335D1F540
:105400008981803509F4CAC0893409F4DDC0843447
:1054100009F4F4C0843509F407C18B3409F41AC1C6
:10542000813409F466C1853509F473C1823409F405
:105430006FC00E94690F04C08981833409F4A3C03E
:10544000DF91CF91089589818035F9F0833509F492
:1054500044C0893409F49AC08B3491F781E0809379
:105460001C03EECF89818B33E1F1833449F70E942D
:105470001018E6CF893469F48981823409F48AC02E
:105480008335F1F610921603DBCF81E080931A0387
:10549000D7CF8235C1F0833499F68981833509F4F9
:1054A00048C18A34E1F18D3409F446C1803509F4EC
:1054B00007C1823529F60E949F0F81E080931A036D
:1054C00080931C030BC08981823409F493C0833517
:1054D00009F0B6CF10921903B3CF81E08093170380
:1054E000AFCF0E94F40A88E89AE00E944F9083347C
:1054F000910509F4A5CF83E696E00E942A578334EC
:10550000910509F49DCF8FE094E00E946D69EBCF87
:105510008B81813309F442C1109290098ACF0E9495
:105520007B8E6093C7037093C8038093C9039093E5
:10553000CA03CE0164E971E00E94110780E090E0A7
:1055400064E971E00E9411070E94F1066093BE03B6
:105550007093BF038093C0039093C10380E090E0F9
:1055600066E971E00E9411070E94F1066093C20390
:105570007093C3038093C4039093C5038AE090E0C3
:105580000E94771A5DCF0E9499155ACF81E08093CF
:10559000180356CF81E08093160352CFCE0164E901
:1055A00071E00E94110780E090E066E971E00E94DE
:1055B00011070E94F106609380097093810980931E
:1055C00082099093830935CFCE0164E971E00E948E
:1055D000110780E090E066E971E00E9411070E94E7
:1055E000F1066093840970938509809386099093EE
:1055F00087091FCF81E08093190322CFCE0164E990
:1056000071E00E94110780E090E066E971E00E947D
:1056100011070E94F10660938809709389098093AD
:105620008A0990938B0905CFCE0164E971E00E944D
:10563000110780E090E066E971E00E9411070E9486
:10564000F10660938C0970938D0980938E09909375
:105650008F09EFCECE0164E971E00E94110780E06E
:1056600090E064E971E00E9411070E94F1066093E6
:10567000930970939409809395099093960980E01B
:1056800090E064E971E00E9411070E94F1066093C6
:105690009709709398098093990990939A0980E0EB
:1056A00090E066E971E00E9411070E94F1066093A4
:1056B0009B0970939C0980939D0990939E09B9CE94
:1056C0008A81873509F46EC08A81803509F0B8CEA9
:1056D000E091A008F091A108309739F0E05CFF4F0D
:1056E00081E08083B89686E0808381E080931B030D
:1056F000A7CECE0164E971E00E94110780E090E03E
:1057000066E971E00E9411070E94F40680939109F6
:1057100090CECE0164E971E00E94110780E090E034
:1057200066E971E00E9411070E94F40680939209D5
:1057300080CE84E090E024CF0E947B8E6093C703EC
:105740007093C8038093C9039093CA03CE0164E9A0
:1057500071E00E94110780E090E064E971E00E942E
:1057600011070E94F1066093BE037093BF038093FC
:10577000C0039093C10380E090E066E971E00E946D
:1057800011070E94F1066093C2037093C3038093D4
:10579000C4039093C50389E090E0F2CE81E080934A
:1057A000900947CEE0913909F0913A09309731F0EC
:1057B00081E083AFE859FF4F86E0808381E08093EA
:1057C0001B0382CFCF93DF9388E89AE00E94339047
:1057D000892B19F4DF91CF91089588E89AE00E940F
:1057E0004F908D36F9F080939F0361E070E080E088
:1057F00090E00E94F38EC0EAD3E005C0219683E0DA
:10580000CD3BD80739F388E89AE00E944F9088830F
:105810008F3F01F38B3391F71092BD038FE993E033
:10582000E3DDD8CF0E94E811D5CF8091A80488236A
:1058300009F408950E947B8E645F7140804090401F
:1058400060938A0370938B0380938C0390938D03F2
:1058500085EA94E060E04FEF20E00E94F47C81E074
:105860008093950308958091AB07882309F457C06E
:1058700080919203882309F0ABC080919403882320
:1058800009F09DC089EA97E061E077E20E943A4D15
:10589000882309F4CAC080917C09882309F4C3C015
:1058A00060E080917C09681731F060937C0989EA97
:1058B00097E00E94C34E8091FF08882309F048C0FA
:1058C00080910209882309F043C08091A8048823AD
:1058D00029F180919503882309F05DC085EA94E061
:1058E00060E00E94BC7C882309F492C0813009F4F6
:1058F000B9C0823009F4B9C064E070E080917E09DB
:1059000090917F096817790749F070937F09609338
:105910007E0985EA94E040E00C946A7D08958091C8
:10592000AD07882341F289EA97E061E077E20E94BF
:105930003A4D882309F08FC080917C09813009F4A9
:10594000BACF81E080937C0989EA97E061E0B1CF2A
:1059500080919303882349F0109293038DEF98E090
:105960000E945E6D10927D09B0CF8DEF98E00E948D
:10597000C66C8C33F0F08E3608F04FC060E1809139
:105980007D09681709F4A1CF60937D098DEF98E038
:105990000E94376D9ACF1092950385EA94E060E0FB
:1059A00040E020E00E94F47C10927F0910927E0972
:1059B000089580917D09882371F160E0E0CF109215
:1059C000940389EA97E00E941E4F10927C0973CFDE
:1059D0001092920389EA97E060E270E00E94104F13
:1059E00081E08093940380918A0390918B03A0912E
:1059F0008C03B0918D03845F9140A040B0408093B0
:105A00008A0390938B03A0938C03B0938D0353CFA1
:105A100061E070E073CF60EFB2CF803A80F0823DFA
:105A2000D0F760E7ACCF6FE03CCF89EA97E062E067
:105A300077E20E943A4D882321F061E032CF60E3A3
:105A40009ECF89EA97E063E077E20E943A4D88238F
:105A500079F063E026CF89EA97E061E070E00E9488
:105A6000AF4E29CF62E070E049CF63E070E046CFEF
:105A700089EA97E064E077E20E943A4D882311F0CA
:105A800067E00FCF89EA97E065E077E20E943A4D40
:105A9000882349F689EA97E06EEE77E20E943A4D54
:105AA00060917C09882309F4FCCE6F3031F2660FD7
:105AB0006E706160F6CE8091FF08882309F4089526
:105AC000D2DE0E947B8E645F714080409040609384
:105AD0008A0370938B0380938C0390938D038DEFD7
