:10000000F4C500000C94C8820C94F9820C942A83E5
:1000100017C6000015C6000013C6000011C6000078
:100020000FC600000DC600000BC6000009C6000088
:1000300007C6000005C6000003C6000001C6000098
:10004000FFC50000FDC500000C945B83F9C50000EE
:100050000C9411850C948885F3C50000F1C500004F
:10006000EFC50000EDC500000C942681E9C5000035
:100070000C944D850C94BC85E3C50000E1C50000DF
:10008000DFC50000DDC50000DBC50000084AD73B26
:100090003BCE016E84BCBFFDC12F3D6C74319ABD57
:1000A00056833DDA3D00C77F11BED9E4BB4C3E917B
:1000B0006BAAAABE000000803F4779726F2063617F
:1000C0006C6962726174696F6E206572726F720022
:1000D0002C00522C002C002C00562C002C002C0044
:1000E0004B2C002C41546D6567613132383450001F
:1000F0002C00492C002C002C00532C002C002C0030
:100100002C00502C005743002C002C002C0056656E
:100110006C6F6369747920284C292C2056656C6FAC
:1001200063697479202852292C20537065656420F6
:1001300076616C756520284C292C205370656564A8
:100140002076616C7565202852290043616C6962D4
:10015000726174696F6E206F6620746865206D6FC0
:10016000746F727320697320646F6E6500546865E4
:1001700020646966666572656E6365206973206ECA
:100180006F773A20004E6F7720746865206D6F742A
:100190006F72732077696C6C207370696E20757054
:1001A00020616761696E2E204E6F7720746865202C
:1001B00073706565642076616C7565732073686F14
:1001C000756C6420626520616C6D6F73742065715D
:1001D00075616C2E2053656E6420616E79206368B2
:1001E0006172616374657220746F20657869740D43
:1001F0000A002C00546865206D6F746F7220736361
:10020000616C61727320617265206E6F7720284C7B
:100210002F52293A20002C000D0A54686520737073
:100220006565642076616C75657320617265202850
:100230004C2F52293A2000457374696D6174696EC0
:1002400067206D696E696D756D2073746172746974
:100250006E672076616C75652E205768656E207418
:1002600068652066697273742074776F2076616C9C
:1002700075657320646F206E6F74206368616E67AC
:100280006520616E796D6F72652C207468656E20D3
:1002900073656E6420616E79206368617261637456
:1002A000657220746F20636F6E74696E75650D0AD8
:1002B000005075742074686520726F626F742073CB
:1002C0006F2074686520776865656C732063616E64
:1002D000206D6F766520667265656C7920616E644D
:1002E000207468656E2073656E6420616E7920638A
:1002F000686172616374657220746F2073746172D7
:100300007420746865206D6F746F722063616C690E
:1003100062726174696F6E20726F7574696E6500C8
:1003200043616C6962726174696F6E206F662074DC
:10033000686520616363656C65726F6D6574657275
:1003400020697320646F6E65002C004E6577207AFB
:1003500065726F2076616C75657320286727732935
:100360003A2000416363656C65726F6D65746572F8
:100370002063616C6962726174696F6E206572726C
:100380006F7200506C6561736520707574207468BD
:100390006520726F626F7420706572666563746C3D
:1003A0007920686F72697A6F6E74616C206F6E204D
:1003B000697473207369646520616E642074686574
:1003C0006E2073656E6420616E792063686172616E
:1003D0006374657220746F20737461727420746822
:1003E000652063616C6962726174696F6E20726FFF
:1003F0007574696E65000D0A3D3D3D3D3D3D3D3DD9
:100400003D3D3D3D3D3D3D3D3D3D3D3D3D3D3D3D1C
:100410003D3D3D3D3D3D3D3D3D3D3D3D3D3D3D3D0C
:100420003D3D3D3D3D3D3D3D3D3D3D3D3D3D3D3DFC
:100430003D3D3D3D3D3D3D3D3D3D3D3D3D3D3D3DEC
:100440003D3D3D3D3D3D3D3D3D3D3D3D3D3D3D3DDC
:100450003D3D0D0A0043523B090909095265737479
:100460006F72652064656661756C742045455052F5
:100470004F4D2076616C7565730043573B09090940
:1004800009537461727420706172696E67207365BC
:100490007175656E63652077697468205769696D49
:1004A0006F746500434D2C70697463682C726F6CB7
:1004B0006C3B090909537465657220726F626F7431
:1004C000207573696E6720706974636820616E645B
:1004D00020726F6C6C00434A2C782C793B09090917
:1004E00009537465657220726F626F742075736949
:1004F0006E6720782C792D636F6F7264696E6174FA
:1005000065730043533B0909090953656E64207301
:10051000746F7020636F6D6D616E640052533B09A0
:1005200009090953746F702073656E64696E6720E2
:100530007265706F72742076616C7565730D0A0058
:1005400052423B0909090953746172742073656E44
:1005500064696E67207265706F72742076616C7565
:1005600065730049533B0909090953746F7020737F
:10057000656E64696E6720494D552076616C7565BE
:10058000730049423B09090909537461727420736D
:10059000656E64696E6720494D552076616C75659E
:1005A000730053422C76616C75653B0909095573DC
:1005B000656420746F2073657420746865206261BF
:1005C000636B20746F2073706F742076616C756537
:1005D000202874727565203D20312C2066616C7373
:1005E00065203D2030290D0A0053552C76616C752D
:1005F000653B0909095573656420746F2073657440
:1006000020746865206D6178696D756D20747572F0
:100610006E696E672076616C75650053412C616E62
:10062000676C653B0909095573656420746F207315
:10063000657420746865206D6178696D756D2063DF
:100640006F6E74726F6C6C696E6720616E676C653B
:1006500000534B2C51616E676C652C51626961735C
:100660002C526D6561737572653B09557365642025
:10067000746F2073657420746865204B616C6D61C4
:100680006E2066696C7465722076616C75657300A6
:1006900053542C746172676574416E676C653B09D5
:1006A00009095573656420746F207365742074683C
:1006B000652074617267657420616E676C650053B4
:1006C000442C4B643B090909095573656420746F18
:1006D0002073657420746865204B642076616C75A6
:1006E000650053492C4B693B090909095573656439
:1006F00020746F2073657420746865204B692076C0
:10070000616C75650053502C4B703B090909095504
:1007100073656420746F2073657420746865204B62
:10072000702076616C75650047493B0909090947E6
:10073000657420696E666F2076616C7565730D0A4D
:100740000047533B090909094765742073657474B0
:10075000696E67732076616C75657300474B3B0962
:10076000090909476574204B616C6D616E206669EB
:100770006C7465722076616C7565730047503B0937
:10078000090909476574205049442076616C7565F4
:1007900073004D433B0909090953656E6420746F6A
:1007A0002063616C69627261746520746865206D94
:1007B0006F746F72730D0A0041433B0909090953B5
:1007C000656E6420746F2063616C69627261746528
:1007D0002074686520616363656C65726F6D657414
:1007E000657200413B0909090953656E6420746F05
:1007F0002061626F72742E2053656E642027432738
:1008000020616761696E20746F20636F6E74696E1A
:1008100075650D0A000D0A3D3D3D3D3D3D3D3D3DAB
:100820003D3D3D3D3D3D3D3D3D3D3D3D3D3D3D3DF8
:100830003D3D3D3D3D3D3D3D3D3D3D3D3D3D3D3DE8
:100840003D204D656E75203D3D3D3D3D3D3D3D3D71
:100850003D3D3D3D3D3D3D3D3D3D3D3D3D3D3D3DC8
:100860003D3D3D3D3D3D3D3D3D3D3D3D3D3D3D3DB8
:100870003D0D0A00693263526561642074696D65DB
:100880006F75740069326352656164206661696CDA
:1008900065643A2000693263577269746520666145
:1008A000696C65643A2000555342206661696C00AA
:1008B0004572726F722072656164696E672073653C
:1008C0006E736F72004F534320646964206E6F74BF
:1008D0002073746172740001020408090A0C0D0E81
:1008E0000F00000000000000000000FF2710003291
:1008F000FF27100032FF27100032FF2710003200C0
:1009000000000000000000000000000000000000E7
:10091000001718191A000000001B1C1D1E1F2021A3
:100920002200000F10000000200000004000000026
:10093000800000000100000008000000020000002C
:10094000040000000001000000020000000400009C
:10095000000800000010000000200000004000001F
:1009600000800000000001000000080000001000EE
:100970000091E3720796E4750E9FED7C0998EA7B7F
:100980001C8DFF6E1B8AF8691283F1601584F6676F
:1009900038A9DB4A3FAEDC4D36A7D54431A0D2435F
:1009A00024B5C75623B2C0512ABBC9582DBCCE5F4F
:1009B00070E1930277E694057EEF9D0C79E89A0B3F
:1009C0006CFD8F1E6BFA881962F3811065F486172F
:1009D00048D9AB3A4FDEAC3D46D7A53441D0A2331F
:1009E00054C5B72653C2B0215ACBB9285DCCBE2F0F
:1009F000E0710392E7760495EE7F0D9CE9780A9BFF
:100A0000FC6D1F8EFB6A1889F2631180F5641687EE
:100A1000D8493BAADF4E3CADD64735A4D14032A3DE
:100A2000C45527B6C35220B1CA5B29B8CD5C2EBFCE
:100A3000900173E2970674E59E0F7DEC99087AEBBE
:100A40008C1D6FFE8B1A68F9821361F0851466F7AE
:100A5000A8394BDAAF3E4CDDA63745D4A13042D39E
:100A6000B42557C6B32250C1BA2B59C8BD2C5ECF8E
:100A700000010000800000004000000000020000B3
:100A8000000000000400000000000200000001005F
:100A9000100000000800000000000000000000003E
:100AA00000400000001000000008000000200000CE
:100AB0002000000002000000008000000004000090
:100AC0000800000002000000040000000100000017
:100AD0000000000010000000000100000002000003
:100AE0000010000000800000000001000000020073
:100AF00000040000000800001020408090A0C0D03A
:100B0000E0F00203040501000100080002000400F7
:100B100020001000400080000000000100020020C2
:100B200000100040008000040008000000210024A4
:100B30000027002A0000002200250028002B0000CA
:100B400000200023002600290004040204040202FD
:100B5000010101010101030304040404030303036D
:100B60000303020202020201010102044080081094
:100B700001020408102002010408102004081020BB
:100B800040800102204080408000000007060102F2
:100B9000000000000000000000000403000000004E
:100BA000000000000000000000494E46494E495434
:100BB000594E414ECDCCCC3D0AD7233C17B7D13846
:100BC00077CC2B329595E6241FB14F0A00002041C7
:100BD0000000C84200401C4620BCBE4CCA1B0E5A36
:100BE000AEC59D74C40FCB7F428711241FBECFEFCB
:100BF000D0E4DEBFCDBF12E0A0E0B1E0E4EDFAE169
:100C000001E00BBF02C007900D92AC3CB107D9F7D1
:100C10001BBE1BE0ACECB2E001C01D92AF31B107CE
:100C2000E1F71BE0CAEEDBE004C02297FE010E9460
:100C3000228DC43ED107C9F70E940D8A0C94688D9D
:100C4000DFC96627772768C0FC0188279927E894C1
:100C500021912032E9F3293010F02E30C8F32B32E5
:100C600039F02D3231F4689403C04ED0820F911DBB
:100C7000219120532A30C8F31EF4909581959F4FFF
:100C800008954CEC52E00EC0FB01DC014150504095
:100C900030F08D910190801919F40020B9F7881B6C
:100CA000990B0895009731F4DA018D919C9100978A
:100CB00009F40EC0DC01FB013D912191222319F0C2
:100CC0003217C9F3FACF332331F4DA011D921C92A3
:100CD0008827992708951197AF93BF93FB013D9102
:100CE0002191321771F4332321F488279927119722
:100CF00002C01E921196FA01A193B0839F918F9129
:100D00000895222369F7EACF7AE0979F902D879F75
:100D1000802D910D11240895A0E0B0E0E2E9F6E005
:100D20000C94378DEC015B016115710519F0FB0125
:100D300091838083F9908F2D90E00E94268D892BDE
:100D4000C9F7FDE2FF1621F4F990EE24E39405C003
:100D50002BE2F21609F4F990EE248E0101501040B6
:100D6000C80169EA7BE043E050E033D1892BF9F414
:100D70008E010E5F1F4FC8016CEA7BE045E050E03A
:100D800028D1892B19F48E01095F1F4FA114B104DA
:100D900019F0F50111830083E0FC04C070E090E0DD
:100DA00080E813C070E090E080E86FEF07C1C801F1
:100DB00061EB7BE043E050E00CD1892B69F4A11496
:100DC000B10429F470E090E080EC6FE7F7C0229660
:100DD000F501D183C083F6CF8824992440E050E008
:100DE00060E070E0EF2DE053EA30A0F5F2E0EF2A8A
:100DF0008E2D90E09C0128703070E2FE06C0232BFF
:100E000079F50894811C911C2BC0232B19F00894B0
:100E100081089108DB01CA0112E0880F991FAA1FFF
:100E2000BB1F1A95D1F7480F591F6A1F7B1F440F2C
:100E3000551F661F771F4E0F511D611D711D4839CB
:100E400029E9520729E9620729E1720748F084E09D
:100E5000E82A06C0EE3F31F4E3FC39C098E0E92A05
:100E6000F990C0CFE53311F0E53189F529912D32A4
:100E700019F4E0E1EE2A05C02B3219F081E090E090
:100E800003C0299182E090E0E22FE053EA3018F0AD
:100E9000C81BD90B1CC020E030E0FCE020383F0725
:100EA0005CF4C901880F991F880F991F280F391FFB
:100EB000220F331F2E0F311DE991E053EA3068F302
:100EC000E4FE03C0309521953F4F820E931ECE2C39
:100ED000DD24E1FE07C0A114B10421F02197F50142
:100EE000D183C083CB01BA010E947F8B7B018C012F
:100EF000F3E0CF22DD2423E0C216D10421F417FB56
:100F0000109517F9109557016801C801B70120E045
:100F100030E040E050E00E94E28A882309F44AC0B1
:100F200097FE0DC028ECE22E2BE0F22E90948194D7
:100F300091089394C0E2D0E000E010E012C090EE7F
:100F4000E92E9BE0F92EF6CFF701259135914591D9
:100F50005491C601B5010E94618C5B016C018C1A31
:100F60009D0A8C169D0684F7D595C7950F5F1F4F78
:100F70000630110529F08CEF9FEFE80EF91EF1CF36
:100F8000C501D6017C018D018C2D880F8D2D881F08
:100F90008F3F51F0C601B50120E030E040E050E065
:100FA0000E94E28A882331F482E290E090931E0B43
:100FB00080931D0B7E2D9F2D802F612F272F392F82
:100FC000482F562FB901CA01CDB7DEB7ECE00C941B
:100FD000538DFB01DC014150504088F08D918134EC
:100FE0001CF08B350CF4805E659161341CF06B3520
:100FF0000CF4605E861B611171F3990B0895881BD8
:10100000FCCF2F923F924F925F926F927F928F927E
:101010009F92AF92BF92CF92DF92EF92FF920F9387
:101020001F93DF93CF9300D000D0CDB7DEB71B0165
:101030002C0139014A01A982BA82CB82DC82CA0121
:10104000B901A80197010E94E28A88230CF057C0D9
:10105000C201B101A40193010E941B8A5B016C01D2
:10106000C801B701A40193010E941B8A7B018C0176
:10107000698D7A8D8B8D9C8D29813A814B815C8124
:101080000E941B8A9B01AC01C801B7010E94E68A3D
:101090009B01AC01C601B5010E94E68A7B018C016F
:1010A000298D3A8D4B8D5C8D0E94568C1816A4F1BB
:1010B000C801B70129813A814B815C810E94E28A93
:1010C000882324F4E980FA800B811C81B701C801D0
:1010D0000F900F900F900F90CF91DF911F910F9174
:1010E000FF90EF90DF90CF90BF90AF909F908F9048
:1010F0007F906F905F904F903F902F900895C40124
:10110000B301A20191010E941B8A5B016C01C40121
:10111000B301A8019701A8CFE98CFA8C0B8D1C8D27
:10112000D5CF853041F0843009F0089570938B005D
:1011300060938A00089570938900609388000895F1
:101140008630910551F0079709F0089584E06AEF21
:1011500070E0E7DF289A299A089585E06AEF70E049
:10116000E0DF469A479A0895CF92DF92EF92FF927E
:101170000F931F93CF93DF936C01EB0179018A01E9
:10118000CA01B90120E030E048EC52E40E94568CDC
:10119000181654F40F2EF0E0EF2EF0E0FF2EF8ECCE
:1011A0000F2FF2E41F2FF02DC801B70120E030E02F
:1011B0004AE753E40E94618C20E030E048EC52E4BE
:1011C0000E94E68A0E94538B9B01AC0186E0C81600
:1011D000D10469F087E0C816D104A1F0DF91CF9166
:1011E0001F910F91FF90EF90DF90CF90089585E0D1
:1011F000B90197DFC430D10581F0259779F7469A78
:101200004798ECCF84E0B9018CDFC430D10541F0C0
:10121000259721F72898299AE1CF4698479ADECF5B
:10122000289A2998DBCF99B180B1969596958295A9
:10123000869586958370982790FF14C08091D6027A
:101240009091D702A091D802B091D9020196A11D28
:10125000B11D8093D6029093D702A093D802B09389
:10126000D90208958091D6029091D702A091D80218
:10127000B091D9020197A109B109EBCF89B190B121
:1012800086958695869580958170991F9927991FD7
:101290008917A1F08091DA029091DB02A091DC0223
:1012A000B091DD020196A11DB11D8093DA029093E9
:1012B000DB02A093DC02B093DD0208958091DA0294
:1012C0009091DB02A091DC02B091DD020197A109AF
:1012D000B109EBCF2091D6023091D7024091D802CC
:1012E0005091D902B901CA0108952091DA023091D2
:1012F000DB024091DC025091DD02B901CA01089580
:101300008091D6029091D702A091D802B091D902D3
:101310002091DA023091DB024091DC025091DD0233
:10132000280F391F4A1F5B1FB901CA01089586E0C3
:1013300090E006DF87E090E003DF80E090E0A0E04F
:10134000B0E080930A0390930B03A0930C03B09337
:101350000D0380930E0390930F03A0931003B0939B
:101360001103CEDF609392037093930380939403F1
:10137000909395038091DF089091E008A091E10897
:10138000B091E2088093E4029093E502A093E60214
:10139000B093E70208952F923F924F925F926F921F
:1013A0007F928F929F92AF92BF92CF92DF92EF92F5
:1013B000FF920F931F93DF93CF93CDB7DEB728979C
:1013C0000FB6F894DEBF0FBECDBF1B012C01390153
:1013D0004A01E982FA820B831C83AD82BE82CF82EE
:1013E000D88680915103882309F420C260918E032E
:1013F00070918F03809190039091910397FD9CC20F
:10140000C201B101A40193010E941B8A7B018C01DE
:10141000A090E402B090E502C090E602D090E7020E
:10142000C801B701A60195010E941B8A3B014C012E
:1014300020E030E040E85FE30E94568C18160CF084
:1014400046C2C601B50120E030E040E85FE30E94FB
:101450001C8A7B018C01E092E402F092E502009389
:10146000E6021093E702C801B7012091060330910C
:10147000070340910803509109030E941B8A3B0116
:101480004C016093120370931303809314039093A1
:1014900015032091D3083091D4084091D50850917C
:1014A000D6080E94618C1B012C0160931603709377
:1014B00017038093180390931903C401B3012D817E
:1014C0003E814F8158850E94618C20910E0330919E
:1014D0000F0340911003509111030E941C8A7B015D
:1014E0008C0120E030E040E85FEB0E94E28A882334
:1014F0000CF401C2C801B70120E030E040E85FE32E
:101500000E94568C181654F40F2EF0E0EF2EF0E0E7
:10151000FF2EF0E80F2FFFE31F2FF02DE0920E03B8
:10152000F0920F0300931003109311036091D708FA
:101530007091D8088091D9089091DA0820E030E0C5
:1015400048EC52E40E94618CA80197010E94618CD2
:101550005B016C0160931A0370931B0380931C035F
:1015600090931D036091DB087091DC088091DD0889
:101570009091DE0820E030E048EC52E40E94E68AD8
:101580007B018C01C401B30120910A0330910B034C
:1015900040910C0350910D030E941B8A9B01AC01EA
:1015A000C801B7010E94618C2D813E814F81588511
:1015B0000E94E68A7B018C0160931E0370931F03D7
:1015C000809320039093210360920A0370920B038F
:1015D00080920C0390920D03C201B101A601950106
:1015E0000E941C8AA80197010E941C8A5B016C0161
:1015F0006093220370932303809324039093250325
:1016000080915303882309F4C7C060918E037091C1
:101610008F0380919003909191030E94818B3B01F5
:101620004C0120E030E04CE852E40E94E68A7B0165
:101630008C0120E030E040E050E00E94568C18160B
:101640000CF064C169817A818B819C81A80197012A
:101650000E941B8A7B018C0120E030E040E050E0DA
:101660000E94E28A88230CF45CC1C601B501A8017E
:1016700097010E941B8A609326037093270380932F
:10168000280390932903C601B501A80197010E9480
:101690001C8A60932A0370932B0380932C039093EE
:1016A0002D03609126037091270380912803909168
:1016B00029032091FA083091FB084091FC085091D1
:1016C000FD080E94618C7B018C016093260370935E
:1016D0002703809328039093290360912A03709134
:1016E0002B0380912C0390912D032091FE083091C3
:1016F000FF0840910009509101090E94618C60939C
:101700002A0370932B0380932C0390932D03C8011D
:10171000B70120E030E040E050E00E94568C882382
:101720000CF4CDC086E090E064E070E0A801970181
:101730001BDDE0902A03F0902B0300912C03109105
:101740002D03C801B70120E030E040E050E00E94E6
:10175000568C88230CF4ABC087E090E064E070E026
:10176000A801970101DD28960FB6F894DEBF0FBEE1
:10177000CDBFCF91DF911F910F91FF90EF90DF9040
:10178000CF90BF90AF909F908F907F906F905F9021
:101790004F903F902F90089580915403882309F42F
:1017A00075C060918E0370918F038091900390912A
:1017B00091030E94818B3B014C0120E030E04CE81A
:1017C00052E40E94E68A7B018C0120E030E040E098
:1017D00050E00E94568C18160CF03EC169817A8147
:1017E0008B819C81A80197010E941B8A7B018C013F
:1017F00020E030E040E050E00E94E28A88230CF4D0
:1018000020C1C601B501A80197010E941C8A6093FE
:101810002603709327038093280390932903C6011E
:10182000B501A80197010E941B8A33CF8091520312
:10183000882321F160918E0370918F038091900332
:1018400090919103161617061806190684F40E9443
:10185000818B20E030E04CE852EC0E94E68A9B014C
:10186000AC01C401B3010E941C8A3B014C01C201BE
:10187000B101A40193010E941C8AC8CD8091E501A9
:10188000882309F06AC082017101C2CDA0922603AB
:10189000B0922703C0922803D0922903A0922A0372
:1018A000B0922B03C0922C03D0922D03FACEA80144
:1018B0009701505887E090E065E070E053CFA801B1
:1018C0009701505886E090E065E070E031CFC401A8
:1018D000B30120E030E040E85FEB0E94E28A882319
:1018E0000CF0B9CDC601B50120E030E040E85FE37F
:1018F0000E941B8AAECD0F2EF0E0EF2EF0E0FF2EFF
:10190000F0E80F2FFFEB1F2FF02D08CEC401B3011D
:1019100020E030E04CE852EC0E94E68A7B018C012A
:1019200091CE0F2EF0E0EF2EF0E0FF2EF0E00F2F23
:10193000F0E01F2FF02D99CE0E94818B20E030E047
:101940004CE852E40E94E68A9B01AC01C401B30159
:101950000E941C8A3B014C0153CDD2DC7B018C01DF
:101960008091920390919303A0919403B091950379
:10197000A8019701281B390B4A0B5B0B8091E308E8
:10198000882309F074C0DA01C90189519C4FAF4F17
:10199000BF4F8F5C9740A040B04008F487C0E092F2
:1019A0009203F092930300939403109395038201A2
:1019B000710160918E0370918F03809190039091DB
:1019C00091030E94818B20E030E040E752EC0E94BE
:1019D000E68A9B01AC01C801B7010E941C8A7B0109
:1019E0008C016090DF087090E0088090E108909092
:1019F000E208C401B30120E030E040E251E40E947B
:101A00001B8A5B016C01C801B701A60195010E9408
:101A1000E28A88239CF0C401B30120E030E040E278
:101A200051E40E941C8A5B016C01C801B701A60148
:101A300095010E94568C18160CF0EACC86017501AF
:101A4000E7CC0F2EF0E0EF2EF0E0FF2EF0E00F2FAE
:101A5000F0E01F2FF02DD5CEC401B30120E030E01F
:101A60004CE852EC0E94E68A7B018C01B7CEDA0189
:101A7000C90157FD43C081346FE1960760E0A607B6
:101A800060E0B607E4F0CA01B9010E94818B20E052
:101A900030E046E154EC0E94E68A9B01AC01C201B1
:101AA000B1010E941C8A7B018C0183CFCA01B9015C
:101AB0000E94818B20E030E04AEF53ECECCF813A7A
:101AC000EFE09E07E0E0AE07E0E0BE074CF0CA01A1
:101AD000B9010E94818B20E030E048E454ECDBCF78
:101AE000895E9340A040B0400CF3CA01B9010E9446
:101AF000818B20E030E04AE754ECCDCF882799274E
:101B0000DC01821B930BA40BB50BB5CFFC01A081AC
:101B1000B1819D0171E0761778F4828193818A17F3
:101B20009B0734F4DC01C9017F5F32969C01F3CF3F
:101B300028173907CCF3F7CF80E02A1B3B0B24177B
:101B400035070CF481E00895FB01F999FECFF9996E
:101B5000FECF90E092BD81BDF89A80B5808381E090
:101B60000895282FFB01F999FECFF999FECF822F16
:101B700090E092BD81BDF89A80B56081861769F0CA
:101B8000F999FECF1FBA822F90E092BD81BD60BD52
:101B90000FB6F894FA9AF99A0FBE81E00895482F8B
:101BA000F999FECFFB019B01225D3F4F542F5F5FF0
:101BB000F999FECF842F90E092BD81BDF89A80B54F
:101BC0008083E217F30719F03196452FEFCF8FE2AC
:101BD000089581E063ED78E0E2DF8091E60890917E
:101BE000E708A091E808B091E908809396039093E4
:101BF0009703A0939803B09399038091EA0890917A
:101C0000EB08A091EC08B091ED0880939A039093B3
:101C10009B03A0939C03B0939D038091EE08909149
:101C2000EF08A091F008B091F10880939E03909383
:101C30009F03A093A003B093A1030895482FF9999F
:101C4000FECFFB01625D7F4FF999FECF842F90E0BC
:101C500092BD81BDF89A80B52081821769F0F9990B
:101C6000FECF1FBA842F90E092BD81BD20BD0FB67C
:101C7000F894FA9AF99A0FBEE617F70719F04F5F32
:101C80003196E2CF8FE2089581E063ED78E0D6DF10
:101C90008091E6089091E708A091E808B091E908E2
:101CA0008093960390939703A0939803B09399031E
:101CB0008091EA089091EB08A091EC08B091ED08B2
:101CC00080939A0390939B03A0939C03B0939D03EE
:101CD0008091EE089091EF08A091F008B091F10882
:101CE00080939E0390939F03A093A003B093A103BE
:101CF000089580E090E0A0E2B1E48093D30890934F
:101D0000D408A093D508B093D60880E090E0A0E076
:101D1000B0E48093D7089093D808A093D908B093E3
:101D2000DA0880E090E0A0E4B0E48093DB089093D0
:101D3000DC08A093DD08B093DE0880E090E0A4E327
:101D4000B3E48093DF089093E008A093E108B09398
:101D5000E20881E08093E30888E08093E40889E169
:101D60008093E5088FE692E1A3E8BAE38093E60862
:101D70009093E708A093E808B093E90886EA9BE906
:101D8000A4E4BBE38093EA089093EB08A093EC08EB
:101D9000B093ED088FE892ECA5EFBCE38093EE08DA
:101DA0009093EF08A093F008B093F10880E090E0E2
:101DB000A0E0B0E08093F6089093F708A093F808AD
:101DC000B093F9088093F2089093F308A093F40875
:101DD000B093F50880E090E0A0E8BFE38093FE08B0
:101DE0009093FF08A0930009B09301098093FA082B
:101DF0009093FB08A093FC08B093FD0845CFDF93B8
:101E0000CF930F92CDB7DEB780E0BE016F5F7F4FFB
:101E10009BDE8981813051F06CDF80E068EE71E0FB
:101E2000A0DE81E00F90CF91DF91089580E0FACF9E
:101E3000439862606EBD0DB407FEFDCF4EBD0DB47C
:101E400007FEFDCF439A089543986EBD0DB407FE7B
:101E5000FDCF1EBC0DB407FEFDCF439A8EB508958D
:101E6000CF92DF92EF92FF920F931F93CF93DF9366
:101E70008C0168E740E2DCDFC80168E740E0D8DFBA
:101E8000C0E0D0E081E0C82ED12C7601EC1AFD0A2A
:101E9000219729F0C80168E6D7DF80FFF6CFC70198
:101EA000DF91CF911F910F91FF90EF90DF90CF9036
:101EB0000895CF93DF93EC0168EFC6DF807C803418
:101EC000B1F0813438F08038E9F0803C61F0DF9186
:101ED000CF9108958823D9F7CE0168ED41EDA8DFB1
:101EE00010920209F4CF81E080930209F0CFCE0175
:101EF00068EDAADF81FD0BC0CE0168ED4BEC98DFE9
:101F000083E0F2CFCE0168ED9FDF81FDF5CFCE01FA
:101F100068ED49EC8DDF82E0E7CFCF93DF93EC01F2
:101F20003B9A439A279A259A2698249A80E58CBD55
:101F300081E08DBD3A98CE0168E848E179DFCE01B5
:101F40008FDF892B21F48FEFDF91CF910895CE01A0
:101F500068ED41EC6DDFCE0160ED40E669DFCE015A
:101F600068EE44E065DFCE0168EE6EDF82FFFBCFF6
:101F7000CE019FDFCE0168EC40E25ADFCE0160E87F
:101F800041E056DF80E0E0CF4F925F926F927F9208
:101F90008F929F92AF92BF92CF92DF92EF92FF9279
:101FA0000F931F938FE692E1A3E8BAE38093960321
:101FB00090939703A0939803B093990386EA9BE9C3
:101FC000A4E4BBE380939A0390939B03A0939C03A8
:101FD000B0939D038FE892ECA5EFBCE380939E0342
:101FE00090939F03A093A003B093A10380E090E09F
:101FF000A0E0B0E08093A2039093A303A093A40376
:10200000B093A5038093A6039093A703A093A8037E
:10201000B093A9038093AE039093AF03A093B00352
:10202000B093B1038093B2039093B303A093B4032E
:10203000B093B5038093B6039093B703A093B8030E
:10204000B093B9038093BA039093BB03A093BC03EE
:10205000B093BD031EEC812E13E0912EC4010E94AB
:102060000956B0E14B2EB1E05B2E85E494E0B4015B
:1020700040E051E092010BE111E0A6E3EA2EA1E07D
:10208000FA2EFCE3CF2EF1E0DF2EE8E8AE2EE1E001
:10209000BE2E0E94787684E694E0B4010E94F77028
:1020A00083E195E0B4010E94237B94E2692E95E0E0
:1020B000792EC301B4010E94A6328DE196E0B301EE
:1020C000A2012DE831E00E940A4B81E697E0B301BE
:1020D00040E020E000E0EE24CC24AA240E941A4430
:1020E00083E598E0B30140E00E9402601F910F91E8
:1020F000FF90EF90DF90CF90BF90AF909F908F9028
:102100007F906F905F904F9008950F931F9309ED0C
:1021100019E0C80165E178E00E940588C80163EE16
:1021200077E00E940588C80168EB77E00E94058887
:10213000C80162E977E00E940588C8016CE777E092
:102140000E940588C8016CE577E00E940588C801F7
:1021500061E477E00E940588C80168E277E00E94A8
:102160000588C80165E077E00E940588C80162EE35
:1021700076E00E940588C8016FEB76E00E94058832
:10218000C80160E976E00E940588C80161E576E053
:102190000E940588C8016BE176E00E940588C801AD
:1021A00069EE75E00E940588C80162EA75E00E9448
:1021B0000588C80162E875E00E940588C80163E6E9
:1021C00075E00E940588C80160E475E00E940588FA
:1021D000C8016CE175E00E940588C80163E075E004
:1021E0000E940588C80166ED74E00E940588C80158
:1021F00064EA74E00E940588C8016AE774E00E94FE
:102200000588C80165E574E00E940588C80166EF8D
:1022100073E00E9405881F910F910895CF93DF937B
:1022200080912B06882329F080917C03882309F074
:102230006CC0C9EDD9E08091D302882309F068C051
:102240008091D202882309F06DC08091CF0288234B
:1022500009F0B3C08091D002882309F00CC18091AD
:10226000D402882309F0D0C08091CE02882309F0DF
:102270001FC18091D102882309F451C00E94A38319
:1022800020913E0330913F03409140035091410320
:10229000621B730B840B950B655F7140804090400F
:1022A000F0F10E94A38360933E0370933F038093F9
:1022B000400390934103CE0162ED70E00E94C68717
:1022C0004091DE025091DF026091E0027091E102E4
:1022D000CE0122E030E00E94E789CE0160ED70E09F
:1022E0000E94C68760913E0370913F038091400336
:1022F000909141030E947F8B20E030E64AE657E44C
:102300000E94E68AAB01BC0152C0CFE1D6E093CF78
:102310001092D302CE0165E071E00E940588DF9142
:10232000CF9108951092D202CE0162E071E00E9436
:10233000C6874091D3085091D4086091D508709118
:10234000D608CE0122E030E00E94E789CE0160E0AD
:1023500071E00E94C6874091D7085091D8086091DB
:10236000D9087091DA08CE0122E030E00E94E789B6
:10237000CE016EEF70E00E94C6874091DB0850915D
:10238000DC086091DD087091DE08CE0122E030E0CB
:102390000E94E789CE016CEF70E00E94C6874091F1
:1023A000DF085091E0086091E1087091E208CE01E9
:1023B00022E030E00E94E989B2CF1092CF02CE0134
:1023C00069EF70E00E94C687CE016091E3084AE0A1
:1023D00050E00E94A388CE0167EF70E00E94C6879C
:1023E000CE016091E4084AE050E00E94A388CE014B
:1023F00065EF70E00E94C687CE016091E5084AE073
:1024000050E00E94B4888BCF1092D402CE0160EECF
:1024100070E00E94C68740919603509197036091A7
:10242000980370919903CE0124E030E00E94E7897F
:10243000CE016EED70E00E94C68740919A035091E4
:102440009B0360919C0370919D03CE0124E030E0DA
:102450000E94E789CE016CED70E00E94C687409132
:102460009E0350919F036091A0037091A103CE0140
:1024700024E030E09FCF1092D002CE0162EF70E0F6
:102480000E94C6876091E3017091E401CE010E9431
:102490001189CE0160EF70E00E94C687CE0161E035
:1024A0004AE050E00E94A388CE0163EE70E035CF91
:1024B0000E94A38320913A0330913B0340913C0357
:1024C00050913D03621B730B840B950B63337105B5
:1024D0008105910508F4CDCE0E94A38360933A0351
:1024E00070933B0380933C0390933D03CE0169EDD1
:1024F00070E00E94C6874091FA025091FB02609101
:10250000FC027091FD02CE0122E030E00E94E789DA
:10251000CE0167ED70E00E94C687409102035091A2
:1025200003036091040370910503CE0122E030E0C3
:102530000E94E789CE0165ED70E00E94C687409158
:1025400006035091070360910803709109032FCF90
:102550002F923F924F925F926F927F928F929F92B3
:10256000AF92BF92CF92DF92EF92FF920F931F93A1
:10257000DF93CF93CDB7DEB760970FB6F894DEBF89
:102580000FBECDBF1C012B0129873A874B875C8783
:10259000ED86FE860F87188B0E946A095B016C012D
:1025A0000E9475093B014C0189ED99E06EE071E0F4
:1025B0000E9405883AC0F101608171818281938116
:1025C0002DEC3CEC4CEC5DE30E941C8AF101608335
:1025D000718382839383D601C50189539F4FAF4F87
:1025E000BF4F8F589140A040B04008F0BEC0F201EC
:1025F00060817181828193812DEC3CEC4CEC5DE338
:102600000E941C8AF201608371838283938364E653
:1026100070E080E090E00E941B8469807A808B806B
:102620009C80AD80BE80CF80D88489ED99E00E94E7
:10263000D7868F5F9F4F09F0BEC069857A858B85ED
:102640009C85F10120813181428153810E94618CFE
:102650009B01AC0186E090E064E070E00E94B40869
:102660006D857E858F859889F20120813181428137
:1026700053810E94618C9B01AC0187E090E064E093
:1026800070E00E94B4080E946A096D837E838F8384
:1026900098877B018C01EA18FB080C091D090E9430
:1026A000750969837A838B839C835B016C01A6180F
:1026B000B708C808D90889ED99E0B801A7012AE050
:1026C00030E00E94C68889ED99E06CE071E00E94DC
:1026D000C68789ED99E0B601A5012AE030E00E94A5
:1026E000C68889ED99E06AE071E00E94C687F10131
:1026F000408151816281738189ED99E022E030E06F
:102700000E94E78989ED99E068E071E00E94C68740
:10271000F201408151816281738189ED99E022E06B
:1027200030E00E94E989D801C70189539F4FAF4F1C
:10273000BF4F8F589140A040B04008F43CCFB80143
:10274000A70117FD28C04C3C5105610571050CF42B
:1027500042CFF10160817181828193812DEC3CEC4B
:102760004CEC5DE30E941B8A31CFB601A501D7FC7A
:102770001AC04C3C5105610571050CF448CFF201BB
:1027800060817181828193812DEC3CEC4CEC5DE3A6
:102790000E941B8A37CF70956095509541955F4F89
:1027A0006F4F7F4FD0CF70956095509541955F4F9B
:1027B0006F4F7F4FDECFF101E080F1800281138106
:1027C00020C086E090E064E070E0A80197010E94DC
:1027D000B40887E090E064E070E0A80197010E94EF
:1027E000B40862E370E080E090E00E941B84C801BE
:1027F000B70120E030E040E85FE30E941B8A7B01E4
:102800008C01C801B70120E030E040E050E00E94B8
:10281000568C1816B4F286E090E00E94A00887E07B
:1028200090E00E94A00860960FB6F894DEBF0FBE3D
:10283000CDBFCF91DF911F910F91FF90EF90DF906F
:10284000CF90BF90AF909F908F907F906F905F9050
:102850004F903F902F9008956F927F928F929F920A
:10286000AF92BF92CF92DF92EF92FF920F931F939E
:10287000DF93CF93CDB7DEB728970FB6F894DEBFBE
:102880000FBECDBF89ED99E061EB72E00E94058833
:1028900089ED99E00E94D7868F5F9F4FC9F389ED3C
:1028A00099E067E372E00E94058860ED77E080E0E0
:1028B00090E00E941B8480E090E0A0E2B1E4898374
:1028C0009A83AB83BC838D839E83AF83B887CE010D
:1028D0000196BE016B5F7F4F20E030E040E85FE390
:1028E00079018A0135DE89ED99E068E172E00E94A4
:1028F000C68749815A816B817C8189ED99E022E00C
:1029000030E00E94E78989ED99E066E172E00E947B
:10291000C6874D815E816F81788589ED99E022E0DF
:1029200030E00E94E989A980BA80CB80DC80ED800C
:10293000FE800F811885C601B501A80197010E948C
:10294000568C18160CF0DDC080E090E0A0E8BFE3E4
:102950008093FA089093FB08A093FC08B093FD08BD
:10296000C801B701A60195010E94E68A6093FE089E
:102970007093FF08809300099093010989ED99E015
:1029800064EF71E00E94C6874091FA085091FB08FD
:102990006091FC087091FD0889ED99E022E030E03B
:1029A0000E94E78989ED99E062EF71E00E94C68795
:1029B0004091FE085091FF08609100097091010953
:1029C00089ED99E022E030E00E94E98989ED99E003
:1029D00065E871E00E94058860ED77E080E090E0B6
:1029E0000E941B8480E090E0A0E2B1E48D839E838E
:1029F000AF83B88789839A83AB83BC832091FA081D
:102A00003091FB084091FC085091FD08E090FE08D1
:102A1000F090FF080091000910910109CE01019684
:102A2000BE016B5F7F4F94DD99808A807B806C80D4
:102A30001D810E81FF80E884692D782D872D962DCC
:102A4000212F302F4F2D5E2D0E94568C18160CF41E
:102A500073C0812F902FAF2DBE2D5C016D01692DAC
:102A6000782D872D962D212F302F4F2D5E2D0E94F2
:102A7000E28A87FD66C0812F902FAF2DBE2D7C018D
:102A80008D0189ED99E06DE671E00E94C687C6016F
:102A9000B501A80197010E941B8AA60195010E9419
:102AA000E68A20E030E048EC52E40E94618CAB0101
:102AB000BC0189ED99E022E030E00E94E78989EDD0
:102AC00099E062E971E00E94FB89DED889ED99E026
:102AD0006BE471E00E94058828960FB6F894DEBF7B
:102AE0000FBECDBFCF91DF911F910F91FF90EF905F
:102AF000DF90CF90BF90AF909F908F907F906F901E
:102B00000895C601B501A80197010E94E68A609365
:102B1000FA087093FB088093FC089093FD0880E00E
:102B200090E0A0E8BFE38093FE089093FF08A09395
:102B30000009B093010922CF892D982DA72DB62D1C
:102B40008CCF892D982DA72DB62D99CFBF92CF92DE
:102B5000DF92EF92FF920F931F93CF93DF93182F83
:102B6000062FF72EB42E80E599E068E60E94917F4B
:102B700080E599E0612F0E94FE7F80E599E060E0AA
:102B80000E942D80C82E8823C1F580E599E068E673
:102B90004B2D21E00E943F80802F9F2D9C01E90159
:102BA000DD240DC080E599E00E949B7F892BE9F12F
:102BB00080E599E00E94A47F8883D3942196DB145A
:102BC00048F580E599E00E949B7F892B89F70E9458
:102BD000B1837B018C010E94B1836E197F09800B48
:102BE000910B6436710581059105E0F680E599E069
:102BF0000E949B7F892BB1F6EECF89ED99E064E8C6
:102C000078E00E94C68789ED99E06C2D4AE050E09B
:102C10000E94B4888C2DDF91CF911F910F91FF906E
:102C2000EF90DF90CF90BF90089589ED99E064E731
:102C300078E00E94058805E0C02EECCFAF92BF92ED
:102C4000CF92DF92EF92FF920F931F93DF93CF9378
:102C5000CDB7DEB7E2970FB6F894DEBF0FBECDBF9B
:102C60005E010894A11CB11C650183E3E82EF12CE0
:102C7000EC0EFD1E83E462EF72E042E067DF882322
:102C8000C9F71091F20200E08091F30290E0802BEE
:102C9000912BF601819391936F016AE070E080E0DF
:102CA00090E00E941B84CE14DF0421F7CE01019630
:102CB00069E140ED57E00E94860D8823E1F1E09044
:102CC000EE02F090EF020091F0021091F102F50196
:102CD000619171915F01882777FD8095982F0E94FF
:102CE000818B9B01AC01C801B7010E941C8A7B014A
:102CF0008C01AC14BD0459F720E030E048EC51E4FD
:102D00000E94E68A6093EE027093EF028093F002D5
:102D10009093F102E2960FB6F894DEBF0FBECDBFDE
:102D2000CF91DF911F910F91FF90EF90DF90CF90A7
:102D3000BF90AF90089589ED99E069EB70E00E9433
:102D4000C68785E061E00E94DD84FFCF4F925F92ED
:102D50006F927F928F929F92AF92BF92CF92DF92AB
:102D6000EF92FF920F931F93DF93CF93CDB7DEB710
:102D7000C456D0400FB6F894DEBF0FBECDBF89ED6C
:102D800099E063E873E00E94058889ED99E00E946C
:102D9000D7868F5F9F4FC9F3CC24DD245E01089452
:102DA000A11CB11C23E3822E912C8C0E9D1E8DE361
:102DB00062EF72E044E0CADE8823C9F7F501EC0D4A
:102DC000FD1DF090F202EE248091F30290E08E2936
:102DD0009F2991838083F401EC0DFD1D1091F40275
:102DE00000E08091F50290E0802B912B918380830D
:102DF0006AE070E080E090E00E941B8482E090E056
:102E0000C80ED91E92E3C916D10489F6C50169E13D
:102E100048EE53E00E94860D882359F489ED99E02D
:102E200063E673E00E94C68785E061E00E94DD846E
:102E3000FFCFC40169E148EE53E00E94860D88236C
:102E400069F3A090F608B090F708C090F808D09009
:102E5000F908E090F208F090F3080091F40810915E
:102E6000F508882499242E010894411C511C93E3F1
:102E7000692E712C6C0E7D1EF201E80DF91D60812A
:102E80007181882777FD8095982F0E94818B9B0107
:102E9000AC01C801B7010E941C8A7B018C01F301BF
:102EA000E80DF91D60817181882777FD8095982F45
:102EB0000E94818B9B01AC01C601B5010E941C8A56
:102EC0005B016C0182E090E0880E991E92E3891606
:102ED000910491F6C801B70120E030E048EC51E4DC
:102EE0000E94E68A7B018C01C601B50120E030E03A
:102EF00048EC51E40E94E68A6093F6087093F70864
:102F00008093F8089093F908C801B70120E030E0F9
:102F100040E050E00E94E28A88230CF468C0C801B7
:102F2000B70120E030E040E856E40E941B8A60933D
:102F3000F2087093F3088093F4089093F50889EDF4
:102F400099E06BE473E00E94C6876091F20870918B
:102F5000F3088091F4089091F50820E030E040E813
:102F600058E30E94618CAB01BC0189ED99E022E03D
:102F700030E00E94E78989ED99E069E473E00E94FE
:102F8000C6876091F6087091F7088091F8089091D3
:102F9000F90820E030E040E858E30E94618CAB0182
:102FA000BC0189ED99E022E030E00E94E9890E94AD
:102FB000440E89ED99E060E273E00E940588CC59E7
:102FC000DF4F0FB6F894DEBF0FBECDBFCF91DF91BC
:102FD0001F910F91FF90EF90DF90CF90BF90AF9037
:102FE0009F908F907F906F905F904F900895C80151
:102FF000B70120E030E040E856E40E941C8A97CFF9
:10300000DF92EF92FF920F931F93F82E8B01E42E25
:10301000D22E80E599E068E60E94917F80E599E0F4
:103020006F2D0E94FE7F80E599E0B8014E2D50E0A3
:103030000E94CE7F80E599E06D2D0E942D80082FA3
:10304000882369F089ED99E065E978E00E94C687F8
:1030500089ED99E0602F4AE050E00E94B488802F0B
:103060001F910F91FF90EF90DF900895DF93CF9322
:103070000F92CDB7DEB76983242FBE016F5F7F4FFC
:1030800041E0BEDF0F90CF91DF910895EF92FF9264
:103090000F931F93CF93DF93EC018C818823A1F0D2
:1030A000FE01E459FF4FA0817181828163812A2F43
:1030B000372F482F562FB901CA01DF91CF911F91A9
:1030C0000F91FF90EF90089568857985882777FDA7
:1030D0008095982F0E94818B7B018C016A857B856E
:1030E000882777FD8095982F0E94818B9B01AC01EA
:1030F000C801B7010E948F8A2BED3FE049E450E4FC
:103100000E941C8A21EE3EE245E652E40E94618C58
:10311000A62F692FCCCFEF92FF920F931F93CF93DF
:10312000DF93EC018C818823A1F0FE01E059FF4F71
:10313000A0817181828163812A2F372F482F562FDA
:10314000B901CA01DF91CF911F910F91FF90EF90CC
:1031500008956E817F81882777FD8095982F0E9442
:10316000818B7B018C016A857B85882777FD809523
:10317000982F0E94818B9B01AC01C801B7010E946E
:103180008F8A2BED3FE049E450E40E941C8A21EE37
:103190003EE245E652E40E94618CA62F692FCCCF17
:1031A0007F928F929F92AF92BF92CF92DF92EF92D7
:1031B000FF920F931F93CF93DF93EC0177247394C7
:1031C0007092850310925103109252031092E50100
:1031D00010925303109254038930910509F4B0C042
:1031E0008830910509F439C2009709F03AC18091FD
:1031F0006307882309F4E0C181E697E061E070E0AD
:103200000E949843853708F465C481E697E061E041
:1032100070E00E9498438A3810F00C94542181E6A3
:1032200097E061E070E00E949843082F81E697E004
:1032300063E070E00E94984310E0081B1109003120
:1032400011050CF448C381E697E061E070E00E944C
:103250009843082F81E697E063E070E00E9498436E
:1032600010E0081B11091016110614F00C948723A6
:1032700081E697E061E070E00E949843E82E81E6E5
:1032800097E063E070E00E949843FF24E81AF10899
:103290000027F7FC0095102FC801B7010E94818B11
:1032A0007B018C0100D000D08DB69EB60894811CA5
:1032B000911C6091E50870E080E090E00E947F8BB7
:1032C000F4016083718382839383C801B70120E096
:1032D00030E040E050E00F2EF0E0EF2EF0E0FF2E67
:1032E000FFE70F2FF3E41F2FF02D59016A010E9411
:1032F00001080F900F900F900F9060935A037093F6
:103300005B0380935C0390935D0381E080935303A0
:10331000C230D10509F437C4C330D10509F437C12F
:10332000C093D502DF91CF911F910F91FF90EF9045
:10333000DF90CF90BF90AF909F908F907F90089537
:10334000E0908103F0908203009183031091840345
:10335000C801B70120E030E040E050E00E94568C08
:1033600018160CF077C200D000D08DB69EB6089427
:10337000811C911C6091E40870E080E090E00E9464
:103380007F8BF4016083718382839383C801B701CB
:1033900020E030E040E050E00F2EF0E0EF2EF0E0D3
:1033A000FF2EF0E80F2FFFE31F2FF02D59016A01C8
:1033B0000E9401080F900F900F900F90609356039A
:1033C000709357038093580390935903709251035D
:1033D000E0907D03F0907E0300917F0310918003C5
:1033E000C801B70120E030E040E050E00E94568C78
:1033F00018160CF07CC400D000D08DB69EB6089490
:10340000811C911C6091E50870E080E090E00E94D2
:103410007F8BF4016083718382839383C801B7013A
:1034200020E030E040E050E00F2EF0E0EF2EF0E042
:10343000FF2EF0E80F2FFFE31F2FF02D59016A0137
:103440000E9401080F900F900F900F9060935A0305
:1034500070935B0380935C0390935D0381E08093A2
:103460005403C130D10509F053CF80915808882307
:1034700009F47EC183E598E061E070E00E94CF60CE
:103480008959984010F00C94572283E598E061E048
:1034900070E00E94CF608850974010F40C94302464
:1034A00083E598E063E070E00E94CF608C0183E5E3
:1034B00098E061E070E00E94CF60081B190B093CA6
:1034C00011050CF488C583E598E061E070E00E9486
:1034D000CF608C0183E598E063E070E00E94CF60EC
:1034E000081B190B1016110614F00C94922483E596
:1034F00098E061E070E00E94CF607C0183E598E095
:1035000063E070E00E94CF60E81AF90A0027F7FC38
:103510000095102FC801B7010E94818B7B018C019F
:1035200000D000D08DB69EB60894811C911C60918D
:10353000E50870E080E090E00E947F8BF4016083FA
:10354000718382839383C801B70120E030E040E0BB
:1035500050E00F2EF0E0EF2EF0E0FF2EF6E10F2FFF
:10356000F5E41F2FF02D59016A010E9401080F9008
:103570000F900F900F9060935A0370935B038093AA
:103580005C0390935D0381E080935303C5CE81E09B
:103590008093E5018091D502833009F4C1CE0E9469
:1035A00080096093920370939303809394039093A4
:1035B000950310925503B4CE81E697E061E070E088
:1035C0000E949843853708F4FFC181E697E061E0E7
:1035D00070E00E9498438A3810F00C94FC2281E637
:1035E00097E060E070E00E949843873308F0C1C321
:1035F00081E697E060E070E00E94984300D000D040
:103600008DB69EB60894811C911C90E0A0E0B0E0BD
:10361000BC01CD010E947F8B7B018C016091E5088C
:1036200070E080E090E00E947F8BF4016083718302
:1036300082839383C801B70120E030E048E552E47B
:103640000F2EF0E0EF2EF0E0FF2EF0E00F2FF0E075
:103650001F2FF02D570168014ACEE0907D03F090B6
:103660007E0300917F0310918003C801B70120E021
:1036700030E040E050E00E94568C18160CF0E9C192
:1036800000D000D08DB69EB60894811C911C60912C
:10369000E40870E080E090E00E947F8BF40160839A
:1036A000718382839383C801B70120E030E040E05A
:1036B00050E00F2EF0E0EF2EF0E0FF2EF0E10F2FA4
:1036C000F2E41F2FF02D59016A010E9401080F90AA
:1036D0000F900F900F906093560370935703809351
:1036E00058039093590370925103E0908103F09036
:1036F00082030091830310918403C801B70120E085
:1037000030E040E050E00E94E28A882314F40C94F8
:103710009423C801B70120E030E040E050E00E946F
:10372000568C18160CF09DCE00D000D08DB69EB6EB
:103730000894811C911C6091E50870E080E090E0A5
:103740000E947F8BF4016083718382839383C8011D
:10375000B70120E030E040E050E00F2EF0E0EF2E27
:10376000F0E0FF2EF4E30F2FF2E41F2FF02D66CED2
:1037700083E598E06CE070E00E943F60882309F4E4
:10378000DCC383E598E082DC20E030E044E353E4EE
:103790000E94568C18160CF4EBC583E598E076DC95
:1037A00020E030E044E353E40E94E28A882314F4EA
:1037B0000C949F2483E598E0AEDC20E030E044E305
:1037C00053E40E94568C18160CF0D3C683E598E09B
:1037D000A2DC7B018C0100D000D08DB69EB608948F
:1037E000811C911C6091E50870E080E090E00E94EF
:1037F0007F8BF4016083718382839383C801B70157
:1038000020E030E044E353E40F2EF0E0EF2EF0E050
:10381000FF2EF1E60F2FF3E41F2FF02D0F2EF0E017
:10382000AF2EF0E0BF2EF0E0CF2EF0E0DF2EF02D37
:103830000E9401080F900F900F900F9060935A0311
:1038400070935B0380935C0390935D0381E08093AE
:10385000540362CDC801B70120E030E040E050E001
:103860000E94E28A88230CF0B3CD00D000D08DB640
:103870009EB60894811C911C6091E40870E080E081
:1038800090E00E947F8BF401608371838283938335
:10389000C801B70120E030E040E050E00F2EF0E03A
:1038A000EF2EF0E0FF2EF0E80F2FFFEB1F2FF02D93
:1038B00059016A010E9401080F900F900F900F901C
:1038C0006093560370935703809358039093590362
:1038D000709252037DCD81E697E063E070E00E9434
:1038E0009843082F81E697E061E070E00E949843DA
:1038F00010E0081B1109003111050CF4D1C381E659
:1039000097E061E070E00E949843082F81E697E01D
:1039100063E070E00E94984310E0081B1109101644
:1039200011060CF0B8C581E697E061E070E00E94F6
:103930009843E82E81E697E063E070E00E949843A8
:10394000FF24E81AF1080027F7FC0095102FC801A2
:10395000B7010E94818B7B018C0100D000D08DB615
:103960009EB60894811C911C6091E50870E080E08F
:1039700090E00E947F8BF401608371838283938344
:10398000C801B70120E030E040E050E00F2EF0E049
:10399000EF2EF0E0FF2EFFE70F2FF3E41F2FF02DA7
:1039A00059016A010E9401080F900F900F900F902B
:1039B00060935A0370935B0380935C0390935D0361
:1039C00081E080935403A4CC81E697E061E070E04D
:1039D0000E94984300D000D08DB69EB60894811CFA
:1039E000911C90E0A0E0B0E0BC01CD010E947F8B73
:1039F0007B018C016091E40870E080E090E00E941F
:103A00007F8BF4016083718382839383C801B70144
:103A100020E030E048EE52E40F2EF0E0EF2EF0E030
:103A2000FF2EF0E00F2FF0E01F2FF02D570168015F
:103A30000E9401080F900F900F900F906093560313
:103A400070935703809358039093590370925103D6
:103A5000C6CDC801B70120E030E040E050E00E9450
:103A6000E28A88230CF041CE00D000D08DB69EB6FD
:103A70000894811C911C6091E40870E080E090E063
:103A80000E947F8BF4016083718382839383C801DA
:103A9000B70120E030E040E050E00F2EF0E0EF2EE4
:103AA000F0E0FF2EF0E10F2FF2EC1F2FF02D590167
:103AB0006A010E9401080F900F900F900F90609381
:103AC0005603709357038093580390935903709251
:103AD00052030BCE81E697E063E070E00E949843CA
:103AE000853708F092CB81E697E061E070E00E94B4
:103AF0009843E82E81E697E063E070E00E949843E7
:103B000000D000D08DB69EB60894811C911CFF2475
:103B1000E80EF11C0027F7FC0095102FC801B70133
:103B20000E94818B7B018C016091E40870E080E051
:103B300090E00E947F8BF401608371838283938382
:103B4000C801B70120E030E048E653E40F2EF0E072
:103B5000EF2EF0E0FF2EF0E00F2FF0E01F2FF02D02
:103B6000570168010E9401080F900F900F900F906D
:103B700060935603709357038093580390935903AF
:103B8000709251034CCB84E694E061E070E040E039
:103B90000E940B728D549D410CF01BC384E694E08F
:103BA00061E070E040E00E940B72845B924E0CF486
:103BB000DFC584E694E063E070E040E00E940B72B1
:103BC0007C0184E694E061E070E040E00E940B72CA
:103BD0000027F7FC0095102FAA2797FDA095BA2F74
:103BE000E81AF90A0A0B1B0BFDE4EF16FDE1FF06CC
:103BF000F0E00F07F0E01F070CF401C184E694E049
:103C000061E070E040E00E940B727C0184E694E089
:103C100063E070E040E00E940B720027F7FC009523
:103C2000102FAA2797FDA095BA2FE81AF90A0A0BB8
:103C30001B0B1E141F04100611060CF004C684E6AC
:103C400094E061E070E040E00E940B727C0184E649
:103C500094E063E070E040E00E940B720027F7FC04
:103C60000095102FAA2797FDA095BA2FE81AF90AF8
:103C70000A0B1B0BC801B7010E94818B7B018C01D1
:103C800000D000D08DB69EB60894811C911C609126
:103C9000E50870E080E090E00E947F8BF401608393
:103CA000718382839383C801B70120E030E040E054
:103CB00050E00F2EF0E0EF2EFFEFFF2EFFE70F2F6B
:103CC000F7E41F2FF02D59016A010E9401080F909F
:103CD0000F900F900F9060935A0370935B03809343
:103CE0005C0390935D0381E08093530319CBC8017B
:103CF000B70120E030E040E050E00E94E28A8823F3
:103D00000CF0AFCB00D000D08DB69EB60894811CCD
:103D1000911C6091E50870E080E090E00E947F8B4C
:103D2000F4016083718382839383C801B70120E02B
:103D300030E040E050E00F2EF0E0EF2EF0E0FF2EFC
:103D4000F0E80F2FFFEB1F2FF02D59016A010E94A1
:103D500001080F900F900F900F9060935A0370938B
:103D60005B0380935C0390935D0381E08093530336
:103D700078CB81E697E060E070E00E949843893C50
:103D800008F4C6CA81E697E060E070E00E949843BC
:103D900000D000D08DB69EB60894811C911C90E096
:103DA000A0E0B0E0BC01CD010E947F8B7B018C01C3
:103DB0006091E50870E080E090E00E947F8BF40164
:103DC0006083718382839383C801B70120E030E070
:103DD00049E453E40F2EF0E0EF2EF0E0FF2EFFE772
:103DE0000F2FF3E41F2FF02D0F2EF0E0AF2EF0E099
:103DF000BF2EF0E0CF2EF0E0DF2EF02DD3CD84E605
:103E000094E061E070E040E00E940B727C0184E687
:103E100094E063E070E040E00E940B720027F7FC42
:103E20000095102FAA2797FDA095BA2FE81AF90A36
:103E30000A0B1B0BFDE4EF16FDE1FF06F0E00F0798
:103E4000F0E01F070CF46CCA84E694E061E070E0D7
:103E500040E00E940B727C0184E694E063E070E035
:103E600040E00E940B720027F7FC0095102FAA2754
:103E700097FDA095BA2FE81AF90A0A0B1B0B1E141E
:103E80001F04100611060CF08BC684E694E061E076
:103E900070E040E00E940B727C0184E694E063E0F5
:103EA00070E040E00E940B720027F7FC0095102F95
:103EB000AA2797FDA095BA2FE81AF90A0A0B1B0B3F
:103EC000C801B7010E94818B7B018C0100D000D01A
:103ED0008DB69EB60894811C911C6091E50870E037
:103EE00080E090E00E947F8BF40160837183828385
:103EF0009383C801B70120E030E040E050E00F2E8E
:103F0000F0E0EF2EFFEFFF2EFFE70F2FF7E41F2F5C
:103F1000F02D59016A010E9401080F900F900F9037
:103F20000F9060935A0370935B0380935C039093AC
:103F30005D0381E080935403F3C983E598E061E079
:103F400070E00E94B9608A3808F057C283E598E0B3
:103F500061E070E00E94B960853708F436C583E5FA
:103F600098E060E070E00E94B9608A3808F492C37B
:103F700083E598E060E070E00E94B96000D000D076
:103F80008DB69EB60894811C911C90E0A0E0B0E034
:103F9000BC01CD010E947F8B7B018C016091E50803
:103FA00070E080E090E00E947F8BF4016083718379
:103FB00082839383C801B70120E030E04AE053E4F4
:103FC0000F2EF0E0EF2EF0E0FF2EF6E60F2FF3E4D9
:103FD0001F2FF02D23CC83E598E061E070E00E9474
:103FE000CF608C0183E598E063E070E00E94CF60D1
:103FF000081B190B093C11050CF48EC983E598E0E8
:1040000061E070E00E94CF608C0183E598E063E09E
:1040100070E00E94CF60081B190B101611060CF0FF
:10402000CCC583E598E061E070E00E94CF607C0140
:1040300083E598E063E070E00E94CF60E81AF90A37
:104040000027F7FC0095102FC801B7010E94818B53
:104050007B018C0100D000D08DB69EB60894811CE7
:10406000911C6091E50870E080E090E00E947F8BF9
:10407000F4016083718382839383C801B70120E0D8
:1040800030E040E050E00F2EF0E0EF2EF0E0FF2EA9
:10409000F6E10F2FF5E41F2FF02D59016A01C8CB6F
:1040A00081E697E06EE070E00E944243882309F4C5
:1040B0002FC981E697E061E070E00E943B4A20E072
:1040C00030E044E353E40E94568C18160CF012C5FD
:1040D00081E697E061E070E00E943B4A7B018C0141
:1040E00000D000D08DB69EB60894811C911C6091C2
:1040F000E40870E080E090E00E947F8BF401608330
:10410000718382839383C801B70120E030E044E3E8
:1041100053E40F2EF0E0EF2EF0E0FF2EF8E50F2F26
:10412000F3E41F2FF02D0F2EF0E0AF2EF0E0BF2EA6
:10413000F0E0CF2EF0E0DF2EF02D0E9401080F906E
:104140000F900F900F9060935603709357038093D6
:1041500058039093590381E08093510381E697E0DF
:1041600062E070E00E943B4A20E030E044E353E428
:104170000E94568C18160CF076C481E697E062E037
:1041800070E00E943B4A7B018C0100D000D08DB6CC
:104190009EB60894811C911C6091E50870E080E057
:1041A00090E00E947F8BF40160837183828393830C
:1041B000C801B70120E030E044E353E40F2EF0E003
:1041C000EF2EF0E0FF2EF1E60F2FF3E41F2FF02D7E
:1041D0000BCE84E694E063E070E040E00E940B7256
:1041E0008D549D410CF4DACC84E694E061E070E0FB
:1041F00040E00E940B727C0184E694E063E070E092
:1042000040E00E940B7200D000D08DB69EB608949C
:10421000811C911CAA2797FDA095BA2F0027F7FCB7
:104220000095102F8E0D9F1DA01FB11FBC01CD0149
:104230000E94818B7B018C016091E40870E080E03A
:1042400090E00E947F8BF40160837183828393836B
:10425000C801B70120E038E64AE656E40F2EF0E048
:10426000EF2EFEEFFF2EFFE70F2FF7E41F2FF02DAD
:104270000F2EF0E0AF2EF0E0BF2EF0E0CF2EF0E0FA
:10428000DF2EF02D0E9401080F900F900F900F90DD
:104290006093560370935703809358039093590388
:1042A00081E08093510385CC81E697E063E070E084
:1042B0000E9498438A3810F40C940F1981E697E015
:1042C00061E070E00E949843E82E81E697E063E0A9
:1042D00070E00E94984300D000D08DB69EB608943E
:1042E000811C911CFF24E80EF11C0027F7FC0095AF
:1042F000102FC801B7010E94818B7B018C01609156
:10430000E40870E080E090E00E947F8BF40160831D
:10431000718382839383C801B70120E030E04AE8CB
:1043200053E40F2EF0E0EF2EF0E0FF2EFFEF0F2F03
:10433000F3E41F2FF02D0F2EF0E0AF2EF0E0BF2E94
:10434000F0E0CF2EF0E0DF2EF02D0E9401080F905C
:104350000F900F900F9060935603709357038093C4
:1043600058039093590381E0809352030C940F19E2
:1043700083E598E00E9446187B018C0100D000D0B4
:104380008DB69EB60894811C911C6091E40870E083
:1043900080E090E00E947F8BF401608371838283D0
:1043A0009383C801B70120E030E044E353E40F2ECB
:1043B000F0E0EF2EF0E0FF2EF8E50F2FF3E41F2FD3
:1043C000F02D0F2EF0E0AF2EF0E0BF2EF0E0CF2E5C
:1043D000F0E0DF2EF02D0E9401080F900F900F905B
:1043E0000F906093560370935703809358039093F4
:1043F000590381E080935103DDC983E598E061E0D2
:1044000070E00E94B96000D000D08DB69EB60894CE
:10441000811C911C90E0A0E0B0E0BC01CD010E94A5
:104420007F8B7B018C016091E40870E080E090E07C
:104430000E947F8BF4016083718382839383C80120
:10444000B70120E030E04AE053E40F2EF0E0EF2E19
:10445000F0E0FF2EF6E60F2FF3E41F2FF02D0F2EC6
:10446000F0E0AF2EF0E0BF2EF0E0CF2EF0E0DF2E38
:10447000F02D0E9401080F900F900F900F90609305
:10448000560370935703809358039093590381E028
:104490008093510364CD81E697E063E070E00E9471
:1044A0009843E82E81E697E061E070E047CA83E533
:1044B00098E063E070E00E94CF608959984010F462
:1044C0000C94451A83E598E061E070E00E94CF60AB
:1044D0007C0183E598E063E070E00E94CF6000D04B
:1044E00000D08DB69EB60894811C911CE80EF91E72
:1044F00000E010E0C801B7010E947F8B7B018C01B6
:104500006091E40870E080E090E00E947F8BF4010D
:104510006083718382839383C801B70120E030E90F
:1045200049E855E40F2EF0E0EF2EF0E0FF2EF8EC16
:104530000F2FF5E41F2FF02D0F2EF0E0AF2EF0E03F
:10454000BF2EF0E0CF2EF0E0DF2EF02D0E9401080C
:104550000F900F900F900F90609356037093570336
:10456000809358039093590381E0809351030C94F6
:10457000501A83E598E00E948B1820E030E044E375
:1045800053E40E94E28A882314F00C948C1983E58A
:1045900098E00E948B187B018C0100D000D08DB672
:1045A0009EB60894811C911C6091E50870E080E043
:1045B00090E00E947F8BF4016083718382839383F8
:1045C000C801B70120E030E044E353E40F2EF0E0EF
:1045D000EF2EF0E0FF2EF7E00F2FF3E41F2FF02D6A
:1045E0000F2EF0E0AF2EF0E0BF2EF0E0CF2EF0E087
:1045F000DF2EF02D0C94B51A81E697E061E070E0B3
:104600000E94984300D000D08DB69EB60894811CBD
:10461000911C90E0A0E0B0E0BC01CD010E947F8B36
:104620007B018C016091E40870E080E090E00E94E2
:104630007F8BF4016083718382839383C801B70108
:1046400020E030E04AE053E40F2EF0E0EF2EF0E0FF
:10465000FF2EFFE70F2FF3E41F2FF02D0F2EF0E0BA
:10466000AF2EF0E0BF2EF0E0CF2EF0E0DF2EF02DE9
:104670000E9401080F900F900F900F9060935603C7
:104680007093570380935803909359037092520389
:104690000C94EF1A83E598E060E070E00E94B96046
:1046A000853710F00C948C1983E598E060E070E099
:1046B0000E94B96000D000D08DB69EB60894811CCF
:1046C000911C90E0A0E0B0E0BC01CD010E947F8B86
:1046D0007B018C016091E50870E080E090E00E9431
:1046E0007F8BF4016083718382839383C801B70158
:1046F00020E030E048EE52E40F2EF0E0EF2EF0E044
:10470000FF2EF8EC0F2FF1E41F2FF02D69CF81E67B
:1047100097E063E070E00E949843E82E81E697E01E
:1047200061E070E00C94431900D000D08DB69EB6C5
:104730000894811C911C6091E50870E080E090E095
:104740000E947F8BF4016083718382839383C8010D
:10475000B70120E030E040E050E00F2EF0E0EF2E17
:10476000F0E0FF2EF4E30F2FF2EC1F2FF02DEDCA37
:1047700084E694E063E070E040E00E940B72845BAA
:10478000924E0CF016CA84E694E061E070E040E0DE
:104790000E940B727C0184E694E063E070E040E0EC
:1047A0000E940B7200D000D08DB69EB60894811C7A
:1047B000911CAA2797FDA095BA2F0027F7FC00951A
:1047C000102F8E0D9F1DA01FB11FBC01CD010E9497
:1047D000818B7B018C016091E40870E080E090E0C7
:1047E0000E947F8BF4016083718382839383C8016D
:1047F000B70120E038E64AE656EC0F2EF0E0EF2E47
:10480000F0E0FF2EF0E80F2FF7EC1F2FF02D0F2E0A
:10481000F0E0AF2EF0E0BF2EF0E0CF2EF0E0DF2E84
:10482000F02D0E9401080F900F900F900F90609351
:10483000560370935703809358039093590381E074
:1048400080935203B6C984E694E063E070E040E0F0
:104850000E940B727C0184E694E061E070E0FBC989
:1048600083E598E063E070E00E94CF608850974055
:1048700010F00C94501A83E598E061E070E00E941B
:10488000CF607C0183E598E063E070E00E94CF6038
:1048900000D000D08DB69EB60894811C911CE80E05
:1048A000F91E00E010E0C801B7010E947F8B7B0178
:1048B0008C016091E40870E080E090E00E947F8BC2
:1048C000F4016083718382839383C801B70120E080
:1048D00030EE40E655E40F2EF0E0EF2EF0E0FF2E34
:1048E000F8EC0F2FF4E41F2FF02D0F2EF0E0AF2E79
:1048F000F0E0BF2EF0E0CF2EF0E0DF2EF02D0E9492
:1049000001080F900F900F900F90609356037093D3
:104910005703809358039093590381E08093520387
:104920000C94501A83E598E063E070E00E94CF6039
:104930007C0183E598E061E070E00C94821A83E5E5
:1049400098E00E9446187B018C0100D000D08DB603
:104950009EB60894811C911C6091E40870E080E090
:1049600090E00E947F8BF401608371838283938344
:10497000C801B70120E030E044E353E40F2EF0E03B
:10498000EF2EF0E0FF2EF0E10F2FF3E41F2FF02DBC
:104990000F2EF0E0AF2EF0E0BF2EF0E0CF2EF0E0D3
:1049A000DF2EF02D0E9401080F900F900F900F90B6
:1049B0006093560370935703809358039093590361
:1049C00081E0809352030C94DA1B83E598E061E068
:1049D00070E00E94B96000D000D08DB69EB60894F9
:1049E000811C911C90E0A0E0B0E0BC01CD010E94D0
:1049F0007F8B7B018C016091E40870E080E090E0A7
:104A00000E947F8BF4016083718382839383C8014A
:104A1000B70120E030E048EE52E40F2EF0E0EF2E38
:104A2000F0E0FF2EF8EC0F2FF1E41F2FF02D0F2EEA
:104A3000F0E0AF2EF0E0BF2EF0E0CF2EF0E0DF2E62
:104A4000F02D0E9401080F900F900F900F9060932F
:104A5000560370935703809358039093590381E052
:104A6000809352037CCA81E697E062E070E00E9486
:104A70003B4A20E030E044E353E40E94E28A88238A
:104A800014F00C94881981E697E062E070E00E94CF
:104A90003B4A7B018C0100D000D08DB69EB60894B5
:104AA000811C911C6091E50870E080E090E00E941C
:104AB0007F8BF4016083718382839383C801B70184
:104AC00020E030E044E353E40F2EF0E0EF2EF0E07E
:104AD000FF2EF7E00F2FF3E41F2FF02D0F2EF0E045
:104AE000AF2EF0E0BF2EF0E0CF2EF0E0DF2EF02D65
:104AF0000C94771981E697E061E070E00E943B4AF0
:104B000020E030E044E353E40E94E28A88230CF082
:104B100025CB81E697E061E070E00E943B4A7B0193
:104B20008C0100D000D08DB69EB60894811C911CDB
:104B30006091E40870E080E090E00E947F8BF401D7
:104B40006083718382839383C801B70120E030E0E2
:104B500044E353E40F2EF0E0EF2EF0E0FF2EF0E1FF
:104B60000F2FF3E41F2FF02D0F2EF0E0AF2EF0E00B
:104B7000BF2EF0E0CF2EF0E0DF2EF02D0E940108D6
:104B80000F900F900F900F90609356037093570300
:104B9000809358039093590381E080935203DECAB7
:104BA00084E694E063E070E040E00E940B727C01D8
:104BB00084E694E061E070E074C983E598E063E026
:104BC00070E00E94CF607C0183E598E061E070E0D6
:104BD00033CACF93DF93EC0188818134C1F18D34E6
:104BE00001F1873429F18335D1F58981803509F4C4
:104BF000C8C0893409F4DBC0843409F4F2C08435B8
:104C000009F405C18B3409F418C1813409F45BC17E
:104C1000853509F468C1823409F46FC00E94440EDE
:104C200004C08981833409F4A1C0DF91CF91089534
:104C300089818035F9F0833509F444C0893409F459
:104C400098C08B3491F781E08093D402EECF8981B4
:104C50008B33E1F1833449F70E94A616E6CF8934FD
:104C600069F48981823409F488C08335F1F61092A1
:104C7000CE02DBCF81E08093D202D7CF8235C1F064
:104C8000833499F68981833509F43DC18A34D1F1A1
:104C90008D3409F43BC1873509F405C1823529F605
:104CA0000E94790E81E08093D2028093D4020BC0DF
:104CB0008981823409F491C0833509F0B6CF10920E
:104CC000D102B3CF81E08093CF02AFCF0E9497098A
:104CD00089ED99E00E94D7868334910509F4A5CF28
:104CE0008DE196E00E94B84C8334910509F49DCF84
:104CF0008EEC93E00E94E15EEBCF8A81805380933B
:104D0000E3088CCF0E94A38360938603709387038C
:104D10008093880390938903CE0164E971E00E9437
:104D2000410680E090E064E971E00E9441060E9443
:104D3000210660937D0370937E0380937F0390939D
:104D4000800380E090E066E971E00E9441060E94E5
:104D50002106609381037093820380938303909371
:104D6000840389E090E00E94D0185FCF0E942C1449
:104D70005CCF81E08093D00258CF81E08093CE0257
:104D800054CFCE0164E971E00E94410680E090E0DA
:104D900066E971E00E9441060E9421066093D308F3
:104DA0007093D4088093D5089093D60837CFCE015E
:104DB00064E971E00E94410680E090E066E971E0FC
:104DC0000E9441060E9421066093D7087093D8087C
:104DD0008093D9089093DA0821CF81E08093D102A3
:104DE00024CFCE0164E971E00E94410680E090E0AA
:104DF00066E971E00E9441060E9421066093DB088B
:104E00007093DC088093DD089093DE0807CFCE0115
:104E100064E971E00E94410680E090E066E971E09B
:104E20000E9441060E9421066093DF087093E0080B
:104E30008093E1089093E208F1CECE0164E971E03D
:104E40000E94410680E090E064E971E00E94410622
:104E50000E9421066093E6087093E7088093E808B3
:104E60009093E90880E090E064E971E00E944106D7
:104E70000E9421066093EA087093EB088093EC0887
:104E80009093ED0880E090E066E971E00E944106B1
:104E90000E9421066093EE087093EF088093F0085B
:104EA0009093F108BBCEE0918F08F0919008309775
:104EB00031F081E083AFEC59FF4F86E0808381E0E1
:104EC0008093D302B2CECE0164E971E00E94410624
:104ED00080E090E066E971E00E9441060E942406AD
:104EE0008093E4089BCECE0164E971E00E94410604
:104EF00080E090E066E971E00E9441060E9424068D
:104F00008093E5088BCE83E090E02DCF0E94A383B1
:104F1000609386037093870380938803909389033B
:104F2000CE0164E971E00E94410680E090E064E90E
:104F300071E00E9441060E94210660937D037093F8
:104F40007E0380937F039093800380E090E066E986
:104F500071E00E9441060E942106609381037093D4
:104F60008203809383039093840388E090E0FBCED8
:104F7000CF93DF9389ED99E00E94AD86892B19F4D8
:104F8000DF91CF91089589ED99E00E94D7868D3603
:104F9000F9F080935E0361E070E080E090E00E94B1
:104FA0001B84CFE5D3E005C0219683E0CC37D8073A
:104FB00039F389ED99E00E94D78688838F3F01F30A
:104FC0008B3391F710927C038EE593E002DED8CF0D
:104FD0000E948510D5CF80916307882309F457C0BC
:104FE00080914D03882309F0ADC080914F03882341
:104FF00009F09FC081E697E061E077E20E94F54307
:10500000882309F4CCC08091CF08882309F4C5C057
:1050100060E08091CF08681731F06093CF0881E697
:1050200097E00E94A54580915508882309F048C063
:1050300080915808882309F043C080916704882331
:1050400029F180915003882309F05DC084E694E043
:1050500060E00E941B72882309F494C0813009F437
:10506000BBC0823009F4BBC063E070E08091D1081E
:105070009091D2086817790749F07093D20860932D
:10508000D10884E694E040E00C94C77208958091C2
:105090006507882341F281E697E061E077E20E94AC
:1050A000F543882309F091C08091CF08813009F43D
:1050B000BACF81E08093CF0881E697E061E0B1CF7D
:1050C00080914E03882349F010924E0383E598E0C7
:1050D0000E94D2621092D008B0CF83E598E00E947F
:1050E0003A628C3300F18E3608F051C060E1809155
:1050F000D008681709F4A1CF6093D00883E598E041
:105100000E94AB629ACF1092500384E694E060E074
:1051100040E020E00E9451728FEF90E09093D2081F
:105120008093D10808958091D008882371F160E0C0
:10513000DECF10924F0381E697E00E94D245109295
:10514000CF0871CF10924D0381E697E060E270E0E6
:105150000E94C44581E080934F0380914203909167
:105160004303A0914403B0914503845F9140A04064
:10517000B0408093420390934303A0934403B093C1
:10518000450351CF60E070E071CF60EFB0CF803A5F
:1051900080F0823DD0F760E7AACF6FE03ACF81E69A
:1051A00097E062E077E20E94F543882321F061E016
:1051B00030CF60E39CCF81E697E063E077E20E9426
:1051C000F543882379F063E024CF81E697E060E03F
:1051D00070E00E94684527CF61E070E047CF62E051
:1051E00070E044CF81E697E064E077E20E94F54307
:1051F000882311F067E00DCF81E697E065E077E264
:105200000E94F543882349F681E697E06EEE77E247
:105210000E94F5436091CF08882309F4FACE6F30DD
:1052200031F2660F6E706160F4CE1F938091630758
:10523000882321F080914A03882369F180915508E1
:10524000882321F080914B038823D1F1809167045A
:10525000882321F080914C03882311F01F91089539
:1052600011E010934C030E94A383645F714080405F
:105270009040609342037093430380934403909360
:10528000450384E694E060E04FEF20E00E94517215
:1052900010935003E3CF11E010934A039CDE0E9469
:1052A000A383645F71408040904060934203709399
:1052B0004303809344039093450310934D03BECF63
:1052C00011E010934B0387DE0E94A383645F71405B
:1052D0008040904060934203709343038093440363
:1052E0009093450383E598E00E94BF6210934E03BC
:1052F000ADCFCF93DF9380912B06882319F4DF91F4
:10530000CF9108958DE196E00E94BF4B892BB9F3B0
:10531000CEE5D3E005C0219683E0CC37D80779F3FA
:105320008DE196E00E94B84C88838F3F41F38B3328
:1053300091F781E080937C038EE593E04ADCDFCF38
:105340008EEC93E00E94E15E8EEC93E00E94725539
:10535000803A09F4AFC0CDDF0E94A3832091860379
:105360003091870340918803509189032C503E4F20
:105370004F4F5F4F261737074807590760F51092C0
:10538000850380916307882309F0AAC0809165078F
:10539000882309F029C180915508882329F080913C
:1053A0005808882309F4B5C080915808882329F04B
:1053B00080918503882309F4E7C0809167048823DE
:1053C00029F080918503882309F4C3C08091850367
:1053D000882309F480C080916307882321F4809199
:1053E00065078823A9F181E697E060E170E00E94FB
:1053F0006043882381F580915508882321F48091AA
:105400005808882311F183E598E069E070E00E9474
:105410007260882339F5809167048823A9F510927A
:105420004C030E94A3832091420330914303409197
:10543000440350914503621B730B840B950B695E0B
:10544000734080409040A8F4089510924B03E3CF3E
:1054500010924A03D0CF81E697E00E9480461092D6
:10546000CF08C9CF83E598E00E94E5621092D0088A
:10547000D2CF0E94A383609342037093430380932F
:10548000440390934503A7CD84E694E060E170E087
:1054900040E00E94C671882309F4C3CF84E694E0FB
:1054A00060E00E9450748FEF90E09093D208809358
:1054B000D108B7CF8091E601882309F44CCF89ED5C
:1054C00099E067EA78E00E9405888EEC93E062E15B
:1054D0000E94755540CF83E090E00E94D0187BCFAA
:1054E00081E697E064E070E00E944243882309F47B
:1054F00089C00E94970904C08EEC93E00E94E15E8F
:1055000081E697E065E070E00E9442438823A1F3C2
:1055100042CF80918503882309F046CF83E598E048
:105520006CE070E00E943F60882371F4809156081F
:10553000882309F442CF83E598E060E070E00E94A0
:10554000B9608A3808F4E4C081E090E00E94D01885
:1055500034CF84E694E064E070E040E00E9478712B
:10556000882309F479C00E94970904C08EEC93E067
:105570000E94E15E84E694E065E070E040E00E9415
:105580007871882399F322CF83E598E068E070E092
:105590000E943F60882309F06EC083E598E061E0D7
:1055A00070E00E94CF608959984070F683E598E0DA
:1055B00061E070E00E94CF608850974028F283E558
:1055C00098E063E070E00E94CF608959984008F04D
:1055D000BBCF83E598E063E070E00E94CF60885025
:1055E000974008F0EACEB0CF81E697E060E070E047
:1055F0000E949843893C08F44EC080E090E00E94ED
:10560000D018C9CE81E697E061E070E00E9498432F
:10561000853798F381E697E063E070E00E94984355
:10562000853758F381E697E061E070E00E94984387
:105630008A3818F781E697E063E070E00E949843AB
:105640008A38D8F681E697E06EE070E00E94424327
:10565000882309F4A0CED1CF84E694E061E070E025
:1056600040E00E940B72845B924E8CF582E090E0E9
:105670000E94D018ABCE0E94970904C08EEC93E034
:105680000E94E15E83E598E065E070E00E943F6083
:105690008823A1F392CE81E697E060E070E00E945B
:1056A0009843873308F4A9CF81E697E061E070E082
:1056B0000E9498438A3808F0A0CF81E697E061E025
:1056C00070E00E949843853708F065CE96CF84E657
:1056D00094E063E070E040E00E940B72845B924EC5
:1056E0002CF284E694E061E070E040E00E940B72EE
:1056F0008D549D410CF0BACF84E694E063E070E0F5
:1057000040E00E940B728D549D410CF45FCEAECFF1
:1057100083E598E060E070E00E94B960853708F4A6
:1057200013CF83E598E061E070E00E94B9608A38A9
:1057300008F00ACF83E598E061E070E00E94B9606C
:10574000853708F03ACE00CF2F923F924F925F926A
:105750006F927F928F929F92AF92BF92CF92DF9281
:10576000EF92FF920F931F93DF93CF93CDB7DEB7E6
:10577000A4970FB6F894DEBF0FBECDBF8091550839
:10578000882309F00DC48DE362EF72E048E00E94C7
:10579000A6158823C1F73091F20220E06091F30250
:1057A00070E0622B732B7093E9026093E8023091F2
:1057B000F40220E0E090F502FF24E22AF32AF092BE
:1057C000EB02E092EA023091F80220E04091F90207
:1057D00050E0242B352B3093ED022093EC028827E8
:1057E00077FD8095982F0E94818B2091F20830914F
:1057F000F3084091F4085091F5080E941B8A5B0160
:105800006C010027F7FC0095102FC801B7010E941A
:10581000818B2091F6083091F7084091F80850915B
:10582000F9080E941B8A9B01AC01C601B5010E94C8
:105830008F8A2BED3FE049E450E40E941C8A21EE60
:105840003EE245E652E40E94618C6093FA02709356
:10585000FB028093FC029093FD020E94B183698752
:105860007A878B879C87E090FA02F090FB02009188
:10587000FC021091FD02ED86FE860F87188BC80191
:10588000B70120E030E044EB52E40E94E28A882332
:105890000CF003C160910603709107038091080327
:1058A0009091090320E030E047E853E40E94568CD1
:1058B00018160CF0F2C00D851E852F8538890093CF
:1058C000A2031093A3032093A4033093A503009392
:1058D00006031093070320930803309309030093F2
:1058E0000203109303032093040330930503898577
:1058F0009A85AB85BC8580932E0390932F03A0934C
:105900003003B093310380915508882309F016C302
:105910000E94B18369837A838B839C838091E601A3
:10592000E0900603F090070300910803109109032B
:10593000882309F0E4C2A090DF08B090E008C0908E
:10594000E108D090E208C601B50120E030E044E370
:1059500052E40E941B8A9B01AC01C801B7010E945E
:10596000E28A87FDC6C2C601B50120E030E044E30B
:1059700052E40E941C8A9B01AC01C801B7010E943D
:10598000568C18160CF4B5C21092E6016090DF0830
:105990007090E0088090E1089090E2082090560313
:1059A000309057034090580350905903E0905A03A9
:1059B000F0905B0300915C0310915D0380913203D2
:1059C00090913303A0913403B091350329813A813A
:1059D0004B815C81281B390B4A0B5B0BCA01B90157
:1059E0000E947F8B20E034E244E759E40E94E68A7B
:1059F0005B016C01C401B301A20191010E94CB09BA
:105A000089819A81AB81BC81809332039093330367
:105A1000A0933403B09335030E94B1839B01AC0182
:105A20008091360390913703A0913803B0913903E8
:105A300079018A01E81AF90A0A0B1B0BD801C70180
:105A4000805A9648A140B04008F0AFC279DC90DAA5
:105A50000E940E1180918605882309F074C28091FE
:105A6000E302882309F020C3A4960FB6F894DEBFA2
:105A70000FBECDBFCF91DF911F910F91FF90EF909F
:105A8000DF90CF90BF90AF909F908F907F906F905E
:105A90005F904F903F902F9008956D857E858F8504
:105AA000988920E030E047E853E40E94568C1816AD
:105AB0008CF4609106037091070380910803909124
:105AC000090320E030E044EB52E40E94E28A88239C
:105AD0000CF4F1CE6091EC027091ED02882777FD15
