:10000000F4C500000C9428820C9459820C948A82C6
:1000100017C6000015C6000013C6000011C6000078
:100020000FC600000DC600000BC6000009C6000088
:1000300007C6000005C6000003C6000001C6000098
:10004000FFC50000FDC500000C94BB82F9C500008F
:100050000C9471840C94E884F3C50000F1C5000091
:10006000EFC50000EDC500000C948680E9C50000D6
:100070000C94AD840C941C85E3C50000E1C5000020
:10008000DFC50000DDC50000DBC50000084AD73B26
:100090003BCE016E84BCBFFDC12F3D6C74319ABD57
:1000A00056833DDA3D00C77F11BED9E4BB4C3E917B
:1000B0006BAAAABE000000803F4779726F2063617F
:1000C0006C6962726174696F6E206572726F720022
:1000D0002C00522C002C002C00562C002C002C0044
:1000E0004B2C002C41546D6567613132383450001F
:1000F0002C00492C002C002C00532C002C002C0030
:100100002C00502C005743002C002C002C0056656E
:100110006C6F6369747920284C292C2056656C6FAC
:1001200063697479202852292C20537065656420F6
:1001300076616C756520284C292C205370656564A8
:100140002076616C7565202852290043616C6962D4
:10015000726174696F6E206F6620746865206D6FC0
:10016000746F727320697320646F6E6500546865E4
:1001700020646966666572656E6365206973206ECA
:100180006F773A20004E6F7720746865206D6F742A
:100190006F72732077696C6C207370696E20757054
:1001A00020616761696E2E204E6F7720746865202C
:1001B00073706565642076616C7565732073686F14
:1001C000756C6420626520616C6D6F73742065715D
:1001D00075616C2E2053656E6420616E79206368B2
:1001E0006172616374657220746F20657869740D43
:1001F0000A002C00546865206D6F746F7220736361
:10020000616C61727320617265206E6F7720284C7B
:100210002F52293A20002C000D0A54686520737073
:100220006565642076616C75657320617265202850
:100230004C2F52293A2000457374696D6174696EC0
:1002400067206D696E696D756D2073746172746974
:100250006E672076616C75652E205768656E207418
:1002600068652066697273742074776F2076616C9C
:1002700075657320646F206E6F74206368616E67AC
:100280006520616E796D6F72652C207468656E20D3
:1002900073656E6420616E79206368617261637456
:1002A000657220746F20636F6E74696E75650D0AD8
:1002B000005075742074686520726F626F742073CB
:1002C0006F2074686520776865656C732063616E64
:1002D000206D6F766520667265656C7920616E644D
:1002E000207468656E2073656E6420616E7920638A
:1002F000686172616374657220746F2073746172D7
:100300007420746865206D6F746F722063616C690E
:1003100062726174696F6E20726F7574696E6500C8
:1003200043616C6962726174696F6E206F662074DC
:10033000686520616363656C65726F6D6574657275
:1003400020697320646F6E65002C004E6577207AFB
:1003500065726F2076616C75657320286727732935
:100360003A2000416363656C65726F6D65746572F8
:100370002063616C6962726174696F6E206572726C
:100380006F7200506C6561736520707574207468BD
:100390006520726F626F7420706572666563746C3D
:1003A0007920686F72697A6F6E74616C206F6E204D
:1003B000697473207369646520616E642074686574
:1003C0006E2073656E6420616E792063686172616E
:1003D0006374657220746F20737461727420746822
:1003E000652063616C6962726174696F6E20726FFF
:1003F0007574696E65000D0A3D3D3D3D3D3D3D3DD9
:100400003D3D3D3D3D3D3D3D3D3D3D3D3D3D3D3D1C
:100410003D3D3D3D3D3D3D3D3D3D3D3D3D3D3D3D0C
:100420003D3D3D3D3D3D3D3D3D3D3D3D3D3D3D3DFC
:100430003D3D3D3D3D3D3D3D3D3D3D3D3D3D3D3DEC
:100440003D3D3D3D3D3D3D3D3D3D3D3D3D3D3D3DDC
:100450003D3D0D0A0043523B090909095265737479
:100460006F72652064656661756C742045455052F5
:100470004F4D2076616C7565730043573B09090940
:1004800009537461727420706172696E67207365BC
:100490007175656E63652077697468205769696D49
:1004A0006F746500434D2C70697463682C726F6CB7
:1004B0006C3B090909537465657220726F626F7431
:1004C000207573696E6720706974636820616E645B
:1004D00020726F6C6C00434A2C782C793B09090917
:1004E00009537465657220726F626F742075736949
:1004F0006E6720782C792D636F6F7264696E6174FA
:1005000065730043533B0909090953656E64207301
:10051000746F7020636F6D6D616E640052533B09A0
:1005200009090953746F702073656E64696E6720E2
:100530007265706F72742076616C7565730D0A0058
:1005400052423B0909090953746172742073656E44
:1005500064696E67207265706F72742076616C7565
:1005600065730049533B0909090953746F7020737F
:10057000656E64696E6720494D552076616C7565BE
:10058000730049423B09090909537461727420736D
:10059000656E64696E6720494D552076616C75659E
:1005A000730053422C76616C75653B0909095573DC
:1005B000656420746F2073657420746865206261BF
:1005C000636B20746F2073706F742076616C756537
:1005D000202874727565203D20312C2066616C7373
:1005E00065203D2030290D0A0053552C76616C752D
:1005F000653B0909095573656420746F2073657440
:1006000020746865206D6178696D756D20747572F0
:100610006E696E672076616C75650053412C616E62
:10062000676C653B0909095573656420746F207315
:10063000657420746865206D6178696D756D2063DF
:100640006F6E74726F6C6C696E6720616E676C653B
:1006500000534B2C51616E676C652C51626961735C
:100660002C526D6561737572653B09557365642025
:10067000746F2073657420746865204B616C6D61C4
:100680006E2066696C7465722076616C75657300A6
:1006900053542C746172676574416E676C653B09D5
:1006A00009095573656420746F207365742074683C
:1006B000652074617267657420616E676C650053B4
:1006C000442C4B643B090909095573656420746F18
:1006D0002073657420746865204B642076616C75A6
:1006E000650053492C4B693B090909095573656439
:1006F00020746F2073657420746865204B692076C0
:10070000616C75650053502C4B703B090909095504
:1007100073656420746F2073657420746865204B62
:10072000702076616C75650047493B0909090947E6
:10073000657420696E666F2076616C7565730D0A4D
:100740000047533B090909094765742073657474B0
:10075000696E67732076616C75657300474B3B0962
:10076000090909476574204B616C6D616E206669EB
:100770006C7465722076616C7565730047503B0937
:10078000090909476574205049442076616C7565F4
:1007900073004D433B0909090953656E6420746F6A
:1007A0002063616C69627261746520746865206D94
:1007B0006F746F72730D0A0041433B0909090953B5
:1007C000656E6420746F2063616C69627261746528
:1007D0002074686520616363656C65726F6D657414
:1007E000657200413B0909090953656E6420746F05
:1007F0002061626F72742E2053656E642027432738
:1008000020616761696E20746F20636F6E74696E1A
:1008100075650D0A000D0A3D3D3D3D3D3D3D3D3DAB
:100820003D3D3D3D3D3D3D3D3D3D3D3D3D3D3D3DF8
:100830003D3D3D3D3D3D3D3D3D3D3D3D3D3D3D3DE8
:100840003D204D656E75203D3D3D3D3D3D3D3D3D71
:100850003D3D3D3D3D3D3D3D3D3D3D3D3D3D3D3DC8
:100860003D3D3D3D3D3D3D3D3D3D3D3D3D3D3D3DB8
:100870003D0D0A00693263526561642074696D65DB
:100880006F75740069326352656164206661696CDA
:1008900065643A2000693263577269746520666145
:1008A000696C65643A2000555342206661696C00AA
:1008B0004572726F722072656164696E672073653C
:1008C0006E736F72004F534320646964206E6F74BF
:1008D0002073746172740001020408090A0C0D0E81
:1008E0000F00000000000000000000FF2710003291
:1008F000FF27100032FF27100032FF2710003200C0
:1009000000000000000000000000000000000000E7
:10091000001718191A000000001B1C1D1E1F2021A3
:100920002200000F10000000200000004000000026
:10093000800000000100000008000000020000002C
:10094000040000000001000000020000000400009C
:10095000000800000010000000200000004000001F
:1009600000800000000001000000080000001000EE
:100970000091E3720796E4750E9FED7C0998EA7B7F
:100980001C8DFF6E1B8AF8691283F1601584F6676F
:1009900038A9DB4A3FAEDC4D36A7D54431A0D2435F
:1009A00024B5C75623B2C0512ABBC9582DBCCE5F4F
:1009B00070E1930277E694057EEF9D0C79E89A0B3F
:1009C0006CFD8F1E6BFA881962F3811065F486172F
:1009D00048D9AB3A4FDEAC3D46D7A53441D0A2331F
:1009E00054C5B72653C2B0215ACBB9285DCCBE2F0F
:1009F000E0710392E7760495EE7F0D9CE9780A9BFF
:100A0000FC6D1F8EFB6A1889F2631180F5641687EE
:100A1000D8493BAADF4E3CADD64735A4D14032A3DE
:100A2000C45527B6C35220B1CA5B29B8CD5C2EBFCE
:100A3000900173E2970674E59E0F7DEC99087AEBBE
:100A40008C1D6FFE8B1A68F9821361F0851466F7AE
:100A5000A8394BDAAF3E4CDDA63745D4A13042D39E
:100A6000B42557C6B32250C1BA2B59C8BD2C5ECF8E
:100A700000010000800000004000000000020000B3
:100A8000000000000400000000000200000001005F
:100A9000100000000800000000000000000000003E
:100AA00000400000001000000008000000200000CE
:100AB0002000000002000000008000000004000090
:100AC0000800000002000000040000000100000017
:100AD0000000000010000000000100000002000003
:100AE0000010000000800000000001000000020073
:100AF00000040000000800001020408090A0C0D03A
:100B0000E0F00203040501000100080002000400F7
:100B100020001000400080000000000100020020C2
:100B200000100040008000040008000000210024A4
:100B30000027002A0000002200250028002B0000CA
:100B400000200023002600290004040204040202FD
:100B5000010101010101030304040404030303036D
:100B60000303020202020201010102044080081094
:100B700001020408102002010408102004081020BB
:100B800040800102204080408000000007060102F2
:100B9000000000000000000000000403000000004E
:100BA000000000000000000000494E46494E495434
:100BB000594E414ECDCCCC3D0AD7233C17B7D13846
:100BC00077CC2B329595E6241FB14F0A00002041C7
:100BD0000000C84200401C4620BCBE4CCA1B0E5A36
:100BE000AEC59D74C40F2B7FA28611241FBECFEF0C
:100BF000D0E4DEBFCDBF12E0A0E0B1E0E4E9F9E16E
:100C000001E00BBF02C007900D92AC3CB107D9F7D1
:100C10001BBE1BE0ACECB2E001C01D92AC31B107D1
:100C2000E1F71BE0CAEEDBE004C02297FE010E9460
:100C3000828CC43ED107C9F70E946D890C94C88C80
:100C4000DFC96627772768C0FC0188279927E894C1
:100C500021912032E9F3293010F02E30C8F32B32E5
:100C600039F02D3231F4689403C04ED0820F911DBB
:100C7000219120532A30C8F31EF4909581959F4FFF
:100C800008954CEC52E00EC0FB01DC014150504095
:100C900030F08D910190801919F40020B9F7881B6C
:100CA000990B0895009731F4DA018D919C9100978A
:100CB00009F40EC0DC01FB013D912191222319F0C2
:100CC0003217C9F3FACF332331F4DA011D921C92A3
:100CD0008827992708951197AF93BF93FB013D9102
:100CE0002191321771F4332321F488279927119722
:100CF00002C01E921196FA01A193B0839F918F9129
:100D00000895222369F7EACF7AE0979F902D879F75
:100D1000802D910D11240895A0E0B0E0E2E9F6E005
:100D20000C94978CEC015B016115710519F0FB01C6
:100D300091838083F9908F2D90E00E94868C892B7F
:100D4000C9F7FDE2FF1621F4F990EE24E39405C003
:100D50002BE2F21609F4F990EE248E0101501040B6
:100D6000C80169EA7BE043E050E033D1892BF9F414
:100D70008E010E5F1F4FC8016CEA7BE045E050E03A
:100D800028D1892B19F48E01095F1F4FA114B104DA
:100D900019F0F50111830083E0FC04C070E090E0DD
:100DA00080E813C070E090E080E86FEF07C1C801F1
:100DB00061EB7BE043E050E00CD1892B69F4A11496
:100DC000B10429F470E090E080EC6FE7F7C0229660
:100DD000F501D183C083F6CF8824992440E050E008
:100DE00060E070E0EF2DE053EA30A0F5F2E0EF2A8A
:100DF0008E2D90E09C0128703070E2FE06C0232BFF
:100E000079F50894811C911C2BC0232B19F00894B0
:100E100081089108DB01CA0112E0880F991FAA1FFF
:100E2000BB1F1A95D1F7480F591F6A1F7B1F440F2C
:100E3000551F661F771F4E0F511D611D711D4839CB
:100E400029E9520729E9620729E1720748F084E09D
:100E5000E82A06C0EE3F31F4E3FC39C098E0E92A05
:100E6000F990C0CFE53311F0E53189F529912D32A4
:100E700019F4E0E1EE2A05C02B3219F081E090E090
:100E800003C0299182E090E0E22FE053EA3018F0AD
:100E9000C81BD90B1CC020E030E0FCE020383F0725
:100EA0005CF4C901880F991F880F991F280F391FFB
:100EB000220F331F2E0F311DE991E053EA3068F302
:100EC000E4FE03C0309521953F4F820E931ECE2C39
:100ED000DD24E1FE07C0A114B10421F02197F50142
:100EE000D183C083CB01BA010E94DF8A7B018C01D0
:100EF000F3E0CF22DD2423E0C216D10421F417FB56
:100F0000109517F9109557016801C801B70120E045
:100F100030E040E050E00E94428A882309F44AC051
:100F200097FE0DC028ECE22E2BE0F22E90948194D7
:100F300091089394C0E2D0E000E010E012C090EE7F
:100F4000E92E9BE0F92EF6CFF701259135914591D9
:100F50005491C601B5010E94C18B5B016C018C1AD2
:100F60009D0A8C169D0684F7D595C7950F5F1F4F78
:100F70000630110529F08CEF9FEFE80EF91EF1CF36
:100F8000C501D6017C018D018C2D880F8D2D881F08
:100F90008F3F51F0C601B50120E030E040E050E065
:100FA0000E94428A882331F482E290E090931B0BE6
:100FB00080931A0B7E2D9F2D802F612F272F392F85
:100FC000482F562FB901CA01CDB7DEB7ECE00C941B
:100FD000B38CFB01DC014150504088F08D9181348D
:100FE0001CF08B350CF4805E659161341CF06B3520
:100FF0000CF4605E861B611171F3990B0895881BD8
:10100000FCCF2F923F924F925F926F927F928F927E
:101010009F92AF92BF92CF92DF92EF92FF920F9387
:101020001F93DF93CF9300D000D0CDB7DEB71B0165
:101030002C0139014A01A982BA82CB82DC82CA0121
:10104000B901A80197010E94428A88230CF057C079
:10105000C201B101A40193010E947B895B016C0173
:10106000C801B701A40193010E947B897B018C0117
:10107000698D7A8D8B8D9C8D29813A814B815C8124
:101080000E947B899B01AC01C801B7010E94468A7E
:101090009B01AC01C601B5010E94468A7B018C010F
:1010A000298D3A8D4B8D5C8D0E94B68B1816A4F15C
:1010B000C801B70129813A814B815C810E94428A33
:1010C000882324F4E980FA800B811C81B701C801D0
:1010D0000F900F900F900F90CF91DF911F910F9174
:1010E000FF90EF90DF90CF90BF90AF909F908F9048
:1010F0007F906F905F904F903F902F900895C40124
:10110000B301A20191010E947B895B016C01C401C2
:10111000B301A8019701A8CFE98CFA8C0B8D1C8D27
:10112000D5CF853041F0843009F0089570938B005D
:1011300060938A00089570938900609388000895F1
:101140008630910551F0079709F0089584E06AEF21
:1011500070E0E7DF289A299A089585E06AEF70E049
:10116000E0DF469A479A0895CF92DF92EF92FF927E
:101170000F931F93CF93DF936C01EB0179018A01E9
:10118000CA01B90120E030E048EC52E40E94B68B7D
:10119000181654F40F2EF0E0EF2EF0E0FF2EF8ECCE
:1011A0000F2FF2E41F2FF02DC801B70120E030E02F
:1011B0004AE753E40E94C18B20E030E048EC52E45F
:1011C0000E94468A0E94B38A9B01AC0186E0C81641
:1011D000D10469F087E0C816D104A1F0DF91CF9166
:1011E0001F910F91FF90EF90DF90CF90089585E0D1
:1011F000B90197DFC430D10581F0259779F7469A78
:101200004798ECCF84E0B9018CDFC430D10541F0C0
:10121000259721F72898299AE1CF4698479ADECF5B
:10122000289A2998DBCF99B180B1969596958295A9
:10123000869586958370982790FF14C08091D6027A
:101240009091D702A091D802B091D9020196A11D28
:10125000B11D8093D6029093D702A093D802B09389
:10126000D90208958091D6029091D702A091D80218
:10127000B091D9020197A109B109EBCF89B190B121
:1012800086958695869580958170991F9927991FD7
:101290008917A1F08091DA029091DB02A091DC0223
:1012A000B091DD020196A11DB11D8093DA029093E9
:1012B000DB02A093DC02B093DD0208958091DA0294
:1012C0009091DB02A091DC02B091DD020197A109AF
:1012D000B109EBCF2091D6023091D7024091D802CC
:1012E0005091D902B901CA0108952091DA023091D2
:1012F000DB024091DC025091DD02B901CA01089580
:101300008091D6029091D702A091D802B091D902D3
:101310002091DA023091DB024091DC025091DD0233
:10132000280F391F4A1F5B1FB901CA01089586E0C3
:1013300090E006DF87E090E003DF80E090E0A0E04F
:10134000B0E080930A0390930B03A0930C03B09337
:101350000D0380930E0390930F03A0931003B0939B
:101360001103CEDF609392037093930380939403F1
:10137000909395038091DC089091DD08A091DE08A0
:10138000B091DF088093E4029093E502A093E60217
:10139000B093E70208952F923F924F925F926F921F
:1013A0007F928F929F92AF92BF92CF92DF92EF92F5
:1013B000FF920F931F93DF93CF93CDB7DEB728979C
:1013C0000FB6F894DEBF0FBECDBF1B012C01390153
:1013D0004A01E982FA820B831C83AD82BE82CF82EE
:1013E000D88680915103882309F420C260918E032E
:1013F00070918F03809190039091910397FD9CC20F
:10140000C201B101A40193010E947B897B018C017F
:10141000A090E402B090E502C090E602D090E7020E
:10142000C801B701A60195010E947B893B014C01CF
:1014300020E030E040E85FE30E94B68B18160CF025
:1014400046C2C601B50120E030E040E85FE30E94FB
:101450007C897B018C01E092E402F092E50200932A
:10146000E6021093E702C801B7012091060330910C
:10147000070340910803509109030E947B893B01B7
:101480004C016093120370931303809314039093A1
:1014900015032091D0083091D1084091D208509185
:1014A000D3080E94C18B1B012C016093160370931B
:1014B00017038093180390931903C401B3012D817E
:1014C0003E814F8158850E94C18B20910E0330913F
:1014D0000F0340911003509111030E947C897B01FE
:1014E0008C0120E030E040E85FEB0E94428A8823D4
:1014F0000CF401C2C801B70120E030E040E85FE32E
:101500000E94B68B181654F40F2EF0E0EF2EF0E088
:10151000FF2EF0E80F2FFFE31F2FF02DE0920E03B8
:10152000F0920F0300931003109311036091D408FD
:101530007091D5088091D6089091D70820E030E0CE
:1015400048EC52E40E94C18BA80197010E94C18B14
:101550005B016C0160931A0370931B0380931C035F
:1015600090931D036091D8087091D9088091DA0892
:101570009091DB0820E030E048EC52E40E94468A7B
:101580007B018C01C401B30120910A0330910B034C
:1015900040910C0350910D030E947B899B01AC018B
:1015A000C801B7010E94C18B2D813E814F815885B2
:1015B0000E94468A7B018C0160931E0370931F0377
:1015C000809320039093210360920A0370920B038F
:1015D00080920C0390920D03C201B101A601950106
:1015E0000E947C89A80197010E947C895B016C01A3
:1015F0006093220370932303809324039093250325
:1016000080915303882309F4C7C060918E037091C1
:101610008F0380919003909191030E94E18A3B0196
:101620004C0120E030E04CE852E40E94468A7B0105
:101630008C0120E030E040E050E00E94B68B1816AC
:101640000CF064C169817A818B819C81A80197012A
:101650000E947B897B018C0120E030E040E050E07B
:101660000E94428A88230CF45CC1C601B501A8011E
:1016700097010E947B8960932603709327038093D0
:10168000280390932903C601B501A80197010E9480
:101690007C8960932A0370932B0380932C0390938F
:1016A0002D03609126037091270380912803909168
:1016B00029032091F7083091F8084091F9085091DA
:1016C000FA080E94C18B7B018C0160932603709302
:1016D0002703809328039093290360912A03709134
:1016E0002B0380912C0390912D032091FB083091C6
:1016F000FC084091FD085091FE080E94C18B609348
:101700002A0370932B0380932C0390932D03C8011D
:10171000B70120E030E040E050E00E94B68B882323
:101720000CF4CDC086E090E064E070E0A801970181
:101730001BDDE0902A03F0902B0300912C03109105
:101740002D03C801B70120E030E040E050E00E94E6
:10175000B68B88230CF4ABC087E090E064E070E0C7
:10176000A801970101DD28960FB6F894DEBF0FBEE1
:10177000CDBFCF91DF911F910F91FF90EF90DF9040
:10178000CF90BF90AF909F908F907F906F905F9021
:101790004F903F902F90089580915403882309F42F
:1017A00075C060918E0370918F038091900390912A
:1017B00091030E94E18A3B014C0120E030E04CE8BB
:1017C00052E40E94468A7B018C0120E030E040E038
:1017D00050E00E94B68B18160CF03EC169817A81E8
:1017E0008B819C81A80197010E947B897B018C01E0
:1017F00020E030E040E050E00E94428A88230CF470
:1018000020C1C601B501A80197010E947C8960939F
:101810002603709327038093280390932903C6011E
:10182000B501A80197010E947B8933CF80915203B3
:10183000882321F160918E0370918F038091900332
:1018400090919103161617061806190684F40E9443
:10185000E18A20E030E04CE852EC0E94468A9B018D
:10186000AC01C401B3010E947C893B014C01C2015F
:10187000B101A40193010E947C89C8CD8091E5014A
:10188000882309F06AC082017101C2CDA0922603AB
:10189000B0922703C0922803D0922903A0922A0372
:1018A000B0922B03C0922C03D0922D03FACEA80144
:1018B0009701505887E090E065E070E053CFA801B1
:1018C0009701505886E090E065E070E031CFC401A8
:1018D000B30120E030E040E85FEB0E94428A8823B9
:1018E0000CF0B9CDC601B50120E030E040E85FE37F
:1018F0000E947B89AECD0F2EF0E0EF2EF0E0FF2EA0
:10190000F0E80F2FFFEB1F2FF02D08CEC401B3011D
:1019100020E030E04CE852EC0E94468A7B018C01CA
:1019200091CE0F2EF0E0EF2EF0E0FF2EF0E00F2F23
:10193000F0E01F2FF02D99CE0E94E18A20E030E0E8
:101940004CE852E40E94468A9B01AC01C401B301F9
:101950000E947C893B014C0153CDD2DC7B018C0180
:101960008091920390919303A0919403B091950379
:10197000A8019701281B390B4A0B5B0B8091E008EB
:10198000882309F074C0DA01C90189519C4FAF4F17
:10199000BF4F8F5C9740A040B04008F487C0E092F2
:1019A0009203F092930300939403109395038201A2
:1019B000710160918E0370918F03809190039091DB
:1019C00091030E94E18A20E030E040E752EC0E945F
:1019D000468A9B01AC01C801B7010E947C897B014A
:1019E0008C016090DC087090DD088090DE0890909B
:1019F000DF08C401B30120E030E040E251E40E947E
:101A00007B895B016C01C801B701A60195010E94A9
:101A1000428A88239CF0C401B30120E030E040E218
:101A200051E40E947C895B016C01C801B701A601E9
:101A300095010E94B68B18160CF0EACC8601750150
:101A4000E7CC0F2EF0E0EF2EF0E0FF2EF0E00F2FAE
:101A5000F0E01F2FF02DD5CEC401B30120E030E01F
:101A60004CE852EC0E94468A7B018C01B7CEDA0129
:101A7000C90157FD43C081346FE1960760E0A607B6
:101A800060E0B607E4F0CA01B9010E94E18A20E0F3
:101A900030E046E154EC0E94468A9B01AC01C20151
:101AA000B1010E947C897B018C0183CFCA01B901FD
:101AB0000E94E18A20E030E04AEF53ECECCF813A1B
:101AC000EFE09E07E0E0AE07E0E0BE074CF0CA01A1
:101AD000B9010E94E18A20E030E048E454ECDBCF19
:101AE000895E9340A040B0400CF3CA01B9010E9446
:101AF000E18A20E030E04AE754ECCDCF88279927EF
:101B0000DC01821B930BA40BB50BB5CFFC01A081AC
:101B1000B1819D0171E0761778F4828193818A17F3
:101B20009B0734F4DC01C9017F5F32969C01F3CF3F
:101B300028173907CCF3F7CF80E02A1B3B0B24177B
:101B400035070CF481E00895FB01F999FECFF9996E
:101B5000FECF90E092BD81BDF89A80B5808381E090
:101B60000895282FFB01F999FECFF999FECF822F16
:101B700090E092BD81BDF89A80B56081861769F0CA
:101B8000F999FECF1FBA822F90E092BD81BD60BD52
:101B90000FB6F894FA9AF99A0FBE81E00895482F8B
:101BA000F999FECFFB019B01225D3F4F542F5F5FF0
:101BB000F999FECF842F90E092BD81BDF89A80B54F
:101BC0008083E217F30719F03196452FEFCF8FE2AC
:101BD000089581E060ED78E0E2DF8091E308909184
:101BE000E408A091E508B091E608809396039093ED
:101BF0009703A0939803B09399038091E70890917D
:101C0000E808A091E908B091EA0880939A039093BC
:101C10009B03A0939C03B0939D038091EB0890914C
:101C2000EC08A091ED08B091EE0880939E0390938C
:101C30009F03A093A003B093A1030895482FF9999F
:101C4000FECFFB01625D7F4FF999FECF842F90E0BC
:101C500092BD81BDF89A80B52081821769F0F9990B
:101C6000FECF1FBA842F90E092BD81BD20BD0FB67C
:101C7000F894FA9AF99A0FBEE617F70719F04F5F32
:101C80003196E2CF8FE2089581E060ED78E0D6DF13
:101C90008091E3089091E408A091E508B091E608EE
:101CA0008093960390939703A0939803B09399031E
:101CB0008091E7089091E808A091E908B091EA08BE
:101CC00080939A0390939B03A0939C03B0939D03EE
:101CD0008091EB089091EC08A091ED08B091EE088E
:101CE00080939E0390939F03A093A003B093A103BE
:101CF000089580E090E0A0E2B1E48093D008909352
:101D0000D108A093D208B093D30880E090E0A0E07F
:101D1000B0E48093D4089093D508A093D608B093EC
:101D2000D70880E090E0A0E4B0E48093D8089093D6
:101D3000D908A093DA08B093DB0880E090E0A4E330
:101D4000B3E48093DC089093DD08A093DE08B093A1
:101D5000DF0881E08093E00888E08093E10889E172
:101D60008093E2088FE692E1A3E8BAE38093E30868
:101D70009093E408A093E508B093E60886EA9BE90F
:101D8000A4E4BBE38093E7089093E808A093E908F4
:101D9000B093EA088FE892ECA5EFBCE38093EB08E0
:101DA0009093EC08A093ED08B093EE0880E090E0EB
:101DB000A0E0B0E08093F3089093F408A093F508B6
:101DC000B093F6088093EF089093F008A093F10881
:101DD000B093F20880E090E0A0E8BFE38093FB08B6
:101DE0009093FC08A093FD08B093FE088093F70839
:101DF0009093F808A093F908B093FA0845CFDF93C1
:101E0000CF930F92CDB7DEB780E0BE016F5F7F4FFB
:101E10009BDE8981813051F06CDF80E068EE71E0FB
:101E2000A0DE81E00F90CF91DF91089580E0FACF9E
:101E3000439862606EBD0DB407FEFDCF4EBD0DB47C
:101E400007FEFDCF439A089543986EBD0DB407FE7B
:101E5000FDCF1EBC0DB407FEFDCF439A8EB508958D
:101E6000CF92DF92EF92FF920F931F93CF93DF9366
:101E70008C0168E740E2DCDFC80168E740E0D8DFBA
:101E8000C0E0D0E081E0C82ED12C7601EC1AFD0A2A
:101E9000219729F0C80168E6D7DF80FFF6CFC70198
:101EA000DF91CF911F910F91FF90EF90DF90CF9036
:101EB0000895CF93DF93EC0168EFC6DF807C803418
:101EC000B1F0813438F08038E9F0803C61F0DF9186
:101ED000CF9108958823D9F7CE0168ED41EDA8DFB1
:101EE0001092FF08F4CF81E08093FF08F0CFCE017D
:101EF00068EDAADF81FD0BC0CE0168ED4BEC98DFE9
:101F000083E0F2CFCE0168ED9FDF81FDF5CFCE01FA
:101F100068ED49EC8DDF82E0E7CFCF93DF93EC01F2
:101F20003B9A439A279A259A2698249A80E58CBD55
:101F300081E08DBD3A98CE0168E848E179DFCE01B5
:101F40008FDF892B21F48FEFDF91CF910895CE01A0
:101F500068ED41EC6DDFCE0160ED40E669DFCE015A
:101F600068EE44E065DFCE0168EE6EDF82FFFBCFF6
:101F7000CE019FDFCE0168EC40E25ADFCE0160E87F
:101F800041E056DF80E0E0CF4F925F926F927F9208
:101F90008F929F92AF92BF92CF92DF92EF92FF9279
:101FA0000F931F938FE692E1A3E8BAE38093960321
:101FB00090939703A0939803B093990386EA9BE9C3
:101FC000A4E4BBE380939A0390939B03A0939C03A8
:101FD000B0939D038FE892ECA5EFBCE380939E0342
:101FE00090939F03A093A003B093A10380E090E09F
:101FF000A0E0B0E08093A2039093A303A093A40376
:10200000B093A5038093A6039093A703A093A8037E
:10201000B093A9038093AE039093AF03A093B00352
:10202000B093B1038093B2039093B303A093B4032E
:10203000B093B5038093B6039093B703A093B8030E
:10204000B093B9038093BA039093BB03A093BC03EE
:10205000B093BD031EEC812E13E0912EC4010E94AB
:102060006655B0E14B2EB1E05B2E85E494E0B401FF
:1020700040E051E092010BE111E0A6E3EA2EA1E07D
:10208000FA2EFCE3CF2EF1E0DF2EE8E8AE2EE1E001
:10209000BE2E0E94D87584E694E0B4010E94577069
:1020A00083E195E0B4010E94837A94E2692E95E081
:1020B000792EC301B4010E9491328AE196E0B30106
:1020C000A2012DE831E00E949C4A8EE597E0B30121
:1020D00040E020E000E0EE24CC24AA240E94A543A6
:1020E00080E598E0B30140E00E945F5F1F910F918F
:1020F000FF90EF90DF90CF90BF90AF909F908F9028
:102100007F906F905F904F9008950F931F9306ED0F
:1021100019E0C80165E178E00E946587C80163EEB7
:1021200077E00E946587C80168EB77E00E946587C9
:10213000C80162E977E00E946587C8016CE777E033
:102140000E946587C8016CE577E00E946587C80139
:1021500061E477E00E946587C80168E277E00E9449
:102160006587C80165E077E00E946587C80162EE77
:1021700076E00E946587C8016FEB76E00E94658774
:10218000C80160E976E00E946587C80161E576E0F4
:102190000E946587C8016BE176E00E946587C801EF
:1021A00069EE75E00E946587C80162EA75E00E94E9
:1021B0006587C80162E875E00E946587C80163E62B
:1021C00075E00E946587C80160E475E00E9465873C
:1021D000C8016CE175E00E946587C80163E075E0A5
:1021E0000E946587C80166ED74E00E946587C8019A
:1021F00064EA74E00E946587C8016AE774E00E949F
:102200006587C80165E574E00E946587C80166EFCF
:1022100073E00E9465871F910F910895CF93DF931C
:1022200080912806882329F080917C03882309F077
:102230006CC0C6EDD9E08091D302882309F068C054
:102240008091D202882309F06DC08091CF0288234B
:1022500009F0B3C08091D002882309F00CC18091AD
:10226000D402882309F0D0C08091CE02882309F0DF
:102270001FC18091D102882309F451C00E940383B9
:1022800020913E0330913F03409140035091410320
:10229000621B730B840B950B655F7140804090400F
:1022A000F0F10E94038360933E0370933F03809399
:1022B000400390934103CE0162ED70E00E942687B7
:1022C0004091DE025091DF026091E0027091E102E4
:1022D000CE0122E030E00E944789CE0160ED70E03F
:1022E0000E94268760913E0370913F0380914003D6
:1022F000909141030E94DF8A20E030E64AE657E4ED
:102300000E94468AAB01BC0152C0CCE1D6E093CF1B
:102310001092D302CE0165E071E00E946587DF91E3
:10232000CF9108951092D202CE0162E071E00E9436
:1023300026874091D0085091D1086091D2087091C1
:10234000D308CE0122E030E00E944789CE0160E050
:1023500071E00E9426874091D4085091D508609181
:10236000D6087091D708CE0122E030E00E9447895C
:10237000CE016EEF70E00E9426874091D808509100
:10238000D9086091DA087091DB08CE0122E030E0D4
:102390000E944789CE016CEF70E00E942687409131
:1023A000DC085091DD086091DE087091DF08CE01F5
:1023B00022E030E00E944989B2CF1092CF02CE01D4
:1023C00069EF70E00E942687CE016091E0084AE044
:1023D00050E00E940388CE0167EF70E00E942687DC
:1023E000CE016091E1084AE050E00E940388CE01EE
:1023F00065EF70E00E942687CE016091E2084AE016
:1024000050E00E9414888BCF1092D402CE0160EE6F
:1024100070E00E9426874091960350919703609147
:10242000980370919903CE0124E030E00E9447891F
:10243000CE016EED70E00E94268740919A03509184
:102440009B0360919C0370919D03CE0124E030E0DA
:102450000E944789CE016CED70E00E942687409172
:102460009E0350919F036091A0037091A103CE0140
:1024700024E030E09FCF1092D002CE0162EF70E0F6
:102480000E9426876091E3017091E401CE010E94D1
:102490007188CE0160EF70E00E942687CE0161E076
:1024A0004AE050E00E940388CE0163EE70E035CF31
:1024B0000E94038320913A0330913B0340913C03F7
:1024C00050913D03621B730B840B950B63337105B5
:1024D0008105910508F4CDCE0E94038360933A03F1
:1024E00070933B0380933C0390933D03CE0169EDD1
:1024F00070E00E9426874091FA025091FB026091A1
:10250000FC027091FD02CE0122E030E00E9447897A
:10251000CE0167ED70E00E94268740910203509142
:1025200003036091040370910503CE0122E030E0C3
:102530000E944789CE0165ED70E00E942687409198
:1025400006035091070360910803709109032FCF90
:102550002F923F924F925F926F927F928F929F92B3
:10256000AF92BF92CF92DF92EF92FF920F931F93A1
:10257000DF93CF93CDB7DEB760970FB6F894DEBF89
:102580000FBECDBF1C012B0129873A874B875C8783
:10259000ED86FE860F87188B0E946A095B016C012D
:1025A0000E9475093B014C0186ED99E06EE071E0F7
:1025B0000E9465873AC0F1016081718182819381B7
:1025C0002DEC3CEC4CEC5DE30E947C89F1016083D6
:1025D000718382839383D601C50189539F4FAF4F87
:1025E000BF4F8F589140A040B04008F0BEC0F201EC
:1025F00060817181828193812DEC3CEC4CEC5DE338
:102600000E947C89F201608371838283938364E6F4
:1026100070E080E090E00E947B8369807A808B800C
:102620009C80AD80BE80CF80D88486ED99E00E94EA
:1026300037868F5F9F4F09F0BEC069857A858B858D
:102640009C85F10120813181428153810E94C18B9F
:102650009B01AC0186E090E064E070E00E94B40869
:102660006D857E858F859889F20120813181428137
:1026700053810E94C18B9B01AC0187E090E064E034
:1026800070E00E94B4080E946A096D837E838F8384
:1026900098877B018C01EA18FB080C091D090E9430
:1026A000750969837A838B839C835B016C01A6180F
:1026B000B708C808D90886ED99E0B801A7012AE053
:1026C00030E00E94268886ED99E06CE071E00E947F
:1026D000268786ED99E0B601A5012AE030E00E9448
:1026E000268886ED99E06AE071E00E942687F10174
:1026F000408151816281738186ED99E022E030E072
:102700000E94478986ED99E068E071E00E94268783
:10271000F201408151816281738186ED99E022E06E
:1027200030E00E944989D801C70189539F4FAF4FBC
:10273000BF4F8F589140A040B04008F43CCFB80143
:10274000A70117FD28C04C3C5105610571050CF42B
:1027500042CFF10160817181828193812DEC3CEC4B
:102760004CEC5DE30E947B8931CFB601A501D7FC1B
:102770001AC04C3C5105610571050CF448CFF201BB
:1027800060817181828193812DEC3CEC4CEC5DE3A6
:102790000E947B8937CF70956095509541955F4F2A
:1027A0006F4F7F4FD0CF70956095509541955F4F9B
:1027B0006F4F7F4FDECFF101E080F1800281138106
:1027C00020C086E090E064E070E0A80197010E94DC
:1027D000B40887E090E064E070E0A80197010E94EF
:1027E000B40862E370E080E090E00E947B83C8015F
:1027F000B70120E030E040E85FE30E947B897B0185
:102800008C01C801B70120E030E040E050E00E94B8
:10281000B68B1816B4F286E090E00E94A00887E01C
:1028200090E00E94A00860960FB6F894DEBF0FBE3D
:10283000CDBFCF91DF911F910F91FF90EF90DF906F
:10284000CF90BF90AF909F908F907F906F905F9050
:102850004F903F902F9008956F927F928F929F920A
:10286000AF92BF92CF92DF92EF92FF920F931F939E
:10287000DF93CF93CDB7DEB728970FB6F894DEBFBE
:102880000FBECDBF86ED99E061EB72E00E946587D7
:1028900086ED99E00E9437868F5F9F4FC9F386EDE2
:1028A00099E067E372E00E94658760ED77E080E081
:1028B00090E00E947B8380E090E0A0E2B1E4898315
:1028C0009A83AB83BC838D839E83AF83B887CE010D
:1028D0000196BE016B5F7F4F20E030E040E85FE390
:1028E00079018A0135DE86ED99E068E172E00E94A7
:1028F000268749815A816B817C8186ED99E022E0AF
:1029000030E00E94478986ED99E066E172E00E941E
:1029100026874D815E816F81788586ED99E022E082
:1029200030E00E944989A980BA80CB80DC80ED80AC
:10293000FE800F811885C601B501A80197010E948C
:10294000B68B18160CF0DDC080E090E0A0E8BFE385
:102950008093F7089093F808A093F908B093FA08C9
:10296000C801B701A60195010E94468A6093FB0841
:102970007093FC088093FD089093FE0886ED99E023
:1029800064EF71E00E9426874091F7085091F808A3
:102990006091F9087091FA0886ED99E022E030E044
:1029A0000E94478986ED99E062EF71E00E942687D8
:1029B0004091FB085091FC086091FD087091FE0861
:1029C00086ED99E022E030E00E94498986ED99E0A9
:1029D00065E871E00E94658760ED77E080E090E057
:1029E0000E947B8380E090E0A0E2B1E48D839E832F
:1029F000AF83B88789839A83AB83BC832091F70820
:102A00003091F8084091F9085091FA08E090FB08DD
:102A1000F090FC080091FD081091FE08CE0101968F
:102A2000BE016B5F7F4F94DD99808A807B806C80D4
:102A30001D810E81FF80E884692D782D872D962DCC
:102A4000212F302F4F2D5E2D0E94B68B18160CF4BF
:102A500073C0812F902FAF2DBE2D5C016D01692DAC
:102A6000782D872D962D212F302F4F2D5E2D0E94F2
:102A7000428A87FD66C0812F902FAF2DBE2D7C012D
:102A80008D0186ED99E06DE671E00E942687C60112
:102A9000B501A80197010E947B89A60195010E94BA
:102AA000468A20E030E048EC52E40E94C18BAB0142
:102AB000BC0186ED99E022E030E00E94478986ED76
:102AC00099E062E971E00E945B89DED886ED99E0C9
:102AD0006BE471E00E94658728960FB6F894DEBF1C
:102AE0000FBECDBFCF91DF911F910F91FF90EF905F
:102AF000DF90CF90BF90AF909F908F907F906F901E
:102B00000895C601B501A80197010E94468A609305
:102B1000F7087093F8088093F9089093FA0880E01A
:102B200090E0A0E8BFE38093FB089093FC08A0939B
:102B3000FD08B093FE0822CF892D982DA72DB62D24
:102B40008CCF892D982DA72DB62D99CFBF92CF92DE
:102B5000DF92EF92FF920F931F93CF93DF93182F83
:102B6000062FF72EB42E8DE499E068E60E94F17EE0
:102B70008DE499E0612F0E945E7F8DE499E060E032
:102B80000E948D7FC82E8823C1F58DE499E068E608
:102B90004B2D21E00E949F7F802F9F2D9C01E901FA
:102BA000DD240DC08DE499E00E94FB7E892BE9F1C4
:102BB0008DE499E00E94047F8883D3942196DB14EE
:102BC00048F58DE499E00E94FB7E892B89F70E94ED
:102BD00011837B018C010E9411836E197F09800B88
:102BE000910B6436710581059105E0F68DE499E05D
:102BF0000E94FB7E892BB1F6EECF86ED99E064E86A
:102C000078E00E94268786ED99E06C2D4AE050E03E
:102C10000E9414888C2DDF91CF911F910F91FF900E
:102C2000EF90DF90CF90BF90089586ED99E064E734
:102C300078E00E94658705E0C02EECCFAF92BF928E
:102C4000CF92DF92EF92FF920F931F93DF93CF9378
:102C5000CDB7DEB7E2970FB6F894DEBF0FBECDBF9B
:102C60005E010894A11CB11C650183E3E82EF12CE0
:102C7000EC0EFD1E83E462EF72E042E067DF882322
:102C8000C9F71091F20200E08091F30290E0802BEE
:102C9000912BF601819391936F016AE070E080E0DF
:102CA00090E00E947B83CE14DF0421F7CE010196D1
:102CB00069E140ED57E00E94860D8823E1F1E09044
:102CC000EE02F090EF020091F0021091F102F50196
:102CD000619171915F01882777FD8095982F0E94FF
:102CE000E18A9B01AC01C801B7010E947C897B018C
:102CF0008C01AC14BD0459F720E030E048EC51E4FD
:102D00000E94468A6093EE027093EF028093F00275
:102D10009093F102E2960FB6F894DEBF0FBECDBFDE
:102D2000CF91DF911F910F91FF90EF90DF90CF90A7
:102D3000BF90AF90089586ED99E069EB70E00E9436
:102D4000268785E061E00E943D84FFCF4F925F922D
:102D50006F927F928F929F92AF92BF92CF92DF92AB
:102D6000EF92FF920F931F93DF93CF93CDB7DEB710
:102D7000C456D0400FB6F894DEBF0FBECDBF86ED6F
:102D800099E063E873E00E94658786ED99E00E9410
:102D900037868F5F9F4FC9F3CC24DD245E010894F2
:102DA000A11CB11C23E3822E912C8C0E9D1E8DE361
:102DB00062EF72E044E0CADE8823C9F7F501EC0D4A
:102DC000FD1DF090F202EE248091F30290E08E2936
:102DD0009F2991838083F401EC0DFD1D1091F40275
:102DE00000E08091F50290E0802B912B918380830D
:102DF0006AE070E080E090E00E947B8382E090E0F7
:102E0000C80ED91E92E3C916D10489F6C50169E13D
:102E100048EE53E00E94860D882359F486ED99E030
:102E200063E673E00E94268785E061E00E943D84AE
:102E3000FFCFC40169E148EE53E00E94860D88236C
:102E400069F3A090F308B090F408C090F508D09012
:102E5000F608E090EF08F090F0080091F10810916A
:102E6000F208882499242E010894411C511C93E3F4
:102E7000692E712C6C0E7D1EF201E80DF91D60812A
:102E80007181882777FD8095982F0E94E18A9B01A8
:102E9000AC01C801B7010E947C897B018C01F30160
:102EA000E80DF91D60817181882777FD8095982F45
:102EB0000E94E18A9B01AC01C601B5010E947C8998
:102EC0005B016C0182E090E0880E991E92E3891606
:102ED000910491F6C801B70120E030E048EC51E4DC
:102EE0000E94468A7B018C01C601B50120E030E0DA
:102EF00048EC51E40E94468A6093F3087093F4080A
:102F00008093F5089093F608C801B70120E030E0FF
:102F100040E050E00E94428A88230CF468C0C80157
:102F2000B70120E030E040E856E40E947B896093DE
:102F3000EF087093F0088093F1089093F20886ED03
:102F400099E06BE473E00E9426876091EF0870912E
:102F5000F0088091F1089091F20820E030E040E81C
:102F600058E30E94C18BAB01BC0186ED99E022E0E1
:102F700030E00E94478986ED99E069E473E00E94A1
:102F800026876091F3087091F4088091F50890917C
:102F9000F60820E030E040E858E30E94C18BAB0126
:102FA000BC0186ED99E022E030E00E9449890E9450
:102FB000440E86ED99E060E273E00E946587CC598B
:102FC000DF4F0FB6F894DEBF0FBECDBFCF91DF91BC
:102FD0001F910F91FF90EF90DF90CF90BF90AF9037
:102FE0009F908F907F906F905F904F900895C80151
:102FF000B70120E030E040E856E40E947C8997CF9A
:10300000DF92EF92FF920F931F93F82E8B01E42E25
:10301000D22E8DE499E068E60E94F17E8DE499E07D
:103020006F2D0E945E7F8DE499E0B8014E2D50E037
:103030000E942E7F8DE499E06D2D0E948D7F082FD8
:10304000882369F086ED99E065E978E00E9426879B
:1030500086ED99E0602F4AE050E00E941488802FAE
:103060001F910F91FF90EF90DF900895DF93CF9322
:103070000F92CDB7DEB76983242FBE016F5F7F4FFC
:1030800041E0BEDF0F90CF91DF910895EF92FF9264
:103090000F931F93CF93DF93EC018C818823A1F0D2
:1030A000FE01E459FF4FA0817181828163812A2F43
:1030B000372F482F562FB901CA01DF91CF911F91A9
:1030C0000F91FF90EF90089568857985882777FDA7
:1030D0008095982F0E94E18A7B018C016A857B850F
:1030E000882777FD8095982F0E94E18A9B01AC018B
:1030F000C801B7010E94EF892BED3FE049E450E49D
:103100000E947C8921EE3EE245E652E40E94C18B9A
:10311000A62F692FCCCFEF92FF920F931F93CF93DF
:10312000DF93EC018C818823A1F0FE01E059FF4F71
:10313000A0817181828163812A2F372F482F562FDA
:10314000B901CA01DF91CF911F910F91FF90EF90CC
:1031500008956E817F81882777FD8095982F0E9442
:10316000E18A7B018C016A857B85882777FD8095C4
:10317000982F0E94E18A9B01AC01C801B7010E940F
:10318000EF892BED3FE049E450E40E947C8921EE79
:103190003EE245E652E40E94C18BA62F692FCCCFB8
:1031A0007F928F929F92AF92BF92CF92DF92EF92D7
:1031B000FF920F931F93CF93DF93EC0177247394C7
:1031C0007092850310925103109252031092E50100
:1031D00010925303109254038930910509F4B0C042
:1031E0008830910509F439C2009709F03AC18091FD
:1031F0006007882309F4E0C18EE597E061E070E0A4
:103200000E941243853708F465C48EE597E061E0BB
:1032100070E00E9412438A3810F00C9454218EE51D
:1032200097E061E070E00E941243082F8EE597E07E
:1032300063E070E00E94124310E0081B11090031A6
:1032400011050CF448C38EE597E061E070E00E9440
:103250001243082F8EE597E063E070E00E9412436E
:1032600010E0081B11091016110614F00C948723A6
:103270008EE597E061E070E00E941243E82E8EE553
:1032800097E063E070E00E941243FF24E81AF1081F
:103290000027F7FC0095102FC801B7010E94E18AB2
:1032A0007B018C0100D000D08DB69EB60894811CA5
:1032B000911C6091E20870E080E090E00E94DF8A5B
:1032C000F4016083718382839383C801B70120E096
:1032D00030E040E050E00F2EF0E0EF2EF0E0FF2E67
:1032E000FFE70F2FF3E41F2FF02D59016A010E9411
:1032F00001080F900F900F900F9060935A037093F6
:103300005B0380935C0390935D0381E080935303A0
:10331000C230D10509F437C4C330D10509F437C12F
:10332000C093D502DF91CF911F910F91FF90EF9045
:10333000DF90CF90BF90AF909F908F907F90089537
:10334000E0908103F0908203009183031091840345
:10335000C801B70120E030E040E050E00E94B68BA9
:1033600018160CF077C200D000D08DB69EB6089427
:10337000811C911C6091E10870E080E090E00E9467
:10338000DF8AF4016083718382839383C801B7016C
:1033900020E030E040E050E00F2EF0E0EF2EF0E0D3
:1033A000FF2EF0E80F2FFFE31F2FF02D59016A01C8
:1033B0000E9401080F900F900F900F90609356039A
:1033C000709357038093580390935903709251035D
:1033D000E0907D03F0907E0300917F0310918003C5
:1033E000C801B70120E030E040E050E00E94B68B19
:1033F00018160CF07CC400D000D08DB69EB6089490
:10340000811C911C6091E20870E080E090E00E94D5
:10341000DF8AF4016083718382839383C801B701DB
:1034200020E030E040E050E00F2EF0E0EF2EF0E042
:10343000FF2EF0E80F2FFFE31F2FF02D59016A0137
:103440000E9401080F900F900F900F9060935A0305
:1034500070935B0380935C0390935D0381E08093A2
:103460005403C130D10509F053CF8091550888230A
:1034700009F47EC180E598E061E070E00E942F6071
:103480008959984010F00C94572280E598E061E04B
:1034900070E00E942F608850974010F40C94302404
:1034A00080E598E063E070E00E942F608C0180E589
:1034B00098E061E070E00E942F60081B190B093C46
:1034C00011050CF488C580E598E061E070E00E9489
:1034D0002F608C0180E598E063E070E00E942F602F
:1034E000081B190B1016110614F00C94922480E599
:1034F00098E061E070E00E942F607C0180E598E038
:1035000063E070E00E942F60E81AF90A0027F7FCD8
:103510000095102FC801B7010E94E18A7B018C0140
:1035200000D000D08DB69EB60894811C911C60918D
:10353000E20870E080E090E00E94DF8AF40160839E
:10354000718382839383C801B70120E030E040E0BB
:1035500050E00F2EF0E0EF2EF0E0FF2EF6E10F2FFF
:10356000F5E41F2FF02D59016A010E9401080F9008
:103570000F900F900F9060935A0370935B038093AA
:103580005C0390935D0381E080935303C5CE81E09B
:103590008093E5018091D502833009F4C1CE0E9469
:1035A00080096093920370939303809394039093A4
:1035B000950310925503B4CE8EE597E061E070E07C
:1035C0000E941243853708F4FFC18EE597E061E061
:1035D00070E00E9412438A3810F00C94FC228EE5B1
:1035E00097E060E070E00E941243873308F0C1C3A7
:1035F0008EE597E060E070E00E94124300D000D0BA
:103600008DB69EB60894811C911C90E0A0E0B0E0BD
:10361000BC01CD010E94DF8A7B018C016091E20830
:1036200070E080E090E00E94DF8AF40160837183A3
:1036300082839383C801B70120E030E048E552E47B
:103640000F2EF0E0EF2EF0E0FF2EF0E00F2FF0E075
:103650001F2FF02D570168014ACEE0907D03F090B6
:103660007E0300917F0310918003C801B70120E021
:1036700030E040E050E00E94B68B18160CF0E9C133
:1036800000D000D08DB69EB60894811C911C60912C
:10369000E10870E080E090E00E94DF8AF40160833E
:1036A000718382839383C801B70120E030E040E05A
:1036B00050E00F2EF0E0EF2EF0E0FF2EF0E10F2FA4
:1036C000F2E41F2FF02D59016A010E9401080F90AA
:1036D0000F900F900F906093560370935703809351
:1036E00058039093590370925103E0908103F09036
:1036F00082030091830310918403C801B70120E085
:1037000030E040E050E00E94428A882314F40C9498
:103710009423C801B70120E030E040E050E00E946F
:10372000B68B18160CF09DCE00D000D08DB69EB68C
:103730000894811C911C6091E20870E080E090E0A8
:103740000E94DF8AF4016083718382839383C801BE
:10375000B70120E030E040E050E00F2EF0E0EF2E27
:10376000F0E0FF2EF4E30F2FF2E41F2FF02D66CED2
:1037700080E598E06CE070E00E949F5F882309F488
:10378000DCC380E598E082DC20E030E044E353E4F1
:103790000E94B68B18160CF4EBC580E598E076DC39
:1037A00020E030E044E353E40E94428A882314F48A
:1037B0000C949F2480E598E0AEDC20E030E044E308
:1037C00053E40E94B68B18160CF0D3C680E598E03F
:1037D000A2DC7B018C0100D000D08DB69EB608948F
:1037E000811C911C6091E20870E080E090E00E94F2
:1037F000DF8AF4016083718382839383C801B701F8
:1038000020E030E044E353E40F2EF0E0EF2EF0E050
:10381000FF2EF1E60F2FF3E41F2FF02D0F2EF0E017
:10382000AF2EF0E0BF2EF0E0CF2EF0E0DF2EF02D37
:103830000E9401080F900F900F900F9060935A0311
:1038400070935B0380935C0390935D0381E08093AE
:10385000540362CDC801B70120E030E040E050E001
:103860000E94428A88230CF0B3CD00D000D08DB6E0
:103870009EB60894811C911C6091E10870E080E084
:1038800090E00E94DF8AF4016083718382839383D6
:10389000C801B70120E030E040E050E00F2EF0E03A
:1038A000EF2EF0E0FF2EF0E80F2FFFEB1F2FF02D93
:1038B00059016A010E9401080F900F900F900F901C
:1038C0006093560370935703809358039093590362
:1038D000709252037DCD8EE597E063E070E00E9428
:1038E0001243082F8EE597E061E070E00E941243DA
:1038F00010E0081B1109003111050CF4D1C38EE54D
:1039000097E061E070E00E941243082F8EE597E097
:1039100063E070E00E94124310E0081B11091016CA
:1039200011060CF0B8C58EE597E061E070E00E94EA
:103930001243E82E8EE597E063E070E00E941243A8
:10394000FF24E81AF1080027F7FC0095102FC801A2
:10395000B7010E94E18A7B018C0100D000D08DB6B6
:103960009EB60894811C911C6091E20870E080E092
:1039700090E00E94DF8AF4016083718382839383E5
:10398000C801B70120E030E040E050E00F2EF0E049
:10399000EF2EF0E0FF2EFFE70F2FF3E41F2FF02DA7
:1039A00059016A010E9401080F900F900F900F902B
:1039B00060935A0370935B0380935C0390935D0361
:1039C00081E080935403A4CC8EE597E061E070E041
:1039D0000E94124300D000D08DB69EB60894811C80
:1039E000911C90E0A0E0B0E0BC01CD010E94DF8A14
:1039F0007B018C016091E10870E080E090E00E9422
:103A0000DF8AF4016083718382839383C801B701E5
:103A100020E030E048EE52E40F2EF0E0EF2EF0E030
:103A2000FF2EF0E00F2FF0E01F2FF02D570168015F
:103A30000E9401080F900F900F900F906093560313
:103A400070935703809358039093590370925103D6
:103A5000C6CDC801B70120E030E040E050E00E9450
:103A6000428A88230CF041CE00D000D08DB69EB69D
:103A70000894811C911C6091E10870E080E090E066
:103A80000E94DF8AF4016083718382839383C8017B
:103A9000B70120E030E040E050E00F2EF0E0EF2EE4
:103AA000F0E0FF2EF0E10F2FF2EC1F2FF02D590167
:103AB0006A010E9401080F900F900F900F90609381
:103AC0005603709357038093580390935903709251
:103AD00052030BCE8EE597E063E070E00E94124344
:103AE000853708F092CB8EE597E061E070E00E94A8
:103AF0001243E82E8EE597E063E070E00E941243E7
:103B000000D000D08DB69EB60894811C911CFF2475
:103B1000E80EF11C0027F7FC0095102FC801B70133
:103B20000E94E18A7B018C016091E10870E080E0F5
:103B300090E00E94DF8AF401608371838283938323
:103B4000C801B70120E030E048E653E40F2EF0E072
:103B5000EF2EF0E0FF2EF0E00F2FF0E01F2FF02D02
:103B6000570168010E9401080F900F900F900F906D
:103B700060935603709357038093580390935903AF
:103B8000709251034CCB84E694E061E070E040E039
:103B90000E946B718D549D410CF01BC384E694E030
:103BA00061E070E040E00E946B71845B924E0CF427
:103BB000DFC584E694E063E070E040E00E946B7152
:103BC0007C0184E694E061E070E040E00E946B716B
:103BD0000027F7FC0095102FAA2797FDA095BA2F74
:103BE000E81AF90A0A0B1B0BFDE4EF16FDE1FF06CC
:103BF000F0E00F07F0E01F070CF401C184E694E049
:103C000061E070E040E00E946B717C0184E694E02A
:103C100063E070E040E00E946B710027F7FC0095C4
:103C2000102FAA2797FDA095BA2FE81AF90A0A0BB8
:103C30001B0B1E141F04100611060CF004C684E6AC
:103C400094E061E070E040E00E946B717C0184E6EA
:103C500094E063E070E040E00E946B710027F7FCA5
:103C60000095102FAA2797FDA095BA2FE81AF90AF8
:103C70000A0B1B0BC801B7010E94E18A7B018C0172
:103C800000D000D08DB69EB60894811C911C609126
:103C9000E20870E080E090E00E94DF8AF401608337
:103CA000718382839383C801B70120E030E040E054
:103CB00050E00F2EF0E0EF2EFFEFFF2EFFE70F2F6B
:103CC000F7E41F2FF02D59016A010E9401080F909F
:103CD0000F900F900F9060935A0370935B03809343
:103CE0005C0390935D0381E08093530319CBC8017B
:103CF000B70120E030E040E050E00E94428A882393
:103D00000CF0AFCB00D000D08DB69EB60894811CCD
:103D1000911C6091E20870E080E090E00E94DF8AF0
:103D2000F4016083718382839383C801B70120E02B
:103D300030E040E050E00F2EF0E0EF2EF0E0FF2EFC
:103D4000F0E80F2FFFEB1F2FF02D59016A010E94A1
:103D500001080F900F900F900F9060935A0370938B
:103D60005B0380935C0390935D0381E08093530336
:103D700078CB8EE597E060E070E00E941243893CCA
:103D800008F4C6CA8EE597E060E070E00E94124336
:103D900000D000D08DB69EB60894811C911C90E096
:103DA000A0E0B0E0BC01CD010E94DF8A7B018C0164
:103DB0006091E20870E080E090E00E94DF8AF40108
:103DC0006083718382839383C801B70120E030E070
:103DD00049E453E40F2EF0E0EF2EF0E0FF2EFFE772
:103DE0000F2FF3E41F2FF02D0F2EF0E0AF2EF0E099
:103DF000BF2EF0E0CF2EF0E0DF2EF02DD3CD84E605
:103E000094E061E070E040E00E946B717C0184E628
:103E100094E063E070E040E00E946B710027F7FCE3
:103E20000095102FAA2797FDA095BA2FE81AF90A36
:103E30000A0B1B0BFDE4EF16FDE1FF06F0E00F0798
:103E4000F0E01F070CF46CCA84E694E061E070E0D7
:103E500040E00E946B717C0184E694E063E070E0D6
:103E600040E00E946B710027F7FC0095102FAA27F5
:103E700097FDA095BA2FE81AF90A0A0B1B0B1E141E
:103E80001F04100611060CF08BC684E694E061E076
:103E900070E040E00E946B717C0184E694E063E096
:103EA00070E040E00E946B710027F7FC0095102F36
:103EB000AA2797FDA095BA2FE81AF90A0A0B1B0B3F
:103EC000C801B7010E94E18A7B018C0100D000D0BB
:103ED0008DB69EB60894811C911C6091E20870E03A
:103EE00080E090E00E94DF8AF40160837183828326
:103EF0009383C801B70120E030E040E050E00F2E8E
:103F0000F0E0EF2EFFEFFF2EFFE70F2FF7E41F2F5C
:103F1000F02D59016A010E9401080F900F900F9037
:103F20000F9060935A0370935B0380935C039093AC
:103F30005D0381E080935403F3C980E598E061E07C
:103F400070E00E9419608A3808F057C280E598E056
:103F500061E070E00E941960853708F436C580E59D
:103F600098E060E070E00E9419608A3808F492C31B
:103F700080E598E060E070E00E94196000D000D019
:103F80008DB69EB60894811C911C90E0A0E0B0E034
:103F9000BC01CD010E94DF8A7B018C016091E208A7
:103FA00070E080E090E00E94DF8AF401608371831A
:103FB00082839383C801B70120E030E04AE053E4F4
:103FC0000F2EF0E0EF2EF0E0FF2EF6E60F2FF3E4D9
:103FD0001F2FF02D23CC80E598E061E070E00E9477
:103FE0002F608C0180E598E063E070E00E942F6014
:103FF000081B190B093C11050CF48EC980E598E0EB
:1040000061E070E00E942F608C0180E598E063E041
:1040100070E00E942F60081B190B101611060CF09F
:10402000CCC580E598E061E070E00E942F607C01E3
:1040300080E598E063E070E00E942F60E81AF90ADA
:104040000027F7FC0095102FC801B7010E94E18AF4
:104050007B018C0100D000D08DB69EB60894811CE7
:10406000911C6091E20870E080E090E00E94DF8A9D
:10407000F4016083718382839383C801B70120E0D8
:1040800030E040E050E00F2EF0E0EF2EF0E0FF2EA9
:10409000F6E10F2FF5E41F2FF02D59016A01C8CB6F
:1040A0008EE597E06EE070E00E94BC42882309F440
:1040B0002FC98EE597E061E070E00E94CD4920E0D5
:1040C00030E044E353E40E94B68B18160CF012C59E
:1040D0008EE597E061E070E00E94CD497B018C01A4
:1040E00000D000D08DB69EB60894811C911C6091C2
:1040F000E10870E080E090E00E94DF8AF4016083D4
:10410000718382839383C801B70120E030E044E3E8
:1041100053E40F2EF0E0EF2EF0E0FF2EF8E50F2F26
:10412000F3E41F2FF02D0F2EF0E0AF2EF0E0BF2EA6
:10413000F0E0CF2EF0E0DF2EF02D0E9401080F906E
:104140000F900F900F9060935603709357038093D6
:1041500058039093590381E0809351038EE597E0D3
:1041600062E070E00E94CD4920E030E044E353E497
:104170000E94B68B18160CF076C48EE597E062E0CC
:1041800070E00E94CD497B018C0100D000D08DB63B
:104190009EB60894811C911C6091E20870E080E05A
:1041A00090E00E94DF8AF4016083718382839383AD
:1041B000C801B70120E030E044E353E40F2EF0E003
:1041C000EF2EF0E0FF2EF1E60F2FF3E41F2FF02D7E
:1041D0000BCE84E694E063E070E040E00E946B71F7
:1041E0008D549D410CF4DACC84E694E061E070E0FB
:1041F00040E00E946B717C0184E694E063E070E033
:1042000040E00E946B7100D000D08DB69EB608943D
:10421000811C911CAA2797FDA095BA2F0027F7FCB7
:104220000095102F8E0D9F1DA01FB11FBC01CD0149
:104230000E94E18A7B018C016091E10870E080E0DE
:1042400090E00E94DF8AF40160837183828393830C
:10425000C801B70120E038E64AE656E40F2EF0E048
:10426000EF2EFEEFFF2EFFE70F2FF7E41F2FF02DAD
:104270000F2EF0E0AF2EF0E0BF2EF0E0CF2EF0E0FA
:10428000DF2EF02D0E9401080F900F900F900F90DD
:104290006093560370935703809358039093590388
:1042A00081E08093510385CC8EE597E063E070E078
:1042B0000E9412438A3810F40C940F198EE597E08F
:1042C00061E070E00E941243E82E8EE597E063E023
:1042D00070E00E94124300D000D08DB69EB60894C4
:1042E000811C911CFF24E80EF11C0027F7FC0095AF
:1042F000102FC801B7010E94E18A7B018C016091F7
:10430000E10870E080E090E00E94DF8AF4016083C1
:10431000718382839383C801B70120E030E04AE8CB
:1043200053E40F2EF0E0EF2EF0E0FF2EFFEF0F2F03
:10433000F3E41F2FF02D0F2EF0E0AF2EF0E0BF2E94
:10434000F0E0CF2EF0E0DF2EF02D0E9401080F905C
:104350000F900F900F9060935603709357038093C4
:1043600058039093590381E0809352030C940F19E2
:1043700080E598E00E9446187B018C0100D000D0B7
:104380008DB69EB60894811C911C6091E10870E086
:1043900080E090E00E94DF8AF40160837183828371
:1043A0009383C801B70120E030E044E353E40F2ECB
:1043B000F0E0EF2EF0E0FF2EF8E50F2FF3E41F2FD3
:1043C000F02D0F2EF0E0AF2EF0E0BF2EF0E0CF2E5C
:1043D000F0E0DF2EF02D0E9401080F900F900F905B
:1043E0000F906093560370935703809358039093F4
:1043F000590381E080935103DDC980E598E061E0D5
:1044000070E00E94196000D000D08DB69EB608946E
:10441000811C911C90E0A0E0B0E0BC01CD010E94A5
:10442000DF8A7B018C016091E10870E080E090E020
:104430000E94DF8AF4016083718382839383C801C1
:10444000B70120E030E04AE053E40F2EF0E0EF2E19
:10445000F0E0FF2EF6E60F2FF3E41F2FF02D0F2EC6
:10446000F0E0AF2EF0E0BF2EF0E0CF2EF0E0DF2E38
:10447000F02D0E9401080F900F900F900F90609305
:10448000560370935703809358039093590381E028
:104490008093510364CD8EE597E063E070E00E9465
:1044A0001243E82E8EE597E061E070E047CA80E5B0
:1044B00098E063E070E00E942F608959984010F402
:1044C0000C94451A80E598E061E070E00E942F604E
:1044D0007C0180E598E063E070E00E942F6000D0EE
:1044E00000D08DB69EB60894811C911CE80EF91E72
:1044F00000E010E0C801B7010E94DF8A7B018C0157
:104500006091E10870E080E090E00E94DF8AF401B1
:104510006083718382839383C801B70120E030E90F
:1045200049E855E40F2EF0E0EF2EF0E0FF2EF8EC16
:104530000F2FF5E41F2FF02D0F2EF0E0AF2EF0E03F
:10454000BF2EF0E0CF2EF0E0DF2EF02D0E9401080C
:104550000F900F900F900F90609356037093570336
:10456000809358039093590381E0809351030C94F6
:10457000501A80E598E00E948B1820E030E044E378
:1045800053E40E94428A882314F00C948C1980E52D
:1045900098E00E948B187B018C0100D000D08DB672
:1045A0009EB60894811C911C6091E20870E080E046
:1045B00090E00E94DF8AF401608371838283938399
:1045C000C801B70120E030E044E353E40F2EF0E0EF
:1045D000EF2EF0E0FF2EF7E00F2FF3E41F2FF02D6A
:1045E0000F2EF0E0AF2EF0E0BF2EF0E0CF2EF0E087
:1045F000DF2EF02D0C94B51A8EE597E061E070E0A7
:104600000E94124300D000D08DB69EB60894811C43
:10461000911C90E0A0E0B0E0BC01CD010E94DF8AD7
:104620007B018C016091E10870E080E090E00E94E5
:10463000DF8AF4016083718382839383C801B701A9
:1046400020E030E04AE053E40F2EF0E0EF2EF0E0FF
:10465000FF2EFFE70F2FF3E41F2FF02D0F2EF0E0BA
:10466000AF2EF0E0BF2EF0E0CF2EF0E0DF2EF02DE9
:104670000E9401080F900F900F900F9060935603C7
:104680007093570380935803909359037092520389
:104690000C94EF1A80E598E060E070E00E941960E9
:1046A000853710F00C948C1980E598E060E070E09C
:1046B0000E94196000D000D08DB69EB60894811C6F
:1046C000911C90E0A0E0B0E0BC01CD010E94DF8A27
:1046D0007B018C016091E20870E080E090E00E9434
:1046E000DF8AF4016083718382839383C801B701F9
:1046F00020E030E048EE52E40F2EF0E0EF2EF0E044
:10470000FF2EF8EC0F2FF1E41F2FF02D69CF8EE56F
:1047100097E063E070E00E941243E82E8EE597E098
:1047200061E070E00C94431900D000D08DB69EB6C5
:104730000894811C911C6091E20870E080E090E098
:104740000E94DF8AF4016083718382839383C801AE
:10475000B70120E030E040E050E00F2EF0E0EF2E17
:10476000F0E0FF2EF4E30F2FF2EC1F2FF02DEDCA37
:1047700084E694E063E070E040E00E946B71845B4B
:10478000924E0CF016CA84E694E061E070E040E0DE
:104790000E946B717C0184E694E063E070E040E08D
:1047A0000E946B7100D000D08DB69EB60894811C1B
:1047B000911CAA2797FDA095BA2F0027F7FC00951A
:1047C000102F8E0D9F1DA01FB11FBC01CD010E9497
:1047D000E18A7B018C016091E10870E080E090E06B
:1047E0000E94DF8AF4016083718382839383C8010E
:1047F000B70120E038E64AE656EC0F2EF0E0EF2E47
:10480000F0E0FF2EF0E80F2FF7EC1F2FF02D0F2E0A
:10481000F0E0AF2EF0E0BF2EF0E0CF2EF0E0DF2E84
:10482000F02D0E9401080F900F900F900F90609351
:10483000560370935703809358039093590381E074
:1048400080935203B6C984E694E063E070E040E0F0
:104850000E946B717C0184E694E061E070E0FBC92A
:1048600080E598E063E070E00E942F6088509740F8
:1048700010F00C94501A80E598E061E070E00E941E
:104880002F607C0180E598E063E070E00E942F607B
:1048900000D000D08DB69EB60894811C911CE80E05
:1048A000F91E00E010E0C801B7010E94DF8A7B0119
:1048B0008C016091E10870E080E090E00E94DF8A66
:1048C000F4016083718382839383C801B70120E080
:1048D00030EE40E655E40F2EF0E0EF2EF0E0FF2E34
:1048E000F8EC0F2FF4E41F2FF02D0F2EF0E0AF2E79
:1048F000F0E0BF2EF0E0CF2EF0E0DF2EF02D0E9492
:1049000001080F900F900F900F90609356037093D3
:104910005703809358039093590381E08093520387
:104920000C94501A80E598E063E070E00E942F60DC
:104930007C0180E598E061E070E00C94821A80E5EB
:1049400098E00E9446187B018C0100D000D08DB603
:104950009EB60894811C911C6091E10870E080E093
:1049600090E00E94DF8AF4016083718382839383E5
:10497000C801B70120E030E044E353E40F2EF0E03B
:10498000EF2EF0E0FF2EF0E10F2FF3E41F2FF02DBC
:104990000F2EF0E0AF2EF0E0BF2EF0E0CF2EF0E0D3
:1049A000DF2EF02D0E9401080F900F900F900F90B6
:1049B0006093560370935703809358039093590361
:1049C00081E0809352030C94DA1B80E598E061E06B
:1049D00070E00E94196000D000D08DB69EB6089499
:1049E000811C911C90E0A0E0B0E0BC01CD010E94D0
:1049F000DF8A7B018C016091E10870E080E090E04B
:104A00000E94DF8AF4016083718382839383C801EB
:104A1000B70120E030E048EE52E40F2EF0E0EF2E38
:104A2000F0E0FF2EF8EC0F2FF1E41F2FF02D0F2EEA
:104A3000F0E0AF2EF0E0BF2EF0E0CF2EF0E0DF2E62
:104A4000F02D0E9401080F900F900F900F9060932F
:104A5000560370935703809358039093590381E052
:104A6000809352037CCA8EE597E062E070E00E947A
:104A7000CD4920E030E044E353E40E94428A882399
:104A800014F00C9488198EE597E062E070E00E94C3
:104A9000CD497B018C0100D000D08DB69EB6089424
:104AA000811C911C6091E20870E080E090E00E941F
:104AB000DF8AF4016083718382839383C801B70125
:104AC00020E030E044E353E40F2EF0E0EF2EF0E07E
:104AD000FF2EF7E00F2FF3E41F2FF02D0F2EF0E045
:104AE000AF2EF0E0BF2EF0E0CF2EF0E0DF2EF02D65
:104AF0000C9477198EE597E061E070E00E94CD4953
:104B000020E030E044E353E40E94428A88230CF022
:104B100025CB8EE597E061E070E00E94CD497B01F6
:104B20008C0100D000D08DB69EB60894811C911CDB
:104B30006091E10870E080E090E00E94DF8AF4017B
:104B40006083718382839383C801B70120E030E0E2
:104B500044E353E40F2EF0E0EF2EF0E0FF2EF0E1FF
:104B60000F2FF3E41F2FF02D0F2EF0E0AF2EF0E00B
:104B7000BF2EF0E0CF2EF0E0DF2EF02D0E940108D6
:104B80000F900F900F900F90609356037093570300
:104B9000809358039093590381E080935203DECAB7
:104BA00084E694E063E070E040E00E946B717C0179
:104BB00084E694E061E070E074C980E598E063E029
:104BC00070E00E942F607C0180E598E061E070E079
:104BD00033CACF93DF93EC0188818134C1F18D34E6
:104BE00001F1873429F18335D1F58981803509F4C4
:104BF000C8C0893409F4DBC0843409F4F2C08435B8
:104C000009F405C18B3409F418C1813409F45BC17E
:104C1000853509F468C1823409F46FC00E94440EDE
:104C200004C08981833409F4A1C0DF91CF91089534
:104C300089818035F9F0833509F444C0893409F459
:104C400098C08B3491F781E08093D402EECF8981B4
:104C50008B33E1F1833449F70E94A616E6CF8934FD
:104C600069F48981823409F488C08335F1F61092A1
:104C7000CE02DBCF81E08093D202D7CF8235C1F064
:104C8000833499F68981833509F43DC18A34D1F1A1
:104C90008D3409F43BC1873509F405C1823529F605
:104CA0000E94790E81E08093D2028093D4020BC0DF
:104CB0008981823409F491C0833509F0B6CF10920E
:104CC000D102B3CF81E08093CF02AFCF0E9497098A
:104CD00086ED99E00E9437868334910509F4A5CFCB
:104CE0008AE196E00E942B4C8334910509F49DCF14
:104CF0008EEC93E00E943E5EEBCF8A8180538093DE
:104D0000E0088CCF0E94038360938603709387032F
:104D10008093880390938903CE0164E971E00E9437
:104D2000410680E090E064E971E00E9441060E9443
:104D3000210660937D0370937E0380937F0390939D
:104D4000800380E090E066E971E00E9441060E94E5
:104D50002106609381037093820380938303909371
:104D6000840389E090E00E94D0185FCF0E942C1449
:104D70005CCF81E08093D00258CF81E08093CE0257
:104D800054CFCE0164E971E00E94410680E090E0DA
:104D900066E971E00E9441060E9421066093D008F6
:104DA0007093D1088093D2089093D30837CFCE0167
:104DB00064E971E00E94410680E090E066E971E0FC
:104DC0000E9441060E9421066093D4087093D50882
:104DD0008093D6089093D70821CF81E08093D102A9
:104DE00024CFCE0164E971E00E94410680E090E0AA
:104DF00066E971E00E9441060E9421066093D8088E
:104E00007093D9088093DA089093DB0807CFCE011E
:104E100064E971E00E94410680E090E066E971E09B
:104E20000E9441060E9421066093DC087093DD0811
:104E30008093DE089093DF08F1CECE0164E971E043
:104E40000E94410680E090E064E971E00E94410622
:104E50000E9421066093E3087093E4088093E508BC
:104E60009093E60880E090E064E971E00E944106DA
:104E70000E9421066093E7087093E8088093E90890
:104E80009093EA0880E090E066E971E00E944106B4
:104E90000E9421066093EB087093EC088093ED0864
:104EA0009093EE08BBCEE0918C08F0918D0830977E
:104EB00031F081E083AFEF59FF4F86E0808381E0DE
:104EC0008093D302B2CECE0164E971E00E94410624
:104ED00080E090E066E971E00E9441060E942406AD
:104EE0008093E1089BCECE0164E971E00E94410607
:104EF00080E090E066E971E00E9441060E9424068D
:104F00008093E2088BCE83E090E02DCF0E94038354
:104F1000609386037093870380938803909389033B
:104F2000CE0164E971E00E94410680E090E064E90E
:104F300071E00E9441060E94210660937D037093F8
:104F40007E0380937F039093800380E090E066E986
:104F500071E00E9441060E942106609381037093D4
:104F60008203809383039093840388E090E0FBCED8
:104F7000CF93DF9386ED99E00E940D86892B19F47B
:104F8000DF91CF91089586ED99E00E9437868D36A6
:104F9000F9F080935E0361E070E080E090E00E94B1
:104FA0007B83CFE5D3E005C0219683E0CC37D807DB
:104FB00039F386ED99E00E94378688838F3F01F3AD
:104FC0008B3391F710927C038EE593E002DED8CF0D
:104FD0000E948510D5CF80916007882309F457C0BF
:104FE00080914D03882309F0ADC080914F03882341
:104FF00009F09FC08EE597E061E077E20E94794377
:10500000882309F4CCC08091CC08882309F4C5C05A
:1050100060E08091CC08681731F06093CC088EE591
:1050200097E00E94D04580915208882309F048C03B
:1050300080915508882309F043C080916704882334
:1050400029F180915003882309F05DC084E694E043
:1050500060E00E947B71882309F494C0813009F4D8
:10506000BBC0823009F4BBC063E070E08091CE0821
:105070009091CF086817790749F07093CF08609333
:10508000CE0884E694E040E00C9427720895809165
:105090006207882341F28EE597E061E077E20E94A3
:1050A0007943882309F091C08091CC08813009F4BC
:1050B000BACF81E08093CC088EE597E061E0B1CF74
:1050C00080914E03882349F010924E0380E598E0CA
:1050D0000E9432621092CD08B0CF80E598E00E9425
:1050E0009A618C3300F18E3608F051C060E18091F6
:1050F000CD08681709F4A1CF6093CD0880E598E04A
:105100000E940B629ACF1092500384E694E060E014
:1051100040E020E00E94B1718FEF90E09093CF08C3
:105120008093CE0808958091CD08882371F160E0C6
:10513000DECF10924F038EE597E00E94FD4510925E
:10514000CC0871CF10924D038EE597E060E270E0DD
:105150000E94EF4581E080934F038091420390913C
:105160004303A0914403B0914503845F9140A04064
:10517000B0408093420390934303A0934403B093C1
:10518000450351CF60E070E071CF60EFB0CF803A5F
:1051900080F0823DD0F760E7AACF6FE03ACF8EE58E
:1051A00097E062E077E20E947943882321F061E092
:1051B00030CF60E39CCF8EE597E063E077E20E941A
:1051C0007943882379F063E024CF8EE597E060E0AF
:1051D00070E00E94F64427CF61E070E047CF62E0C4
:1051E00070E044CF8EE597E064E077E20E94794377
:1051F000882311F067E00DCF8EE597E065E077E258
:105200000E947943882349F68EE597E06EEE77E2B7
:105210000E9479436091CC08882309F4FACE6F305C
:1052200031F2660F6E706160F4CE1F93809160075B
:10523000882321F080914A03882369F180915208E4
:10524000882321F080914B038823D1F1809167045A
:10525000882321F080914C03882311F01F91089539
:1052600011E010934C030E940383645F71408040FF
:105270009040609342037093430380934403909360
:10528000450384E694E060E04FEF20E00E94B171B6
:1052900010935003E3CF11E010934A039CDE0E9469
:1052A0000383645F71408040904060934203709339
:1052B0004303809344039093450310934D03BECF63
:1052C00011E010934B0387DE0E940383645F7140FB
:1052D0008040904060934203709343038093440363
:1052E0009093450380E598E00E941F6210934E035F
:1052F000ADCFCF93DF9380912806882319F4DF91F7
:10530000CF9108958AE196E00E942F4B892BB9F343
:10531000CEE5D3E005C0219683E0CC37D80779F3FA
:105320008AE196E00E942B4C88838F3F41F38B33B8
:1053300091F781E080937C038EE593E04ADCDFCF38
:105340008EEC93E00E943E5E8EEC93E00E94CF5480
:10535000803A09F4AFC0CDDF0E9403832091860319
:105360003091870340918803509189032C503E4F20
:105370004F4F5F4F261737074807590760F51092C0
:10538000850380916007882309F0AAC08091620795
:10539000882309F029C180915208882329F080913F
:1053A0005508882309F4B5C080915508882329F051
:1053B00080918503882309F4E7C0809167048823DE
:1053C00029F080918503882309F4C3C08091850367
:1053D000882309F480C080916007882321F480919C
:1053E00062078823A9F18EE597E060E170E00E94F2
:1053F000DA42882381F580915208882321F4809134
:105400005508882311F180E598E069E070E00E947A
:10541000D25F882339F5809167048823A9F510921B
:105420004C030E9403832091420330914303409137
:10543000440350914503621B730B840B950B695E0B
:10544000734080409040A8F4089510924B03E3CF3E
:1054500010924A03D0CF8EE597E00E940C4610923E
:10546000CC08C9CF80E598E00E9445621092CD0833
:10547000D2CF0E94038360934203709343038093CF
:10548000440390934503A7CD84E694E060E170E087
:1054900040E00E942671882309F4C3CF84E694E09B
:1054A00060E00E94B0738FEF90E09093CF088093FC
:1054B000CE08B7CF8091E601882309F44CCF86ED62
:1054C00099E067EA78E00E9465878EEC93E062E1FC
:1054D0000E94D25440CF83E090E00E94D0187BCF4E
:1054E0008EE597E064E070E00E94BC42882309F4F6
:1054F00089C00E94970904C08EEC93E00E943E5E32
:105500008EE597E065E070E00E94BC428823A1F33D
:1055100042CF80918503882309F046CF80E598E04B
:105520006CE070E00E949F5F882371F480915308C3
:10553000882309F442CF80E598E060E070E00E94A3
:1055400019608A3808F4E4C081E090E00E94D01825
:1055500034CF84E694E064E070E040E00E94D870CC
:10556000882309F479C00E94970904C08EEC93E067
:105570000E943E5E84E694E065E070E040E00E94B8
:10558000D870882399F322CF80E598E068E070E036
:105590000E949F5F882309F06EC080E598E061E07B
:1055A00070E00E942F608959984070F680E598E07D
:1055B00061E070E00E942F608850974028F280E5FB
:1055C00098E063E070E00E942F608959984008F0ED
:1055D000BBCF80E598E063E070E00E942F608850C8
:1055E000974008F0EACEB0CF8EE597E060E070E03B
:1055F0000E941243893C08F44EC080E090E00E9473
:10560000D018C9CE8EE597E061E070E00E941243A9
:10561000853798F38EE597E063E070E00E941243CF
:10562000853758F38EE597E061E070E00E94124301
:105630008A3818F78EE597E063E070E00E94124325
:105640008A38D8F68EE597E06EE070E00E94BC42A2
:10565000882309F4A0CED1CF84E694E061E070E025
:1056600040E00E946B71845B924E8CF582E090E08A
:105670000E94D018ABCE0E94970904C08EEC93E034
:105680000E943E5E80E598E065E070E00E949F5FCA
:105690008823A1F392CE8EE597E060E070E00E944F
:1056A0001243873308F4A9CF8EE597E061E070E0FC
:1056B0000E9412438A3808F0A0CF8EE597E061E09F
:1056C00070E00E941243853708F065CE96CF84E6DD
:1056D00094E063E070E040E00E946B71845B924E66
:1056E0002CF284E694E061E070E040E00E946B718F
:1056F0008D549D410CF0BACF84E694E063E070E0F5
:1057000040E00E946B718D549D410CF45FCEAECF92
:1057100080E598E060E070E00E941960853708F449
:1057200013CF80E598E061E070E00E9419608A384C
:1057300008F00ACF80E598E061E070E00E9419600F
:10574000853708F03ACE00CF2F923F924F925F926A
:105750006F927F928F929F92AF92BF92CF92DF9281
:10576000EF92FF920F931F93DF93CF93CDB7DEB7E6
:10577000A4970FB6F894DEBF0FBECDBF809152083C
:10578000882309F00DC48DE362EF72E048E00E94C7
:10579000A6158823C1F73091F20220E06091F30250
:1057A00070E0622B732B7093E9026093E8023091F2
:1057B000F40220E0E090F502FF24E22AF32AF092BE
:1057C000EB02E092EA023091F80220E04091F90207
:1057D00050E0242B352B3093ED022093EC028827E8
:1057E00077FD8095982F0E94E18A2091EF083091F3
:1057F000F0084091F1085091F2080E947B895B010A
:105800006C010027F7FC0095102FC801B7010E941A
:10581000E18A2091F3083091F4084091F508509105
:10582000F6080E947B899B01AC01C601B5010E946C
:10583000EF892BED3FE049E450E40E947C8921EEA2
:105840003EE245E652E40E94C18B6093FA027093F7
:10585000FB028093FC029093FD020E9411836987F2
:105860007A878B879C87E090FA02F090FB02009188
:10587000FC021091FD02ED86FE860F87188BC80191
:10588000B70120E030E044EB52E40E94428A8823D2
:105890000CF003C160910603709107038091080327
:1058A0009091090320E030E047E853E40E94B68B72
:1058B00018160CF0F2C00D851E852F8538890093CF
:1058C000A2031093A3032093A4033093A503009392
:1058D00006031093070320930803309309030093F2
:1058E0000203109303032093040330930503898577
:1058F0009A85AB85BC8580932E0390932F03A0934C
:105900003003B093310380915208882309F016C305
:105910000E94118369837A838B839C838091E60143
:10592000E0900603F090070300910803109109032B
:10593000882309F0E4C2A090DC08B090DD08C09094
:10594000DE08D090DF08C601B50120E030E044E376
:1059500052E40E947B899B01AC01C801B7010E94FF
:10596000428A87FDC6C2C601B50120E030E044E3AB
:1059700052E40E947C899B01AC01C801B7010E94DE
:10598000B68B18160CF4B5C21092E6016090DC08D4
:105990007090DD088090DE089090DF08209056031C
:1059A000309057034090580350905903E0905A03A9
:1059B000F0905B0300915C0310915D0380913203D2
:1059C00090913303A0913403B091350329813A813A
:1059D0004B815C81281B390B4A0B5B0BCA01B90157
:1059E0000E94DF8A20E034E244E759E40E94468ABC
:1059F0005B016C01C401B301A20191010E94CB09BA
:105A000089819A81AB81BC81809332039093330367
:105A1000A0933403B09335030E9411839B01AC0122
:105A20008091360390913703A0913803B0913903E8
:105A300079018A01E81AF90A0A0B1B0BD801C70180
:105A4000805A9648A140B04008F0AFC279DC90DAA5
:105A50000E940E1180918305882309F074C2809101
:105A6000E302882309F020C3A4960FB6F894DEBFA2
:105A70000FBECDBFCF91DF911F910F91FF90EF909F
:105A8000DF90CF90BF90AF909F908F907F906F905E
:105A90005F904F903F902F9008956D857E858F8504
:105AA000988920E030E047E853E40E94B68B18164E
:105AB0008CF4609106037091070380910803909124
:105AC000090320E030E044EB52E40E94428A88233C
:105AD0000CF4F1CE6091EC027091ED02882777FD15
