:10000000F4C500000C948B830C94BC830C94ED839A
:1000100017C6000015C6000013C6000011C6000078
:100020000FC600000DC600000BC6000009C6000088
:1000300007C6000005C6000003C6000001C6000098
:10004000FFC50000FDC500000C941E84F9C500002A
:100050000C9416860C94AB86F3C50000F1C5000025
:10006000EFC50000EDC500000C94AE81E9C50000AD
:100070000C9452860C94DF86E3C50000E1C50000B5
:10008000DFC50000DDC50000DBC50000084AD73B26
:100090003BCE016E84BCBFFDC12F3D6C74319ABD57
:1000A00056833DDA3D00C77F11BED9E4BB4C3E917B
:1000B0006BAAAABE000000803F4779726F2063617F
:1000C0006C6962726174696F6E206572726F720022
:1000D0002C00522C002C002C00562C002C002C0044
:1000E0004B2C002C41546D6567613132383450001F
:1000F0002C00492C002C002C00532C002C002C0030
:100100002C00502C005743002C002C002C0056656E
:100110006C6F6369747920284C292C2056656C6FAC
:1001200063697479202852292C20537065656420F6
:1001300076616C756520284C292C205370656564A8
:100140002076616C7565202852290043616C6962D4
:10015000726174696F6E206F6620746865206D6FC0
:10016000746F727320697320646F6E6500546865E4
:1001700020646966666572656E6365206973206ECA
:100180006F773A20004E6F7720746865206D6F742A
:100190006F72732077696C6C207370696E20757054
:1001A00020616761696E2E204E6F7720746865202C
:1001B00073706565642076616C7565732073686F14
:1001C000756C6420626520616C6D6F73742065715D
:1001D00075616C2E2053656E6420616E79206368B2
:1001E0006172616374657220746F20657869740D43
:1001F0000A002C00546865206D6F746F7220736361
:10020000616C61727320617265206E6F7720284C7B
:100210002F52293A20002C000D0A54686520737073
:100220006565642076616C75657320617265202850
:100230004C2F52293A2000457374696D6174696EC0
:1002400067206D696E696D756D2073746172746974
:100250006E672076616C75652E205768656E207418
:1002600068652066697273742074776F2076616C9C
:1002700075657320646F206E6F74206368616E67AC
:100280006520616E796D6F72652C207468656E20D3
:1002900073656E6420616E79206368617261637456
:1002A000657220746F20636F6E74696E75650D0AD8
:1002B000005075742074686520726F626F742073CB
:1002C0006F2074686520776865656C732063616E64
:1002D000206D6F766520667265656C7920616E644D
:1002E000207468656E2073656E6420616E7920638A
:1002F000686172616374657220746F2073746172D7
:100300007420746865206D6F746F722063616C690E
:1003100062726174696F6E20726F7574696E6500C8
:1003200043616C6962726174696F6E206F662074DC
:10033000686520616363656C65726F6D6574657275
:1003400020697320646F6E65002C004E6577207AFB
:1003500065726F2076616C75657320286727732935
:100360003A2000416363656C65726F6D65746572F8
:100370002063616C6962726174696F6E206572726C
:100380006F7200506C6561736520707574207468BD
:100390006520726F626F7420706572666563746C3D
:1003A0007920686F72697A6F6E74616C206F6E204D
:1003B000697473207369646520616E642074686574
:1003C0006E2073656E6420616E792063686172616E
:1003D0006374657220746F20737461727420746822
:1003E000652063616C6962726174696F6E20726FFF
:1003F0007574696E65000D0A3D3D3D3D3D3D3D3DD9
:100400003D3D3D3D3D3D3D3D3D3D3D3D3D3D3D3D1C
:100410003D3D3D3D3D3D3D3D3D3D3D3D3D3D3D3D0C
:100420003D3D3D3D3D3D3D3D3D3D3D3D3D3D3D3DFC
:100430003D3D3D3D3D3D3D3D3D3D3D3D3D3D3D3DEC
:100440003D3D3D3D3D3D3D3D3D3D3D3D3D3D3D3DDC
:100450003D3D0D0A0043523B090909095265737479
:100460006F72652064656661756C742045455052F5
:100470004F4D2076616C7565730043573B09090940
:1004800009537461727420706172696E67207365BC
:100490007175656E63652077697468205769696D49
:1004A0006F746500434D2C70697463682C726F6CB7
:1004B0006C3B090909537465657220726F626F7431
:1004C000207573696E6720706974636820616E645B
:1004D00020726F6C6C00434A2C782C793B09090917
:1004E00009537465657220726F626F742075736949
:1004F0006E6720782C792D636F6F7264696E6174FA
:1005000065730043533B0909090953656E64207301
:10051000746F7020636F6D6D616E640052533B09A0
:1005200009090953746F702073656E64696E6720E2
:100530007265706F72742076616C7565730D0A0058
:1005400052423B0909090953746172742073656E44
:1005500064696E67207265706F72742076616C7565
:1005600065730049533B0909090953746F7020737F
:10057000656E64696E6720494D552076616C7565BE
:10058000730049423B09090909537461727420736D
:10059000656E64696E6720494D552076616C75659E
:1005A000730053422C76616C75653B0909095573DC
:1005B000656420746F2073657420746865206261BF
:1005C000636B20746F2073706F742076616C756537
:1005D000202874727565203D20312C2066616C7373
:1005E00065203D2030290D0A0053552C76616C752D
:1005F000653B0909095573656420746F2073657440
:1006000020746865206D6178696D756D20747572F0
:100610006E696E672076616C75650053412C616E62
:10062000676C653B0909095573656420746F207315
:10063000657420746865206D6178696D756D2063DF
:100640006F6E74726F6C6C696E6720616E676C653B
:1006500000534B2C51616E676C652C51626961735C
:100660002C526D6561737572653B09557365642025
:10067000746F2073657420746865204B616C6D61C4
:100680006E2066696C7465722076616C75657300A6
:1006900053542C746172676574416E676C653B09D5
:1006A00009095573656420746F207365742074683C
:1006B000652074617267657420616E676C650053B4
:1006C000442C4B643B090909095573656420746F18
:1006D0002073657420746865204B642076616C75A6
:1006E000650053492C4B693B090909095573656439
:1006F00020746F2073657420746865204B692076C0
:10070000616C75650053502C4B703B090909095504
:1007100073656420746F2073657420746865204B62
:10072000702076616C75650047493B0909090947E6
:10073000657420696E666F2076616C7565730D0A4D
:100740000047533B090909094765742073657474B0
:10075000696E67732076616C75657300474B3B0962
:10076000090909476574204B616C6D616E206669EB
:100770006C7465722076616C7565730047503B0937
:10078000090909476574205049442076616C7565F4
:1007900073004D433B0909090953656E6420746F6A
:1007A0002063616C69627261746520746865206D94
:1007B0006F746F72730D0A0041433B0909090953B5
:1007C000656E6420746F2063616C69627261746528
:1007D0002074686520616363656C65726F6D657414
:1007E000657200413B0909090953656E6420746F05
:1007F0002061626F72742E2053656E642027432738
:1008000020616761696E20746F20636F6E74696E1A
:1008100075650D0A000D0A3D3D3D3D3D3D3D3D3DAB
:100820003D3D3D3D3D3D3D3D3D3D3D3D3D3D3D3DF8
:100830003D3D3D3D3D3D3D3D3D3D3D3D3D3D3D3DE8
:100840003D204D656E75203D3D3D3D3D3D3D3D3D71
:100850003D3D3D3D3D3D3D3D3D3D3D3D3D3D3D3DC8
:100860003D3D3D3D3D3D3D3D3D3D3D3D3D3D3D3DB8
:100870003D0D0A00693263526561642074696D65DB
:100880006F75740069326352656164206661696CDA
:1008900065643A2000693263577269746520666145
:1008A000696C65643A2000555342206661696C00AA
:1008B0004572726F722072656164696E672073653C
:1008C0006E736F72004F534320646964206E6F74BF
:1008D0002073746172740001020408090A0C0D0E81
:1008E0000F00000000000000000000FF2710003291
:1008F000FF27100032FF27100032FF2710003200C0
:1009000000000000000000000000000000000000E7
:10091000001718191A000000001B1C1D1E1F2021A3
:100920002200000F10000000200000004000000026
:10093000800000000100000008000000020000002C
:10094000040000000001000000020000000400009C
:10095000000800000010000000200000004000001F
:1009600000800000000001000000080000001000EE
:100970000091E3720796E4750E9FED7C0998EA7B7F
:100980001C8DFF6E1B8AF8691283F1601584F6676F
:1009900038A9DB4A3FAEDC4D36A7D54431A0D2435F
:1009A00024B5C75623B2C0512ABBC9582DBCCE5F4F
:1009B00070E1930277E694057EEF9D0C79E89A0B3F
:1009C0006CFD8F1E6BFA881962F3811065F486172F
:1009D00048D9AB3A4FDEAC3D46D7A53441D0A2331F
:1009E00054C5B72653C2B0215ACBB9285DCCBE2F0F
:1009F000E0710392E7760495EE7F0D9CE9780A9BFF
:100A0000FC6D1F8EFB6A1889F2631180F5641687EE
:100A1000D8493BAADF4E3CADD64735A4D14032A3DE
:100A2000C45527B6C35220B1CA5B29B8CD5C2EBFCE
:100A3000900173E2970674E59E0F7DEC99087AEBBE
:100A40008C1D6FFE8B1A68F9821361F0851466F7AE
:100A5000A8394BDAAF3E4CDDA63745D4A13042D39E
:100A6000B42557C6B32250C1BA2B59C8BD2C5ECF8E
:100A700000010000800000004000000000020000B3
:100A8000000000000400000000000200000001005F
:100A9000100000000800000000000000000000003E
:100AA00000400000001000000008000000200000CE
:100AB0002000000002000000008000000004000090
:100AC0000800000002000000040000000100000017
:100AD0000000000010000000000100000002000003
:100AE0000010000000800000000001000000020073
:100AF00000040000000800001020408090A0C0D03A
:100B0000E0F00203040501000100080002000400F7
:100B100020001000400080000000000100020020C2
:100B200000100040008000040008000000210024A4
:100B30000027002A0000002200250028002B0000CA
:100B400000200023002600290004040204040202FD
:100B5000010101010101030304040404030303036D
:100B60000303020202020201010102044080081094
:100B700001020408102002010408102004081020BB
:100B800040800102204080408000000007060102F2
:100B9000000000000000000000000403000000004E
:100BA000000000000000000000494E46494E495434
:100BB000594E414ECDCCCC3D0AD7233C17B7D13846
:100BC00077CC2B329595E6241FB14F0A00002041C7
:100BD0000000C84200401C4620BCBE4CCA1B0E5A36
:100BE000AEC59D74EC0F5780178811241FBECFEF40
:100BF000D0E4DEBFCDBF12E0A0E0B1E0E8E1FDE16E
:100C000001E00BBF02C007900D92AA3CB107D9F7D3
:100C10001BBE1BE0AAECB2E001C01D92A432B107DA
:100C2000E1F71BE0CAEEDBE004C02297FE010E9460
:100C3000448EC43ED107C9F70E942F8B0C948A8E34
:100C4000DFC96627772768C0FC0188279927E894C1
:100C500021912032E9F3293010F02E30C8F32B32E5
:100C600039F02D3231F4689403C04ED0820F911DBB
:100C7000219120532A30C8F31EF4909581959F4FFF
:100C800008954AEC52E00EC0FB01DC014150504097
:100C900030F08D910190801919F40020B9F7881B6C
:100CA000990B0895009731F4DA018D919C9100978A
:100CB00009F40EC0DC01FB013D912191222319F0C2
:100CC0003217C9F3FACF332331F4DA011D921C92A3
:100CD0008827992708951197AF93BF93FB013D9102
:100CE0002191321771F4332321F488279927119722
:100CF00002C01E921196FA01A193B0839F918F9129
:100D00000895222369F7EACF7AE0979F902D879F75
:100D1000802D910D11240895A0E0B0E0E2E9F6E005
:100D20000C94598EEC015B016115710519F0FB0102
:100D300091838083F9908F2D90E00E94488E892BBB
:100D4000C9F7FDE2FF1621F4F990EE24E39405C003
:100D50002BE2F21609F4F990EE248E0101501040B6
:100D6000C80169EA7BE043E050E033D1892BF9F414
:100D70008E010E5F1F4FC8016CEA7BE045E050E03A
:100D800028D1892B19F48E01095F1F4FA114B104DA
:100D900019F0F50111830083E0FC04C070E090E0DD
:100DA00080E813C070E090E080E86FEF07C1C801F1
:100DB00061EB7BE043E050E00CD1892B69F4A11496
:100DC000B10429F470E090E080EC6FE7F7C0229660
:100DD000F501D183C083F6CF8824992440E050E008
:100DE00060E070E0EF2DE053EA30A0F5F2E0EF2A8A
:100DF0008E2D90E09C0128703070E2FE06C0232BFF
:100E000079F50894811C911C2BC0232B19F00894B0
:100E100081089108DB01CA0112E0880F991FAA1FFF
:100E2000BB1F1A95D1F7480F591F6A1F7B1F440F2C
:100E3000551F661F771F4E0F511D611D711D4839CB
:100E400029E9520729E9620729E1720748F084E09D
:100E5000E82A06C0EE3F31F4E3FC39C098E0E92A05
:100E6000F990C0CFE53311F0E53189F529912D32A4
:100E700019F4E0E1EE2A05C02B3219F081E090E090
:100E800003C0299182E090E0E22FE053EA3018F0AD
:100E9000C81BD90B1CC020E030E0FCE020383F0725
:100EA0005CF4C901880F991F880F991F280F391FFB
:100EB000220F331F2E0F311DE991E053EA3068F302
:100EC000E4FE03C0309521953F4F820E931ECE2C39
:100ED000DD24E1FE07C0A114B10421F02197F50142
:100EE000D183C083CB01BA010E94A18C7B018C010C
:100EF000F3E0CF22DD2423E0C216D10421F417FB56
:100F0000109517F9109557016801C801B70120E045
:100F100030E040E050E00E94048C882309F44AC08D
:100F200097FE0DC028ECE22E2BE0F22E90948194D7
:100F300091089394C0E2D0E000E010E012C090EE7F
:100F4000E92E9BE0F92EF6CFF701259135914591D9
:100F50005491C601B5010E94838D5B016C018C1A0E
:100F60009D0A8C169D0684F7D595C7950F5F1F4F78
:100F70000630110529F08CEF9FEFE80EF91EF1CF36
:100F8000C501D6017C018D018C2D880F8D2D881F08
:100F90008F3F51F0C601B50120E030E040E050E065
:100FA0000E94048C882331F482E290E09093230B1A
:100FB0008093220B7E2D9F2D802F612F272F392F7D
:100FC000482F562FB901CA01CDB7DEB7ECE00C941B
:100FD000758EFB01DC014150504088F08D918134C9
:100FE0001CF08B350CF4805E659161341CF06B3520
:100FF0000CF4605E861B611171F3990B0895881BD8
:10100000FCCF2F923F924F925F926F927F928F927E
:101010009F92AF92BF92CF92DF92EF92FF920F9387
:101020001F93DF93CF9300D000D0CDB7DEB71B0165
:101030002C0139014A01A982BA82CB82DC82CA0121
:10104000B901A80197010E94048C88230CF057C0B5
:10105000C201B101A40193010E943D8B5B016C01AF
:10106000C801B701A40193010E943D8B7B018C0153
:10107000698D7A8D8B8D9C8D29813A814B815C8124
:101080000E943D8B9B01AC01C801B7010E94088CF6
:101090009B01AC01C601B5010E94088C7B018C014B
:1010A000298D3A8D4B8D5C8D0E94788D1816A4F198
:1010B000C801B70129813A814B815C810E94048C6F
:1010C000882324F4E980FA800B811C81B701C801D0
:1010D0000F900F900F900F90CF91DF911F910F9174
:1010E000FF90EF90DF90CF90BF90AF909F908F9048
:1010F0007F906F905F904F903F902F900895C40124
:10110000B301A20191010E943D8B5B016C01C401FE
:10111000B301A8019701A8CFE98CFA8C0B8D1C8D27
:10112000D5CFF999FECFE8EDF8E021E030E0F9996C
:10113000FECF32BD21BDF89A80B580832F5F3F4F2F
:1011400089E0E630F80711F03196F1CF8091EB0895
:101150009091EC08A091ED08B091EE088093940373
:1011600090939503A0939603B09397038091EF0813
:101170009091F008A091F108B091F2088093980343
:1011800090939903A0939A03B0939B038091F308E3
:101190009091F408A091F508B091F60880939C0313
:1011A00090939D03A0939E03B0939F030895F99994
:1011B000FECFE8EDF8E021E030E0F999FECF32BD56
:1011C00021BDF89A80B59081891759F0F999FECF21
:1011D0001FBA32BD21BD90BD0FB6F894FA9AF99AA4
:1011E0000FBE2F5F3F4F89E0E630F80711F03196D0
:1011F000E4CF8091EB089091EC08A091ED08B091BC
:10120000EE088093940390939503A0939603B09374
:1012100097038091EF089091F008A091F108B091A8
:10122000F2088093980390939903A0939A03B09344
:101230009B038091F3089091F408A091F508B09178
:10124000F60880939C0390939D03A0939E03B09314
:101250009F03089580E090E0A0E2B1E48093D80875
:101260009093D908A093DA08B093DB0880E090E06F
:10127000A0E0B0E48093DC089093DD08A093DE0842
:10128000B093DF0880E090E0A0E4B0E48093E00851
:101290009093E108A093E208B093E30880E090E027
:1012A000A4E3B3E48093E4089093E508A093E608F0
:1012B000B093E70881E08093E80888E08093E9082C
:1012C00089E18093EA088FE692E1A3E8BAE380938C
:1012D000EB089093EC08A093ED08B093EE0886EA33
:1012E0009BE9A4E4BBE38093EF089093F008A093FC
:1012F000F108B093F2088FE892ECA5EFBCE380937D
:10130000F3089093F408A093F508B093F60880E0F2
:1013100090E0A0E0B0E08093FB089093FC08A093DD
:10132000FD08B093FE088093F7089093F808A09307
:10133000F908B093FA0880E090E0A0E8BFE380935A
:10134000030990930409A0930509B09306098093BB
:10135000FF0890930009A0930109B093020927CFD9
:10136000DF93CF930F92CDB7DEB7F999FECFF999FE
:10137000FECF12BC11BCF89A80B58130E1F08983B0
:1013800069DFF999FECFF999FECF12BC11BCF89A2A
:1013900080B5813061F0F999FECF1FBA12BC11BC43
:1013A00081E080BD0FB6F894FA9AF99A0FBE0F90BB
:1013B000CF91DF91089580E0FACFCF92DF92EF9244
:1013C000FF920F931F93CF93DF936C01EB01790191
:1013D0008A01CA01B90120E030E048EC52E40E94E1
:1013E000788D181654F40F2EF0E0EF2EF0E0FF2E5B
:1013F000F8EC0F2FF2E41F2FF02DC801B70120E009
:1014000030E04AE753E40E94838D20E030E048EC6E
:1014100052E40E94088C0E94758C26E0C216D1040A
:10142000C9F027E0C216D10449F0DF91CF911F9196
:101430000F91FF90EF90DF90CF90089570938B0005
:1014400060938A00C430D10589F0259771F72898F8
:10145000299AEBCF7093890060938800C430D1053E
:1014600041F0259711F7469A4798DFCF289A299897
:10147000DCCF4698479AD9CF2F923F924F925F92F6
:101480006F927F928F929F92AF92BF92CF92DF9294
:10149000EF92FF920F931F93DF93CF93CDB7DEB7F9
:1014A00028970FB6F894DEBF0FBECDBF1B012C01ED
:1014B00039014A01E982FA820B831C83AD82BE8224
:1014C000CF82D88680914F03882309F420C260918F
:1014D0008C0370918D0380918E0390918F0397FD03
:1014E000DFC2C201B101A40193010E943D8B7B01C7
:1014F0008C01A090E202B090E302C090E402D09090
:10150000E502C801B701A60195010E943D8B3B0190
:101510004C0120E030E040E85FE30E94788D18162F
:101520000CF089C2C601B50120E030E040E85FE37D
:101530000E943E8B7B018C01E092E202F092E3027A
:101540000093E4021093E502C801B701209104035F
:101550003091050340910603509107030E943D8B93
:101560003B014C01609310037093110380931203AD
:10157000909313032091D8083091D9084091DA084C
:101580005091DB080E94838D1B012C016093140392
:10159000709315038093160390931703C401B3014E
:1015A0002D813E814F8158850E94838D20910C03AF
:1015B00030910D0340910E0350910F030E943E8B1A
:1015C0007B018C0120E030E040E85FEB0E94048C5E
:1015D00088230CF444C2C801B70120E030E040E8A1
:1015E0005FE30E94788D181654F40F2EF0E0EF2E72
:1015F000F0E0FF2EF0E80F2FFFE31F2FF02DE09219
:101600000C03F0920D0300930E0310930F036091EF
:10161000DC087091DD088091DE089091DF0820E001
:1016200030E048EC52E40E94838DA80197010E94AB
:10163000838D5B016C016093180370931903809391
:101640001A0390931B036091E0087091E108809168
:10165000E2089091E30820E030E048EC52E40E9478
:10166000088C7B018C01C401B301209108033091E7
:10167000090340910A0350910B030E943D8B9B018B
:10168000AC01C801B7010E94838D2D813E814F813D
:1016900058850E94088C7B018C0160931C03709319
:1016A0001D0380931E0390931F03609208037092A2
:1016B000090380920A0390920B03C201B101A601B3
:1016C00095010E943E8BA80197010E943E8B5B0111
:1016D0006C01609320037093210380932203909305
:1016E000230380915103882309F4C7C060918C03C0
:1016F00070918D0380918E0390918F030E94A38C33
:101700003B014C0120E030E04CE852E40E94088CA0
:101710007B018C0120E030E040E050E00E94788DB9
:1017200018160CF0A7C169817A818B819C81A80170
:1017300097010E943D8B7B018C0120E030E040E06E
:1017400050E00E94048C88230CF49FC1C601B501AF
:10175000A80197010E943D8B609324037093250399
:101760008093260390932703C601B501A801970132
:101770000E943E8B609328037093290380932A0371
:1017800090932B036091240370912503809126038D
:10179000909127032091FF083091000940910109A1
:1017A000509102090E94838D7B018C016093240378
:1017B0007093250380932603909327036091280359
:1017C0007091290380912A0390912B0320910309A2
:1017D0003091040940910509509106090E94838DBA
:1017E000609328037093290380932A0390932B031B
:1017F000C801B70120E030E040E050E00E94788D61
:1018000088230CF410C186E090E064E070E0A80149
:101810009701D3DDE0902803F090290300912A037B
:1018200010912B03C801B70120E030E040E050E008
:101830000E94788D88230CF4EEC087E090E064E08D
:1018400070E0A8019701B9DD28960FB6F894DEBFC5
:101850000FBECDBFCF91DF911F910F91FF90EF9001
:10186000DF90CF90BF90AF909F908F907F906F90C0
:101870005F904F903F902F9008958091520388235E
:1018800009F4B8C060918C0370918D0380918E0330
:1018900090918F030E94A38C3B014C0120E030E02B
:1018A0004CE852E40E94088C7B018C0120E030E07F
:1018B00040E050E00E94788D18160CF010C169814C
:1018C0007A818B819C81A80197010E943D8B7B01CD
:1018D0008C0120E030E040E050E00E94048C88233E
:1018E0000CF4F2C0C601B501A80197010E943E8B1D
:1018F000609324037093250380932603909327031A
:10190000C601B501A80197010E943D8B33CF80919C
:101910005003882321F160918C0370918D03809195
:101920008E0390918F03161617061806190684F475
:101930000E94A38C20E030E04CE852EC0E94088C1E
:101940009B01AC01C401B3010E943E8B3B014C01E1
:10195000C201B101A40193010E943E8BC8CD8091C8
:10196000E501882309F4ADC08091D4029091D5029D
:10197000A091D602B091D702E090D802F090D9029F
:101980000091DA021091DB02E80EF91E0A1F1B1FFC
:101990008091900390919103A0919203B091930351
:1019A000A8019701281B390B4A0B5B0B8091E808B3
:1019B000882309F49FC0DA01C90157FD15C181349C
:1019C0006FE1960760E0A60760E0B6070CF0F8C08C
:1019D000813AEFE09E07E0E0AE07E0E0BE070CF4DE
:1019E0000BC1CA01B9010E94A38C20E030E048E499
:1019F00054EC94C0A0922403B0922503C092260315
:101A0000D0922703A0922803B0922903C0922A0300
:101A1000D0922B03B7CEA8019701505887E090E0F1
:101A200065E070E010CFA8019701505886E090E083
:101A300065E070E0EECEC401B30120E030E040E8A4
:101A40005FEB0E94048C88230CF076CDC601B501B3
:101A500020E030E040E85FE30E943D8B6BCD0F2E2D
:101A6000F0E0EF2EF0E0FF2EF0E80F2FFFEB1F2F3E
:101A7000F02DC5CDC401B30120E030E04CE852ECBC
:101A80000E94088C7B018C014ECE0F2EF0E0EF2ED1
:101A9000F0E0FF2EF0E00F2FF0E01F2FF02D56CEDC
:101AA0000E94A38C20E030E04CE852E40E94088CB5
:101AB0009B01AC01C401B3010E943E8B3B014C0170
:101AC00010CD8201710115CD0F2EF0E0EF2EF0E068
:101AD000FF2EF0E00F2FF0E01F2FF02D03CFC401F9
:101AE000B30120E030E04CE852EC0E94088C7B010E
:101AF0008C01E5CEDA01C90189519C4FAF4FBF4F30
:101B00008F5C9740A040B04008F063C0CA01B901A3
:101B10000E94A38C20E030E04AEF53EC0E94088C36
:101B20009B01AC01C201B1010E943E8B7B018C0183
:101B300060918C0370918D0380918E0390918F033F
:101B40000E94A38C20E030E040E752EC0E94088C19
:101B50009B01AC01C801B7010E943E8B7B018C0147
:101B60006090E4087090E5088090E6089090E7089F
:101B7000C401B30120E030E040E251E40E943D8B1B
:101B80005B016C01C801B701A60195010E94048C9C
:101B900088239CF0C401B30120E030E040E251E42E
:101BA0000E943E8B5B016C01C801B701A601950143
:101BB0000E94788D18160CF09CCC8601750199CC8A
:101BC000CA01B9010E94A38C20E030E046E154EC48
:101BD000A5CFE0929003F0929103009392031093AB
:101BE000930382017101A4CF88279927DC01821B0E
:101BF000930BA40BB50BE3CE895E9340A040B0409D
:101C00000CF484CFCA01B9010E94A38C20E030E01B
:101C10004AE754EC83CF8630910561F0079709F0CD
:101C200008958AEF90E090938B0080938A00289A21
:101C3000299A08958AEF90E0909389008093880014
:101C4000469A479A089586E090E0E5DF87E090E0C5
:101C5000E2DF80E090E0A0E0B0E0809308039093A2
:101C60000903A0930A03B0930B0380930C03909392
:101C70000D03A0930E03B0930F032091D402309173
:101C8000D5024091D6025091D7028091D80290910E
:101C9000D902A091DA02B091DB02820F931FA41F38
:101CA000B51F8093900390939103A0939203B093F8
:101CB00093038091E4089091E508A091E608B09123
:101CC000E7088093E2029093E302A093E402B093CA
:101CD000E502089599B180B196959695829586957D
:101CE00086958370982790FF14C08091D4029091BC
:101CF000D502A091D602B091D7020196A11DB11DC7
:101D00008093D4029093D502A093D602B093D702C9
:101D100008958091D4029091D502A091D602B091FD
:101D2000D7020197A109B109EBCF89B190B186958E
:101D30008695869580958170991F9927991F891797
:101D4000A1F08091D8029091D902A091DA02B091CD
:101D5000DB020196A11DB11D8093D8029093D90298
:101D6000A093DA02B093DB0208958091D80290919B
:101D7000D902A091DA02B091DB020197A109B10961
:101D8000EBCFFC01A081B1819D0171E0761778F461
:101D9000828193818A179B0734F4DC01C9017F5F3C
:101DA00032969C01F3CF28173907CCF3F7CF80E0A8
:101DB0002A1B3B0B241735070CF481E00895439848
:101DC00088EF8EBD0DB407FEFDCF1EBC0DB407FE1F
:101DD000FDCF439A8EB5807C8034E9F0813428F0C1
:101DE0008038A9F1803C99F00895882309F04BC010
:101DF00043988AED8EBD0DB407FEFDCF81ED8EBDFB
:101E00000DB407FEFDCF439A10920709089581E0B3
:101E1000809307090895439888ED8EBD0DB407FEA1
:101E2000FDCF1EBC0DB407FEFDCF439A0EB401FCDE
:101E300037C043988AED8EBD0DB407FEFDCF8BEC05
:101E40008EBD0DB407FEFDCF439A83E0E1CF4398EA
:101E500088ED8EBD0DB407FEFDCF1EBC0DB407FE90
:101E6000FDCF439A0EB401FC0FC043988AED8EBD9E
:101E70000DB407FEFDCF89EC8EBD0DB407FEFDCF7E
:101E8000439A82E0C5CF089543988AED8EBD0DB484
:101E900007FEFDCF8BEC8EBD0DB407FEFDCFD4CF7A
:101EA00043988AED8EBD0DB407FEFDCF89EC8EBD43
:101EB0000DB407FEFDCFE4CFFC0143988AE78EBD49
:101EC0000DB407FEFDCF80E28EBD0DB407FEFDCF41
:101ED000439A43988AE78EBD0DB407FEFDCF1EBC22
:101EE0000DB407FEFDCF439A20E030E061E070E0E2
:101EF00088E6AB01421B530B2150304009F467C008
:101F000043988EBD0DB407FEFDCF1EBC0DB407FE79
:101F1000FDCF439A0EB400FEECCF43988AE88EBD05
:101F20000DB407FEFDCF88E18EBD0DB407FEFDCFD9
:101F3000439A43988AED8EBD0DB407FEFDCF81EC28
:101F40008EBD0DB407FEFDCF439A439882ED8EBD42
:101F50000DB407FEFDCF80E68EBD0DB407FEFDCFAC
:101F6000439A43988AEE8EBD0DB407FEFDCF84E000
:101F70008EBD0DB407FEFDCF439A88EE43988EBD0B
:101F80000DB407FEFDCF1EBC0DB407FEFDCF439A76
:101F90000EB402FEF3CFCF0112DF43988AEC8EBD60
:101FA0000DB407FEFDCF80E28EBD0DB407FEFDCF60
:101FB000439A439882E88EBD0DB407FEFDCF81E0C1
:101FC0008EBD0DB407FEFDCF439A80E00895452BEA
:101FD00009F0A3CF8FEF08954F925F926F927F9297
:101FE0008F929F92AF92BF92CF92DF92EF92FF9229
:101FF0000F931F938FE692E1A3E8BAE380939403D3
:1020000090939503A0939603B093970386EA9BE978
:10201000A4E4BBE38093980390939903A0939A035D
:10202000B0939B038FE892ECA5EFBCE380939C03F5
:1020300090939D03A0939E03B0939F0380E090E054
:10204000A0E0B0E08093A4039093A503A093A6031F
:10205000B093A7038093AC039093AD03A093AE031A
:10206000B093AF038093B0039093B103A093B203F6
:10207000B093B3038093B4039093B503A093B603D6
:10208000B093B7038093B8039093B903A093BA03B6
:10209000B093BB031CEC812E13E0912EC4010E946F
:1020A0008154B0E14B2EB1E05B2E83E494E0B401A7
:1020B00040E051E092010BE111E0A6E3EA2EA1E03D
:1020C000FA2EFCE3CF2EF1E0DF2EE8E8AE2EE1E0C1
:1020D000BE2E0E94917782E694E0B4010E94537272
:1020E00081E195E0B4010E94BF7B82E2682E85E029
:1020F000782EC301B4010E94393288E196E0B30121
:10210000A2012DE831E00E94504A8CE597E0B3012E
:1021100040E020E000E0EE24CC24AA240E946342A8
:102120008EE498E0B30140E00E94F65F1F910F91AA
:10213000FF90EF90DF90CF90BF90AF909F908F90E7
:102140007F906F905F904F9008950F931F930EEDC7
:1021500019E0C80165E178E00E942689C80163EEB4
:1021600077E00E942689C80168EB77E00E94268903
:10217000C80162E977E00E942689C8016CE777E030
:102180000E942689C8016CE577E00E942689C80173
:1021900061E477E00E942689C80168E277E00E9446
:1021A0002689C80165E077E00E942689C80162EEB1
:1021B00076E00E942689C8016FEB76E00E942689AE
:1021C000C80160E976E00E942689C80161E576E0F1
:1021D0000E942689C8016BE176E00E942689C80129
:1021E00069EE75E00E942689C80162EA75E00E94E6
:1021F0002689C80162E875E00E942689C80163E665
:1022000075E00E942689C80160E475E00E94268975
:10221000C8016CE175E00E942689C80163E075E0A1
:102220000E942689C80166ED74E00E942689C801D3
:1022300064EA74E00E942689C8016AE774E00E949B
:102240002689C80165E574E00E942689C80166EF09
:1022500073E00E9426891F910F910895CF93DF9319
:1022600080912606882329F080917A03882309F03B
:102270006CC0CEEDD9E08091D102882309F068C00E
:102280008091D002882309F06DC08091CD0288230F
:1022900009F0B3C08091CE02882309F00CC180916F
:1022A000D202882309F0D0C08091CC02882309F0A3
:1022B0001FC18091CF02882309F451C00E94668417
:1022C00020913C0330913D0340913E0350913F03E8
:1022D000621B730B840B950B655F714080409040CF
:1022E000F0F10E94668460933C0370933D038093F9
:1022F0003E0390933F03CE0162ED70E00E94E388BD
:102300004091DC025091DD026091DE027091DF02AB
:10231000CE0122E030E00E940B8BCE0160ED70E038
:102320000E94E38860913C0370913D0380913E03DD
:1023300090913F030E94A18C20E030E64AE657E4EA
:102340000E94088CAB01BC0152C0CAE1D6E093CF19
:102350001092D102CE0165E071E00E942689DF91E2
:10236000CF9108951092D002CE0162E071E00E94F8
:10237000E3884091D8085091D9086091DA087091AB
:10238000DB08CE0122E030E00E940B8BCE0160E042
:1023900071E00E94E3884091DC085091DD08609173
:1023A000DE087091DF08CE0122E030E00E940B8B46
:1023B000CE016EEF70E00E94E3884091E0085091FA
:1023C000E1086091E2087091E308CE0122E030E07C
:1023D0000E940B8BCE016CEF70E00E94E38840916D
:1023E000E4085091E5086091E6087091E708CE0195
:1023F00022E030E00E940D8BB2CF1092CD02CE01D0
:1024000069EF70E00E94E388CE016091E8084AE03D
:1024100050E00E94C489CE0167EF70E00E94E3881B
:10242000CE016091E9084AE050E00E94C489CE01E3
:1024300065EF70E00E94E388CE016091EA084AE00F
:1024400050E00E94D5898BCF1092D202CE0160EE6F
:1024500070E00E94E388409194035091950360914D
:10246000960370919703CE0124E030E00E940B8B1D
:10247000CE016EED70E00E94E38840919803509188
:10248000990360919A0370919B03CE0124E030E0A0
:102490000E940B8BCE016CED70E00E94E3884091AE
:1024A0009C0350919D0360919E0370919F03CE0108
:1024B00024E030E09FCF1092CE02CE0162EF70E0B8
:1024C0000E94E3886091E3017091E401CE010E94D3
:1024D0002F8ACE0160EF70E00E94E388CE0161E0B8
:1024E0004AE050E00E94C489CE0163EE70E035CF2F
:1024F0000E946684209138033091390340913A0359
:1025000050913B03621B730B840B950B6333710576
:102510008105910508F4CDCE0E946684609338034E
:102520007093390380933A0390933B03CE0169ED96
:1025300070E00E94E3884091F8025091F9026091A6
:10254000FA027091FB02CE0122E030E00E940B8B78
:10255000CE0167ED70E00E94E38840910003509146
:1025600001036091020370910303CE0122E030E089
:102570000E940B8BCE0165ED70E00E94E3884091D4
:1025800004035091050360910603709107032FCF58
:102590002F923F924F925F926F927F928F929F9273
:1025A000AF92BF92CF92DF92EF92FF920F931F9361
:1025B000DF93CF93CDB7DEB760970FB6F894DEBF49
:1025C0000FBECDBF1C012B0129873A874B875C8743
:1025D000ED86FE860F87188BA090D402B090D502AE
:1025E000C090D602D090D7026090D8027090D902E5
:1025F0008090DA029090DB028EED99E06EE071E05F
:102600000E9426893AC0D1016D917D918D919C9156
:102610002DEC3CEC4CEC5DE30E943E8BF1016083C1
:10262000718382839383D601C50189539F4FAF4F36
:10263000BF4F8F589140A040B04008F0CAC0D201AF
:102640006D917D918D919C912DEC3CEC4CEC5DE37A
:102650000E943E8BF201608371838283938364E6E0
:1026600070E080E090E00E94DE8469807A808B8058
:102670009C80AD80BE80CF80D8848EED99E00E9492
:10268000AC878F5F9F4F09F0CAC069857A858B85BB
:102690009C85D1012D913D914D915C910E94838D3E
:1026A0009B01AC0186E090E064E070E00E94DD09EF
:1026B0006D857E858F859889F201208131814281E7
:1026C00053810E94838D9B01AC0187E090E064E020
:1026D00070E00E94DD098091D4029091D502A09112
:1026E000D602B091D7028D839E83AF83B8877C01D9
:1026F0008D01EA18FB080C091D098091D802909100
:10270000D902A091DA02B091DB0289839A83AB836C
:10271000BC835C016D01A618B708C808D9088EED06
:1027200099E0B801A7012AE030E00E94F1898EED1E
:1027300099E06CE071E00E94E3888EED99E0B601CB
:10274000A5012AE030E00E94F1898EED99E06AE06F
:1027500071E00E94E388D1014D915D916D917C9172
:102760008EED99E022E030E00E940B8B8EED99E037
:1027700068E071E00E94E388F2014081518162814A
:1027800073818EED99E022E030E00E940D8BD8013C
:10279000C70189539F4FAF4FBF4F8F589140A04003
:1027A000B04008F430CFB801A70117FD28C04C3C59
:1027B0005105610571050CF436CFD1016D917D9104
:1027C0008D919C912DEC3CEC4CEC5DE30E943D8B9B
:1027D00025CFB601A501D7FC1AC04C3C51056105B7
:1027E00071050CF43CCFD2016D917D918D919C913E
:1027F0002DEC3CEC4CEC5DE30E943D8B2BCF7095B7
:102800006095509541955F4F6F4F7F4FD0CF70953A
:102810006095509541955F4F6F4F7F4FDECFD1014F
:10282000ED90FD900D911C9120C086E090E064E059
:1028300070E0A80197010E94DD0987E090E064E064
:1028400070E0A80197010E94DD0962E370E080E07A
:1028500090E00E94DE84C801B70120E030E040E84B
:102860005FE30E943D8B7B018C01C801B70120E032
:1028700030E040E050E00E94788D1816B4F286E017
:1028800090E0C9D987E090E0C6D960960FB6F89479
:10289000DEBF0FBECDBFCF91DF911F910F91FF9093
:1028A000EF90DF90CF90BF90AF909F908F907F90F0
:1028B0006F905F904F903F902F9008956F927F920E
:1028C0008F929F92AF92BF92CF92DF92EF92FF9240
:1028D0000F931F93DF93CF93CDB7DEB728970FB633
:1028E000F894DEBF0FBECDBF8EED99E061EB72E0D4
:1028F0000E9426898EED99E00E94AC878F5F9F4FE2
:10290000C9F38EED99E067E372E00E94268960EDDD
:1029100077E080E090E00E94DE8480E090E0A0E23A
:10292000B1E489839A83AB83BC838D839E83AF8319
:10293000B887CE010196BE016B5F7F4F20E030E08B
:1029400040E85FE379018A0123DE8EED99E068E1DA
:1029500072E00E94E38849815A816B817C818EED0F
:1029600099E022E030E00E940B8B8EED99E066E169
:1029700072E00E94E3884D815E816F8178858EEDE3
:1029800099E022E030E00E940D8BA980BA80CB80D4
:10299000DC80ED80FE800F811885C601B501A8019D
:1029A00097010E94788D18160CF0DEC080E090E050
:1029B000A0E8BFE38093FF0890930009A09301096A
:1029C000B0930209C801B701A60195010E94088CC5
:1029D0006093030970930409809305099093060995
:1029E0008EED99E064EF71E00E94E3884091FF086A
:1029F0005091000960910109709102098EED99E0F2
:102A000022E030E00E940B8B8EED99E062EF71E0E6
:102A10000E94E388409103095091040960910509DF
:102A2000709106098EED99E022E030E00E940D8B56
:102A30008EED99E065E871E00E94268960ED77E00F
:102A400080E090E00E94DE8480E090E0A0E2B1E4CB
:102A50008D839E83AF83B88789839A83AB83BC833E
:102A60002091FF083091000940910109509102091D
:102A7000E0900309F09004090091050910910609FE
:102A8000CE010196BE016B5F7F4F82DD99808A8007
:102A90007B806C801D810E81FF80E884692D782DFC
:102AA000872D962D212F302F4F2D5E2D0E94788D52
:102AB00018160CF474C0812F902FAF2DBE2D5C0121
:102AC0006D01692D782D872D962D212F302F4F2DBB
:102AD0005E2D0E94048C87FD67C0812F902FAF2D43
:102AE000BE2D7C018D018EED99E06DE671E00E94B6
:102AF000E388C601B501A80197010E943D8BA6019C
:102B000095010E94088C20E030E048EC52E40E94DD
:102B1000838DAB01BC018EED99E022E030E00E9494
:102B20000B8B8EED99E062E971E00E941E8B0E9492
:102B3000D7088EED99E06BE471E00E942689289613
:102B40000FB6F894DEBF0FBECDBFCF91DF911F91BE
:102B50000F91FF90EF90DF90CF90BF90AF909F903C
:102B60008F907F906F900895C601B501A8019701DD
:102B70000E94088C6093FF087093000980930109FC
:102B80009093020980E090E0A0E8BFE380930309FE
:102B900090930409A0930509B093060921CF892DCC
:102BA000982DA72DB62D8BCF892D982DA72DB62D1D
:102BB00098CFBF92CF92DF92EF92FF920F931F9325
:102BC000CF93DF93182F062FF72EB42E85E599E0CB
:102BD00068E60E941D8085E599E0612F0E949E8035
:102BE00085E599E060E00E94CD80C82E8823C1F57C
:102BF00085E599E068E64B2D21E00E94DF80802F7B
:102C00009F2D9C01E901DD240DC085E599E00E941E
:102C10002780892BE9F185E599E00E94308088833F
:102C2000D3942196DB1448F585E599E00E9427802E
:102C3000892B89F70E9474847B018C010E94748423
:102C40006E197F09800B910B643671058105910522
:102C5000E0F685E599E00E942780892BB1F6EECF5A
:102C60008EED99E064E878E00E94E3888EED99E0CB
:102C70006C2D4AE050E00E94D5898C2DDF91CF91D8
:102C80001F910F91FF90EF90DF90CF90BF9008952C
:102C90008EED99E064E778E00E94268905E0C02E79
:102CA000ECCFAF92BF92CF92DF92EF92FF920F9351
:102CB0001F93DF93CF93CDB7DEB7E2970FB6F894AB
:102CC000DEBF0FBECDBF5E010894A11CB11C650123
:102CD00083E3E82EF12CEC0EFD1E83E460EF72E03E
:102CE00042E067DF8823C9F71091F00200E080918D
:102CF000F10290E0802B912BF601819391936F016B
:102D00006AE070E080E090E00E94DE84CE14DF0490
:102D100021F7CE01019669E140ED57E032D88823D2
:102D2000E1F1E090EC02F090ED020091EE021091E2
:102D3000EF02F501619171915F01882777FD809520
:102D4000982F0E94A38C9B01AC01C801B7010E947F
:102D50003E8B7B018C01AC14BD0459F720E030E0C0
:102D600048EC51E40E94088C6093EC027093ED02F1
:102D70008093EE029093EF02E2960FB6F894DEBFD6
:102D80000FBECDBFCF91DF911F910F91FF90EF90BC
:102D9000DF90CF90BF90AF9008958EED99E069EBF2
:102DA00070E00E94E38885E061E00E94E285FFCF49
:102DB0004F925F926F927F928F929F92AF92BF924B
:102DC000CF92DF92EF92FF920F931F93DF93CF93F7
:102DD000CDB7DEB7C456D0400FB6F894DEBF0FBEF5
:102DE000CDBF8EED99E063E873E00E9426898EEDF9
:102DF00099E00E94AC878F5F9F4FC9F3CC24DD24FC
:102E00005E010894A11CB11C23E3822E912C8C0E30
:102E10009D1E8DE360EF72E044E0CBDE8823C9F7AE
:102E2000F501EC0DFD1DF090F002EE248091F10211
:102E300090E08E299F2991838083F401EC0DFD1D84
:102E40001091F20200E08091F30290E0802B912B30
:102E5000918380836AE070E080E090E00E94DE84ED
:102E600082E090E0C80ED91E92E3C916D10489F61B
:102E7000C50169E148EE53E00E94C10E882359F470
:102E80008EED99E063E673E00E94E38885E061E0FF
:102E90000E94E285FFCFC40169E148EE53E00E9441
:102EA000C10E882369F3A090FB08B090FC08C09085
:102EB000FD08D090FE08E090F708F090F808009127
:102EC000F9081091FA08882499242E010894411CCD
:102ED000511C93E3692E712C6C0E7D1EF201E80DDE
:102EE000F91D60817181882777FD8095982F0E9458
:102EF000A38C9B01AC01C801B7010E943E8B7B01F2
:102F00008C01F301E80DF91D60817181882777FD3F
:102F10008095982F0E94A38C9B01AC01C601B5013E
:102F20000E943E8B5B016C0182E090E0880E991E4E
:102F300092E38916910491F6C801B70120E030E0D0
:102F400048EC51E40E94088C7B018C01C601B5015C
:102F500020E030E048EC51E40E94088C6093FB08CC
:102F60007093FC088093FD089093FE08C801B70198
:102F700020E030E040E050E00E94048C88230CF414
:102F800068C0C801B70120E030E040E856E40E9484
:102F90003D8B6093F7087093F8088093F90890933D
:102FA000FA088EED99E06BE473E00E94E38860918B
:102FB000F7087091F8088091F9089091FA0820E0DC
:102FC00030E040E858E30E94838DAB01BC018EEDF8
:102FD00099E022E030E00E940B8B8EED99E069E4ED
:102FE00073E00E94E3886091FB087091FC08809177
:102FF000FD089091FE0820E030E040E858E30E9490
:10300000838DAB01BC018EED99E022E030E00E949F
:103010000D8B0E94D7088EED99E060E273E00E946C
:103020002689CC59DF4F0FB6F894DEBF0FBECDBF57
:10303000CF91DF911F910F91FF90EF90DF90CF9094
:10304000BF90AF909F908F907F906F905F904F90C8
:103050000895C801B70120E030E040E856E40E943E
:103060003E8B97CFDF92EF92FF920F931F93F82E34
:103070008B01E42ED22E85E599E068E60E941D8042
:1030800085E599E06F2D0E949E8085E599E0B80165
:103090004E2D50E00E946E8085E599E06D2D0E94D6
:1030A000CD80082F882369F08EED99E065E978E0FE
:1030B0000E94E3888EED99E0602F4AE050E00E9484
:1030C000D589802F1F910F91FF90EF90DF90089589
:1030D000DF93CF930F92CDB7DEB76983242FBE0164
:1030E0006F5F7F4F41E0BEDF0F90CF91DF9108957A
:1030F0007F928F929F92AF92BF92CF92DF92EF9288
:10310000FF920F931F93CF93DF93EC017724739477
:103110007092830310924F03109250031092E501B6
:1031200010925103109252038930910509F4B0C0F6
:103130008830910509F449C2009709F03AC180919D
:103140005E07882309F4F1C18CE597E061E070E047
:103150000E944043853708F476C48CE597E061E02F
:1031600070E00E9440438A3810F00C94D0208CE527
:1031700097E061E070E00E944043082F8CE597E003
:1031800063E070E00E94404310E0081B1109003129
:1031900011050CF459C38CE597E061E070E00E94E2
:1031A0004043082F8CE597E063E070E00E944043C5
:1031B00010E0081B11091016110614F00C948A2255
:1031C0008CE597E061E070E00E944043E82E8CE5DA
:1031D00097E063E070E00E944043FF24E81AF108A2
:1031E0000027F7FC0095102FC801B7010E94A38C9F
:1031F0007B018C0100D000D08DB69EB60894811C56
:10320000911C6091EA0870E080E090E00E94A18C3F
:10321000F4016083718382839383C801B70120E046
:1032200030E040E050E00F2EF0E0EF2EF0E0FF2E17
:10323000FFE70F2FF3E41F2FF02D59016A010E94C1
:1032400001080F900F900F900F90609358037093A8
:10325000590380935A0390935B0381E08093510359
:10326000C230D10509F448C4C330D10509F436C1D0
:10327000C093D302DF91CF911F910F91FF90EF90F8
:10328000DF90CF90BF90AF909F908F907F900895E8
:10329000E0907F03F09080030091810310918203FE
:1032A000C801B70120E030E040E050E00E94788D96
:1032B00018160CF088C200D000D08DB69EB60894C7
:1032C000811C911C6091E90870E080E090E00E9410
:1032D000A18CF4016083718382839383C801B70159
:1032E00020E030E040E050E00F2EF0E0EF2EF0E084
:1032F000FF2EF0E80F2FFFE31F2FF02D59016A0179
:103300000E9401080F900F900F900F90609354034C
:1033100070935503809356039093570370924F0315
:10332000E0907B03F0907C0300917D0310917E037D
:10333000C801B70120E030E040E050E00E94788D05
:1033400018160CF08DC400D000D08DB69EB608942F
:10335000811C911C6091EA0870E080E090E00E947E
:10336000A18CF4016083718382839383C801B701C8
:1033700020E030E040E050E00F2EF0E0EF2EF0E0F3
:10338000FF2EF0E80F2FFFE31F2FF02D59016A01E8
:103390000E9401080F900F900F900F9060935803B8
:1033A0007093590380935A0390935B0381E0809359
:1033B0005203C130D10509F053CF809153088823BF
:1033C00009F48DC18EE498E061E070E00E94FF6036
:1033D0008959984008F0F0C78EE498E061E070E009
:1033E0000E94FF608850974010F40C9496238EE45E
:1033F00098E063E070E00E94FF608C018EE498E04A
:1034000061E070E00E94FF60081B190B093C110588
:103410000CF44CC58EE498E061E070E00E94FF601F
:103420008C018EE498E063E070E00E94FF60081B6E
:10343000190B1016110614F00C948D248EE498E0EC
:1034400061E070E00E94FF607C018EE498E063E040
:1034500070E00E94FF60E81AF90A0027F7FC009567
:10346000102FC801B7010E94A38C7B018C0100D0F2
:1034700000D08DB69EB60894811C911C6091EA081C
:1034800070E080E090E00E94A18CF4016083718381
:1034900082839383C801B70120E030E040E050E030
:1034A0000F2EF0E0EF2EF0E0FF2EF6E10F2FF5E407
:1034B0001F2FF02D59016A010E9401080F900F90F3
:1034C0000F900F90609358037093590380935A03A1
:1034D00090935B0381E080935103C6CE81E080939B
:1034E000E5018091D302833009F4C2CE2091D40249
:1034F0003091D5024091D6025091D7028091D802E6
:103500009091D902A091DA02B091DB02820F931F51
:10351000A41FB51F8093900390939103A0939203EF
:10352000B093930310925303A3CE8CE597E061E030
:1035300070E00E944043853708F4FFC18CE597E0B6
:1035400061E070E00E9440438A3808F096C78CE53D
:1035500097E060E070E00E944043873308F0C2C308
:103560008CE597E060E070E00E94404300D000D01E
:103570008DB69EB60894811C911C90E0A0E0B0E04E
:10358000BC01CD010E94A18C7B018C016091EA08F5
:1035900070E080E090E00E94A18CF4016083718370
:1035A00082839383C801B70120E030E048E552E40C
:1035B0000F2EF0E0EF2EF0E0FF2EF0E00F2FF0E006
:1035C0001F2FF02D570168013ACEE0907B03F09059
:1035D0007C0300917D0310917E03C801B70120E0B8
:1035E00030E040E050E00E94788D18160CF0EAC1FF
:1035F00000D000D08DB69EB60894811C911C6091BD
:10360000E90870E080E090E00E94A18CF401608302
:10361000718382839383C801B70120E030E040E0EA
:1036200050E00F2EF0E0EF2EF0E0FF2EF0E10F2F34
:10363000F2E41F2FF02D59016A010E9401080F903A
:103640000F900F900F9060935403709355038093E5
:1036500056039093570370924F03E0907F03F090CE
:1036600080030091810310918203C801B70120E01B
:1036700030E040E050E00E94048C88230CF457C7EF
:10368000C801B70120E030E040E050E00E94788DB2
:1036900018160CF08ECE00D000D08DB69EB60894D1
:1036A000811C911C6091EA0870E080E090E00E942B
:1036B000A18CF4016083718382839383C801B70175
:1036C00020E030E040E050E00F2EF0E0EF2EF0E0A0
:1036D000FF2EF4E30F2FF2E41F2FF02D57CE8EE4D0
:1036E00098E06CE070E00E946F60882309F4C8C520
:1036F000E090C408F090C5080091C6081091C70872
:10370000C801B70120E030E044E353E40E94788D23
:1037100018160CF430C7C801B70120E030E044E3CC
:1037200053E40E94048C882314F40C949A24E090AF
:10373000C808F090C9080091CA081091CB08C801C8
:10374000B70120E030E044E353E40E94788D18167E
:103750000CF450C7C801B70120E030E044E353E463
:103760000E94048C88230CF07FCD00D000D08DB651
:103770009EB60894811C911C6091EA0870E080E07C
:1037800090E00E94A18CF401608371838283938313
:10379000C801B70120E030E044E353E40F2EF0E02D
:1037A000EF2EF0E0FF2EF7E00F2FF3E41F2FF02DA8
:1037B0000F2EF0E0AF2EF0E0BF2EF0E0CF2EF0E0C5
:1037C000DF2EF02D79CEC801B70120E030E040E0D7
:1037D00050E00E94048C88230CF0A2CD00D000D0D1
:1037E0008DB69EB60894811C911C6091E90870E02A
:1037F00080E090E00E94A18CF40160837183828359
:103800009383C801B70120E030E040E050E00F2E84
:10381000F0E0EF2EF0E0FF2EF0E80F2FFFEB1F2F70
:10382000F02D59016A010E9401080F900F900F902E
:103830000F906093540370935503809356039093B5
:103840005703709250036CCD8CE597E063E070E015
:103850000E944043082F8CE597E061E070E00E94F1
:10386000404310E0081B1109003111050CF494C30A
:103870008CE597E061E070E00E944043082F8CE502
:1038800097E063E070E00E94404310E0081B1109DC
:10389000101611060CF0E8C48CE597E061E070E0CA
:1038A0000E944043E82E8CE597E063E070E00E94C0
:1038B0004043FF24E81AF1080027F7FC0095102F79
:1038C000C801B7010E94A38C7B018C0100D000D0FD
:1038D0008DB69EB60894811C911C6091EA0870E038
:1038E00080E090E00E94A18CF40160837183828368
:1038F0009383C801B70120E030E040E050E00F2E94
:10390000F0E0EF2EF0E0FF2EFFE70F2FF3E41F2F84
:10391000F02D59016A010E9401080F900F900F903D
:103920000F90609358037093590380935A039093B8
:103930005B0381E08093520393CC8CE597E061E0D8
:1039400070E00E94404300D000D08DB69EB608942F
:10395000811C911C90E0A0E0B0E0BC01CD010E9470
:10396000A18C7B018C016091E90870E080E090E01F
:103970000E94A18CF4016083718382839383C801C8
:10398000B70120E030E048EE52E40F2EF0E0EF2ED9
:10399000F0E0FF2EF0E00F2FF0E01F2FF02D570189
:1039A00068010E9401080F900F900F900F90609394
:1039B000540370935503809356039093570370926A
:1039C0004F03C5CDC801B70120E030E040E050E032
:1039D0000E94048C88230CF040CE00D000D08DB61D
:1039E0009EB60894811C911C6091E90870E080E00B
:1039F00090E00E94A18CF4016083718382839383A1
:103A0000C801B70120E030E040E050E00F2EF0E0C8
:103A1000EF2EF0E0FF2EF0E10F2FF2EC1F2FF02D34
:103A200059016A010E9401080F900F900F900F90AA
:103A300060935403709355038093560390935703F8
:103A4000709250030ACE8CE597E063E070E00E942C
:103A50004043853708F081CB8CE597E061E070E06A
:103A60000E944043E82E8CE597E063E070E00E94FE
:103A7000404300D000D08DB69EB60894811C911CA6
:103A8000FF24E80EF11C0027F7FC0095102FC80159
:103A9000B7010E94A38C7B018C016091E90870E062
:103AA00080E090E00E94A18CF401608371838283A6
:103AB0009383C801B70120E030E048E653E40F2EBD
:103AC000F0E0EF2EF0E0FF2EF0E00F2FF0E01F2FE0
:103AD000F02D570168010E9401080F900F900F9080
:103AE0000F90609354037093550380935603909303
:103AF000570370924F033BCB82E694E061E070E0A5
:103B000040E00E9422738D549D410CF0DEC282E69B
:103B100094E061E070E040E00E942273845B924E8A
:103B20000CF48CC582E694E063E070E040E00E9413
:103B300022737C0182E694E061E070E040E00E9444
:103B400022730027F7FC0095102FAA2797FDA09558
:103B5000BA2FE81AF90A0A0B1B0BFDE4EF16FDE178
:103B6000FF06F0E00F07F0E01F070CF401C182E64A
:103B700094E061E070E040E00E9422737C0182E604
:103B800094E063E070E040E00E9422730027F7FCBD
:103B90000095102FAA2797FDA095BA2FE81AF90AC9
:103BA0000A0B1B0B1E141F04100611060CF0B1C5E6
:103BB00082E694E061E070E040E00E9422737C01C4
:103BC00082E694E063E070E040E00E942273002708
:103BD000F7FC0095102FAA2797FDA095BA2FE81A99
:103BE000F90A0A0B1B0BC801B7010E94A38C7B01C9
:103BF0008C0100D000D08DB69EB60894811C911C1B
:103C00006091EA0870E080E090E00E94A18CF401ED
:103C10006083718382839383C801B70120E030E021
:103C200040E050E00F2EF0E0EF2EFFEFFF2EFFE719
:103C30000F2FF7E41F2FF02D59016A010E94010890
:103C40000F900F900F900F9060935803709359034B
:103C500080935A0390935B0381E08093510308CBD8
:103C6000C801B70120E030E040E050E00E94048C41
:103C700088230CF09ECB00D000D08DB69EB6089461
:103C8000811C911C6091EA0870E080E090E00E9445
:103C9000A18CF4016083718382839383C801B7018F
:103CA00020E030E040E050E00F2EF0E0EF2EF0E0BA
:103CB000FF2EF0E80F2FFFEB1F2FF02D59016A01A7
:103CC0000E9401080F900F900F900F90609358037F
:103CD0007093590380935A0390935B0381E0809320
:103CE000510367CB8CE597E060E070E00E944043B1
:103CF000893C08F4B5CA8CE597E060E070E00E946A
:103D0000404300D000D08DB69EB60894811C911C13
:103D100090E0A0E0B0E0BC01CD010E94A18C7B014D
:103D20008C016091EA0870E080E090E00E94A18C34
:103D3000F4016083718382839383C801B70120E01B
:103D400030E049E453E40F2EF0E0EF2EF0E0FF2ED8
:103D5000FFE70F2FF3E41F2FF02D0F2EF0E0AF2E13
:103D6000F0E0BF2EF0E0CF2EF0E0DF2EF02DD3CD2F
:103D700082E694E061E070E040E00E9422737C0102
:103D800082E694E063E070E040E00E942273002746
:103D9000F7FC0095102FAA2797FDA095BA2FE81AD7
:103DA000F90A0A0B1B0BFDE4EF16FDE1FF06F0E03C
:103DB0000F07F0E01F070CF45BCA82E694E061E0B5
:103DC00070E040E00E9422737C0182E694E063E0B0
:103DD00070E040E00E9422730027F7FC0095102F4E
:103DE000AA2797FDA095BA2FE81AF90A0A0B1B0B10
:103DF0001E141F04100611060CF079C682E694E02A
:103E000061E070E040E00E9422737C0182E694E071
:103E100063E070E040E00E9422730027F7FC009509
:103E2000102FAA2797FDA095BA2FE81AF90A0A0BB6
:103E30001B0BC801B7010E94A38C7B018C0100D031
:103E400000D08DB69EB60894811C911C6091EA0842
:103E500070E080E090E00E94A18CF40160837183A7
:103E600082839383C801B70120E030E040E050E056
:103E70000F2EF0E0EF2EFFEFFF2EFFE70F2FF7E4FE
:103E80001F2FF02D59016A010E9401080F900F9019
:103E90000F900F90609358037093590380935A03C7
:103EA00090935B0381E080935203E2C98EE498E033
:103EB00061E070E00E94FF608C018EE498E063E0B6
:103EC00070E00E94FF60081B190B093C11050CF4FF
:103ED000CBC98EE498E061E070E00E94FF608C0145
:103EE0008EE498E063E070E00E94FF60081B190B0D
:103EF000101611060CF008C68EE498E061E070E040
:103F00000E94FF607C018EE498E063E070E00E9414
:103F1000FF60E81AF90A0027F7FC0095102FC80186
:103F2000B7010E94A38C7B018C0100D000D08DB61C
:103F30009EB60894811C911C6091EA0870E080E0B4
:103F400090E00E94A18CF40160837183828393834B
:103F5000C801B70120E030E040E050E00F2EF0E073
:103F6000EF2EF0E0FF2EF6E10F2FF5E41F2FF02DDE
:103F700059016A010E9401080F900F900F900F9055
:103F8000609358037093590380935A0390935B0393
:103F900081E08093520368C98CE597E06EE070E0A1
:103FA0000E94EA42882309F45BC98CE597E061E04E
:103FB00070E00E94924920E030E044E353E40E9424
:103FC000788D18160CF03DC58CE597E061E070E047
:103FD0000E9492497B018C0100D000D08DB69EB624
:103FE0000894811C911C6091E90870E080E090E0E9
:103FF0000E94A18CF4016083718382839383C80142
:10400000B70120E030E044E353E40F2EF0E0EF2E60
:10401000F0E0FF2EF8E50F2FF3E41F2FF02D0F2E09
:10402000F0E0AF2EF0E0BF2EF0E0CF2EF0E0DF2E7C
:10403000F02D0E9401080F900F900F900F90609349
:10404000540370935503809356039093570381E074
:1040500080934F038CE597E062E070E00E94924904
:1040600020E030E044E353E40E94788D18160CF011
:10407000A1C48CE597E062E070E00E9492497B0168
:104080008C0100D000D08DB69EB60894811C911C86
:104090006091EA0870E080E090E00E94A18CF40159
:1040A0006083718382839383C801B70120E030E08D
:1040B00044E353E40F2EF0E0EF2EF0E0FF2EF1E6A4
:1040C0000F2FF3E41F2FF02D48CE82E694E063E03B
:1040D00070E040E00E9422738D549D410CF417CD96
:1040E00082E694E061E070E040E00E9422737C018F
:1040F00082E694E063E070E040E00E94227300D02A
:1041000000D08DB69EB60894811C911CAA2797FDFD
:10411000A095BA2F0027F7FC0095102F8E0D9F1D3C
:10412000A01FB11FBC01CD010E94A38C7B018C019B
:104130006091E90870E080E090E00E94A18CF401B9
:104140006083718382839383C801B70120E038E6DE
:104150004AE656E40F2EF0E0EF2EFEEFFF2EFFE7CB
:104160000F2FF7E41F2FF02D0F2EF0E0AF2EF0E011
:10417000BF2EF0E0CF2EF0E0DF2EF02D0E940108E0
:104180000F900F900F900F9060935403709355030E
:10419000809356039093570381E080934F03C2CCE2
:1041A0008CE597E063E070E00E9440438A3810F4A9
:1041B0000C94B7188CE597E061E070E00E944043F2
:1041C000E82E8CE597E063E070E00E94404300D069
:1041D00000D08DB69EB60894811C911CFF24E80E79
:1041E000F11C0027F7FC0095102FC801B7010E94B1
:1041F000A38C7B018C016091E90870E080E090E085
:104200000E94A18CF4016083718382839383C8012F
:10421000B70120E030E04AE853E40F2EF0E0EF2E43
:10422000F0E0FF2EFFEF0F2FF3E41F2FF02D0F2EE6
:10423000F0E0AF2EF0E0BF2EF0E0CF2EF0E0DF2E6A
:10424000F02D0E9401080F900F900F900F90609337
:10425000540370935503809356039093570381E062
:10426000809350030C94B7188CE597E063E070E0FE
:104270000E944043E82E8CE597E061E070E017CBA8
:104280008EE498E061E070E00E94E9608A3808F40A
:10429000EDC28EE498E061E070E00E94E96000D039
:1042A00000D08DB69EB60894811C911C90E0A0E0D1
:1042B000B0E0BC01CD010E94A18C7B018C0160911A
:1042C000E90870E080E090E00E94A18CF401608336
:1042D000718382839383C801B70120E030E04AE014
:1042E00053E40F2EF0E0EF2EF0E0FF2EF6E60F2F56
:1042F000F3E41F2FF02D0F2EF0E0AF2EF0E0BF2ED5
:10430000F0E0CF2EF0E0DF2EF02D0E9401080F909C
:104310000F900F900F906093540370935503809308
:1043200056039093570381E080934F038EE498E007
:1043300060E070E00E94E9608A3808F459C28EE4B7
:1043400098E060E070E00E94E96000D000D08DB697
:104350009EB60894811C911C90E0A0E0B0E0BC01E6
:10436000CD010E94A18C7B018C016091EA0870E074
:1043700080E090E00E94A18CF401608371838283CD
:104380009383C801B70120E030E04AE053E40F2EE8
:10439000F0E0EF2EF0E0FF2EF6E60F2FF3E41F2FF4
:1043A000F02D0F2EF0E0AF2EF0E0BF2EF0E0CF2E7C
:1043B000F0E0DF2EF02DDECD8EE498E063E070E0DB
:1043C0000E94FF608959984008F406C88EE498E07E
:1043D00061E070E00E94FF607C018EE498E063E0A1
:1043E00070E00E94FF6000D000D08DB69EB60894A9
:1043F000811C911CE80EF91E00E010E0C801B70115
:104400000E94A18C7B018C016091E90870E080E042
:1044100090E00E94A18CF401608371838283938376
:10442000C801B70120E030E949E855E40F2EF0E07B
:10443000EF2EF0E0FF2EF8EC0F2FF5E41F2FF02DFC
:104440000F2EF0E0AF2EF0E0BF2EF0E0CF2EF0E028
:10445000DF2EF02D0E9401080F900F900F900F900B
:1044600060935403709355038093560390935703BE
:1044700081E080934F030C94F7198CE597E061E09D
:1044800070E00E94404300D000D08DB69EB60894E4
:10449000811C911C90E0A0E0B0E0BC01CD010E9425
:1044A000A18C7B018C016091E90870E080E090E0D4
:1044B0000E94A18CF4016083718382839383C8017D
:1044C000B70120E030E04AE053E40F2EF0E0EF2E99
:1044D000F0E0FF2EFFE70F2FF3E41F2FF02D0F2E3C
:1044E000F0E0AF2EF0E0BF2EF0E0CF2EF0E0DF2EB8
:1044F000F02D0E9401080F900F900F900F90609385
:10450000540370935503809356039093570370920E
:1045100050031DC88CE597E063E070E00E944043C3
:10452000E82E8CE597E061E070E00C94EB1800D089
:1045300000D08DB69EB60894811C911C6091EA084B
:1045400070E080E090E00E94A18CF40160837183B0
:1045500082839383C801B70120E030E040E050E05F
:104560000F2EF0E0EF2EF0E0FF2EF4E30F2FF2EC31
:104570001F2FF02DA3CB00D000D08DB69EB608948F
:10458000811C911C6091E90870E080E090E00E943D
:10459000A18CF4016083718382839383C801B70186
:1045A00020E030E044E353E40F2EF0E0EF2EF0E0A3
:1045B000FF2EF8E50F2FF3E41F2FF02D0F2EF0E064
:1045C000AF2EF0E0BF2EF0E0CF2EF0E0DF2EF02D8A
:1045D0000E9401080F900F900F900F90609354036A
:1045E00070935503809356039093570381E0809313
:1045F0004F039DC800D000D08DB69EB60894811C94
:10460000911C6091EA0870E080E090E00E94A18C2B
:10461000F4016083718382839383C801B70120E032
:1046200030E044E353E40F2EF0E0EF2EF0E0FF2EF5
:10463000F1E60F2FF3E41F2FF02DB3CE82E694E0C6
:1046400063E070E040E00E942273845B924E0CF0C5
:1046500069CA82E694E061E070E040E00E94227363
:104660007C0182E694E063E070E040E00E94227307
:1046700000D000D08DB69EB60894811C911CAA274C
:1046800097FDA095BA2F0027F7FC0095102F8E0DEF
:104690009F1DA01FB11FBC01CD010E94A38C7B01F7
:1046A0008C016091E90870E080E090E00E94A18CAC
:1046B000F4016083718382839383C801B70120E092
:1046C00038E64AE656EC0F2EF0E0EF2EF0E0FF2E33
:1046D000F0E80F2FF7EC1F2FF02D0F2EF0E0AF2E8C
:1046E000F0E0BF2EF0E0CF2EF0E0DF2EF02D0E94A4
:1046F00001080F900F900F900F90609354037093E8
:104700005503809356039093570381E080935003A1
:1047100009CA82E694E063E070E040E00E94227300
:104720007C0182E694E061E070E04ECA8EE498E09D
:1047300063E070E00E94FF608850974010F00C9496
:10474000F7198EE498E061E070E00E94FF607C0160
:104750008EE498E063E070E00E94FF6000D000D03B
:104760008DB69EB60894811C911CE80EF91E00E0DF
:1047700010E0C801B7010E94A18C7B018C016091FF
:10478000E90870E080E090E00E94A18CF401608371
:10479000718382839383C801B70120E030EE40E645
:1047A00055E40F2EF0E0EF2EF0E0FF2EF8EC0F2F87
:1047B000F4E41F2FF02D0F2EF0E0AF2EF0E0BF2E0F
:1047C000F0E0CF2EF0E0DF2EF02D0E9401080F90D8
:1047D0000F900F900F906093540370935503809344
:1047E00056039093570381E0809350030C94F7197C
:1047F0008EE498E060E070E00E94E960853710F098
:104800000C9434198EE498E060E070E00E94E96056
:1048100000D000D08DB69EB60894811C911C90E00B
:10482000A0E0B0E0BC01CD010E94A18C7B018C0115
:104830006091EA0870E080E090E00E94A18CF401B1
:104840006083718382839383C801B70120E030E0E5
:1048500048EE52E40F2EF0E0EF2EF0E0FF2EF8ECE1
:104860000F2FF1E41F2FF02D0C94D81B8EE498E04D
:1048700061E070E00E94E960853708F057CD8EE472
:1048800098E061E070E00E94E96000D000D08DB651
:104890009EB60894811C911C90E0A0E0B0E0BC01A1
:1048A000CD010E94A18C7B018C016091E90870E030
:1048B00080E090E00E94A18CF40160837183828388
:1048C0009383C801B70120E030E048EE52E40F2E98
:1048D000F0E0EF2EF0E0FF2EF8EC0F2FF1E41F2FA9
:1048E000F02D0F2EF0E0AF2EF0E0BF2EF0E0CF2E37
:1048F000F0E0DF2EF02D0E9401080F900F900F9036
:104900000F906093540370935503809356039093D4
:10491000570381E08093500309CD8EE498E063E073
:1049200070E00E94FF607C018EE498E061E070E03E
:104930000C94291A00D000D08DB69EB60894811C24
:10494000911C6091E90870E080E090E00E94A18CE9
:10495000F4016083718382839383C801B70120E0EF
:1049600030E044E353E40F2EF0E0EF2EF0E0FF2EB2
:10497000F0E10F2FF3E41F2FF02D0F2EF0E0AF2EFC
:10498000F0E0BF2EF0E0CF2EF0E0DF2EF02D0E9401
:1049900001080F900F900F900F9060935403709345
:1049A0005503809356039093570381E080935003FF
:1049B0000C94971B8CE597E062E070E00E949249AE
:1049C00020E030E044E353E40E94048C882314F098
:1049D0000C9430198CE597E062E070E00E949249F7
:1049E0007B018C0100D000D08DB69EB60894811C4E
:1049F000911C6091EA0870E080E090E00E94A18C38
:104A0000F4016083718382839383C801B70120E03E
:104A100030E044E353E40F2EF0E0EF2EF0E0FF2E01
:104A2000F7E00F2FF3E41F2FF02D0F2EF0E0AF2E45
:104A3000F0E0BF2EF0E0CF2EF0E0DF2EF02D0C9452
:104A40001F198CE597E061E070E00E94924920E038
:104A500030E044E353E40E94048C88230CF0FACA4B
:104A60008CE597E061E070E00E9492497B018C0147
:104A700000D000D08DB69EB60894811C911C609128
:104A8000E90870E080E090E00E94A18CF40160836E
:104A9000718382839383C801B70120E030E044E34F
:104AA00053E40F2EF0E0EF2EF0E0FF2EF0E10F2F99
:104AB000F3E41F2FF02D0F2EF0E0AF2EF0E0BF2E0D
:104AC000F0E0CF2EF0E0DF2EF02D0E9401080F90D5
:104AD0000F900F900F906093540370935503809341
:104AE00056039093570381E080935003B3CA82E644
:104AF00094E063E070E040E00E9422737C0182E673
:104B000094E061E070E086C98EE498E063E070E0D4
:104B10000E94FF607C018EE498E061E070E0F7C9DC
:104B2000CF93DF93EC0188818134C1F18D3401F1A1
:104B3000873429F18335D1F58981803509F4C8C0DE
:104B4000893409F4DBC0843409F4F2C0843509F4F3
:104B500005C18B3409F418C1813409F45BC1853572
:104B600009F468C1823409F46FC00E94D70804C0F8
:104B70008981833409F4A1C0DF91CF91089589819F
:104B80008035F9F0833509F444C0893409F498C0BC
:104B90008B3491F781E08093D202EECF89818B3301
:104BA000E1F1833449F70E94D816E6CF893469F4DD
:104BB0008981823409F488C08335F1F61092CC02E1
:104BC000DBCF81E08093D002D7CF8235C1F0833430
:104BD00099F68981833509F43DC18A34D1F18D3448
:104BE00009F43BC1873509F405C1823529F60E94D5
:104BF0002A0981E08093D0028093D2020BC0898180
:104C0000823409F491C0833509F0B6CF1092CF02F7
:104C1000B3CF81E08093CD02AFCF0E94230E8EED03
:104C200099E00E94AC878334910509F4A5CF88E10F
:104C300096E00E94FF4B8334910509F49DCF8CECE4
:104C400093E00E94B55EEBCF8A8180538093E808A1
:104C50008CCF0E9466846093840370938503809355
:104C6000860390938703CE0164E971E00E944106B8
:104C700080E090E064E971E00E9441060E94210614
:104C800060937B0370937C0380937D0390937E03FA
:104C900080E090E066E971E00E9441060E942106F2
:104CA00060937F03709380038093810390938203CA
:104CB00089E090E00E9478185FCF0E945E145CCF7C
:104CC00081E08093CE0258CF81E08093CC0254CF14
:104CD000CE0164E971E00E94410680E090E066E95F
:104CE00071E00E9441060E9421066093D8087093EB
:104CF000D9088093DA089093DB0837CFCE0164E9B6
:104D000071E00E94410680E090E066E971E00E9457
:104D100041060E9421066093DC087093DD088093B1
:104D2000DE089093DF0821CF81E08093CF0224CF6B
:104D3000CE0164E971E00E94410680E090E066E9FE
:104D400071E00E9441060E9421066093E008709382
:104D5000E1088093E2089093E30807CFCE0164E96D
:104D600071E00E94410680E090E066E971E00E94F7
:104D700041060E9421066093E4087093E508809341
:104D8000E6089093E708F1CECE0164E971E00E9455
:104D9000410680E090E064E971E00E9441060E94D3
:104DA00021066093EB087093EC088093ED089093D4
:104DB000EE0880E090E064E971E00E9441060E9404
:104DC00021066093EF087093F0088093F1089093A8
:104DD000F20880E090E066E971E00E9441060E94DE
:104DE00021066093F3087093F4088093F50890937C
:104DF000F608BBCEE0919408F0919508309731F019
:104E000081E083AFEF59FF4F86E0808381E080939C
:104E1000D102B2CECE0164E971E00E94410680E089
:104E200090E066E971E00E9441060E9424068093AA
:104E3000E9089BCECE0164E971E00E94410680E062
:104E400090E066E971E00E9441060E94240680938A
:104E5000EA088BCE83E090E02DCF0E9466846093B9
:104E60008403709385038093860390938703CE0118
:104E700064E971E00E94410680E090E064E971E03D
:104E80000E9441060E94210660937B0370937C037D
:104E900080937D0390937E0380E090E066E971E06B
:104EA0000E9441060E94210660937F037093800355
:104EB000809381039093820388E090E0FBCECF93B0
:104EC000DF938EED99E00E949087892B19F4DF9192
:104ED000CF9108958EED99E00E94AC878D36F9F060
:104EE00080935C0361E070E080E090E00E94DE84EB
:104EF000CDE5D3E005C0219683E0CA37D80739F362
:104F00008EED99E00E94AC8788838F3F01F38B334D
:104F100091F710927A038CE593E002DED8CF0E94DD
:104F2000A510D5CF80915E07882309F457C08091E2
:104F30004B03882309F0A2C080914E03882309F017
:104F400096C08CE597E061E077E20E94A743882352
:104F500009F4C1C08091D408882309F4BAC060E084
:104F60008091D408681731F06093D4088CE597E0FD
:104F70000E94954580915008882309F048C080918F
:104F80005308882309F043C080916504882329F1E0
:104F900080914D03882309F05BC082E694E060E0D5
:104FA0000E943273882309F489C0813009F4B0C0AB
:104FB000823009F4B0C063E070E08091D60890912F
:104FC000D7086817790749F07093D7086093D60817
:104FD00082E694E040E00C94E073089580916007CD
:104FE000882341F28CE597E061E077E20E94A743D5
:104FF000882309F086C08091D408813009F4BACFA3
:1050000081E08093D4088CE597E061E0B1CF809196
:105010004C03882339F010924C038EE498E00E94F0
:105020000A63B2CF8EE498E00E946E628C33C8F0BF
:105030008E3608F048C060E18091D508681709F401
:10504000A3CF6093D5088EE498E00E94E3629CCFE2
:1050500010924D0382E694E060E040E020E00C9482
:105060006A738091D508882361F160E0E5CF1092E2
:105070004E038CE597E00E94C2457CCF10924B0313
:105080008CE597E060E270E00E94B44581E0809397
:105090004E038091400390914103A0914203B0914F
:1050A0004303845F9140A040B040809340039093BD
:1050B0004103A0934203B09343035CCF60E070E0F0
:1050C0007CCF60EFB9CF803A80F0823DD0F760E7C7
:1050D000B3CF6FE045CF8CE597E062E077E20E94C6
:1050E000A743882321F061E03BCF60E3A5CF8CE5A7
:1050F00097E063E077E20E94A743882379F063E0BA
:105100002FCF8CE597E060E070E00E94BB4432CF87
:1051100061E070E052CF62E070E04FCF8CE597E045
:1051200064E077E20E94A743882311F067E018CF7C
:105130008CE597E065E077E20E94A743882349F673
:105140008CE597E06EEE77E20E94A7436091D40869
:10515000882309F405CF6F3031F2660F6E706160FD
:10516000FFCE1F93DFDE80915E07882321F08091C0
:105170004803882369F180915008882321F08091A9
:1051800049038823C9F180916504882321F0809127
:105190004A03882311F01F91089511E010934A03E8
:1051A0000E946684645F7140804090406093400339
:1051B00070934103809342039093430382E694E00B
:1051C00060E04FEF20E00E946A7310934D03E3CF3D
:1051D00011E0109348030E946684645F7140804030
:1051E00090406093400370934103809342039093F7
:1051F000430310934B03BFCF11E0109349030E9468
:105200006684645F71408040904060934003709377
:10521000410380934203909343038EE498E00E94FD
:10522000F76210934C03AFCFCF93DF9380912606A4
:10523000882319F4DF91CF91089588E196E00E94C8
:10524000034B892BB9F3CCE5D3E005C0219683E06D
:10525000CA37D80779F388E196E00E94FF4B88832C
:105260008F3F41F38B3391F781E080937A038CE594
:1052700093E056DCDFCF8CEC93E00E94B55E8CECC3
:1052800093E00E94C854803A09F4AAC0CDDF0E947E
:105290006684209184033091850340918603509168
:1052A00087032C503E4F4F4F5F4F26173707480755
:1052B000590760F51092830380915E07882309F0F7
:1052C000A5C080916007882309F024C1809150080F
:1052D000882329F080915308882309F4B0C0809175
:1052E0005308882329F080918303882309F4E2C0BE
:1052F00080916504882329F080918303882309F431
:10530000BEC080918303882309F47BC080915E072F
:105310008823B9F580916007882399F580915E070D
:10532000882329F480916007882309F44BC0809179
:1053300050088823A9F580915308882389F5809126
:105340005008882321F4809153088823C1F180916B
:105350006504882311F410924A030E946684209108
:105360004003309141034091420350914303621B3B
:10537000730B840B950B695E73408040904028F559
:1053800008958CE597E060E170E00E94084388236F
:1053900029F28CE597E00E94D1451092D408BECF47
:1053A0008EE498E069E070E00E94A260882339F200
:1053B0008EE498E00E941D631092D508C0CF109231
:1053C0004903C5CF10924803B2CF0E946684609310
:1053D0004003709341038093420390934303A2CD13
:1053E0008091E601882309F451CF8EED99E067EAB8
:1053F00078E00E9426898CEC93E061E10E94CB5416
:1054000045CF83E090E00E94781880CF8CE597E04C
:1054100064E070E00E94EA42882309F489C00E9497
:10542000230E04C08CEC93E00E94B55E8CE597E0FF
:1054300065E070E00E94EA428823A1F347CF8091A3
:105440008303882309F04BCF8EE498E06CE070E092
:105450000E946F60882371F480915108882309F4B9
:1054600047CF8EE498E060E070E00E94E9608A38FF
:1054700008F4E4C081E090E00E94781839CF82E619
:1054800094E064E070E040E00E94D472882309F464
:1054900079C00E94230E04C08CEC93E00E94B55E9C
:1054A00082E694E065E070E040E00E94D4728823D8
:1054B00099F327CF8EE498E068E070E00E946F6077
:1054C000882309F06EC08EE498E061E070E00E94ED
:1054D000FF608959984070F68EE498E061E070E0D2
:1054E0000E94FF608850974028F28EE498E063E0C5
:1054F00070E00E94FF608959984008F0BBCF8EE4AD
:1055000098E063E070E00E94FF608850974008F0E8
:10551000EFCEB0CF8CE597E060E070E00E944043B2
:10552000893C08F44EC080E090E00E947818CECE0E
:105530008CE597E061E070E00E944043853798F386
:105540008CE597E063E070E00E944043853758F3B4
:105550008CE597E061E070E00E9440438A3818F7DC
:105560008CE597E063E070E00E9440438A38D8F60B
:105570008CE597E06EE070E00E94EA42882309F42F
:10558000A5CED1CF82E694E061E070E040E00E94D9
:105590002273845B924E8CF582E090E00E94781832
:1055A000B0CE0E94230E04C08CEC93E00E94B55E46
:1055B0008EE498E065E070E00E946F608823A1F3BC
:1055C00097CE8CE597E060E070E00E94404387331F
:1055D00008F4A9CF8CE597E061E070E00E944043B9
:1055E0008A3808F0A0CF8CE597E061E070E00E9477
:1055F0004043853708F06ACE96CF82E694E063E0B8
:1056000070E040E00E942273845B924E2CF282E6AE
:1056100094E061E070E040E00E9422738D549D416F
:105620000CF0BACF82E694E063E070E040E00E94C4
:1056300022738D549D410CF464CEAECF8EE498E07D
:1056400060E070E00E94E960853708F413CF8EE4D3
:1056500098E061E070E00E94E9608A3808F00ACFC3
:105660008EE498E061E070E00E94E960853708F020
:105670003FCE00CF2F923F924F925F926F927F92D8
:105680008F929F92AF92BF92CF92DF92EF92FF9252
:105690000F931F93DF93CF93CDB7DEB76C970FB601
:1056A000F894DEBF0FBECDBF80915008882309F06B
:1056B00079C48DE360EF72E048E00E94D915882339
:1056C000C1F73091F00220E06091F10270E0622BAE
:1056D000732B7093E7026093E6023091F20220E0B0
:1056E000E090F302FF24E22AF32AF092E902E0922A
:1056F000E8023091F60220E04091F702842E9924CE
:10570000822A932A9092EB028092EA02882777FD00
:105710008095982F0E94A38C2091F7083091F8086B
:105720004091F9085091FA080E943D8B5B016C0191
:105730000027F7FC0095102FC801B7010E94A38C29
:105740002091FB083091FC084091FD085091FE0823
:105750000E943D8B9B01AC01C601B5010E94B18B3B
:105760002BED3FE049E450E40E943E8B21EE3EE207
:1057700045E652E40E94838D7B018C016093F80220
:105780007093F9028093FA029093FB0220E030E0DC
:1057900044EB52E40E94048C88230CF0ACC060916E
:1057A000040370910503809106039091070320E0A4
:1057B00030E047E853E40E94788D18160CF09BC047
:1057C000E092A003F092A1030093A2031093A3031D
:1057D000E0920403F092050300930603109307037D
:1057E000E0920003F092010300930203109303037D
:1057F0000E94748460932C0370932D0380932E0376
:1058000090932F0380915008882309F034C380912E
:10581000E601E0900403F090050300910603109167
:105820000703882309F0B2C2A090E408B090E5080D
:10583000C090E608D090E708C601B50120E030E04E
:1058400044E352E40E943D8B9B01AC01C801B701C7
:105850000E94048C87FF08C381E08093E6010E94C8
:10586000230E0E94748460933003709331038093FD
:105870003203909333030E94748420913403309157
:1058800035034091360350913703621B730B840B31
:10589000950B605A76488140904008F0F1C2EBDCED
:1058A0000EDB0E942E1180918105882309F4D0C25D
:1058B00080912605882309F07AC3809126058823E4
:1058C00009F49BC36C960FB6F894DEBF0FBECDBF34
:1058D000CF91DF911F910F91FF90EF90DF90CF90CC
:1058E000BF90AF909F908F907F906F905F904F9000
:1058F0003F902F900895C801B70120E030E047E8BD
:1059000053E40E94788D18168CF460910403709112
:105910000503809106039091070320E030E044EBFB
:1059200052E40E94048C88230CF44ACFB4018827E7
:1059300077FD8095982F0E94A38C2091EC023091E6
:10594000ED024091EE025091EF020E943D8B20E06B
:1059500030E043E053E40E94088C7B018C016093AB
:10596000FC027093FD028093FE029093FF02A090D0
:105970000003B0900103C0900203D09003030E9483
:10598000748420912C0330912D0340912E0350916B
:105990002F03621B730B840B950B0E94A18C20E0DC
:1059A00034E244E759E40E94088C9B01AC01C80131
:1059B000B7010E94838D9B01AC01C601B5010E9415
:1059C0003E8B7B018C0160930003709301038093F5
:1059D00002039093030320E030E040E050E00E9497
:1059E000048C87FD0AC0C801B70120E030E044EB19
:1059F00053E40E94788D181684F4809104039091EA
:105A00000503A0910603B0910703809300039093D0
:105A10000103A0930203B0930303E090F802F09017
:105A2000F9020091FA021091FB02ED82FE820F83CF
:105A30001887E090FC02F090FD020091FE021091A8
:105A4000FF020E94748420912C0330912D03409119
:105A50002E0350912F03621B730B840B950B0E9436
:105A6000A18C20E034E244E759E40E94088C5B01F9
:105A70006C01C801B7012091A4033091A5034091A6
:105A8000A6035091A7030E943D8B9B01AC0160933C
:105A9000A8037093A9038093AA039093AB03C60154
:105AA000B5010E94838D2091A0033091A103409104
:105AB000A2035091A3030E943E8B69877A878B874C
:105AC0009C878091B8039091B903A091BA03B091DB
:105AD000BB0389839A83AB83BC83C601B50129814B
