:10000000BBC600000C94DE7E0C940F7F0C94407FE6
:100010000C94DF0CE0C60000DEC60000DCC6000069
:10002000DAC60000D8C60000D6C60000D4C600005C
:10003000D2C60000D0C60000CEC60000CCC600006C
:10004000CAC60000C8C600000C94717FC4C6000078
:100050000C942A820C946082BEC60000BCC60000CC
:10006000BAC60000B8C600000C94817DB4C600007A
:10007000B2C60000B0C60000AEC60000ACC60000AC
:10008000AAC60000A8C60000A6C60000D137F737F0
:100090007838C9389E380639AC38213921392139A8
:1000A0002139213921399337213921392139213910
:1000B000213921392139F33803399339AB39E23900
:1000C000F439FE390D3A143A213A313A3B3A513A71
:1000D000663A753ACC3A133BE33AF03AF6400541BA
:1000E000BB405341C1401E412941414109601F604D
:1000F000C05F8360C65F37604D605B608F809280B9
:1001000085808980A980A98096809A80A080A4801B
:10011000084AD73B3BCE016E84BCBFFDC12F3D6C6E
:1001200074319ABD56833DDA3D00C77F11BED9E4D4
:10013000BB4C3E916BAAAABE000000803F002C0081
:10014000522C002C002C00562C002C002C004B2C88
:10015000002C41546D6567613132383450002C00F9
:10016000492C002C002C00532C002C002C002C00BF
:10017000502C00504300555342206661696C002C9E
:10018000002C002C0056656C6F6369747920284C34
:10019000292C2056656C6F63697479202852292CAC
:1001A0002053706565642076616C756520284C2944
:1001B0002C2053706565642076616C75652028522B
:1001C000290043616C6962726174696F6E206F66A9
:1001D00020746865206D6F746F727320697320647A
:1001E0006F6E650054686520646966666572656E49
:1001F0006365206973206E6F773A20004E6F772019
:10020000746865206D6F746F72732077696C6C20F1
:100210007370696E20757020616761696E2E204E63
:100220006F77207468652073706565642076616CF3
:100230007565732073686F756C6420626520616CEE
:100240006D6F737420657175616C2E2053656E64DB
:1002500020616E79206368617261637465722074D5
:100260006F20657869740D0A002C00546865206D54
:100270006F746F72207363616C6172732061726559
:10028000206E6F7720284C2F52293A20002C000D29
:100290000A5468652073706565642076616C7565C5
:1002A000732061726520284C2F52293A2000457333
:1002B00074696D6174696E67206D696E696D756DC5
:1002C000207374617274696E672076616C75652E37
:1002D000205768656E2074686520666972737420A3
:1002E00074776F2076616C75657320646F206E6F14
:1002F00074206368616E676520616E796D6F7265E9
:100300002C207468656E2073656E6420616E7920A0
:1003100063686172616374657220746F20636F6ECD
:1003200074696E75650D0A005075742074686520D7
:10033000726F626F7420736F2074686520776865D0
:10034000656C732063616E206D6F766520667265E3
:10035000656C7920616E64207468656E2073656ECB
:100360006420616E792063686172616374657220D4
:10037000746F20737461727420746865206D6F747B
:100380006F722063616C6962726174696F6E207252
:100390006F7574696E650043616C6962726174693E
:1003A0006F6E206F662074686520616363656C659D
:1003B000726F6D6574657220697320646F6E65007D
:1003C0002C004E6577207A65726F2076616C7565BA
:1003D000732028672773293A2000416363656C65A1
:1003E000726F6D657465722063616C6962726174AD
:1003F000696F6E206572726F7200506C6561736513
:10040000207075742074686520726F626F7420703C
:100410006572666563746C7920686F72697A6F6E55
:1004200074616C206F6E2069747320736964652039
:10043000616E64207468656E2073656E6420616E01
:10044000792063686172616374657220746F2073D0
:1004500074617274207468652063616C6962726192
:1004600074696F6E20726F7574696E65004E6F7778
:10047000207475726E207468652042616C616E64D0
:1004800075696E6F20616E64207468652073617495
:10049000656C6C6974652072656365697665722048
:1004A0006F66662062792072656D6F76696E67206F
:1004B00074686520706F7765722E20546865206EB1
:1004C0006578742074696D65206974207475726E26
:1004D00073206F6E2069742077696C6C207374616F
:1004E0007274207468652062696E64696E6720703A
:1004F000726F636573732077697468207468652010
:10050000736174656C6C6974652072656365697686
:100510006572000D0A3D3D3D3D3D3D3D3D3D3D3D4E
:100520003D3D3D3D3D3D3D3D3D3D3D3D3D3D3D3DFB
:100530003D3D3D3D3D3D3D3D3D3D3D3D3D3D3D3DEB
:100540003D3D3D3D3D3D3D3D3D3D3D3D3D3D3D3DDB
:100550003D3D3D3D3D3D3D3D3D3D3D3D3D3D3D3DCB
:100560003D3D3D3D3D3D3D3D3D3D3D3D3D3D3D0DEB
:100570000A0042533B0909090942696E6420776900
:100580007468205370656B7472756D207361746547
:100590006C6C697465207265636569766572004389
:1005A000523B09090909526573746F7265206465CD
:1005B0006661756C7420454550524F4D2076616CD4
:1005C0007565730D0A004350503B090909095374BE
:1005D00061727420706172696E67207365717565F0
:1005E0006E636520776974682050533420636F6EA2
:1005F00074726F6C6C6572004350573B09090909AE
:10060000537461727420706172696E6720736571D2
:1006100075656E63652077697468205769696D6FC9
:10062000746500434D2C70697463682C726F6C6C38
:100630003B090909537465657220726F626F7420FB
:100640007573696E6720706974636820616E6420D9
:10065000726F6C6C00434A2C782C793B09090909AC
:10066000537465657220726F626F74207573696E62
:100670006720782C792D636F6F7264696E61746581
:10068000730043533B0909090953656E6420737471
:100690006F7020636F6D6D616E640052533B09098A
:1006A000090953746F702073656E64696E672072F8
:1006B00065706F72742076616C7565730D0A0052F7
:1006C000423B0909090953746172742073656E64B1
:1006D000696E67207265706F72742076616C7565E3
:1006E000730049533B0909090953746F70207365FE
:1006F0006E64696E6720494D552076616C7565732F
:100700000049423B090909095374617274207365F9
:100710006E64696E6720494D552076616C7565730E
:100720000053422C76616C75653B09090955736568
:100730006420746F2073657420746865206261633F
:100740006B20746F2073706F742076616C756520F8
:100750002874727565203D20312C2066616C7365AC
:10076000203D2030290D0A0053552C76616C7565AB
:100770003B0909095573656420746F207365742003
:10078000746865206D6178696D756D207475726E21
:10079000696E672076616C75650053412C616E67E8
:1007A0006C653B0909095573656420746F20736596
:1007B0007420746865206D6178696D756D20636F54
:1007C0006E74726F6C6C696E6720616E676C650029
:1007D000534B2C51616E676C652C51626961732CAF
:1007E000526D6561737572653B095573656420745C
:1007F0006F2073657420746865204B616C6D616E49
:100800002066696C7465722076616C75657300533F
:10081000542C746172676574416E676C653B09099D
:10082000095573656420746F20736574207468655E
:100830002074617267657420616E676C6500534453
:100840002C4B643B090909095573656420746F20BA
:1008500073657420746865204B642076616C7565DF
:100860000053492C4B693B090909095573656420FC
:10087000746F2073657420746865204B69207661FD
:100880006C75650053502C4B703B09090909557371
:10089000656420746F2073657420746865204B70E4
:1008A0002076616C75650047493B09090909476570
:1008B0007420696E666F2076616C7565730D0A0031
:1008C00047533B09090909476574207365747469C6
:1008D0006E67732076616C75657300474B3B090941
:1008E0000909476574204B616C6D616E2066696C07
:1008F0007465722076616C7565730047503B090919
:100900000909476574205049442076616C75657308
:10091000004D433B0909090953656E6420746F203B
:1009200063616C69627261746520746865206D6FC3
:10093000746F72730D0A0041433B0909090953653D
:100940006E6420746F2063616C69627261746520EB
:1009500074686520616363656C65726F6D6574654D
:100960007200413B0909090953656E6420746F20C8
:1009700061626F72742E2053656E642027432720B6
:10098000616761696E20746F20636F6E74696E7544
:10099000650D0A006D0909090953656E6420746FBD
:1009A0002073686F772074686973206D656E750DAC
:1009B0000A000D0A3D3D3D3D3D3D3D3D3D3D3D3D3A
:1009C0003D3D3D3D3D3D3D3D3D3D3D3D3D3D3D3D57
:1009D0003D3D3D3D3D3D3D3D3D3D3D3D3D3D204D54
:1009E000656E75203D3D3D3D3D3D3D3D3D3D3D3DC3
:1009F0003D3D3D3D3D3D3D3D3D3D3D3D3D3D3D3D27
:100A00003D3D3D3D3D3D3D3D3D3D3D3D3D3D0D0A79
:100A1000004779726F2063616C6962726174696FFB
:100A20006E206572726F7200693263526561642074
:100A300074696D656F757400693263526561642015
:100A40006661696C65643A20006932635772697443
:100A500065206661696C65643A20004572726F7248
:100A60002072656164696E672073656E736F7200D2
:100A70004F534320646964206E6F742073746172F5
:100A80007400100000002000000040000000800002
:100A90000000010000000800000002000000040047
:100AA0000000000100000002000000040000000837
:100AB0000000001000000020000000400000008046
:100AC000000000000100000008000000100000010C
:100AD000020408090A0C0D0E0F00000000000000BF
:100AE000000000FF27100032FF27100032FF271000
:100AF0000032FF271000320000000000000000005C
:100B0000000000000000000000000102030C0D0EB8
:100B10000F0A0B08090706050410110091E372077C
:100B200096E4750E9FED7C0998EA7B1C8DFF6E1B89
:100B30008AF8691283F1601584F66738A9DB4A3FA9
:100B4000AEDC4D36A7D54431A0D24324B5C75623D9
:100B5000B2C0512ABBC9582DBCCE5F70E193027759
:100B6000E694057EEF9D0C79E89A0B6CFD8F1E6B69
:100B7000FA881962F3811065F4861748D9AB3A4FA9
:100B8000DEAC3D46D7A53441D0A23354C5B7265379
:100B9000C2B0215ACBB9285DCCBE2FE0710392E7D9
:100BA000760495EE7F0D9CE9780A9BFC6D1F8EFB09
:100BB0006A1889F2631180F5641687D8493BAADF69
:100BC0004E3CADD64735A4D14032A3C45527B6C359
:100BD0005220B1CA5B29B8CD5C2EBF900173E29759
:100BE0000674E59E0F7DEC99087AEB8C1D6FFE8BE9
:100BF0001A68F9821361F0851466F7A8394BDAAFE9
:100C00003E4CDDA63745D4A13042D3B42557C6B3F8
:100C10002250C1BA2B59C8BD2C5ECF000100008004
:100C2000000000400000000002000000000000047E
:100C30000000000000020000000100100000000899
:100C40000000000000000000000000004000000064
:100C5000100000000800000020000020000000023A
:100C600000000000800000000400000800000002F6
:100C7000000000040000000100000000000000105F
:100C80000000000001000000020000001000000051
:100C900080000000000100000002000004000000CD
:100CA00008000000010008000200040020001000FD
:100CB0004000800000000001000200200010004001
:100CC0000080000400080000020304050100000089
:100CD00008070102000000000000000000000403FB
:100CE000000000000000000000090A0000010204EA
:100CF000408008100102040810200201040810209E
:100D0000040810204080010220408040800404023A
:100D100004040202010101010101030304040404AB
:100D20000303030303030202020202010100002283
:100D300000250028002B004E414E494E4954594988
:100D40004E46CDCCCC3D0AD7233C17B7D13877CC13
:100D50002B329595E6241FB14F0A00002041000078
:100D6000C84200401C4620BCBE4CCA1B0E5AAEC531
:100D70009D74CE19A27C928211241FBECFEFD0E4C5
:100D8000DEBFCDBF13E0A0E0B1E0E6EBF4E101E0AF
:100D90000BBF02C007900D92AA33B107D9F72BE021
:100DA000AAE3B3E001C01D92A035B207E1F71DE050
:100DB000C8E7DDE000E006C022970109FE010BBF95
:100DC0000E943888C237D10780E00807A9F70E943F
:100DD00022850C94598A14C940913C03440F440F56
:100DE00040933C0320B159B1207430E085E0359543
:100DF00027958A95E1F752FB882780F990E0282B08
:100E0000392B242B20933C038091CE099091CF095C
:100E1000A091D009B091D1092F70E22FF0E0EC54ED
:100E2000FE4F4081552747FD5095652F752F841B38
:100E3000950BA60BB70B8093CE099093CF09A09387
:100E4000D009B093D109089540913D03440F440F58
:100E500040933D0320B159B1207830E096E03595BC
:100E600027959A95E1F753FB882780F990E0282B86
:100E7000392B242B20933D038091CA099091CB09F3
:100E8000A091CC09B091CD092F70E22FF0E0EC5485
:100E9000FE4F4081552747FD5095652F752F840FD4
:100EA000951FA61FB71F8093CA099093CB09A093E3
:100EB000CC09B093CD0908954D960C94134BCF9265
:100EC000DF92EF920F93CF93DF93CDB7DEB7CF547E
:100ED000D1090FB6F894DEBF0FBECDBF6C01FB0188
:100EE000AE014F5F5F4F8FE4DA011D928A95E9F7FB
:100EF00082E5898381E18A8380E88B838FEF8D830C
:100F0000818188878081898782818A8783818B8795
:100F100084818C8785818D8786818E871782F601F3
:100F200065817681E08407812FE4838194810E942A
:100F3000593BC15BDF4F0FB6F894DEBF0FBECDBF8C
:100F4000DF91CF910F91EF90DF90CF9008954D9763
:100F5000B6CF0F931F93CF93C82F8091430388235D
:100F6000A1F00E94BB7F00913F03109140032091AC
:100F7000410330914203601B710B820B930B6B306A
:100F800071058105910508F04AC00E94BB7F6093FE
:100F90003F03709340038093410390934203E09199
:100FA000430391E09E0F90934303F0E0EC5BFC4F12
:100FB000C0839031B9F5E7E4F3E0DF0111972C919C
:100FC0008081A22FB0E0B595A795B595A795AF7094
:100FD000AC3080F4B0E0AA0FBB1FAA5FBE4F90E018
:100FE00084529C4F237030E0322F2227820F931FB0
:100FF0008D939C93329683E0E535F807F1F61092D5
:10100000430381E0809342090E94BB7F60933E09C5
:1010100070933F09809340099093410903C0109257
:101020004303B3CFCF911F910F9108958091C407CF
:101030008823C1F00E94BB7F645F714081099109E0
:1010400060938D0970938E0980938F099093900916
:1010500020E04FEF60E081EC97E00E94CA7181E0F0
:1010600080938409089580917604882309F47DC0D3
:1010700080918809882301F11092880960E270E06C
:1010800084E794E00E94E44881E0809385098091A0
:101090008D0990918E09A0918F09B0919009845F7C
:1010A0009140A109B10980938D0990938E09A09375
:1010B0008F09B093900978C080918509882349F001
:1010C0001092850984E794E00E94D5481092880325
:1010D0006BC061E077E284E794E00E945A45882380
:1010E00031F0809188038823C1F160E037C062E06D
:1010F00077E284E794E00E945A45882311F061E08A
:101100002DC063E077E284E794E00E945A458111A4
:1011100020C064E077E284E794E00E945A458111A0
:101120001AC065E077E284E794E00E945A45811195
:1011300014C06EEE77E284E794E00E945A45609115
:101140008803882359F06F30D1F2660F6E706160AA
:1011500005C063E003C067E001C06FE080918803D1
:10116000681711F1609388031BC08091780488236D
:10117000D9F061E077E284E794E00E945A45882341
:1011800039F061E070E084E794E00E941D490CC0F2
:1011900080918803813041F081E08093880361E091
:1011A00084E794E00E94FC4880910A04882399F126
:1011B00080918609882361F0109286091092690453
:1011C00010926A0481E0809370041092860323C019
:1011D000809144048F70909186038917E1F0809389
:1011E000860310926B0410926C0491E1899F902DFC
:1011F000112490936D0491E090937004823030F448
:101200008AE080936E0480936F0405C08FEF809313
:101210006E0410926F0480918B03811104C0809141
:101220008E03882371F180918709882349F01092F9
:10123000870989E893E00E94DA601092870321C051
:1012400089E893E00E946461909187038C3320F4D5
:10125000992371F060E00DC08E3630F0803A30F0A6
:10126000823D30F460E705C060E103C060E301C087
:1012700060EF691731F06093870389E893E00E947B
:10128000F6608091C4078823C1F180918409882386
:1012900071F01092840920E040E060E081EC97E07A
:1012A0000E94CA711092850310928403089560E031
:1012B00081EC97E00E940571882339F0813041F07C
:1012C000823049F463E070E008C061E070E005C07E
:1012D00062E070E002C064E070E08091840390916D
:1012E00085036817790749F0709385036093840339
:1012F00040E081EC97E00C945D71089580918B0340
:101300008823B1F0B0DE0E94BB7F645F7140810929
:10131000910960938D0970938E0980938F09909342
:10132000900989E893E00E94E86081E08093870952
:10133000089580917604882391F095DE0E94BB7F0A
:10134000645F71408109910960938D0970938E09E2
:1013500080938F099093900981E080938809089584
:1013600080910A048823C9F07EDE0E94BB7F645FFF
:1013700071408109910960938D0970938E09809362
:101380008F0990939009109269048FEF80936A04FB
:1013900081E0809370048093860908950F931F93D2
:1013A000CF93DF93F999FECF04E513E0C1E0D0E0DD
:1013B000CE010E94C088F80161918F01861719F053
:1013C000CE010E94C8882196C133D10589F780914A
:1013D000670390916803A0916903B0916A038093B9
:1013E000060990930709A0930809B0930909809111
:1013F0006B0390916C03A0916D03B0916E03809389
:101400000A0990930B09A0930C09B0930D098091E0
:101410006F0390917003A0917103B0917203809358
:101420000E0990930F09A0931009B0931109DF9151
:10143000CF911F910F91089580E090E0A0E1B1E479
:101440008093540390935503A0935603B09357038E
:1014500080E090E0A0E0B0E48093580390935903BB
:10146000A0935A03B0935B0380E090E0A0E4B0E463
:1014700080935C0390935D03A0935E03B0935F033E
:1014800080E090E0A4E3B3E4809360039093610371
:10149000A0936203B093630381E08093640387E0C9
:1014A0008093650389E1809366038FE692E1A3E868
:1014B000BAE38093670390936803A0936903B093A2
:1014C0006A0386EA9BE9A4E4BBE380936B039093F1
:1014D0006C03A0936D03B0936E038FE892ECA5EFBD
:1014E000BCE380936F0390937003A0937103B09358
:1014F000720310927703109278031092790310927E
:101500007A03109273031092740310927503109271
:10151000760380E090E0A0E8BFE380937F039093A0
:101520008003A0938103B093820380937B03909305
:101530007C03A0937D03B0937E03109283032ECF90
:1015400062EB79E081EB9AE00E94528364E979E0F2
:1015500081EB9AE00E94528362E679E081EB9AE0A7
:101560000E94528367E379E081EB9AE00E94528304
:1015700061E179E081EB9AE00E9452836BEF78E0C1
:1015800081EB9AE00E9452836BED78E081EB9AE068
:101590000E94528360EC78E081EB9AE00E945283D3
:1015A00067EA78E081EB9AE00E94528364E878E091
:1015B00081EB9AE00E94528361E678E081EB9AE049
:1015C0000E9452836EE378E081EB9AE00E9452839E
:1015D0006FE078E081EB9AE00E94528360ED77E063
:1015E00081EB9AE00E9452836AE977E081EB9AE00E
:1015F0000E94528368E677E081EB9AE00E94528372
:1016000061E277E081EB9AE00E94528361E077E04B
:1016100081EB9AE00E94528362EE76E081EB9AE0E1
:101620000E9452836FEB76E081EB9AE00E94528336
:101630006BE976E081EB9AE00E94528362E876E003
:1016400081EB9AE00E94528365E576E081EB9AE0B7
:101650000E94528363E276E081EB9AE00E9452831B
:1016600068EF75E081EB9AE00E94528366EC75E0CA
:1016700081EB9AE00E9452836FE975E081EB9AE07A
:101680000E94528362E775E081EB9AE00E945283E8
:1016900063E175E081EB9AE00C9452834F925F9284
:1016A0006F927F928F929F92AF92BF92CF92DF9272
:1016B000EF92FF920F931F93CF93DF93CDB7DEB7D7
:1016C00028970FB6F894DEBF0FBECDBF6D837E8323
:1016D0008F83988729013A01E982FA820B831C8360
:1016E0001A2D0B2D29813A814B815C81C301B201F6
:1016F0000E94F68587FF16C0A301920169817A8155
:101700008B819C810E942F852A2D3B2DA6010E9452
:10171000FA854B015C01A30192016D817E818F816D
:10172000988515C029813A814B815C81C301B20142
:101730000E942F852A2D3B2DA6010E94FA854B0180
:101740005C012D813E814F815885C301B2010E9409
:101750002F85A50194010E94FA854B015C01212F80
:10176000302FA6010E946A8718168CF020E030E026
:10177000A901B401C5010E94F68587FD04C0182D9A
:10178000092D650104C010E000E0C12CD12C612FAF
:10179000702FC60128960FB6F894DEBF0FBECDBFDE
:1017A000DF91CF911F910F91FF90EF90DF90CF903D
:1017B000BF90AF909F908F907F906F905F904F9071
:1017C0000895FC0141915191CA01A8E12191319103
:1017D000281739072CF0421753070CF4A9019C0174
:1017E000A15011F0C901F2CF421B530B81E0461703
:1017F00057070CF080E00895CF92DF92EF92FF92AE
:101800000F931F93CF93DF938C01EB0169017A0152
:1018100020E030E048EC52E4C701B6010E946A873C
:10182000181634F4C12CD12C68ECE62E62E4F62EA6
:1018300020E030E04AE753E4C701B6010E94758713
:1018400020E030E048EC52E40E94FA850E9467866E
:101850000830110549F47093890060938800269739
:1018600061F44698479A0EC070938B0060938A008B
:10187000269731F4289A299805C0469A479802C0BD
:101880002898299ADF91CF911F910F91FF90EF90A7
:10189000DF90CF900895089749F48AEF90E09093F5
:1018A000890080938800469A479A08958AEF90E0CD
:1018B00090938B0080938A00289A299A089594B176
:1018C000982B94B90895FC018FE7828383838483E6
:1018D0008583168217821086DF01DE961D921D9287
:1018E0001C9212971186128684A1806884A380A519
:1018F000806880A785A5806885A781A9806881AB5D
:1019000086A9806886AB82AD806882AF88E08683D6
:1019100086AF13968C91807F8C931B961C921797A1
:101920001C9211971C9214961C9211971C9211975D
:101930001C9214961C9211971C92E55BFF4F10822B
:1019400008954D96C0CFCF92DF92EF920F93CF9331
:10195000DF9300D0CDB7DEB76C014D96B4DF83E4E2
:10196000898382E08A83F60165817681E08407813C
:1019700022E0AE014F5F5F4F838194810E94593B0B
:10198000F601E659FF4F0190F081E02D309711F0FC
:1019900009950CC0F601ED59FF4F10823196108267
:1019A00031968FEF8083339681E080830F900F9084
:1019B000DF91CF910F91EF90DF90CF9008951F921C
:1019C0000F920FB60F9211240BB60F922F933F93E5
:1019D0004F935F936F937F938F939F93AF93BF9337
:1019E000EF93FF93F9D930DAFF91EF91BF91AF9167
:1019F0009F918F917F916F915F914F913F912F9127
:101A00000F900BBE0F900FBE0F901F9018950F9365
:101A10001F936091CE097091CF098091D009909168
:101A2000D1090091CA091091CB092091CC093091BC
:101A3000CD09600F711F821F931F1F910F91089591
:101A40002F923F924F925F926F927F929F92AF92AE
:101A5000BF92CF92DF92EF92FF920F931F93CF939B
:101A6000DF93CDB7DEB728970FB6F894DEBF0FBE71
:101A7000CDBF1C0181E08093530910921F01109289
:101A80007B0910927C0910927D0910927E091092B8
:101A90007F091092800910928109109282092BE02F
:101AA0002216310409F094C0409054095090550911
:101AB000609056097090570920E030E0A901C301F9
:101AC000B2010E946A871816E4F46091650370E021
:101AD00080E090E00E9493865B016C01E12CF12C88
:101AE00000E81FE320E030E0A901C301B201D6DD28
:101AF00060937F0970938009809381099093820994
:101B000027C020E030E0A901C301B2010E94F685A0
:101B100087FF1EC06091650370E080E090E00E9446
:101B200093865B016C01E12CF12C00E81FEB20E0B7
:101B300030E0A901C301B201B1DDDC01CB01B05835
:101B400080937F0990938009A0938109B0938209C3
:101B5000409058095090590960905A0970905B095B
:101B600020E030E0A901C301B2010E946A87181683
:101B70009CF46091660370E080E090E00E949386A0
:101B80005B016C01E12CF12C00E81FE320E030E068
:101B9000A901C301B20161C120E030E0A901C30184
:101BA000B2010E94F68587FF20C76091660370E04E
:101BB00080E090E00E9493865B016C01E12CF12CA7
:101BC00000E81FEB20E030E0A901C301B201EEC242
:101BD0008AE02816310409F0A9C0409058095090B5
:101BE000590960905A0970905B0920E030E0A90122
:101BF000C301B2010E946A871816E4F4609165037C
:101C000070E080E090E00E9493865B016C01E12C23
:101C1000F12C00E112E420E030E0A901C301B2019F
:101C20003DDD60937F0970938009809381099093D3
:101C3000820927C020E030E0A901C301B2010E945F
:101C4000F68587FF1EC06091650370E080E090E03C
:101C50000E9493865B016C01E12CF12C00E112ECF7
:101C600020E030E0A901C301B20118DDDC01CB01A5
:101C7000B05880937F0990938009A0938109B09315
:101C8000820940905409509055096090560970900F
:101C9000570920E030E0A901C301B2010E946A8720
:101CA0001816E4F46091660370E080E090E00E9412
:101CB00093865B016C01E12CF12C04E312E420E03B
:101CC00030E0A901C301B201E9DC60937B097093A4
:101CD0007C0980937D0990937E096CC620E030E0FA
:101CE000A901C301B2010E94F68587FF63C6609116
:101CF000660370E080E090E00E9493865B016C01D7
:101D0000E12CF12C04E312EC20E030E0A901C30146
:101D1000B201C4DCDC01CB01B05880937B09909305
:101D20007C09A0937D09B0937E0944C62114310437
:101D300009F070C280917604882309F4B4C16EE082
:101D400070E084E794E00E94004461E070E0882342
:101D500009F4B3C084E794E00E94AD4420E030E091
:101D600044E353E40E946A8718160CF560916503FA
:101D700070E080E090E00E9493865B016C0161E07E
:101D800070E084E794E00E94AD44E12CF12C08E57A
:101D900013E420E030E044E353E480DC60937F0907
:101DA00070938009809381099093820931C061E02A
:101DB00070E084E794E00E94AD4420E030E044E32A
:101DC00053E40E94F68587FF23C06091650370E0AD
:101DD00080E090E00E9493865B016C0161E070E01E
:101DE00084E794E00E94AD44E12CF12C00E113E47F
:101DF00020E030E044E353E451DCDC01CB01B05897
:101E000080937F0990938009A0938109B093820900
:101E100062E070E084E794E00E94AD4420E030E0AE
:101E200044E353E40E946A8718160CF56091660338
:101E300070E080E090E00E9493865B016C0162E0BC
:101E400070E084E794E00E94AD44E12CF12C01E6BF
:101E500013E420E030E044E353E420DC60937B09AA
:101E600070937C0980937D0990937E09BEC562E0E2
:101E700070E084E794E00E94AD4420E030E044E369
:101E800053E40E94F68587FFB0C56091660370E059
:101E900080E090E00E9493865B016C0162E070E05C
:101EA00084E794E00E94AD44E12CF12C07E013E4B8
:101EB00020E030E044E353E479C184E794E00E94F9
:101EC0005744853708F066C663E070E084E794E025
:101ED0000E945744853708F05DC66091650370E045
:101EE00080E090E00E9493865B016C0161E070E00D
:101EF00084E794E00E945744982E63E070E084E702
:101F000094E00E945744682F70E0690D711D882786
:101F100077FD8095982F0E949586E12CF12C870102
:101F200020E030E048E653E4B9DB60937F0970932A
:101F30008009809381099093820961E070E084E7D1
:101F400094E00E945744D82E63E070E084E794E068
:101F50000E9457442D2D30E0281B310920313105D6
:101F60000CF446C06091660370E080E090E00E944F
:101F700093865B016C0161E070E084E794E00E946D
:101F80005744982E63E070E084E794E00E94574441
:101F9000292D30E0281B31091216130654F461E094
:101FA00070E084E794E00E945744982E63E070E06C
:101FB00009C063E070E084E794E00E945744982EE3
:101FC00061E070E084E794E00E945744692D70E07E
:101FD000681B7109882777FD8095982F0E94958648
:101FE000E12CF12C0FE713E420E030E0A901DEC082
:101FF00063E070E084E794E00E945744D82E61E0EB
:1020000070E084E794E00E9457442D2D30E0281BB7
:102010003109203131050CF4E8C46091660370E0A9
:1020200080E090E00E9493865B016C0161E070E0CB
:1020300084E794E00E945744982E63E070E084E7C0
:1020400094E00E945744292D30E0281B31091216D4
:10205000130654F461E070E084E794E00E94574472
:10206000982E63E070E009C063E070E084E794E0DC
:102070000E945744982E61E070E084E794E00E944B
:102080005744692D70E0681B7109882777FD80959A
:10209000982F0E949586E12CF12C0FE713E420E0A5
:1020A00030E0A901DACE61E070E084E794E00E94BC
:1020B0005744853730F56091650370E080E090E02B
:1020C0000E9493865B016C0161E070E084E794E01C
:1020D0000E945744682F70E080E090E00E94938651
:1020E000E12CF12C870120E030E048EE52E4D6DA12
:1020F00060937F097093800980938109909382098E
:1021000031C061E070E084E794E00E9457448A386F
:1021100048F16091650370E080E090E00E94938652
:102120005B016C0161E070E084E794E00E94574439
:10213000682F70E080E090E00E949386E12CF12C03
:102140000FE713E420E030E04AE053E4A7DADC01D3
:10215000CB01B05880937F0990938009A0938109A7
:10216000B093820960E070E084E794E00E945744F5
:10217000873348F56091660370E080E090E00E944C
:1021800093865B016C0160E070E084E794E00E945C
:102190005744682F70E080E090E00E949386E12C25
:1021A000F12C870120E030E048E552E477DADC01E9
:1021B000CB01B05880937B0990937C09A0937D0953
:1021C000B0937E0912C460E070E084E794E00E945E
:1021D0005744893C08F409C46091660370E080E0CC
:1021E00090E00E9493865B016C0160E070E084E700
:1021F00094E00E945744682F70E080E090E00E94D5
:102200009386E12CF12C0FE713E420E030E049E461
:1022100053E423CEE1E02E16310409F0E9C16EE06B
:1022200070E085E294E00E94B84A882309F4D3C0A4
:1022300060913B0470913C04882777FD8095982F2E
:102240000E94958669837A838B839C8360913D0489
:1022500070913E04882777FD8095982F0E9495867F
:1022600029813A814B815C810E94A3852BED3FE05F
:1022700049E450E40E94308521EE3EE245E652E416
:102280000E9475872B013C0120E030E044E353E4D9
:102290000E946A871816ECF46091650370E080E094
:1022A00090E00E9493865B016C01E12CF12C08E523
:1022B00013E420E030E044E353E4C301B201EED97B
:1022C00060937F09709380098093810990938209BC
:1022D00029C020E030E044E353E4C301B2010E948E
:1022E000F68587FF1FC06091650370E080E090E095
:1022F0000E9493865B016C01E12CF12C00E113E458
:1023000020E030E044E353E4C301B201C7D9DC016B
:10231000CB01B05880937F0990938009A0938109E5
:10232000B09382096091390470913A04882777FD4F
:102330008095982F0E94958629813A814B815C81F6
:102340000E94A3852BED3FE049E450E40E943085D4
:1023500021EE3EE245E652E40E9475872B013C01E6
:1023600020E030E044E353E40E94F68587FF14C088
:102370006091660370E080E090E00E9493865B01CC
:102380006C01E12CF12C07E013E420E030E044E3A1
:1023900053E4C301B20122C120E030E044E353E43E
:1023A000C301B2010E946A8718160CF0BEC3609187
:1023B000660370E080E090E00E9493865B016C0110
:1023C000E12CF12C01E613E420E030E044E353E497
:1023D000C301B2019CC061E070E085E294E00E941C
:1023E0000E4B853708F01EC463E070E085E294E090
:1023F0000E940E4B853708F015C46091650370E0AC
:1024000080E090E00E9493865B016C0161E070E0E7
:1024100085E294E00E940E4B982E63E070E085E226
:1024200094E00E940E4B682F70E0690D711D8827A3
:1024300077FD8095982F0E949586E12CF12C8701DD
:1024400020E030E048E653E429D960937F09709397
:102450008009809381099093820961E070E085E2B0
:1024600094E00E940E4BD82E63E070E085E294E089
:102470000E940E4B2D2D30E0281B310920313105F3
:102480000CF452C06091660370E080E090E00E941E
:1024900093865B016C0161E070E085E294E00E944C
:1024A0000E4B982E63E070E085E294E00E940E4BA4
:1024B000292D30E0281B31091216130654F461E06F
:1024C00070E085E294E00E940E4B982E63E070E08D
:1024D00009C063E070E085E294E00E940E4B982E04
:1024E00061E070E085E294E00E940E4B692D70E09F
:1024F000681B7109882777FD8095982F0E94958623
:10250000E12CF12C0FE713E420E030E0A901C6D85C
:10251000DC01CB01B05880937B0990937C09A09398
:102520007D09B0937E0901C363E070E085E294E029
:102530000E940E4BD82E61E070E085E294E00E948C
:102540000E4B2D2D30E0281B3109203131050CF4C4
:10255000ECC26091660370E080E090E00E94938698
:102560005B016C0161E070E085E294E00E940E4B3B
:10257000982E63E070E085E294E00E940E4B292DD6
:1025800030E0281B31091216130654F461E070E0A4
:1025900085E294E00E940E4B982E63E070E009C043
:1025A00063E070E085E294E00E940E4B982E61E0BB
:1025B00070E085E294E00E940E4B692D70E0681B8C
:1025C0007109882777FD8095982F0E949586E12CC8
:1025D000F12C0FE713E420E030E0A9015FD860930D
:1025E0007B0970937C0980937D0990937E099DC23D
:1025F000F2E02F16310409F0DDC180918E038111C4
:10260000C4C16CE070E089E893E00E94A86288236E
:1026100009F402C190908D03992049F04090F8038D
:102620005090F9036090FA037090FB032EC0609104
:10263000930370919403882777FD8095982F0E94CB
:1026400095869B01AC01609191037091920388275C
:1026500077FD8095982F2D833E834F8358870E9466
:1026600095862D813E814F8158850E94A3852BED53
:102670003FE049E450E40E94308521EE3EE245E629
:1026800052E40E9475872B013C0120E030E044E3D6
:1026900053E4C301B2010E946A871816F4F46091F2
:1026A000650370E080E090E00E9493865B016C011E
:1026B000E12CF12C08E513E420E030E044E353E49E
:1026C000C301B2010E944E0B60937F097093800991
:1026D00080938109909382092AC020E030E044E38E
:1026E00053E4C301B2010E94F68587FF20C06091C8
:1026F000650370E080E090E00E9493865B016C01CE
:10270000E12CF12C00E113E420E030E044E353E459
:10271000C301B2010E944E0BDC01CB01B058809383
:102720007F0990938009A0938109B0938209992031
:1027300049F04090FC035090FD036090FE037090C0
:10274000FF032EC06091930370919403882777FD57
:102750008095982F0E9495869B01AC0160918F0314
:1027600070919003882777FD8095982F2D833E8365
:102770004F8358870E9495862D813E814F815885D1
:102780000E94A3852BED3FE049E450E40E94308590
:1027900021EE3EE245E652E40E9475872B013C01A2
:1027A00020E030E044E353E4C301B2010E946A87B1
:1027B0001816A4F46091660370E080E090E00E9437
:1027C00093865B016C01E12CF12C01E613E420E01F
:1027D00030E044E353E4C301B201A5C020E030E09F
:1027E00044E353E4C301B2010E94F68587FFB6C1FA
:1027F0006091660370E080E090E00E9493865B0148
:102800006C01E12CF12C07E013E420E030E044E31C
:1028100053E4C301B2015FC161E070E089E893E075
:102820000E9410638A3840F16091650370E080E097
:1028300090E00E9493865B016C0161E070E089E8A2
:1028400093E00E941063682F70E080E090E00E94A7
:102850009386E12CF12C06E613E420E030E04AE018
:1028600053E40E944E0B60937F097093800980931C
:1028700081099093820932C061E070E089E893E0B9
:102880000E941063853750F56091650370E080E029
:1028900090E00E9493865B016C0161E070E089E842
:1028A00093E00E941063682F70E080E090E00E9447
:1028B0009386E12CF12C08EC11E420E030E048EEA6
:1028C00052E40E944E0BDC01CB01B05880937F098B
:1028D00090938009A0938109B093820960E070E031
:1028E00089E893E00E9410638A3840F160916603A2
:1028F00070E080E090E00E9493865B016C0160E0F4
:1029000070E089E893E00E941063682F70E080E037
:1029100090E00E949386E12CF12C06E613E420E07F
:1029200030E04AE053E40E944E0B60937B097093C1
:102930007C0980937D0990937E0910C160E070E06E
:1029400089E893E00E941063853708F007C1609121
:10295000660370E080E090E00E9493865B016C016A
:1029600060E070E089E893E00E941063682F70E0F7
:1029700080E090E00E949386E12CF12C08EC11E4B9
:1029800020E030E048EE52E4A6C061E070E089E863
:1029900093E00E9423638939984008F48BC163E077
:1029A00070E089E893E00E9423638939984008F039
:1029B0003DC380C1E3E02E163104B9F440E061E08C
:1029C00070E081EC97E00E94F6708D349D410CF42C
:1029D0002CC240E063E070E081EC97E00E94F6706A
:1029E0008D349D410CF09DC320C284E02816310433
:1029F00009F09BC060900A0170900B01EDED6E161E
:102A0000E5E07E0608F16091650370E080E090E00B
:102A10000E9493865B016C01B30180E090E00E940C
:102A20009386E12CF12C0AEF14E420E030E84BEB24
:102A300054E40E944E0B60937F0970938009809349
:102A400081099093820928C0FCED6F16F5E07F069E
:102A500019F16091650370E080E090E00E94938638
:102A60005B016C01B30180E090E00E949386E12C51
:102A7000F12C0AE714E420E030E84BEB54E40E9428
:102A80004E0BDC01CB01B05880937F0990938009F5
:102A9000A0938109B09382096090080170900901A8
:102AA0002CED621625E0720620F56091660370E059
:102AB00080E090E00E9493865B016C01B30180E0AE
:102AC00090E00E949386E12CF12C0AE714E420E0C8
:102AD00030E84BEB54E40E944E0BDC01CB01B058C4
:102AE00080937B0990937C09A0937D09B0937E0924
:102AF00035C08CED681685E0780681F1609166033B
:102B000070E080E090E00E9493865B016C01B3016D
:102B100080E090E00E949386E12CF12C0AEF14E40F
:102B200020E030E84BEB54E4FECEE5E02E16310415
:102B3000A9F481E080931F018091D2099091D3097B
:102B4000059761F00E94070D609343097093440953
:102B50008093450990934609109283093092D309D6
:102B60002092D20928960FB6F894DEBF0FBECDBFD3
:102B7000DF91CF911F910F91FF90EF90DF90CF9059
:102B8000BF90AF909F907F906F905F904F903F90DD
:102B90002F90089561E070E084E794E00E9457442C
:102BA0008A3808F4CAC963E070E084E794E00E94C0
:102BB00057448A3808F4C1C96091650370E080E029
:102BC00090E00E9493865B016C0161E070E084E715
:102BD00094E00E945744982E63E070E084E794E00C
:102BE0000E945744682F70E0690D711D882777FD9A
:102BF0008095982F0E949586E12CF12C0FEF13E41D
:102C000020E030E04AE853E40E944E0BDC01CB01A7
:102C1000B05880937F0990938009A0938109B09365
:102C200082098BC961E070E085E294E00E940E4B5E
:102C30008A3808F412CC63E070E085E294E00E94E8
:102C40000E4B8A3808F409CC6091650370E080E08F
:102C500090E00E9493865B016C0161E070E085E288
:102C600094E00E940E4B982E63E070E085E294E0C1
:102C70000E940E4B682F70E0690D711D882777FD4B
:102C80008095982F0E949586E12CF12C0FEF13E48C
:102C900020E030E04AE853E40E944E0BDC01CB0117
:102CA000B05880937F0990938009A0938109B093D5
:102CB0008209D3CB61E070E089E893E00E9423634E
:102CC0008830974050F463E070E089E893E00E9418
:102CD00023638830974008F4D9C163E070E089E845
:102CE00093E00E9423636C0161E070E089E893E067
:102CF0000E942363C81AD90A29ECC216D1040CF425
:102D000040C06091660370E080E090E00E9493868E
:102D10005B016C0161E070E089E893E00E9423634D
:102D20003C0163E070E089E893E00E942363681A45
:102D3000790A1614170454F461E070E089E893E00E
:102D40000E9423633C0163E070E009C063E070E02F
:102D500089E893E00E9423633C0161E070E089E828
:102D600093E00E942363B301681B790B882777FDEA
:102D70008095982F0E949586E12CF12C06E115E4B0
:102D8000DBC061E070E089E893E00E9423636C019E
:102D900063E070E089E893E00E942363C81AD90ACF
:102DA00089ECC816D1040CF4D9CE6091660370E0AA
:102DB00080E090E00E9493865B016C0161E070E02E
:102DC00089E893E00E9423633C0163E070E089E8B6
:102DD00093E00E942363681A790A1614170454F4C6
:102DE00061E070E089E893E00E9423633C0163E0C6
:102DF00070E009C063E070E089E893E00E9423631B
:102E00003C0161E070E089E893E00E942363B30134
:102E1000681B790B882777FD8095982F0E949586EF
:102E2000E12CF12C06E115E4FDC040E061E070E02A
:102E300081EC97E00E94F670843B924E5CF440E097
:102E400063E070E081EC97E00E94F670843B924E64
:102E50000CF4A4C140E063E070E081EC97E00E94D4
:102E6000F6706C0140E061E070E081EC97E00E9458
:102E7000F670A601662757FD6095762FAA2797FD65
:102E8000A095BA2F481B590B6A0B7B0B4D345D4143
:102E9000610571050CF454C06091660370E080E038
:102EA00090E00E9493865B016C0140E061E070E07D
:102EB00081EC97E00E94F6703C0140E063E070E036
:102EC00081EC97E00E94F670A301662757FD60959C
:102ED000762FAA2797FDA095BA2F481B590B6A0B8E
:102EE0007B0B14161506160617060CF002C140E0FF
:102EF00061E070E081EC97E00E94F6703C0140E0F8
:102F000063E070E081EC97E00E94F6709C01B301F1
:102F1000882777FD8095982F2901662457FC6094B7
:102F2000762C64197509860997090E949586E12C0B
:102F3000FF24FA940FE717E420E030E0A901CBCD9D
:102F400040E061E070E081EC97E00E94F6706C0177
:102F500040E063E070E081EC97E00E94F670A6012B
:102F6000662757FD6095762FAA2797FDA095BA2F63
:102F7000481B590B6A0B7B0B4D345D416105710594
:102F80000CF4ECCD6091660370E080E090E00E946C
:102F900093865B016C0140E061E070E081EC97E0BA
:102FA0000E94F6703C0140E063E070E081EC97E045
:102FB0000E94F670A301662757FD6095762FAA2719
:102FC00097FDA095BA2F481B590B6A0B7B0B141663
:102FD0001506160617060CF098C040E061E070E098
:102FE00081EC97E00E94F6703C0140E063E070E005
:102FF00081EC97E00E94F6709C01B301882777FD71
:103000008095982F2901662457FC6094762C6419CA
:103010007509860997090E949586E12CFF24FA9488
:103020000FE717E420E030E0A9017DCC6091650353
:1030300070E080E090E00E9493865B016C0161E0AB
:1030400070E089E893E00E9423633C0163E070E054
:1030500089E893E00E942363860D971DBC0180E000
:1030600090E00E949386E12CF12C08EC15E420E01E
:1030700030E949E855E40E944E0B60937F09709354
:103080008009809381099093820927CE609165031E
:1030900070E080E090E00E9493865B016C0161E04B
:1030A00070E089E893E00E9423633C0163E070E0F4
:1030B00089E893E00E942363860D971DBC0180E0A0
:1030C00090E00E949386E12CF12C08EC14E420E0BF
:1030D00030EE40E655E40E944E0BDC01CB01B058C7
:1030E00080937F0990938009A0938109B09382090E
:1030F000F4CD40E063E070E081EC97E00E94F67070
:103100003C0140E061E070E0FDCE40E063E070E053
:1031100081EC97E00E94F6703C0140E061E070E0D5
:1031200067CF6091650370E080E090E00E94938635
:103130005B016C0140E061E070E081EC97E00E948F
:10314000F6703C0140E063E070E081EC97E00E94A3
:10315000F6709C01B301882777FD8095982F29018F
:10316000662457FC6094762C640D751D861D971D92
:103170000E949586E12C1EEFF12E0FE717E420E068
:1031800038E64AE656E40E944E0B60937F0970933E
:10319000800980938109909382095CCE60916503D8
:1031A00070E080E090E00E9493865B016C0140E05B
:1031B00061E070E081EC97E00E94F6703C0140E035
:1031C00063E070E081EC97E00E94F6709C01B3012F
:1031D000882777FD8095982F2901662457FC6094F5
:1031E000762C640D751D861D971D0E949586E12C19
:1031F000F12C00E817EC20E038E64AE656EC0E9495
:103200004E0BDC01CB01B05880937F09909380096D
:10321000A0938109B09382091DCE88E090E00E94BE
:103220004B0C89E090E00E944B0C1092A90910927F
:10323000AA091092AB091092AC091092A50910923C
:10324000A6091092A7091092A8090E94070D609381
:1032500043097093440980934509909346098091EE
:10326000600390916103A0916203B0916303809326
:10327000C1099093C209A093C309B093C4090895EA
:103280002B9A08952B980895439A089543988EBDDC
:103290000DB407FEFDCF1EBC0DB407FEFDCFF4DF5D
:1032A0008EB50895439882608EBD0DB407FEFDCFA4
:1032B0006EBD0DB407FEFDCFE7CF88EFE7DF807C62
:1032C000803491F018F48823E1F00895803819F0E3
:1032D000803C99F0089588EDD9DF81FD09C069EC43
:1032E00088EDE0DF82E00AC088EDD0DF81FDF7CF16
:1032F0006BEC88EDD7DF83E001C081E080933E0373
:10330000089561ED88EDCEDF10923E0308950F938E
:103310001F93CF93DF938C013B9AB6DF80E80E9426
:103320005F0C80E20E945F0C269880E10E945F0C97
:1033300080E58CBD81E08DBD3A9868E188E8B2DF18
:1033400060E288E7AFDF60E088E7ACDFC0E0D0E0B4
:1033500088E69CDF219680FD06C0CF3F8FEFD8071F
:10336000B9F78FEF16C061EC88ED9CDF60E680ED69
:1033700099DF64E088EE96DF88EE88DF82FFFCCF7D
:10338000C8019BDF60E288EC8DDF61E080E88ADFC6
:1033900080E0DF91CF911F910F910895AF92BF927E
:1033A000CF92DF92EF92FF920F931F93CF93DF9311
:1033B0008FE692E1A3E8BAE38093060990930709A8
:1033C000A0930809B093090986EA9BE9A4E4BBE34A
:1033D00080930A0990930B09A0930C09B0930D09EF
:1033E0008FE892ECA5EFBCE380930E0990930F0950
:1033F000A0931009B09311091092120910921309A9
:1034000010921409109215091092160910921709BA
:10341000109218091092190910921E0910921F0992
:10342000109220091092210910922209109223096A
:10343000109224091092250910922609109227094A
:10344000109228091092290910922A0910922B092A
:1034500010922C0910922D098FE898E00E949C553B
:1034600021E2A22E21E0B22E36E2C32E31E0D32E8D
:1034700042E7E42E41E0F42E08E711E028E831E0CD
:1034800043E951E06FE878E080E798E00E94AF758B
:103490006FE878E081EC97E00E9424706FE878E0B4
:1034A00080EB97E00E947C7A6FE878E082EB96E010
:1034B0000E94423323EA31E048E851E062EB76E0D3
:1034C0008CE695E00E942F4CA12CC12CE12C00E051
:1034D00020E040E062EB76E084E794E00E94A143C4
:1034E00023EA31E040E062EB76E088E094E00E947D
:1034F0004840C5E2D4E088EC91E099838883CE010E
:103500000E94630C8EEC91E0909309048093080470
:1035100082EE91E099838883CE010E94630C40E0A3
:1035200062EB76E089E893E0DF91CF911F910F91F4
:10353000FF90EF90DF90CF90BF90AF900C94675FBB
:10354000EF92FF921F93CF93DF931F92CDB7DEB719
:10355000182F7B0168E682EE99E049830E94867C01
:10356000612F82EE99E00E94337C498150E0B701DF
:1035700082EE99E00E94077C61E082EE99E00E9471
:10358000907C182F882369F069E47AE081EB9AE057
:103590000E9413834AE050E0612F81EB9AE00E9481
:1035A0002284812F0F90DF91CF911F91FF90EF9098
:1035B0000895BF92CF92DF92EF92FF920F931F93E5
:1035C000CF93DF93C82FB62E68E682EE99E00E9473
:1035D000867C6C2F82EE99E00E94337C60E082EE64
:1035E00099E00E94907CC82F882379F068E37AE004
:1035F00081EB9AE00E9413834AE050E06C2F81EB4C
:103600009AE00E9422848C2F40C021E04B2D68E676
:1036100082EE99E00E947A7C05EB19E0E8018C2F9C
:10362000801B8B1518F582EE99E00E94DC7B892BBC
:10363000B1F40E94C77F6B017C010E94C77F6C19A7
:103640007D098E099F09643671058105910580F415
:1036500082EE99E00E94DC7B892B51F4EECF82EE62
:1036600099E00E94E47B88832196D9CF80E00DC049
:1036700082EE99E00E94DC7B892B89F768E27AE090
:1036800081EB9AE00E94528385E0DF91CF911F91F8
:103690000F91FF90EF90DF90CF90BF900895AF9281
:1036A000BF92CF92DF92EF92FF920F931F93CF932F
:1036B000DF93CDB7DEB7E4970FB6F894DEBF0FBE49
:1036C000CDBF88E00E945F0CF999FECF80E090E0CA
:1036D0000E94C088823029F00E941C0AF999FECF0E
:1036E00043C2F999FECFB4E5EB2EB3E0FB2E01E027
:1036F00010E0C8010E94C088F70181937F010F5F2D
:103700001F4F01331105A9F780916703909168035A
:10371000A0916903B0916A03809306099093070909
:10372000A0930809B093090980916B0390916C03F1
:10373000A0916D03B0916E0380930A0990930B09D9
:10374000A0930C09B0930D0980916F0390917003C1
:10375000A0917103B091720380930E0990930F09A9
:10376000A0931009B0931109809183038823F1F08D
:1037700058986FE370E080E090E00E94E77F509AF5
:10378000F89413E0589886E790E00E940C80589ACD
:103790008AE790E00E940C801150A1F7789450982D
:1037A000589A109283030E94CE096ADD26E040E019
:1037B00052EC61E070E081EB9AE00E94D081529877
:1037C0000E9853980F985A9A169A5B9A179A41E056
:1037D00050E06CEE76E080E00E94AF7E41E050E089
:1037E00064E277E081E00E94AF7E80916B008064AC
:1037F00080936B0080916B00806880936B00809158
:103800006800816080936800809168008160809387
:1038100068003C983D98559A3E9A3F9A549A81E0A8
:103820000E945F0C82E00E945F0C81E18093810026
:103830008AEF90E0909387008093860080EA8093DF
:1038400080008FE898E063DD8F3F41F460E77AE025
:1038500081EB9AE00E94138313DDFFCF89E999E0A1
:1038600090937C0480937B0480EB99E090937304A5
:10387000809372048EE799E09093C8038093C70306
:1038800086E198E09093E7078093E60782EE99E05F
:103890000E94717C84E08093B80061E085E789DE56
:1038A0008111FBCF8091B509883641F06BE57AE054
:1038B00081EB9AE00E941383E3DCFFCF10E81CAB9E
:1038C00041E0BE016C5C7F4F8BE63ADE8111F7CFA1
:1038D00061E08BE66EDE8111FBCF8091B50987FD3B
:1038E000F7CF65E070E080E090E00E94E77FA9E01C
:1038F000FA2E8E010D5C1F4FFBAA41E0B8018BE64A
:103900001FDE8111F9CF81E08093B50983E08093B8
:10391000B6091092B7091092B80944E065EB79E056
:1039200089E10EDE8111F9CF64E670E080E090E07D
:103930000E94E77F64E08DE33CDE8111FBCF609164
:10394000B70970E0762F66278091B809682B882721
:1039500077FD8095982F0E9495862091770330916E
:1039600078034091790350917A030E942F856B016F
:103970007C016091B50970E0762F66278091B609C9
:10398000682B882777FD8095982F0E949586209137
:1039900073033091740340917503509176030E9434
:1039A0002F85A70196010E94A3852BED3FE049E4F6
:1039B00050E40E94308521EE3EE245E652E40E944A
:1039C000758760931209709313098093140990937B
:1039D00015096093AD097093AE098093AF09909378
:1039E000B0096093B1097093B2098093B3099093C1
:1039F000B409F12CF8E1FF15E8F062E083E4D9DDC9
:103A00008111FBCFFE013196EF0DF11DEF0DF11D80
:103A10008091B50990E0982F88272091B609822BD4
:103A2000918380836AE070E080E090E00E94E77F0D
:103A3000F394E0CF60ED77E0CE0101960E94E10BB8
:103A4000811109C061E17AE081EB9AE00E94528322
:103A500017DCF12CD2CFA090BD09B090BE09C09068
:103A6000BF09D090C009CE0101967C01F701619198
:103A700071917F01882777FD8095982F0E94958608
:103A80009B01AC01B501C6010E9430855B016C0150
:103A9000E016F10659F720E030E048EC51E40E94CE
:103AA000FA856093BD097093BE098093BF09909316
:103AB000C00980E10E945F0CB0DB0E94A00AE0DB3D
:103AC00064E670E080E090E00E94E77FDBDB0E942C
:103AD000C77F6093A1097093A2098093A309909373
:103AE000A40960939D0970939E0980939F09909308
:103AF000A0090E94BB7F6093990970939A098093F3
:103B00009B0990939C096093950970939609809303
:103B10009709909398096093910970939209809303
:103B200093099093940960938D0970938E09809303
:103B30008F09909390096093890970938A09809303
:103B40008B0990938C09E4960FB6F894DEBF0FBEF4
:103B5000CDBFDF91CF911F910F91FF90EF90DF903C
:103B6000CF90BF90AF90089580E090E00E94C08811
:103B7000823029F062E080E090E00E94C88880DB1B
:103B800068EE73E080E090E00E94E77F7BDB64E614
:103B900070E080E090E00E94E77F08CE2F923F9295
:103BA0004F925F926F927F928F929F92AF92BF924D
:103BB000CF92DF92EF92FF920F931F93CF93DF93F9
:103BC000CDB7DEB72E970FB6F894DEBF0FBECDBFD0
:103BD0009E878D871B012D833E834F835887E986FF
:103BE000FA860B871C878090CE099090CF09A09011
:103BF000D009B090D109C090CA09D090CB09E0900B
:103C0000CC09F090CD0965E871E081EB9AE00E9463
:103C1000528381EB9AE00E94F880AD85BE850196C3
:103C200009F0FEC02D913D914D915C916D817E8199
:103C30008F8198850E9475879B01AC0166E070E0DA
:103C400088E090E00E94FC0BF101208131814281EB
:103C5000538169857A858B859C850E9475879B0138
:103C6000AC0166E070E089E090E00E94FC0B4090BF
:103C7000CE095090CF096090D0097090D109D3013E
:103C8000C20188199909AA09BB094C015D018091FB
:103C9000CA099091CB09A091CC09B091CD09898333
:103CA0009A83AB83BC838C199D09AE09BF096C0153
:103CB0007D012AE030E0B501A40181EB9AE00E9489
:103CC000C98363E871E081EB9AE00E9413832AE0E4
:103CD00030E0B701A60181EB9AE00E94C98361E858
:103CE00071E081EB9AE00E941383AD85BE854D9112
:103CF0005D916D917C9122E030E081EB9AE00E9431
:103D00000F856FE771E081EB9AE00E941383F10168
:103D1000408151816281738122E030E081EB9AE041
:103D20000E941085D501C40189539F4FAF4FBF4FEB
:103D30008F389140A105B10568F42DEC3CEC4CECBA
:103D40005DE3AD85BE856D917D918D919C910E94C5
:103D500030851CC0D501C401B7FE07C0B095A09541
:103D6000909581959F4FAF4FBF4F8C3C9105A1051A
:103D7000B10594F02DEC3CEC4CEC5DE3AD85BE85DB
:103D80006D917D918D919C910E942F85ED85FE8591
:103D90006083718382839383D701C60189539F4FC8
:103DA000AF4FBF4F8F389140A105B10560F42DECA6
:103DB0003CEC4CEC5DE3D1016D917D918D919C913A
:103DC0000E9430851BC0F7FE08C0F094E094D094A8
:103DD000C094C11CD11CE11CF11CFCECCF16D10419
:103DE000E104F10484F02DEC3CEC4CEC5DE3D101FA
:103DF0006D917D918D919C910E942F85F101608341
:103E000071838283938364E670E080E090E00E9497
:103E1000E77FC980DA80EB80FC8053014201F9CE54
:103E2000CD90DD90ED90FC9020E030E0A901C7013D
:103E3000B6010E946A8718160CF5A701960166E084
:103E400070E088E090E00E94FC0BA701960166E01C
:103E500070E089E090E00E94FC0B62E370E080E09B
:103E600090E00E94E77F20E030E040E85FE3C70198
:103E7000B6010E942F856B017C01D6CF88E090E0CF
:103E80000E944B0C89E090E02E960FB6F894DEBFAE
:103E90000FBECDBFDF91CF911F910F91FF90EF909B
:103EA000DF90CF90BF90AF909F908F907F906F905A
:103EB0005F904F903F902F900C944B0C4F925F92DD
:103EC0006F927F928F929F92AF92BF92CF92DF922A
:103ED000EF92FF920F931F93CF93DF93CDB7DEB78F
:103EE000C456D1090FB6F894DEBF0FBECDBF809186
:103EF0005D098134D1F480915E098B3341F58DD910
:103F000081EB9AE00E94F8808334910509F429C47A
:103F10008CE695E00E94354F8334910509F421C465
:103F20008FE898E00E94565EEBCF823409F016C10C
:103F300080915E09833509F014C46DE674E081EB6D
:103F40009AE00E94528381E08093830335C38334D7
:103F500009F007C46AEF73E081EB9AE00E94528394
:103F600081EB9AE00E94F8800196D1F343E3E42EBE
:103F7000F12CEC0EFD1E82E3E80EF11CFE013196E1
:103F80006F018E010D5C1F4F64E08DE312DB811128
:103F9000FBCF8091B50990E0982F88272091B60932
:103FA000822BF801819391938F018091B70990E062
:103FB000982F88272091B809822BF601819391933D
:103FC0006F016AE070E080E090E00E94E77F0E15EC
:103FD0001F05D1F668EE73E0CE01C3960E94E10B97
:103FE000882309F4B5C368EE73E0CE0101960E9400
:103FF000E10B882309F4ACC3409073035090740321
:1040000060907503709076038090770390907803AA
:10401000A0907903B0907A03CE0101966C018E01D5
:104020000D5C1F4FF801619171918F01882777FD19
:104030008095982F0E9495869B01AC01B201C30127
:104040000E9430852B013C01F601619171916F0155
:10405000882777FD8095982F0E9495869B01AC015B
:10406000B401C5010E9430854B015C010E151F058E
:10407000C9F620E030E048EC51E4B201C3010E94EF
:10408000FA856B017C0120E030E048EC51E4B4019A
:10409000C5010E94FA85609377037093780380933B
:1040A000790390937A0320E030E0A901C701B601BB
:1040B0000E94F68520E030E040E856E487FF05C026
:1040C000C701B6010E94308504C0C701B6010E9435
:1040D0002F8560937303709374038093750390939B
:1040E000760362EC73E081EB9AE00E94138320E098
:1040F00030E040E858E3609173037091740380915D
:104100007503909176030E947587AB01BC0122E094
:1041100030E081EB9AE00E940F8560EC73E081EB68
:104120009AE00E94138320E030E040E858E3609179
:104130007703709178038091790390917A030E94BC
:104140007587AB01BC0122E030E081EB9AE00E9470
:1041500010850E94CE0967E973E03AC18D3409F0F9
:104160003CC180915E09833409F0FBC268E273E0D0
:1041700081EB9AE00E94528381EB9AE00E94F880E2
:104180000196D1F36EEA72E081EB9AE00E945283CD
:1041900060ED77E080E090E00E94E77F80E090E0D3
:1041A000A0E2B1E48BAB9CABADABBEAB89839A8391
:1041B000AB83BC83E12CF12C00E81FE3A80197013D
:1041C000BE016F5F7F4FCE01C396E8DC6FE872E0FF
:1041D00081EB9AE00E9413834BA95CA96DA97EA98B
:1041E00022E030E081EB9AE00E940F856DE872E0FA
:1041F00081EB9AE00E94138349815A816B817C8113
:1042000022E030E081EB9AE00E941085CBA8DCA888
:10421000EDA8FEA889809A80AB80BC80A50194019E
:10422000C701B6010E946A871816DCF480E090E0AE
:10423000A0E8BFE380937B0390937C03A0937D036E
:10424000B0937E03A7019601C501B4010E94FA85CF
:1042500060937F0370938003809381039093820324
:104260001AC0A5019401C701B6010E94FA856093A6
:104270007B0370937C0380937D0390937E0380E0A7
:1042800090E0A0E8BFE380937F0390938003A09326
:104290008103B09382036BE672E081EB9AE00E94A7
:1042A000138340917B0350917C0360917D03709157
:1042B0007E0322E030E081EB9AE00E940F8569E600
:1042C00072E081EB9AE00E94138340917F0350914A
:1042D0008003609181037091820322E030E081EBE2
:1042E0009AE00E9410856CEF71E081EB9AE00E94E9
:1042F000528360ED77E080E090E00E94E77F80E00D
:1043000090E0A0E2B1E489839A83AB83BC838BAB5A
:104310009CABADABBEABE0907F03F090800300910F
:1043200081031091820320917B0330917C034091A3
:104330007D0350917E03BE016F5F7F4FCE01C39618
:104340002DDC6BA87CA88DA89EA8E980FA800B8143
:104350001C819701A801B301C4010E946A87181645
:104360001CF45301640102C0570168019701A801C0
:10437000B301C4010E94F68587FF02C07301840166
:1043800064EE71E081EB9AE00E9413839701A8012B
:10439000B501C6010E942F859501A6010E94FA85EC
:1043A00020E030E048EC52E40E947587AB01BC018C
:1043B00022E030E081EB9AE00E940F8568EA71E02C
:1043C00081EB9AE00E9462830E94CE0962EC71E068
:1043D00081EB9AE00E945283C4C18734C9F4809172
:1043E0005E09803521F481E08093D609BAC1833516
:1043F00011F481E0AAC1893421F481E08093D809C5
:10440000B0C18B3409F0ADC181E08093D409A9C15A
:10441000833509F0D4C080915E098035B9F46AEA29
:1044200071E08DE599E00E9477886CEA71E080E0A8
:1044300090E00E9477880E944F88609354037093A5
:1044400055038093560390935703B6C08934B9F44B
:104450006AEA71E08DE599E00E9477886CEA71E084
:1044600080E090E00E9477880E944F886093580314
:104470007093590380935A0390935B039DC08434D7
:10448000B9F46AEA71E08DE599E00E9477886CEAF8
:1044900071E080E090E00E9477880E944F886093EE
:1044A0005C0370935D0380935E0390935F0384C00D
:1044B0008435B9F46AEA71E08DE599E00E94778865
:1044C0006CEA71E080E090E00E9477880E944F885B
:1044D000609360037093610380936203909363031E
:1044E0006BC08B34B9F56AEA71E08DE599E00E9402
:1044F00077886AEA71E080E090E00E9477880E9405
:104500004F88609367037093680380936903909367
:104510006A036AEA71E080E090E00E9477880E9476
:104520004F8860936B0370936C0380936D0390933B
:104530006E036CEA71E080E090E00E9477880E9450
:104540004F8860936F03709370038093710390930F
:10455000720332C0813489F46AEA71E08DE599E032
:104560000E9477886CEA71E080E090E00E94778892
:104570000E945288809365031FC0853589F46AEADA
:1045800071E08DE599E00E9477886CEA71E080E047
:1045900090E00E9477880E945288809366030CC046
:1045A000823451F480916009813321F481E0809359
:1045B000640302C0109264030E94CE09D2C0893401
:1045C00071F480915E09823421F481E08093DA09EC
:1045D000C8C0833509F0C5C01092DA09C2C082355F
:1045E00071F480915E09823421F481E08093D709CF
:1045F000B8C0833509F0B5C01092D709B2C0833472
:1046000009F0AFC080915E09833519F485E090E030
:1046100034C08A34A9F50E94BB7F60934F09709320
:10462000500980935109909352096AEA71E08DE52F
:1046300099E00E9477886AEA71E080E090E00E9449
:1046400077880E944F886093580970935909809326
:104650005A0990935B096CEA71E080E090E00E9457
:1046600077880E944F88609354097093550980930E
:104670005609909357098BE090E00E94200D71C07D
:104680008D3499F50E94BB7F60934F097093500958
:1046900080935109909352096AEA71E08DE599E09F
:1046A0000E9477886AEA71E080E090E00E94778853
:1046B0000E944F88609358097093590980935A0952
:1046C00090935B096CEA71E080E090E00E9477884B
:1046D0000E944F886093540970935509809356093E
:1046E000909357098AE090E0C8CF803529F58091F2
:1046F0005F09873569F4E091C503F091C6033097EF
:10470000B9F081E083AFE859FF4F86E0808310C0A5
:10471000803539F580910B0490910C04009741F09D
:10472000FC01E05CFF4F21E02083B89626E0208367
:1047300081E08093D50915C0823599F40E941C0A46
:1047400081E08093D6098093D4098093D90909C068
:104750006AED73E081EB9AE00E9413830E94401996
:10476000FFCFCC59DF4F0FB6F894DEBF0FBECDBFE1
:10477000DF91CF911F910F91FF90EF90DF90CF903D
:10478000BF90AF909F908F907F906F905F904F9071
:1047900008952F923F924F925F926F927F928F92E5
:1047A0009F92AF92BF92CF92DF92EF92FF920F93C0
:1047B0001F93CF93DF93CDB7DEB7A0970FB6F894D2
:1047C000DEBF0FBECDBF349902C00C94FD2E3599CB
:1047D00002C00C94FD2E00918B0380910A0481117C
:1047E00002C0002329F08FE898E00E94565E01E0A5
:1047F00068E08DE30E94D91A8111FACFB090BB090D
:104800001091BC096091B70970E0762F66278091FE
:10481000B809682B882777FD8095982F0E94958688
:1048200020917703309178034091790350917A0376
:104830000E942F856B017C016091B50970E0762F95
:1048400066278091B609682B882777FD8095982F79
:104850000E949586209173033091740340917503F3
:10486000509176030E942F85A70196010E94A3858F
:104870002BED3FE049E450E40E94308521EE3EE21A
:1048800045E652E40E9475872B013C010E94C77FD8
:1048900069877A878B879C8720E030E044EB52E47D
:1048A000C301B2010E94F68587FF10C020E030E00E
:1048B00047E853E46091AD097091AE098091AF096A
:1048C0009091B0090E946A871816D4F020E030E079
:1048D00047E853E4C301B2010E946A8718164CF5F9
:1048E00020E030E044EB52E46091AD097091AE09F4
:1048F0008091AF099091B0090E94F68587FF19C099
:10490000409212095092130960921409709215098D
:104910004092AD095092AE096092AF097092B00911
:104920004092B1095092B2096092B3097092B409F1
:1049300012C2612F70E07B29882777FD8095982F20
:104940000E9495862091BD093091BE094091BF0912
:104950005091C0090E942F8520E030E043E053E4ED
:104960000E94FA8569837A838B839C838091A10955
:104970009091A209A091A309B091A409C984DA84F5
:10498000EB84FC84C81AD90AEA0AFB0AC701B601FB
:104990000E94938620E034E244E759E40E94FA85BD
:1049A0006B017C019B01AC0169817A818B819C81C7
:1049B0000E9475872091B1093091B2094091B309E5
:1049C0005091B4090E9430854B015C016093B1099C
:1049D0007093B2098093B3099093B40920E030E05A
:1049E000A9010E94F68587FD0AC020E030E044EB73
:1049F00053E4C501B4010E946A87181684F48091BB
:104A0000AD099091AE09A091AF09B091B009809322
:104A1000B1099093B209A093B309B093B40920915E
:104A200016093091170940911809509119092D8BD9
:104A30003E8B4F8B588F69817A818B819C810E943C
:104A40002F859B01AC0160931A0970931B09809319
:104A50001C0990931D09C701B6010E94758720911A
:104A600012093091130940911409509115090E94BF
:104A70003085698F7A8F8B8F9C8F80912A099091D6
:104A80002B09A0912C09B0912D098D839E83AF83B2
:104A9000B8879C01AD01C701B6010E9475874B0123
:104AA0005C01209122093091230940912409509101
:104AB00025092D873E874F87588B80912609909135
:104AC0002709A0912809B0912909898B9A8BAB8B72
:104AD000BC8BC501B4010E942F8529893A894B8975
:104AE0005C890E942F852091060930910709409129
:104AF0000809509109090E9430859B01AC01C7014A
:104B0000B6010E94758720911E0930911F094091BE
:104B10002009509121090E94308569837A838B8313
:104B20009C83A50194016D857E858F8598890E945F
:104B30002F856D877E878F87988BA5019401698962
:104B40007A898B899C890E942F85698B7A8B8B8BC4
:104B50009C8B20910A0930910B0940910C095091CE
:104B60000D09C701B6010E9475879B01AC016D81DB
:104B70007E818F8198850E9430856D8F7E8F8F8F8B
:104B800098A320910E0930910F094091100950917E
:104B9000110969817A818B819C810E9430856B012A
:104BA0007C0160933A0970933B0980933C09909390
:104BB0003D099B01AC0169817A818B819C810E94B6
:104BC000FA854B015C0160932E0970932F09809345
:104BD000300990933109A701960169897A898B89F7
:104BE0009C890E94FA856B017C0160933209709365
:104BF00033098093340990933509298D3A8D4B8D73
:104C00005C8DC301B2010E942F852B013C01609392
:104C100036097093370980933809909339099B01BD
:104C2000AC01C501B4010E9475879B01AC01698D7F
:104C30007A8D8B8D9C8D0E9430856D837E838F83D2
:104C400098876093120970931309809314099093C5
:104C50001509A3019201C701B6010E9475879B0146
:104C6000AC016D897E898F89988D0E943085609313
:104C700016097093170980931809909319092981CF
:104C80003A814B815C81C501B4010E9475879B010B
:104C9000AC0169817A818B819C810E942F852B01D7
:104CA0003C0160931E0970931F0980932009909323
:104CB00021092D853E854F855889C501B4010E9483
:104CC00075879B01AC016D857E858F8598890E94D3
:104CD0002F854B015C016093220970932309809317
:104CE000240990932509A3019201C701B6010E94EE
:104CF00075879B01AC0169897A898B899C890E949F
:104D00002F85609326097093270980932809909333
:104D10002909A5019401C701B6010E9475879B016D
:104D2000AC016D8D7E8D8F8D98A10E942F85609333
:104D30002A0970932B0980932C0990932D09CD801B
:104D4000DE80EF80F884C092AD09D092AE09E09287
:104D5000AF09F092B009C984DA84EB84FC84C09274
:104D6000A109D092A209E092A309F092A40900231C
:104D700021F08FE898E00E94565E0E94C77F698309
:104D80007A838B839C8380911E01C090AD09D09063
:104D9000AE09E090AF09F090B009709060036090A8
:104DA000610350906203409063038823B9F020E0D0
:104DB00030E040E251E4672D762D852D942D0E9440
:104DC0002F859B01AC01C701B6010E94F68587FDC6
:104DD00029C020E030E040E251E416C020E030E09D
:104DE00044E352E4672D762D852D942D0E942F8566
:104DF0009B01AC01C701B6010E94F68587FD12C078
:104E000020E030E044E352E4672D762D852D942D8B
:104E10000E9430859B01AC01C701B6010E946A87E0
:104E2000181634F481E080931E010E940D1928C3E6
:104E300010921E0180919D0990919E09A0919F0959
:104E4000B091A009C980DA80EB80FC80C81AD90A29
:104E5000EA0AFB0AC701B6010E94938620E034E209
:104E600044E759E40E94FA8569877A878B879C8793
:104E7000C0907B09D0907C09E0907D09F0907E097C
:104E800080907F0990908009A0908109B09082095C
:104E9000272C362C820180911F01882309F4D8C069
:104EA0000E94070D4B015C018091430990914409D8
:104EB000A0914509B0914609A5019401281B390B21
:104EC0004A0B5B0BCA01B90120916403222309F448
:104ED00045C08B019C0197FF07C00027112798014F
:104EE000061B170B280B390B01384EE3140721055D
:104EF00031053CF00E94958620E030E046E954E41C
:104F00000CC001345FE1150721053105A4F00E94B2
:104F1000958620E030E048EC54E40E94FA859B013D
:104F2000AC01672D762D852D942D0E942F851B01B8
:104F3000182F092F38C0013D1740210531053CF0DD
:104F40000E94958620E030E04AEF54E4E6CF0E94CC
:104F5000958620E030E04AE754E4DFCF2B013C01A6
:104F6000BFEC4B0EB7E05B1E611C711CEFE94E16E7
:104F7000EFE05E066104710470F40E94958620E003
:104F800030E04AE754E40E94FA859B01AC01B1018C
:104F9000812F902FCACF8092430990924409A0920A
:104FA0004509B0924609609147097091480980917E
:104FB000490990914A090E94958620E030E040EF2F
:104FC00052E40E94FA859B01AC01B101812F902F20
:104FD0000E942F85762E672E582E492E80906003D2
:104FE00090906103A0906203B090630320E030E0F2
:104FF00040E251E4C501B4010E942F85362E272ED0
:10500000182F092F262F372F482F592F672D762D30
:10501000852D942D0E94F68587FD71C020E030E03B
:1050200040E251E4C501B4010E9430858B015C016E
:105030009B01AC01672D762D852D942D0E946A87EA
:1050400018160CF05EC0702E612E5A2C4B2C59C0D5
:1050500020E030E0A901C501B4010E946A8718165A
:1050600054F48091470990914809A0914909B09161
:105070004A09B7FD1FC020E030E0A901C501B40115
:105080000E94F68587FF0DC08091470990914809DD
:10509000A0914909B0914A09181619061A061B066B
:1050A0004CF020E030E0A901C501B4010E94F68572
:1050B000811118C060914709709148098091490990
:1050C00090914A090E94958620E030E04CE053E43C
:1050D0000E94FA859B01AC01C501B4010E94308594
:1050E0004B015C01A5019401672D762D852D942D32
:1050F0000E942F85762E672E582E492E02C0310130
:1051000028018090C1099090C209A090C309B09075
:10511000C40920E030E040E85FE3C501B4010E942B
:105120002F85162F272E382E092F262F372F482F61
:10513000592F672D762D852D942D0E94F68587FD9C
:105140001CC020E030E040E85FE3C501B4010E94EC
:105150003085162F272E382E092F262F372F482F30
:10516000592F672D762D852D942D0E946A8718164C
:1051700024F0172D262C352C042D812F922DA32DB4
:10518000B02F8093C1099093C209A093C309B09333
:10519000C4092091AD093091AE094091AF095091F9
:1051A000B009612F722D832D902F0E942F852B0126
:1051B0003C01209154033091550340915603509186
:1051C00057030E9475876D8B7E8B8F8B988F2985F7
:1051D0003A854B855C85C301B2010E947587209199
:1051E000A5093091A6094091A7095091A8090E94EC
:1051F0003085162FA72EB82E092F20E030E040E88A
:105200005FEB0E94F68587FD12C020E030E040E8A9
:105210005FE3612F7A2D8B2D902F0E946A871816DD
:105220005CF410E0A12CE0E8BE2E0FE305C010E016
:10523000A12C70E8B72E0FEB812F9A2DAB2DB02F3C
:105240008093A5099093A609A093A709B093A809F4
:1052500020E030E048EC52E460915803709159032B
:1052600080915A0390915B030E947587212F3A2DFC
:105270004B2D502F0E9475876D837E838F83988777
:1052800020E030E048EC52E460915C0370915D03F3
:1052900080915E0390915F030E94FA854B015C014F
:1052A0002091A9093091AA094091AB095091AC090C
:1052B000C301B2010E942F859B01AC01C501B4015D
:1052C0000E94758729853A854B855C850E94FA8501
:1052D0004B015C014092A9095092AA096092AB0966
:1052E0007092AC092D813E814F8158856D897E89F0
:1052F0008F89988D0E943085A50194010E94308588
:105300002B013C0120E030E0A901C701B6010E9459
:10531000F68587FF2AC060914709709148098091FE
:10532000490990914A090E94958620E030E04CE0BE
:1053300053E40E94FA854B015C0120E030E0A901B2
:105340000E946A87A501940118160CF05058C701F5
:10535000B6010E9430856B017C0120E030E0A9019C
:105360000E946A8718169CF135C020E030E0A90140
:10537000C701B6010E946A87181664F56091470953
:10538000709148098091490990914A090E94958637
:1053900020E030E04CE053E40E94FA854B015C01D0
:1053A00020E030E0A9010E946A87A5019401181647
:1053B0000CF05058C701B6010E942F856B017C018B
:1053C00020E030E0A9010E94F68587FF03C0C12CD0
:1053D000D12C7601A7019601C301B2010E9430854C
:1053E0004B015C01A7019601C301B2010E942F8508
:1053F0006B017C0120917B0330917C0340917D0304
:1054000050917E03C501B4010E9475874B015C0178
:1054100020917F033091800340918103509182035A
:10542000C701B6010E9475876B017C0120E030E066
:10543000A901C501B4010E946A87A501940187FDF5
:1054400003C066E070E003C0505867E070E088E099
:1054500090E00E94FC0B20E030E0A901C701B601FA
:105460000E946A87A701960187FD03C066E070E08D
:1054700003C0505867E070E089E090E00E94FC0BA8
:10548000C980DA80EB80FC80C0929D09D0929E0991
:10549000E0929F09F092A0090E94BB7F00919509BC
:1054A0001091960920919709309198096B017C0120
:1054B000C01AD10AE20AF30A9701860104361105DF
:1054C0002105310508F47CC0609395097093960915
:1054D00080939709909398090E94070D00914B09BA
:1054E00010914C0920914D0930914E096B017C01BE
:1054F000C01AD10AE20AF30A97018601C09247094D
:10550000D0924809E0924909F0924A0960934B0908
:1055100070934C0980934D0990934E09085D1F4F7D
:105520002F4F3F4F013511052105310578F42091AA
:10553000830921110BC06093430970934409809340
:1055400045099093460981E0809383098091C509BC
:105550008F5F8093C5098A3098F11092C5098CE05D
:105560000E945F80BC01882777FD8095982F0E945C
:10557000958621E134E34CE752E40E94FA856B0101
:105580007C016093C6097093C7098093C809909302
:10559000C90923E333E343E251E40E94F68587FF20
:1055A0000DC020E030E040EA50E4C701B6010E949F
:1055B0006A8718161CF40E94401902C00E94421902
:1055C00081EB9AE00E94DF80892B89F181EB9AE0E0
:1055D0000E94F8808C018D36910519F40E94A00A72
:1055E00026C00E94A90700935D0962E070E080E098
:1055F00090E00E94E77F0EE519E081EB9AE00E94BF
:10560000F8807C018F3F2FEF920789F00E94A90755
:10561000D801ED928D01BBE3EB1629F0E9E00B37E1
:105620001E0759F704C010925C090E945E1F8FE8A4
:1056300098E00E94565E8FE898E00E94CE55803A2E
:1056400021F480911E018111E3C380917A058823A2
:10565000E9F08CE695E00E94D84B892BB9F00DE576
:1056600019E08CE695E00E94354FD8018D938D01AD
:105670008F3F61F08B3329F0B9E00B371B0789F7B7
:1056800005C081E080935C090E945E1F0E94BB7F81
:1056900000914F0910915009209151093091520900
:1056A0000C501E4F2F4F3F4F06171707280739077B
:1056B00008F0B4C11092530980917604882309F44C
:1056C00044C064E070E084E794E00E9400448823D2
:1056D00079F00E940D1965E070E084E794E00E9483
:1056E000004481115AC08FE898E00E94565EF3CFC3
:1056F0006EE070E084E794E00E9400448111A2C350
:1057000061E070E084E794E00E945744853708F434
:1057100099C363E070E084E794E00E9457448537C2
:1057200008F490C361E070E084E794E00E9457447D
:105730008A3808F087C363E070E084E794E00E9451
:1057400057448A3808F07EC328C0809178048823A3
:1057500021F160E070E084E794E00E945744893CC6
:1057600008F070C360E070E084E794E00E94574462
:10577000873308F467C361E070E084E794E00E9437
:1057800057448A3808F05EC361E070E084E794E033
:105790000E945744853708F455C380910A04882332
:1057A00089F18091530981112DC051C36EE070E0E1
:1057B00085E294E00E94B84A811161C361E070E023
:1057C00085E294E00E940E4B853708F458C363E0ED
:1057D00070E085E294E00E940E4B853708F44FC3D9
:1057E00061E070E085E294E00E940E4B8A3808F098
:1057F00046C363E070E085E294E00E940E4B8A3875
:1058000008F03DC390918B0380918E039923C1F1E1
:10581000811136C080915309811178C06CE070E02D
:1058200089E893E00E94A86281112EC380918C03C5
:10583000882309F46BC060E070E089E893E00E947F
:1058400010638A3808F020C360E070E089E893E0D4
:105850000E941063853708F417C361E070E089E89F
:1058600093E00E9410638A3808F00EC361E070E094
:1058700089E893E00E941063853708F405C346C0A9
:10588000882309F443C08091530981113FC068E027
:1058900070E089E893E00E94A862882379F00E9472
:1058A0000D1965E070E089E893E00E94A86281111B
:1058B0002DC08FE898E00E94565EF3CF61E070E063
:1058C00089E893E00E9423638939984008F0DCC29C
:1058D00061E070E089E893E00E942363883097409C
:1058E00008F4D2C263E070E089E893E00E94236389
:1058F0008939984008F0C8C263E070E089E893E015
:105900000E9423638830974008F4BEC28091C40788
:10591000882309F449C080915309811145C040E0B2
:1059200064E070E081EC97E00E947D70882381F054
:105930000E940D1940E065E070E081EC97E00E9464
:105940007D70811131C08FE898E00E94565EF2CFE1
:1059500040E061E070E081EC97E00E94F670843BEB
:10596000924E0CF496C240E063E070E081EC97E068
:105970000E94F670843B924E0CF48BC240E061E0D2
:1059800070E081EC97E00E94F6708D349D410CF040
:1059900080C240E063E070E081EC97E00E94F67026
:1059A0008D349D410CF075C280914209882371F1BC
:1059B0000E94BB7F00913E0910913F092091400950
:1059C00030914109601B710B820B930B6536710599
:1059D0008105910518F01092420918C08091530971
:1059E000811114C08091080190910901825D954058
:1059F000459740F480910A0190910B01825D95409A
:105A0000459720F084E090E00E94200D809153099A
:105A1000811104C085E090E00E94200D8091760401
:105A2000811104C080917804882371F060E170E0F6
:105A300084E794E00E942044882331F084E794E0D6
:105A40000E947D431092880380910A048823A1F06C
:105A500060E170E085E294E00E94D54A882361F01D
:105A6000E0910804F09109040680F781E02D88E0B8
:105A700094E009951092860380918B03811104C0F4
:105A800080918E03882371F069E070E089E893E0EB
:105A90000E94D162882331F089E893E00E94C961B5
:105AA000109287038091C407882391F040E060E161
:105AB00070E081EC97E00E94C070882349F060E0BC
:105AC00081EC97E00E943971109285031092840353
:105AD0000E94BB7F00918D0910918E0920918F0942
