:10000000C0C600000C94B77D0C94E87D0C94197E5A
:100010000C94120DE5C60000E3C60000E1C6000026
:10002000DFC60000DDC60000DBC60000D9C6000048
:10003000D7C60000D5C60000D3C60000D1C6000058
:10004000CFC60000CDC600000C944A7EC9C6000091
:100050000C943C810C947281C3C60000C1C60000A0
:10006000BFC60000BDC600000C945A7CB9C6000093
:10007000B7C60000B5C60000B3C60000B1C6000098
:10008000AFC60000ADC60000ABC6000058367E36D5
:10009000FF36503725378D373337A837A837A8377D
:1000A000A837A837A8371A36A837A837A837A837E7
:1000B000A837A837A8377A378A371A3832386938D4
:1000C0007B38853894389B38A838B838C238D83847
:1000D000ED38FC3853399A396A397739813F903F86
:1000E000463FD93F4C3FA93FB43FC73F415D515DBB
:1000F0000B5DA15D0F5D635D735D7F5D687F6B7FF1
:100100005E7F627F827F827F6F7F737F797F7D7F5B
:10011000084AD73B3BCE016E84BCBFFDC12F3D6C6E
:1001200074319ABD56833DDA3D00C77F11BED9E4D4
:10013000BB4C3E916BAAAABE000000803F002C0081
:10014000522C002C002C00562C002C002C004B2C88
:10015000002C41546D6567613132383450002C00F9
:10016000492C002C002C00532C002C002C002C00BF
:10017000502C00504300555342206661696C002C9E
:10018000002C002C0056656C6F6369747920284C34
:10019000292C2056656C6F63697479202852292CAC
:1001A0002053706565642076616C756520284C2944
:1001B0002C2053706565642076616C75652028522B
:1001C000290043616C6962726174696F6E206F66A9
:1001D00020746865206D6F746F727320697320647A
:1001E0006F6E650054686520646966666572656E49
:1001F0006365206973206E6F773A20004E6F772019
:10020000746865206D6F746F72732077696C6C20F1
:100210007370696E20757020616761696E2E204E63
:100220006F77207468652073706565642076616CF3
:100230007565732073686F756C6420626520616CEE
:100240006D6F737420657175616C2E2053656E64DB
:1002500020616E79206368617261637465722074D5
:100260006F20657869740D0A002C00546865206D54
:100270006F746F72207363616C6172732061726559
:10028000206E6F7720284C2F52293A20002C000D29
:100290000A5468652073706565642076616C7565C5
:1002A000732061726520284C2F52293A2000457333
:1002B00074696D6174696E67206D696E696D756DC5
:1002C000207374617274696E672076616C75652E37
:1002D000205768656E2074686520666972737420A3
:1002E00074776F2076616C75657320646F206E6F14
:1002F00074206368616E676520616E796D6F7265E9
:100300002C207468656E2073656E6420616E7920A0
:1003100063686172616374657220746F20636F6ECD
:1003200074696E75650D0A005075742074686520D7
:10033000726F626F7420736F2074686520776865D0
:10034000656C732063616E206D6F766520667265E3
:10035000656C7920616E64207468656E2073656ECB
:100360006420616E792063686172616374657220D4
:10037000746F20737461727420746865206D6F747B
:100380006F722063616C6962726174696F6E207252
:100390006F7574696E650043616C6962726174693E
:1003A0006F6E206F662074686520616363656C659D
:1003B000726F6D6574657220697320646F6E65007D
:1003C0002C004E6577207A65726F2076616C7565BA
:1003D000732028672773293A2000416363656C65A1
:1003E000726F6D657465722063616C6962726174AD
:1003F000696F6E206572726F7200506C6561736513
:10040000207075742074686520726F626F7420703C
:100410006572666563746C7920686F72697A6F6E55
:1004200074616C206F6E2069747320736964652039
:10043000616E64207468656E2073656E6420616E01
:10044000792063686172616374657220746F2073D0
:1004500074617274207468652063616C6962726192
:1004600074696F6E20726F7574696E65004E6F7778
:10047000207475726E207468652042616C616E64D0
:1004800075696E6F20616E64207468652073617495
:10049000656C6C6974652072656365697665722048
:1004A0006F66662062792072656D6F76696E67206F
:1004B00074686520706F7765722E20546865206EB1
:1004C0006578742074696D65206974207475726E26
:1004D00073206F6E2069742077696C6C207374616F
:1004E0007274207468652062696E64696E6720703A
:1004F000726F636573732077697468207468652010
:10050000736174656C6C6974652072656365697686
:100510006572000D0A3D3D3D3D3D3D3D3D3D3D3D4E
:100520003D3D3D3D3D3D3D3D3D3D3D3D3D3D3D3DFB
:100530003D3D3D3D3D3D3D3D3D3D3D3D3D3D3D3DEB
:100540003D3D3D3D3D3D3D3D3D3D3D3D3D3D3D3DDB
:100550003D3D3D3D3D3D3D3D3D3D3D3D3D3D3D3DCB
:100560003D3D3D3D3D3D3D3D3D3D3D3D3D3D3D0DEB
:100570000A0042533B0909090942696E6420776900
:100580007468205370656B7472756D207361746547
:100590006C6C697465207265636569766572004389
:1005A000523B09090909526573746F7265206465CD
:1005B0006661756C7420454550524F4D2076616CD4
:1005C0007565730D0A004350503B090909095374BE
:1005D00061727420706172696E67207365717565F0
:1005E0006E636520776974682050533420636F6EA2
:1005F00074726F6C6C6572004350573B09090909AE
:10060000537461727420706172696E6720736571D2
:1006100075656E63652077697468205769696D6FC9
:10062000746500434D2C70697463682C726F6C6C38
:100630003B090909537465657220726F626F7420FB
:100640007573696E6720706974636820616E6420D9
:10065000726F6C6C00434A2C782C793B09090909AC
:10066000537465657220726F626F74207573696E62
:100670006720782C792D636F6F7264696E61746581
:10068000730043533B0909090953656E6420737471
:100690006F7020636F6D6D616E640052533B09098A
:1006A000090953746F702073656E64696E672072F8
:1006B00065706F72742076616C7565730D0A0052F7
:1006C000423B0909090953746172742073656E64B1
:1006D000696E67207265706F72742076616C7565E3
:1006E000730049533B0909090953746F70207365FE
:1006F0006E64696E6720494D552076616C7565732F
:100700000049423B090909095374617274207365F9
:100710006E64696E6720494D552076616C7565730E
:100720000053422C76616C75653B09090955736568
:100730006420746F2073657420746865206261633F
:100740006B20746F2073706F742076616C756520F8
:100750002874727565203D20312C2066616C7365AC
:10076000203D2030290D0A0053552C76616C7565AB
:100770003B0909095573656420746F207365742003
:10078000746865206D6178696D756D207475726E21
:10079000696E672076616C75650053412C616E67E8
:1007A0006C653B0909095573656420746F20736596
:1007B0007420746865206D6178696D756D20636F54
:1007C0006E74726F6C6C696E6720616E676C650029
:1007D000534B2C51616E676C652C51626961732CAF
:1007E000526D6561737572653B095573656420745C
:1007F0006F2073657420746865204B616C6D616E49
:100800002066696C7465722076616C75657300533F
:10081000542C746172676574416E676C653B09099D
:10082000095573656420746F20736574207468655E
:100830002074617267657420616E676C6500534453
:100840002C4B643B090909095573656420746F20BA
:1008500073657420746865204B642076616C7565DF
:100860000053492C4B693B090909095573656420FC
:10087000746F2073657420746865204B69207661FD
:100880006C75650053502C4B703B09090909557371
:10089000656420746F2073657420746865204B70E4
:1008A0002076616C75650047493B09090909476570
:1008B0007420696E666F2076616C7565730D0A0031
:1008C00047533B09090909476574207365747469C6
:1008D0006E67732076616C75657300474B3B090941
:1008E0000909476574204B616C6D616E2066696C07
:1008F0007465722076616C7565730047503B090919
:100900000909476574205049442076616C75657308
:10091000004D433B0909090953656E6420746F203B
:1009200063616C69627261746520746865206D6FC3
:10093000746F72730D0A0041433B0909090953653D
:100940006E6420746F2063616C69627261746520EB
:1009500074686520616363656C65726F6D6574654D
:100960007200413B0909090953656E6420746F20C8
:1009700061626F72742E2053656E642027432720B6
:10098000616761696E20746F20636F6E74696E7544
:10099000650D0A006D0909090953656E6420746FBD
:1009A0002073686F772074686973206D656E750DAC
:1009B0000A000D0A3D3D3D3D3D3D3D3D3D3D3D3D3A
:1009C0003D3D3D3D3D3D3D3D3D3D3D3D3D3D3D3D57
:1009D0003D3D3D3D3D3D3D3D3D3D3D3D3D3D204D54
:1009E000656E75203D3D3D3D3D3D3D3D3D3D3D3DC3
:1009F0003D3D3D3D3D3D3D3D3D3D3D3D3D3D3D3D27
:100A00003D3D3D3D3D3D3D3D3D3D3D3D3D3D0D0A79
:100A1000004779726F2063616C6962726174696FFB
:100A20006E206572726F7200693263526561642074
:100A300074696D656F757400693263526561642015
:100A40006661696C65643A20006932635772697443
:100A500065206661696C65643A20004572726F7248
:100A60002072656164696E672073656E736F7200D2
:100A70004F534320646964206E6F742073746172F5
:100A80007400100000002000000040000000800002
:100A90000000010000000800000002000000040047
:100AA0000000000100000002000000040000000837
:100AB0000000001000000020000000400000008046
:100AC000000000000100000008000000100000010C
:100AD000020408090A0C0D0E0F00000000000000BF
:100AE000000000FF27100032FF27100032FF271000
:100AF0000032FF271000320000000000000000005C
:100B0000000000000000000000000102030C0D0EB8
:100B10000F0A0B08090706050410110091E372077C
:100B200096E4750E9FED7C0998EA7B1C8DFF6E1B89
:100B30008AF8691283F1601584F66738A9DB4A3FA9
:100B4000AEDC4D36A7D54431A0D24324B5C75623D9
:100B5000B2C0512ABBC9582DBCCE5F70E193027759
:100B6000E694057EEF9D0C79E89A0B6CFD8F1E6B69
:100B7000FA881962F3811065F4861748D9AB3A4FA9
:100B8000DEAC3D46D7A53441D0A23354C5B7265379
:100B9000C2B0215ACBB9285DCCBE2FE0710392E7D9
:100BA000760495EE7F0D9CE9780A9BFC6D1F8EFB09
:100BB0006A1889F2631180F5641687D8493BAADF69
:100BC0004E3CADD64735A4D14032A3C45527B6C359
:100BD0005220B1CA5B29B8CD5C2EBF900173E29759
:100BE0000674E59E0F7DEC99087AEB8C1D6FFE8BE9
:100BF0001A68F9821361F0851466F7A8394BDAAFE9
:100C00003E4CDDA63745D4A13042D3B42557C6B3F8
:100C10002250C1BA2B59C8BD2C5ECF000100008004
:100C2000000000400000000002000000000000047E
:100C30000000000000020000000100100000000899
:100C40000000000000000000000000004000000064
:100C5000100000000800000020000020000000023A
:100C600000000000800000000400000800000002F6
:100C7000000000040000000100000000000000105F
:100C80000000000001000000020000001000000051
:100C900080000000000100000002000004000000CD
:100CA00008000000010008000200040020001000FD
:100CB0004000800000000001000200200010004001
:100CC0000080000400080000020304050100000089
:100CD00008070102000000000000000000000403FB
:100CE000000000000000000000090A0000010204EA
:100CF000408008100102040810200201040810209E
:100D0000040810204080010220408040800404023A
:100D100004040202010101010101030304040404AB
:100D20000303030303030202020202010100002283
:100D300000250028002B0000002100240027002AA5
:100D4000004E414E494E495459494E46CDCCCC3DBA
:100D50000AD7233C17B7D13877CC2B329595E624A8
:100D60001FB14F0A000020410000C84200401C464D
:100D700020BCBE4CCA1B0E5AAEC59D74241A497BBA
:100D8000A48111241FBECFEFD0E4DEBFCDBF13E09E
:100D9000A0E0B1E0E4EBF2E101E00BBF02C007909C
:100DA0000D92A235B107D9F72BE0A2E5B3E001C05F
:100DB0001D92AF33B207E1F71DE0C2E8DDE000E0CD
:100DC00006C022970109FE010BBF0E943787CC376E
:100DD000D10780E00807A9F70E9434840C94588951
:100DE0000FC9CF93DF93EC01EA81FB81309709F0C3
:100DF0000995E881F9810484F585E02DCE01DF9124
:100E0000CF91099440915403440F440F40935403ED
:100E100020B159B1207430E085E0359527958A9549
:100E2000E1F752FB882780F990E0282B392B242BFF
:100E3000209354038091B9099091BA09A091BB09FC
:100E4000B091BC092F70E22FF0E0EC54FE4F4081CE
:100E5000552747FD5095652F752F841B950BA60BC5
:100E6000B70B8093B9099093BA09A093BB09B093CB
:100E7000BC09089540915503440F440F4093550316
:100E800020B159B1207830E096E0359527959A95B4
:100E9000E1F753FB882780F990E0282B392B242B8E
:100EA000209355038091B5099091B609A091B70997
:100EB000B091B8092F70E22FF0E0EC54FE4F408162
:100EC000552747FD5095652F752F840F951FA61F39
:100ED000B71F8093B5099093B609A093B709B09353
:100EE000B80908954D960C94B248CF92DF92EF92D4
:100EF0000F93CF93DF93CDB7DEB7CF54D1090FB6A1
:100F0000F894DEBF0FBECDBF6C01FB01AE014F5F99
:100F10005F4F8FE4DA011D928A95E9F782E58983B4
:100F200081E18A8380E88B838FEF8D83818188873D
:100F30008081898782818A8783818B8784818C875E
:100F400085818D8786818E871782F60166817781FC
:100F5000E78406852FE4848195810E94E039C15B96
:100F6000DF4F0FB6F894DEBF0FBECDBFDF91CF913C
:100F70000F91EF90DF90CF9008954D97B6CF0F93DC
:100F80001F93CF93C82F80915B038823A1F00E9409
:100F9000947E00915703109158032091590330918A
:100FA0005A03601B710B820B930B6B30710581052B
:100FB000910508F04AC00E94947E60935703709395
:100FC00058038093590390935A03E0915B0391E097
:100FD0009E0F90935B03F0E0E45AFC4FC083903186
:100FE000B9F5EFE5F3E0DF0111972C918081A22F95
:100FF000B0E0B595A795B595A795AF70AC3080F4E6
:10100000B0E0AA0FBB1FAA5FBE4F90E084529C4F76
:10101000237030E0322F2227820F931F8D939C93F1
:10102000329683E0ED36F807F1F610925B0381E02B
:10103000809329090E94947E609325097093260964
:10104000809327099093280903C010925B03B3CFC4
:10105000CF911F910F9108958091BB078823C1F014
:101060000E94947E645F71408109910960937409C4
:1010700070937509809376099093770920E04FEF7C
:1010800060E088EB97E00E94836E81E080936B09BB
:10109000089580919704882309F47DC080916F0999
:1010A000882301F110926F0960E270E08AE894E011
:1010B0000E94A64681E080936C098091740990910A
:1010C0007509A0917609B0917709845F9140A109D3
:1010D000B1098093740990937509A0937609B09330
:1010E000770978C080916C09882349F010926C09C7
:1010F0008AE894E00E9497461092A0036BC061E0DA
:1011000077E28AE894E00E94A643882331F0809138
:10111000A0038823C1F160E037C062E077E28AE88B
:1011200094E00E94A643882311F061E02DC063E0A3
:1011300077E28AE894E00E94A643811120C064E02F
:1011400077E28AE894E00E94A64381111AC065E024
:1011500077E28AE894E00E94A643811114C06EEE03
:1011600077E28AE894E00E94A6436091A003882376
:1011700059F06F30D1F2660F6E70616005C063E0A8
:1011800003C067E001C06FE08091A003681711F110
:101190006093A0031BC0809199048823D9F061E07B
:1011A00077E28AE894E00E94A643882339F061E060
:1011B00070E08AE894E00E94DF460CC08091A003B2
:1011C000813041F081E08093A00361E08AE894E0FF
:1011D0000E94BE4680912D04882399F180916D096B
:1011E000882361F010926D0910928104109282049C
:1011F00081E08093880410929E0323C080915C0458
:101200008F7090919E038917E1F080939E03109256
:1012100083041092840491E1899F902D112490936E
:10122000850491E090938804823030F48AE08093C2
:1012300086048093870405C08FEF80938604109204
:1012400087048091AE03811104C08091B10388238B
:1012500071F180916E09882349F010926E0981EA3C
:1012600093E00E94E65D10929F0321C081EA93E023
:101270000E94906790919F038C3320F4992371F022
:1012800060E00DC08E3630F0803A30F0823D30F4B0
:1012900060E705C060E103C060E301C060EF69176B
:1012A00031F060939F0381EA93E00E94025E809197
:1012B000BB078823C1F180916B09882371F01092DC
:1012C0006B0920E040E060E088EB97E00E94836ECD
:1012D00010929D0310929C03089560E088EB97E0C4
:1012E0000E94BE6D882339F0813041F0823049F48C
:1012F00063E070E008C061E070E005C062E070E0AB
:1013000002C064E070E080919C0390919D03681797
:10131000790749F070939D0360939C0340E088EB4C
:1013200097E00C94166E08958091AE038823B1F077
:10133000B0DE0E94947E645F7140810991096093E0
:10134000740970937509809376099093770981EAFF
:1013500093E00E94F45D81E080936E09089580918E
:101360009704882391F095DE0E94947E645F71401B
:1013700081099109609374097093750980937609C6
:101380009093770981E080936F09089580912D04EF
:101390008823C9F07EDE0E94947E645F71408109DB
:1013A00091096093740970937509809376099093FD
:1013B0007709109281048FEF8093820481E08093FB
:1013C000880480936D0908950F931F93CF93DF9343
:1013D000F999FECF0CE613E0C1E0D0E0CE010E9407
:1013E000BF87F80161918F01861719F0CE010E9425
:1013F000C7872196C133D10589F740917F0350916A
:10140000800360918103709182038DEF98E00E94C8
:101410004C7A4091830350918403609185037091CD
:1014200086038DEF98E00E94527A40918703509195
:1014300088036091890370918A038DEF98E0DF91B2
:10144000CF911F910F910C94587A80E090E0A0E129
:10145000B1E480936C0390936D03A0936E03B093FB
:101460006F0380E090E0A0E0B0E48093700390937D
:101470007103A0937203B093730380E090E0A0E443
:10148000B0E48093740390937503A0937603B093B4
:10149000770380E090E0A4E3B3E480937803909333
:1014A0007903A0937A03B0937B0381E080937C035C
:1014B00087E080937D0389E180937E038FE692E14C
:1014C000A3E8BAE380937F0390938003A093810302
:1014D000B093820386EA9BE9A4E4BBE38093830391
:1014E00090938403A0938503B09386038FE892ECD6
:1014F000A5EFBCE38093870390938803A0938903AF
:10150000B0938A0310928F0310929003109291036C
:101510001092920310928B0310928C0310928D0301
:1015200010928E0380E090E0A0E8BFE380939703E1
:1015300090939803A0939903B0939A038093930395
:1015400090939403A0939503B093960310929B03FA
:101550003BCF62EB79E080EA9AE00E94648264E922
:1015600079E080EA9AE00E94648262E679E080EAAB
:101570009AE00E94648267E379E080EA9AE00E9440
:10158000648261E179E080EA9AE00E9464826BEF14
:1015900078E080EA9AE00E9464826BED78E080EA6D
:1015A0009AE00E94648260EC78E080EA9AE00E940F
:1015B000648267EA78E080EA9AE00E94648264E8E4
:1015C00078E080EA9AE00E94648261E678E080EA4E
:1015D0009AE00E9464826EE378E080EA9AE00E94DA
:1015E00064826FE078E080EA9AE00E94648260EDB5
:1015F00077E080EA9AE00E9464826AE977E080EA14
:101600009AE00E94648268E677E080EA9AE00E94AD
:10161000648261E277E080EA9AE00E94648261E09D
:1016200077E080EA9AE00E94648262EE76E080EAE7
:101630009AE00E9464826FEB76E080EA9AE00E9472
:1016400064826BE976E080EA9AE00E94648262E854
:1016500076E080EA9AE00E94648265E576E080EABE
:101660009AE00E94648263E276E080EA9AE00E9457
:10167000648268EF75E080EA9AE00E94648266EC1A
:1016800075E080EA9AE00E9464826FE975E080EA82
:101690009AE00E94648262E775E080EA9AE00E9424
:1016A000648263E175E080EA9AE00C9464829FB7FB
:1016B000F8942091210A80911F0A213019F48DBBE2
:1016C0009FBF08958FBF08954F925F926F927F9250
:1016D0008F929F92AF92BF92CF92DF92EF92FF9242
:1016E0000F931F93CF93DF93CDB7DEB728970FB635
:1016F000F894DEBF0FBECDBF6D837E838F83988746
:1017000029013A01E982FA820B831C831A2D0B2DE1
:1017100029813A814B815C81C301B2010E94088515
:1017200087FF16C0A301920169817A818B819C8118
:101730000E9441842A2D3B2DA6010E940C854B015D
:101740005C01A30192016D817E818F81988515C016
:1017500029813A814B815C81C301B2010E9441849D
:101760002A2D3B2DA6010E940C854B015C012D8189
:101770003E814F815885C301B2010E944184A50179
:1017800094010E940C854B015C01212F302FA60192
:101790000E947C8618168CF020E030E0A901B4018C
:1017A000C5010E94088587FD04C0182D092D65011B
:1017B00004C010E000E0C12CD12C612F702FC601B5
:1017C00028960FB6F894DEBF0FBECDBFDF91CF9144
:1017D0001F910F91FF90EF90DF90CF90BF90AF904F
:1017E0009F908F907F906F905F904F900895FC0135
:1017F00041915191CA01A8E12191319128173907EE
:101800002CF0421753070CF4A9019C01A15011F0D0
:10181000C901F2CF421B530B81E0461757070CF06A
:1018200080E00895089749F48AEF90E0909389004A
:1018300080938800469A479A08958AEF90E09093A3
:101840008B0080938A00289A299A0895CF92DF927C
:10185000EF92FF920F931F93CF93DF938C01EB01D5
:1018600069017A0120E030E048EC52E4C701B6019A
:101870000E947C86181634F4C12CD12C68ECE62E1C
:1018800062E4F62E20E030E04AE753E4C701B601F7
:101890000E94878620E030E048EC52E40E940C85EC
:1018A0000E9479850830110549F47093890060938E
:1018B0008800269761F44698479A0EC070938B0073
:1018C00060938A00269731F4289A299805C0469A91
:1018D000479802C02898299ADF91CF911F910F91C4
:1018E000FF90EF90DF90CF9008952091210A22235E
:1018F00099F03FB7F8942091210A213059F42DB383
:1019000020931F0A4DB32091200A209524232DBB3C
:101910003FBF02C030931F0A8CBD9DBD0895FC01DE
:101920008FE7828383838483858316821782108660
:10193000DF01DE961D921D921C921297118612866F
:1019400084A1806884A380A5806880A785A580681D
:1019500085A781A9806881AB86A9806886AB82ADA6
:10196000806882AF88E0868386AF13968C91807FF3
:101970008C931B961C9217971C9211971C9214968D
:101980001C9211971C9211971C9214961C921197FD
:101990001C92E55BFF4F108208954D96C0CFCF9209
:1019A000DF92EF920F93CF93DF9300D0CDB7DEB7E6
:1019B0006C014D96B4DF83E4898382E08A83D6018B
:1019C00016966D917C9117971F96EC901F971E9617
:1019D0000C911E9722E0AE014F5F5F4F14968D91E0
:1019E0009C9115970E94E039D6011296ED91FC91D9
:1019F0001397309711F009950CC0F601ED59FF4F80
:101A000010823196108231968FEF8083339681E079
:101A100080830F900F90DF91CF910F91EF90DF9027
:101A2000CF9008951F920F920FB60F9211240BB60C
:101A30000F922F933F934F935F936F937F938F9367
:101A40009F93AF93BF93EF93FF93DCD913DAFF918A
:101A5000EF91BF91AF919F918F917F916F915F9126
:101A60004F913F912F910F900BBE0F900FBE0F9093
:101A70001F9018950F931F936091B9097091BA093F
:101A80008091BB099091BC090091B5091091B609EC
:101A90002091B7093091B809600F711F821F931F01
:101AA0001F910F9108952F923F924F925F926F92E4
:101AB0007F929F92AF92BF92CF92DF92EF92FF926E
:101AC0000F931F93CF93DF93CDB7DEB728970FB651
:101AD000F894DEBF0FBECDBF1C0181E080933A09B0
:101AE00010921F011092620910926309109264090A
:101AF00010926509109266091092670910926809A0
:101B0000109269092BE02216310409F094C040902C
:101B10003B0950903C0960903D0970903E0920E0DF
:101B200030E0A901C301B2010E947C861816E4F4DA
:101B300060917D0370E080E090E00E94A5855B01EC
:101B40006C01E12CF12C00E81FE320E030E0A9015A
:101B5000C301B201B9DD6093660970936709809390
:101B600068099093690927C020E030E0A901C3010A
:101B7000B2010E94088587FF1EC060917D0370E05E
:101B800080E090E00E94A5855B016C01E12CF12CC6
:101B900000E81FEB20E030E0A901C301B20194DDB1
:101BA000DC01CB01B0588093660990936709A0933C
:101BB0006809B093690940903F09509040096090CE
:101BC00041097090420920E030E0A901C301B2014F
:101BD0000E947C8618169CF460917E0370E080E081
:101BE00090E00E94A5855B016C01E12CF12C00E8DE
:101BF0001FE320E030E0A901C301B20161C120E090
:101C000030E0A901C301B2010E94088587FF20C707
:101C100060917E0370E080E090E00E94A5855B010A
:101C20006C01E12CF12C00E81FEB20E030E0A90171
:101C3000C301B201EEC28AE02816310409F0A9C03E
:101C400040903F09509040096090410970904209CE
:101C500020E030E0A901C301B2010E947C86181681
:101C6000E4F460917D0370E080E090E00E94A5853F
:101C70005B016C01E12CF12C00E112E420E030E08A
:101C8000A901C301B20120DD609366097093670961
:101C9000809368099093690927C020E030E0A9018A
:101CA000C301B2010E94088587FF1EC060917D03B9
:101CB00070E080E090E00E94A5855B016C01E12C62
:101CC000F12C00E112EC20E030E0A901C301B201E7
:101CD000FBDCDC01CB01B058809366099093670967
:101CE000A0936809B093690940903B0950903C0962
:101CF00060903D0970903E0920E030E0A901C301E9
:101D0000B2010E947C861816E4F460917E0370E0B4
:101D100080E090E00E94A5855B016C01E12CF12C34
:101D200004E312E420E030E0A901C301B201CCDCFD
:101D300060936209709363098093640990936509C5
:101D40006CC620E030E0A901C301B2010E94088501
:101D500087FF63C660917E0370E080E090E00E94A0
:101D6000A5855B016C01E12CF12C04E312EC20E071
:101D700030E0A901C301B201A7DCDC01CB01B058FE
:101D80008093620990936309A0936409B0936509F5
:101D900044C62114310409F070C28091970488234D
:101DA00009F4B4C16EE070E08AE894E00E945E42FB
:101DB00061E070E0882309F4B3C08AE894E00E94EF
:101DC000F94220E030E044E353E40E947C86181698
:101DD0000CF560917D0370E080E090E00E94A585A5
:101DE0005B016C0161E070E08AE894E00E94F942D6
:101DF000E12CF12C08E513E420E030E044E353E467
:101E000063DC609366097093670980936809909317
:101E1000690931C061E070E08AE894E00E94F9420B
:101E200020E030E044E353E40E94088587FF23C0AC
:101E300060917D0370E080E090E00E94A5855B01E9
:101E40006C0161E070E08AE894E00E94F942E12CC4
:101E5000F12C00E113E420E030E044E353E434DC0F
:101E6000DC01CB01B0588093660990936709A09379
:101E70006809B093690962E070E08AE894E00E9422
:101E8000F94220E030E044E353E40E947C861816D7
:101E90000CF560917E0370E080E090E00E94A585E3
:101EA0005B016C0162E070E08AE894E00E94F94214
:101EB000E12CF12C01E613E420E030E044E353E4AC
:101EC00003DC6093620970936309809364099093C3
:101ED0006509BEC562E070E08AE894E00E94F942BC
:101EE00020E030E044E353E40E94088587FFB0C55A
:101EF00060917E0370E080E090E00E94A5855B0128
:101F00006C0162E070E08AE894E00E94F942E12C02
:101F1000F12C07E013E420E030E044E353E479C11E
:101F20008AE894E00E94B442853708F066C663E010
:101F300070E08AE894E00E94B442853708F05DC6FC
:101F400060917D0370E080E090E00E94A5855B01D8
:101F50006C0161E070E08AE894E00E94B442982E3F
:101F600063E070E08AE894E00E94B442682F70E079
:101F7000690D711D882777FD8095982F0E94A78590
:101F8000E12CF12C870120E030E048E653E49CDBB3
:101F90006093660970936709809368099093690953
:101FA00061E070E08AE894E00E94B442D82E63E0D9
:101FB00070E08AE894E00E94B4422D2D30E0281BA6
:101FC0003109203131050CF446C060917E0370E088
:101FD00080E090E00E94A5855B016C0161E070E00B
:101FE0008AE894E00E94B442982E63E070E08AE8A8
:101FF00094E00E94B442292D30E0281B31091216CA
:10200000130654F461E070E08AE894E00E94B44260
:10201000982E63E070E009C063E070E08AE894E025
:102020000E94B442982E61E070E08AE894E00E9439
:10203000B442692D70E0681B7109882777FD80958F
:10204000982F0E94A785E12CF12C0FE713E420E0E4
:1020500030E0A901DEC063E070E08AE894E00E940D
:10206000B442D82E61E070E08AE894E00E94B44265
:102070002D2D30E0281B3109203131050CF4E8C446
:1020800060917E0370E080E090E00E94A5855B0196
:102090006C0161E070E08AE894E00E94B442982EFE
:1020A00063E070E08AE894E00E94B442292D30E0B9
:1020B000281B31091216130654F461E070E08AE817
:1020C00094E00E94B442982E63E070E009C063E09F
:1020D00070E08AE894E00E94B442982E61E070E0DB
:1020E0008AE894E00E94B442692D70E0681B71098F
:1020F000882777FD8095982F0E94A785E12CF12CE9
:102100000FE713E420E030E0A901DACE61E070E0EF
:102110008AE894E00E94B442853730F560917D03EF
:1021200070E080E090E00E94A5855B016C0161E0B9
:1021300070E08AE894E00E94B442682F70E080E08A
:1021400090E00E94A585E12CF12C870120E030E091
:1021500048EE52E4B9DA6093660970936709809398
:1021600068099093690931C061E070E08AE894E001
:102170000E94B4428A3848F160917D0370E080E0AB
:1021800090E00E94A5855B016C0161E070E08AE847
:1021900094E00E94B442682F70E080E090E00E94DA
:1021A000A585E12CF12C0FE713E420E030E04AE0B4
:1021B00053E48ADADC01CB01B0588093660990932E
:1021C0006709A0936809B093690960E070E08AE844
:1021D00094E00E94B442873348F560917E0370E03A
:1021E00080E090E00E94A5855B016C0160E070E0FA
:1021F0008AE894E00E94B442682F70E080E090E0AA
:102200000E94A585E12CF12C870120E030E048E513
:1022100052E45ADADC01CB01B05880936209909302
:102220006309A0936409B093650912C460E070E08B
:102230008AE894E00E94B442893C08F409C46091A1
:102240007E0370E080E090E00E94A5855B016C0158
:1022500060E070E08AE894E00E94B442682F70E089
:1022600080E090E00E94A585E12CF12C0FE713E4BB
:1022700020E030E049E453E423CEE1E02E163104BF
:1022800009F0E9C16EE070E08DE394E00E945748E8
:10229000882309F4D3C060915304709154048827B3
:1022A00077FD8095982F0E94A78569837A838B8319
:1022B0009C836091550470915604882777FD809522
:1022C000982F0E94A78529813A814B815C810E94C9
:1022D000B5842BED3FE049E450E40E94428421EEB6
:1022E0003EE245E652E40E9487862B013C0120E055
:1022F00030E044E353E40E947C861816ECF46091CD
:102300007D0370E080E090E00E94A5855B016C0198
:10231000E12CF12C08E513E420E030E044E353E441
:10232000C301B201D1D960936609709367098093A4
:1023300068099093690929C020E030E044E353E440
:10234000C301B2010E94088587FF1FC060917D0311
:1023500070E080E090E00E94A5855B016C01E12CBB
:10236000F12C00E113E420E030E044E353E4C30146
:10237000B201AAD9DC01CB01B058809366099093D1
:102380006709A0936809B09369096091510470913D
:102390005204882777FD8095982F0E94A785298170
:1023A0003A814B815C810E94B5842BED3FE049E48A
:1023B00050E40E94428421EE3EE245E652E40E944F
:1023C00087862B013C0120E030E044E353E40E9487
:1023D000088587FF14C060917E0370E080E090E084
:1023E0000E94A5855B016C01E12CF12C07E013E450
:1023F00020E030E044E353E4C301B20122C120E015
:1024000030E044E353E4C301B2010E947C86181615
:102410000CF0BEC360917E0370E080E090E00E940B
:10242000A5855B016C01E12CF12C01E613E420E0B1
:1024300030E044E353E4C301B2019CC061E070E0CA
:102440008DE394E00E94AD48853708F01EC463E038
:1024500070E08DE394E00E94AD48853708F015C424
:1024600060917D0370E080E090E00E94A5855B01B3
:102470006C0161E070E08DE394E00E94AD48982E1D
:1024800063E070E08DE394E00E94AD48682F70E057
:10249000690D711D882777FD8095982F0E94A7856B
:1024A000E12CF12C870120E030E048E653E40CD920
:1024B000609366097093670980936809909369092E
:1024C00061E070E08DE394E00E94AD48D82E63E0B7
:1024D00070E08DE394E00E94AD482D2D30E0281B84
:1024E0003109203131050CF452C060917E0370E057
:1024F00080E090E00E94A5855B016C0161E070E0E6
:102500008DE394E00E94AD48982E63E070E08DE387
:1025100094E00E94AD48292D30E0281B31091216A5
:10252000130654F461E070E08DE394E00E94AD483E
:10253000982E63E070E009C063E070E08DE394E002
:102540000E94AD48982E61E070E08DE394E00E9417
:10255000AD48692D70E0681B7109882777FD80956B
:10256000982F0E94A785E12CF12C0FE713E420E0BF
:1025700030E0A901A9D8DC01CB01B05880936209F1
:1025800090936309A0936409B093650901C363E064
:1025900070E08DE394E00E94AD48D82E61E070E0D9
:1025A0008DE394E00E94AD482D2D30E0281B3109C9
:1025B000203131050CF4ECC260917E0370E080E0C4
:1025C00090E00E94A5855B016C0161E070E08DE305
:1025D00094E00E94AD48982E63E070E08DE394E0B3
:1025E0000E94AD48292D30E0281B31091216130630
:1025F00054F461E070E08DE394E00E94AD48982EC1
:1026000063E070E009C063E070E08DE394E00E9455
:10261000AD48982E61E070E08DE394E00E94AD48F3
:10262000692D70E0681B7109882777FD8095982FC8
:102630000E94A785E12CF12C0FE713E420E030E0A5
:10264000A90142D860936209709363098093640979
:10265000909365099DC2F2E02F16310409F0DDC1A7
:102660008091B1038111C4C16CE070E081EA93E014
:102670000E94D16A882309F402C19090B003992086
:1026800049F0409010045090110460901204709032
:1026900013042EC06091B6037091B703882777FDAD
:1026A0008095982F0E94A7859B01AC016091B4038F
:1026B0007091B503882777FD8095982F2D833E83F1
:1026C0004F8358870E94A7852D813E814F81588571
:1026D0000E94B5842BED3FE049E450E40E9442841F
:1026E00021EE3EE245E652E40E9487862B013C0142
:1026F00020E030E044E353E4C301B2010E947C8651
:102700001816F4F460917D0370E080E090E00E9480
:10271000A5855B016C01E12CF12C08E513E420E0B8
:1027200030E044E353E4C301B2010E94640B6093C0
:1027300066097093670980936809909369092AC0B4
:1027400020E030E044E353E4C301B2010E94088575
:1027500087FF20C060917D0370E080E090E00E94E0
:10276000A5855B016C01E12CF12C00E113E420E074
:1027700030E044E353E4C301B2010E94640BDC0186
:10278000CB01B0588093660990936709A0936809BC
:10279000B0936909992049F04090140450901504B1
:1027A00060901604709017042EC06091B60370916B
:1027B000B703882777FD8095982F0E94A7859B01F6
:1027C000AC016091B2037091B303882777FD8095C7
:1027D000982F2D833E834F8358870E94A7852D8194
:1027E0003E814F8158850E94B5842BED3FE049E43E
:1027F00050E40E94428421EE3EE245E652E40E940B
:1028000087862B013C0120E030E044E353E4C30120
:10281000B2010E947C861816A4F460917E0370E0D9
:1028200080E090E00E94A5855B016C01E12CF12C19
:1028300001E613E420E030E044E353E4C301B201D5
:10284000A5C020E030E044E353E4C301B2010E949C
:10285000088587FFB6C160917E0370E080E090E05C
:102860000E94A5855B016C01E12CF12C07E013E4CB
:1028700020E030E044E353E4C301B2015FC161E012
:1028800070E081EA93E00E94396B8A3840F16091F0
:102890007D0370E080E090E00E94A5855B016C0103
:1028A00061E070E081EA93E00E94396B682F70E08C
:1028B00080E090E00E94A585E12CF12C06E613E46F
:1028C00020E030E04AE053E40E94640B6093660924
:1028D00070936709809368099093690932C061E039
:1028E00070E081EA93E00E94396B853750F5609182
:1028F0007D0370E080E090E00E94A5855B016C01A3
:1029000061E070E081EA93E00E94396B682F70E02B
:1029100080E090E00E94A585E12CF12C08EC11E408
:1029200020E030E048EE52E40E94640BDC01CB0171
:10293000B0588093660990936709A0936809B09393
:10294000690960E070E081EA93E00E94396B8A389F
:1029500040F160917E0370E080E090E00E94A585E8
:102960005B016C0160E070E081EA93E00E94396BEA
:10297000682F70E080E090E00E94A585E12CF12CAA
:1029800006E613E420E030E04AE053E40E94640BE2
:102990006093620970936309809364099093650959
:1029A00010C160E070E081EA93E00E94396B8537E6
:1029B00008F007C160917E0370E080E090E00E9423
:1029C000A5855B016C0160E070E081EA93E00E9404
:1029D000396B682F70E080E090E00E94A585E12CC3
:1029E000F12C08EC11E420E030E048EE52E4A6C0FF
:1029F00061E070E081EA93E00E944B6B8939984076
:102A000008F48BC163E070E081EA93E00E944B6BB5
:102A10008939984008F03DC380C1E3E02E163104A7
:102A2000B9F440E061E070E088EB97E00E94AF6DA0
:102A30008D349D410CF42CC240E063E070E088EBE3
:102A400097E00E94AF6D8D349D410CF09DC320C274
:102A500084E02816310409F09BC060900A01709050
:102A60000B01EDED6E16E5E07E0608F160917D0349
:102A700070E080E090E00E94A5855B016C01B301ED
:102A800080E090E00E94A585E12CF12C0AEF14E48F
:102A900020E030E84BEB54E40E94640B609366093D
:102AA00070936709809368099093690928C0FCEDC9
:102AB0006F16F5E07F0619F160917D0370E080E00C
:102AC00090E00E94A5855B016C01B30180E090E07D
:102AD0000E94A585E12CF12C0AE714E420E030E8FF
:102AE0004BEB54E40E94640BDC01CB01B0588093A3
:102AF000660990936709A0936809B093690960908B
:102B00000801709009012CED621625E0720620F58F
:102B100060917E0370E080E090E00E94A5855B01FB
:102B20006C01B30180E090E00E94A585E12CF12CBE
:102B30000AE714E420E030E84BEB54E40E94640B15
:102B4000DC01CB01B0588093620990936309A09394
:102B50006409B093650935C08CED681685E0780688
:102B600081F160917E0370E080E090E00E94A58595
:102B70005B016C01B30180E090E00E94A585E12C2F
:102B8000F12C0AEF14E420E030E84BEB54E4FECEE5
:102B9000E5E02E163104A9F481E080931F018091B5
:102BA000BD099091BE09059761F00E943A0D6093AE
:102BB0002A0970932B0980932C0990932D09109268
:102BC0006A093092BE092092BD0928960FB6F89482
:102BD000DEBF0FBECDBFDF91CF911F910F91FF9050
:102BE000EF90DF90CF90BF90AF909F907F906F90CD
:102BF0005F904F903F902F90089561E070E08AE8D9
:102C000094E00E94B4428A3808F4CAC963E070E0D4
:102C10008AE894E00E94B4428A3808F4C1C96091FD
:102C20007D0370E080E090E00E94A5855B016C016F
:102C300061E070E08AE894E00E94B442982E63E07C
:102C400070E08AE894E00E94B442682F70E0690D59
:102C5000711D882777FD8095982F0E94A785E12C0C
:102C6000F12C0FEF13E420E030E04AE853E40E9437
:102C7000640BDC01CB01B05880936609909367091F
:102C8000A0936809B09369098BC961E070E08DE396
:102C900094E00E94AD488A3808F412CC63E070E0FA
:102CA0008DE394E00E94AD488A3808F409CC609125
:102CB0007D0370E080E090E00E94A5855B016C01DF
:102CC00061E070E08DE394E00E94AD48982E63E0EF
:102CD00070E08DE394E00E94AD48682F70E0690DCC
:102CE000711D882777FD8095982F0E94A785E12C7C
:102CF000F12C0FEF13E420E030E04AE853E40E94A7
:102D0000640BDC01CB01B05880936609909367098E
:102D1000A0936809B0936909D3CB61E070E081EAC0
:102D200093E00E944B6B8830974050F463E070E072
:102D300081EA93E00E944B6B8830974008F4D9C138
:102D400063E070E081EA93E00E944B6B6C0161E00C
:102D500070E081EA93E00E944B6BC81AD90A29EC13
:102D6000C216D1040CF440C060917E0370E080E094
:102D700090E00E94A5855B016C0161E070E081EA52
:102D800093E00E944B6B3C0163E070E081EA93E0CA
:102D90000E944B6B681A790A1614170454F461E008
:102DA00070E081EA93E00E944B6B3C0163E070E0CD
:102DB00009C063E070E081EA93E00E944B6B3C0144
:102DC00061E070E081EA93E00E944B6BB301681B05
:102DD000790B882777FD8095982F0E94A785E12C95
:102DE000F12C06E115E4DBC061E070E081EA93E0DC
:102DF0000E944B6B6C0163E070E081EA93E00E94FB
:102E00004B6BC81AD90A89ECC816D1040CF4D9CE78
:102E100060917E0370E080E090E00E94A5855B01F8
:102E20006C0161E070E081EA93E00E944B6B3C0131
:102E300063E070E081EA93E00E944B6B681A790AC4
:102E40001614170454F461E070E081EA93E00E94E4
:102E50004B6B3C0163E070E009C063E070E081EA25
:102E600093E00E944B6B3C0161E070E081EA93E0EB
:102E70000E944B6BB301681B790B882777FD809507
:102E8000982F0E94A785E12CF12C06E115E4FDC0E6
:102E900040E061E070E088EB97E00E94AF6D843B1A
:102EA000924E5CF440E063E070E088EB97E00E94B3
:102EB000AF6D843B924E0CF4A4C140E063E070E03F
:102EC00088EB97E00E94AF6D6C0140E061E070E03C
:102ED00088EB97E00E94AF6DA601662757FD6095CD
:102EE000762FAA2797FDA095BA2F481B590B6A0B7E
:102EF0007B0B4D345D41610571050CF454C060914C
:102F00007E0370E080E090E00E94A5855B016C018B
:102F100040E061E070E088EB97E00E94AF6D3C011B
:102F200040E063E070E088EB97E00E94AF6DA301A2
:102F3000662757FD6095762FAA2797FDA095BA2F93
:102F4000481B590B6A0B7B0B141615061606170641
:102F50000CF002C140E061E070E088EB97E00E9475
:102F6000AF6D3C0140E063E070E088EB97E00E94C9
:102F7000AF6D9C01B301882777FD8095982F2901BB
:102F8000662457FC6094762C6419750986099709A4
:102F90000E94A785E12CFF24FA940FE717E420E0B4
:102FA00030E0A901CBCD40E061E070E088EB97E034
:102FB0000E94AF6D6C0140E063E070E088EB97E049
:102FC0000E94AF6DA601662757FD6095762FAA2750
:102FD00097FDA095BA2F481B590B6A0B7B0B4D34FC
:102FE0005D41610571050CF4ECCD60917E0370E0EC
:102FF00080E090E00E94A5855B016C0140E061E00B
:1030000070E088EB97E00E94AF6D3C0140E063E028
:1030100070E088EB97E00E94AF6DA301662757FD33
:103020006095762FAA2797FDA095BA2F481B590BBC
:103030006A0B7B0B14161506160617060CF098C0C3
:1030400040E061E070E088EB97E00E94AF6D3C01EA
:1030500040E063E070E088EB97E00E94AF6D9C0178
:10306000B301882777FD8095982F2901662457FCA6
:103070006094762C64197509860997090E94A785C2
:10308000E12CFF24FA940FE717E420E030E0A901D7
:103090007DCC60917D0370E080E090E00E94A5858A
:1030A0005B016C0161E070E081EA93E00E944B6B90
:1030B0003C0163E070E081EA93E00E944B6B860D77
:1030C000971DBC0180E090E00E94A585E12CF12CC9
:1030D00008EC15E420E030E949E855E40E94640B6F
:1030E00060936609709367098093680990936909F2
:1030F00027CE60917D0370E080E090E00E94A5857E
:103100005B016C0161E070E081EA93E00E944B6B2F
:103110003C0163E070E081EA93E00E944B6B860D16
:10312000971DBC0180E090E00E94A585E12CF12C68
:1031300008EC14E420E030EE40E655E40E94640B15
:10314000DC01CB01B0588093660990936709A09386
:103150006809B0936909F4CD40E063E070E088EB62
:1031600097E00E94AF6D3C0140E061E070E0FDCE71
:1031700040E063E070E088EB97E00E94AF6D3C01B7
:1031800040E061E070E067CF60917D0370E080E037
:1031900090E00E94A5855B016C0140E061E070E079
:1031A00088EB97E00E94AF6D3C0140E063E070E087
:1031B00088EB97E00E94AF6D9C01B301882777FDF3
:1031C0008095982F2901662457FC6094762C640D15
:1031D000751D861D971D0E94A785E12C1EEFF12EFF
:1031E0000FE717E420E038E64AE656E40E94640B55
:1031F00060936609709367098093680990936909E1
:103200005CCE60917D0370E080E090E00E94A58537
:103210005B016C0140E061E070E088EB97E00E94A8
:10322000AF6D3C0140E063E070E088EB97E00E9406
:10323000AF6D9C01B301882777FD8095982F2901F8
:10324000662457FC6094762C640D751D861D971DB1
:103250000E94A785E12CF12C00E817EC20E038E66D
:103260004AE656EC0E94640BDC01CB01B058809317
:10327000660990936709A0936809B09369091DCE08
:1032800088E090E00E94120C89E090E00E94120C0D
:10329000109290091092910910929209109293093C
:1032A00010928C0910928D0910928E0910928F093C
:1032B0000E943A0D60932A0970932B0980932C0980
:1032C00090932D098091780390917903A0917A03CE
:1032D000B0917B038093AC099093AD09A093AE09A4
:1032E000B093AF0908952B9A08952B980895439AA7
:1032F0000895CF93C82F80E591E00E94750C439804
:10330000CEBD00000DB407FEFDCF8EB51EBC000083
:103310000DB407FEFDCFCEB5EADF8091210A811101
:103320000E94570B8C2FCF9108951F93CF93DF935B
:103330001F92CDB7DEB7182F80E591E069830E9418
:10334000750C4398812F82608EBD69810DB407FE94
:10335000FDCF8EB56EBD0DB407FEFDCF8EB5C7DFB8
:103360008091210A882331F00F90DF91CF911F9136
:103370000C94570B0F90DF91CF911F91089588EF18
:10338000B8DF807C803491F018F48823E1F0089550
:10339000803819F0803C99F0089588EDAADF81FD0E
:1033A00009C069EC88EDC1DF82E00AC088EDA1DFC9
:1033B00081FDF7CF6BEC88EDB8DF83E001C081E0E1
:1033C00080935603089561ED88EDAFDF10925603A8
:1033D00008950F931F93CF93DF938C013B9A87DF60
:1033E0000E944C7B3A9868E188E89FDF60E288E7BA
:1033F0009CDF60E088E799DFC0E0D0E088E679DF15
:10340000219680FD06C0CF3F8FEFD807B9F78FEF29
:1034100016C061EC88ED89DF60E680ED86DF64E050
:1034200088EE83DF88EE65DF82FFFCCFC801A7DF6F
:1034300060E288EC7ADF61E080E877DF80E0DF91AE
:10344000CF911F910F910895AF92BF92CF92DF92CB
:10345000EF92FF920F931F93CF93DF938DEF98E03E
:103460000E94957886E898E00E94F15221E2A22E0F
:1034700021E0B22E36E2C32E31E0D32E42E7E42E15
:1034800041E0F42E08E711E028E831E043E951E09B
:1034900066E878E087E698E00E94687266E878E07F
:1034A00088EB97E00E94DD6C66E878E087EA97E0B9
:1034B0000E94357766E878E089EA96E00E94C93193
:1034C00023EA31E048E851E069EA76E081E695E0F8
:1034D0000E94E149A12CC12CE12C00E020E040E059
:1034E00069EA76E08AE894E00E94FB4123EA31E051
:1034F00040E069EA76E080E294E00E94CF3ECDE3CE
:10350000D4E088EC91E099838883CE010E948F0CEF
:103510008EEC91E0909321048093200484EE91E05E
:1035200099838883CE010E948F0C40E069EA76E09F
:1035300081EA93E0DF91CF911F910F91FF90EF907F
:10354000DF90CF90BF90AF900C94B35CEF92FF925E
:103550001F93CF93DF931F92CDB7DEB7182F7B0158
:1035600068E68DEC99E049830E942D7B612F8DECFC
:1035700099E00E94C77A498150E0B7018DEC99E04B
:103580000E949B7A61E08DEC99E00E94377B182FB6
:10359000882369F069E47AE080EA9AE00E94258253
:1035A0004AE050E0612F80EA9AE00E943483812F44
:1035B0000F90DF91CF911F91FF90EF900895BF92F0
:1035C000CF92DF92EF92FF920F931F93CF93DF93EF
:1035D000C82FB62E68E68DEC99E00E942D7B6C2FEB
:1035E0008DEC99E00E94C77A60E08DEC99E00E9432
:1035F000377BC82F882379F068E37AE080EA9AE085
:103600000E9425824AE050E06C2F80EA9AE00E94F6
:1036100034838C2F40C021E04B2D68E68DEC99E07F
:103620000E94217B00EA19E0E8018C2F801B8B159A
:1036300018F58DEC99E00E94707A892BB1F40E9404
:10364000A07E6B017C010E94A07E6C197D098E0911
:103650009F09643671058105910580F48DEC99E030
:103660000E94707A892B51F4EECF8DEC99E00E9484
:10367000787A88832196D9CF80E00DC08DEC99E0CF
:103680000E94707A892B89F768E27AE080EA9AE0F2
:103690000E94648285E0DF91CF911F910F91FF908E
:1036A000EF90DF90CF90BF900895AF92BF92CF92EE
:1036B000DF92EF92FF920F931F93CF93DF93CDB7DB
:1036C000DEB7E4970FB6F894DEBF0FBECDBF239AE6
:1036D000F999FECF80E090E00E94BF87833029F007
:1036E0000E94250AF999FECF44C2F999FECFBCE6A3
:1036F000EB2EB3E0FB2E01E010E0C8010E94BF8773
:10370000F70181937F010F5F1F4F01331105A9F767
:1037100040917F03509180036091810370918203F7
:103720008DEF98E00E944C7A40918303509184037E
:1037300060918503709186038DEF98E00E94527A24
:1037400040918703509188036091890370918A03A7
:103750008DEF98E00E94587A80919B038823F1F0C6
:1037600058986FE370E080E090E00E94C07E509A2D
:10377000F89413E0589886E790E00E94E57E589A06
:103780008AE790E00E94E57E1150A1F77894509866
:10379000589A10929B030E94E409A5DD26E040E0C0
:1037A00052EC61E070E080EA9AE00E94E280529878
:1037B0000E9853980F985A9A169A5B9A179A41E066
:1037C00050E062E077E080E00E94887D41E050E0D8
:1037D0006AE377E081E00E94887D80916B008064DD
:1037E00080936B0080916B00806880936B00809168
:1037F0006800816080936800809168008160809398
:1038000068003C983D98559A3E9A3F9A549A209A5F
:10381000219A81E1809381008AEF90E09093870064
:103820008093860080EA8093800086E898E0D1DD6E
:103830008F3F41F460E77AE080EA9AE00E942582B7
:1038400052DDFFCF8FEA99E090938D0480938C0432
:1038500086EC99E0909323048093220484E999E014
:103860009093A4038093A3038CE298E09093DE07E7
:103870008093DD078DEC99E00E94057B40E85AE1DA
:1038800066E070E08DEC99E00E940E7B61E085E7D8
:1038900096DE8111FBCF8091A009883641F06BE55F
:1038A0007AE080EA9AE00E9425821DDDFFCF10E8D1
:1038B0001CAB41E0BE016C5C7F4F8BE647DE8111A3
:1038C000F7CF61E08BE67BDE8111FBCF8091A00911
:1038D00087FDF7CF65E070E080E090E00E94C07E59
:1038E000A9E0FA2E8E010D5C1F4FFBAA41E0B80142
:1038F0008BE62CDE8111F9CF81E08093A00983E073
:103900008093A1091092A2091092A30944E060EAF1
:1039100079E089E11BDE8111F9CF64E670E080E097
:1039200090E00E94C07E64E08DE349DE8111FBCF10
:103930006091A20970E0762F66278091A309682B19
:10394000882777FD8095982F0E94A78520918F0367
:103950003091900340919103509192030E944184D1
:103960006B017C016091A00970E0762F6627809141
:10397000A109682B882777FD8095982F0E94A7853D
:1039800020918B0330918C0340918D0350918E03D5
:103990000E944184A70196010E94B5842BED3FE06F
:1039A00049E450E40E94428421EE3EE245E652E4BE
:1039B0000E948786AB01BC0140939C0950939D09EE
:1039C00060939E0970939F098DEF98E00E94467A5C
:1039D00080919C0990919D09A0919E09B0919F09A9
:1039E0008093940990939509A0939609B0939709B1
:1039F0008093980990939909A0939A09B0939B0991
:103A0000F12CF8E1FF15E8F062E083E4D8DD8111E4
:103A1000FBCFFE013196EF0DF11DEF0DF11D8091F1
:103A2000A00990E0982F88272091A109822B9183EB
:103A300080836AE070E080E090E00E94C07EF394B2
:103A4000E0CF60ED77E0CE0101960E94F70B811187
:103A500009C061E17AE080EA9AE00E94648243DC76
:103A6000F12CD2CFA090A809B090A909C090AA09C2
:103A7000D090AB09CE0101967C01F7016191719163
:103A80007F01882777FD8095982F0E94A7859B014D
:103A9000AC01B501C6010E9442845B016C01E016D5
:103AA000F10659F720E030E048EC51E40E940C8523
:103AB0006093A8097093A9098093AA099093AB0910
:103AC000249ADEDB0E94A90A0EDC64E670E080E046
:103AD00090E00E94C07E09DC0E94A07E609388096D
:103AE0007093890980938A0990938B096093840964
:103AF0007093850980938609909387090E94947E2C
:103B0000609380097093810980938209909383095F
:103B100060937C0970937D0980937E0990937F095F
:103B2000609378097093790980937A0990937B095F
:103B3000609374097093750980937609909377095F
:103B4000609370097093710980937209909373095F
:103B5000E4960FB6F894DEBF0FBECDBFDF91CF91D4
:103B60001F910F91FF90EF90DF90CF90BF90AF909B
:103B7000089580E090E00E94BF87833029F063E0E1
:103B800080E090E00E94C787AEDB68EE73E080E0E3
:103B900090E00E94C07EA9DB64E670E080E090E0E7
:103BA0000E94C07EFBCD2F923F924F925F926F9208
:103BB0007F928F929F92AF92BF92CF92DF92EF92BD
:103BC000FF920F931F93CF93DF93CDB7DEB72E975E
:103BD0000FB6F894DEBF0FBECDBF9E878D871B0149
:103BE0002D833E834F835887E986FA860B871C878F
:103BF0008090B9099090BA09A090BB09B090BC0917
:103C0000C090B509D090B609E090B709F090B80916
:103C100065E871E080EA9AE00E94648280EA9AE0B6
:103C20000E940A80AD85BE85019609F0FEC02D91E7
:103C30003D914D915C916D817E818F8198850E942F
:103C400087869B01AC0166E070E088E090E00E940E
:103C5000260CF101208131814281538169857A8569
:103C60008B859C850E9487869B01AC0166E070E095
:103C700089E090E00E94260C4090B9095090BA0962
:103C80006090BB097090BC09D301C20188199909E1
:103C9000AA09BB094C015D018091B5099091B60953
:103CA000A091B709B091B80989839A83AB83BC838B
:103CB0008C199D09AE09BF096C017D012AE030E035
:103CC000B501A40180EA9AE00E94DB8263E871E01A
:103CD00080EA9AE00E9425822AE030E0B701A6013E
:103CE00080EA9AE00E94DB8261E871E080EA9AE073
:103CF0000E942582AD85BE854D915D916D917C912F
:103D000022E030E080EA9AE00E9421846FE771E0CF
:103D100080EA9AE00E942582F1014081518162810E
:103D2000738122E030E080EA9AE00E942284D5018B
:103D3000C40189539F4FAF4FBF4F8F389140A105AA
:103D4000B10568F42DEC3CEC4CEC5DE3AD85BE8533
:103D50006D917D918D919C910E9442841CC0D501F2
:103D6000C401B7FE07C0B095A095909581959F4F6F
:103D7000AF4FBF4F8C3C9105A105B10594F02DECE0
:103D80003CEC4CEC5DE3AD85BE856D917D918D91F4
:103D90009C910E944184ED85FE85608371838283BE
:103DA0009383D701C60189539F4FAF4FBF4F8F38C1
:103DB0009140A105B10560F42DEC3CEC4CEC5DE3C9
:103DC000D1016D917D918D919C910E9442841BC087
:103DD000F7FE08C0F094E094D094C094C11CD11CAC
:103DE000E11CF11CFCECCF16D104E104F10484F0D9
:103DF0002DEC3CEC4CEC5DE3D1016D917D918D910E
:103E00009C910E944184F10160837183828393833A
:103E100064E670E080E090E00E94C07EC980DA80B5
:103E2000EB80FC8053014201F9CECD90DD90ED9006
:103E3000FC9020E030E0A901C701B6010E947C8619
:103E400018160CF5A701960166E070E088E090E096
:103E50000E94260CA701960166E070E089E090E0E0
:103E60000E94260C62E370E080E090E00E94C07E39
:103E700020E030E040E85FE3C701B6010E944184E2
:103E80006B017C01D6CF88E090E00E94120C89E0A3
:103E900090E02E960FB6F894DEBF0FBECDBFDF9137
:103EA000CF911F910F91FF90EF90DF90CF90BF9037
:103EB000AF909F908F907F906F905F904F903F90CA
:103EC0002F900C94120C4F925F926F927F928F9270
:103ED0009F92AF92BF92CF92DF92EF92FF920F9399
:103EE0001F93CF93DF93CDB7DEB7C456D1090FB67A
:103EF000F894DEBF0FBECDBF809144098134D1F468
:103F0000809145098B3341F5BBD980EA9AE00E9444
:103F10000A808334910509F429C481E695E00E9462
:103F2000CE4C8334910509F421C486E898E00E94C0
:103F3000A75BEBCF823409F016C180914509833528
:103F400009F014C46DE674E080EA9AE00E9464828D
:103F500081E080939B0335C3833409F007C46AEF83
:103F600073E080EA9AE00E94648280EA9AE00E940C
:103F70000A800196D1F343E3E42EF12CEC0EFD1EF2
:103F800082E3E80EF11CFE0131966F018E010D5C9B
:103F90001F4F64E08DE313DB8111FBCF8091A009FB
:103FA00090E0982F88272091A109822BF801819316
:103FB00091938F018091A20990E0982F88272091FA
:103FC000A309822BF601819391936F016AE070E05F
:103FD00080E090E00E94C07E0E151F05D1F668EECD
:103FE00073E0CE01C3960E94F70B882309F4B5C392
:103FF00068EE73E0CE0101960E94F70B882309F466
:10400000ACC340908B0350908C0360908D037090F4
:104010008E0380908F0390909003A0909103B090B6
:104020009203CE0101966C018E010D5C1F4FF801C9
:10403000619171918F01882777FD8095982F0E945B
:10404000A7859B01AC01B201C3010E9442842B01F0
:104050003C01F601619171916F01882777FD809590
:10406000982F0E94A7859B01AC01B401C5010E9455
:1040700042844B015C010E151F05C9F620E030E0BB
:1040800048EC51E4B201C3010E940C856B017C0134
:1040900020E030E048EC51E4B401C5010E940C85F9
:1040A00060938F0370939003809391039093920396
:1040B00020E030E0A901C701B6010E94088520E098
:1040C00030E040E856E487FF05C0C701B6010E9412
:1040D000428404C0C701B6010E94418460938B03EF
:1040E00070938C0380938D0390938E0362EC73E046
:1040F00080EA9AE00E94258220E030E040E858E320
:1041000060918B0370918C0380918D0390918E034D
:104110000E948786AB01BC0122E030E080EA9AE091
:104120000E94218460EC73E080EA9AE00E9425827C
:1041300020E030E040E858E360918F0370919003F5
:1041400080919103909192030E948786AB01BC01FC
:1041500022E030E080EA9AE00E9422840E94E40992
:1041600067E973E03AC18D3409F03CC1809145099B
:10417000833409F0FBC268E273E080EA9AE00E94AF
:10418000648280EA9AE00E940A800196D1F36EEA86
:1041900072E080EA9AE00E94648260ED77E080E05D
:1041A00090E00E94C07E80E090E0A0E2B1E48BABA2
:1041B0009CABADABBEAB89839A83AB83BC83E12C54
:1041C000F12C00E81FE3A8019701BE016F5F7F4F4C
:1041D000CE01C396E8DC6FE872E080EA9AE00E94C4
:1041E00025824BA95CA96DA97EA922E030E080EA76
:1041F0009AE00E9421846DE872E080EA9AE00E94D1
:10420000258249815A816B817C8122E030E080EAFD
:104210009AE00E942284CBA8DCA8EDA8FEA88980A1
:104220009A80AB80BC80A5019401C701B6010E94B1
:104230007C861816DCF480E090E0A0E8BFE3809371
:10424000930390939403A0939503B0939603A701CF
:104250009601C501B4010E940C8560939703709389
:1042600098038093990390939A031AC0A50194012F
:10427000C701B6010E940C85609393037093940369
:10428000809395039093960380E090E0A0E8BFE3CD
:104290008093970390939803A0939903B0939A0304
:1042A0006BE672E080EA9AE00E94258240919303D7
:1042B00050919403609195037091960322E030E051
:1042C00080EA9AE00E94218469E672E080EA9AE03E
:1042D0000E94258240919703509198036091990321
:1042E00070919A0322E030E080EA9AE00E942284F2
:1042F0006CEF71E080EA9AE00E94648260ED77E002
:1043000080E090E00E94C07E80E090E0A0E2B1E416
:1043100089839A83AB83BC838BAB9CABADABBEABC9
:10432000E0909703F09098030091990310919A03FD
:1043300020919303309194034091950350919603FB
:10434000BE016F5F7F4FCE01C3962DDC6BA87CA8AA
:104350008DA89EA8E980FA800B811C819701A80195
:10436000B301C4010E947C8618161CF45301640139
:1043700002C0570168019701A801B301C4010E945E
:10438000088587FF02C07301840164EE71E080EA52
:104390009AE00E9425829701A801B501C6010E94FA
:1043A00041849501A6010E940C8520E030E048EC94
:1043B00052E40E948786AB01BC0122E030E080EA33
:1043C0009AE00E94218468EA71E080EA9AE00E9403
:1043D00074820E94E40962EC71E080EA9AE00E9433
:1043E0006482C4C18734C9F480914509803521F4C1
:1043F00081E08093C109BAC1833511F481E0AAC17B
:10440000893421F481E08093C309B0C18B3409F071
:10441000ADC181E08093BF09A9C1833509F0D4C043
:10442000809145098035B9F46AEA71E084E499E045
:104430000E9476876CEA71E080E090E00E947687C7
:104440000E944E8760936C0370936D0380936E039C
:1044500090936F03B6C08934B9F46AEA71E084E4DA
:1044600099E00E9476876CEA71E080E090E00E941B
:1044700076870E944E8760937003709371038093D8
:104480007203909373039DC08434B9F46AEA71E0B7
:1044900084E499E00E9476876CEA71E080E090E025
:1044A0000E9476870E944E87609374037093750311
:1044B000809376039093770384C08435B9F46AEAD5
:1044C00071E084E499E00E9476876CEA71E080E014
:1044D00090E00E9476870E944E87609378037093E5
:1044E000790380937A0390937B036BC08B34B9F587
:1044F0006AEA71E084E499E00E9476876AEA71E0F2
:1045000080E090E00E9476870E944E8760937F0350
:104510007093800380938103909382036AEA71E031
:1045200080E090E00E9476870E944E87609383032C
:104530007093840380938503909386036CEA71E003
:1045400080E090E00E9476870E944E876093870308
:10455000709388038093890390938A0332C08134D7
:1045600089F46AEA71E084E499E00E9476876CEA53
:1045700071E080E090E00E9476870E9451878093EE
:104580007D031FC0853589F46AEA71E084E499E00F
:104590000E9476876CEA71E080E090E00E94768766
:1045A0000E94518780937E030CC0823451F4809125
:1045B0004709813321F481E080937C0302C010928B
:1045C0007C030E94E409D2C0893471F480914509CA
:1045D000823421F481E08093C509C8C0833509F095
:1045E000C5C01092C509C2C0823571F480914509D9
:1045F000823421F481E08093C209B8C0833509F088
:10460000B5C01092C209B2C0833409F0AFC0809126
:104610004509833519F485E090E034C08A34A9F562
:104620000E94947E6093360970933709809338090D
:10463000909339096AEA71E084E499E00E947687F0
:104640006AEA71E080E090E00E9476870E944E87DF
:1046500060933F0970934009809341099093420908
:104660006CEA71E080E090E00E9476870E944E87BD
:1046700060933B0970933C0980933D0990933E09F8
:104680008BE090E00E94530D71C08D3499F50E942B
:10469000947E60933609709337098093380990931C
:1046A00039096AEA71E084E499E00E9476876AEA4F
:1046B00071E080E090E00E9476870E944E876093D0
:1046C0003F097093400980934109909342096CEA35
:1046D00071E080E090E00E9476870E944E876093B0
:1046E0003B0970933C0980933D0990933E098AE011
:1046F00090E0C8CF803529F580914609873569F467
:10470000E091A503F091A6033097B9F081E083AF63
:10471000E859FF4F86E0808310C0803539F58091DD
:10472000240490912504009741F0FC01E05CFF4FC8
:1047300021E02083B89626E0208381E08093C009A1
:1047400015C0823599F40E94250A81E08093C10941
:104750008093BF098093C40909C06AED73E080EAC1
:104760009AE00E9425820E947319FFCFCC59DF4F37
:104770000FB6F894DEBF0FBECDBFDF91CF911F9172
:104780000F91FF90EF90DF90CF90BF90AF909F90F0
:104790008F907F906F905F904F9008952F923F92EF
:1047A0004F925F926F927F928F929F92AF92BF9241
:1047B000CF92DF92EF92FF920F931F93CF93DF93ED
:1047C000CDB7DEB72C970FB6F894DEBF0FBECDBFC6
:1047D000349902C00C94842D359902C00C94842D18
:1047E0003090AE0380912D04811102C0332031F04E
:1047F00086E898E00E94A75B3324339468E08DE359
:104800000E94DF1A8111FACF0091A6091091A70921
:104810006091A20970E0762F66278091A309682B2A
:10482000882777FD8095982F0E94A78520918F0378
:104830003091900340919103509192030E944184E2
:104840006B017C016091A00970E0762F6627809152
:10485000A109682B882777FD8095982F0E94A7854E
:1048600020918B0330918C0340918D0350918E03E6
:104870000E944184A70196010E94B5842BED3FE080
:1048800049E450E40E94428421EE3EE245E652E4CF
:104890000E94878660939C0970939D0980939E096E
:1048A00090939F090E94A07E69837A838B839C8367
:1048B00080909C0990909D09A0909E09B0909F09BE
:1048C00020E030E044EB52E4C501B4010E940885C9
:1048D00087FF10C020E030E047E853E4609194097E
:1048E0007091950980919609909197090E947C8614
:1048F0001816D4F020E030E047E853E4C501B401D5
:104900000E947C8618167CF520E030E044EB52E4EF
:1049100060919409709195098091960990919709F9
:104920000E94088587FF1FC0B501A4018DEF98E0A4
:104930000E94467A80919C0990919D09A0919E09C0
:10494000B0919F098093940990939509A09396093B
:10495000B09397098093980990939909A0939A0925
:10496000B0939B0988C0612F70E0702B882777FD7A
:104970008095982F0E94A7852091A8093091A909B8
:104980004091AA095091AB090E94418420E030E097
:1049900043E053E40E940C856D837E838F83988768
:1049A0008091880990918909A0918A09B0918B0919
:1049B000C980DA80EB80FC80C81AD90AEA0AFB0AAF
:1049C000C701B6010E94A58520E034E244E759E41E
:1049D0000E940C856B017C019B01AC016D817E8185
:1049E0008F8198850E948786209198093091990936
:1049F00040919A0950919B090E9442842B013C01ED
:104A0000609398097093990980939A0990939B09F0
:104A100020E030E0A9010E94088587FD0AC020E05F
:104A200030E044EB53E4C301B2010E947C861816C7
:104A300084F48091940990919509A0919609B09180
:104A400097098093980990939909A0939A09B09334
:104A50009B090D811E812F813885B501A4018DEF41
:104A600098E00E94C77860939409709395098093A9
:104A700096099093970929813A814B815C81209313
:104A800088093093890940938A0950938B09332010
:104A900021F086E898E00E94A75B0E94A07E6983CF
:104AA0007A838B839C8380911E01C0909409D0905F
:104AB0009509E0909609F0909709709078036090BE
:104AC000790350907A0340907B038823B9F020E06B
:104AD00030E040E251E4672D762D852D942D0E9423
:104AE00041849B01AC01C701B6010E94088587FD86
:104AF00029C020E030E040E251E416C020E030E080
:104B000044E352E4672D762D852D942D0E94418437
:104B10009B01AC01C701B6010E94088587FD12C048
:104B200020E030E044E352E4672D762D852D942D6E
:104B30000E9442849B01AC01C701B6010E947C86A1
:104B4000181634F481E080931E010E94401920C39E
:104B500010921E018091840990918509A091860987
:104B6000B0918709C980DA80EB80FC80C81AD90A25
:104B7000EA0AFB0AC701B6010E94A58520E034E2DB
:104B800044E759E40E940C856D837E838F83988768
:104B9000C0906209D0906309E0906409F0906509C3
:104BA0008090660990906709A0906809B0906909A3
:104BB000272C362C820180911F01882309F4D8C04C
:104BC0000E943A0D4B015C0180912A0990912B09BA
:104BD000A0912C09B0912D09A5019401281B390B36
:104BE0004A0B5B0BCA01B90120917C03222309F413
:104BF00045C08B019C0197FF07C000271127980132
:104C0000061B170B280B390B01384EE3140721053F
:104C100031053CF00E94A78520E030E046E954E4ED
:104C20000CC001345FE1150721053105A4F00E9495
:104C3000A78520E030E048EC54E40E940C859B01FD
:104C4000AC01672D762D852D942D0E9441841B018A
:104C5000182F092F38C0013D1740210531053CF0C0
:104C60000E94A78520E030E04AEF54E4E6CF0E949E
:104C7000A78520E030E04AE754E4DFCF2B013C0178
:104C8000BFEC4B0EB7E05B1E611C711CEFE94E16CA
:104C9000EFE05E066104710470F40E94A78520E0D5
:104CA00030E04AE754E40E940C859B01AC01B1015D
:104CB000812F902FCACF80922A0990922B09A0921F
:104CC0002C09B0922D0960912E0970912F098091C5
:104CD0003009909131090E94A78520E030E040EF33
:104CE00052E40E940C859B01AC01B101812F902FF1
:104CF0000E944184762E672E582E492E809078038C
:104D000090907903A0907A03B0907B0320E030E08C
:104D100040E251E4C501B4010E944184362E272EA1
:104D2000182F092F262F372F482F592F672D762D13
:104D3000852D942D0E94088587FD71C020E030E00C
:104D400040E251E4C501B4010E9442848B015C0140
:104D50009B01AC01672D762D852D942D0E947C86BC
:104D600018160CF05EC0702E612E5A2C4B2C59C0B8
:104D700020E030E0A901C501B4010E947C8618162C
:104D800054F480912E0990912F09A0913009B0918F
:104D90003109B7FD1FC020E030E0A901C501B40111
:104DA0000E94088587FF0DC080912E0990912F09E0
:104DB000A0913009B0913109181619061A061B0680
:104DC0004CF020E030E0A901C501B4010E94088543
:104DD000811118C060912E0970912F0980913009BE
:104DE000909131090E94A78520E030E04CE053E427
:104DF0000E940C859B01AC01C501B4010E94428454
:104E00004B015C01A5019401672D762D852D942D14
:104E10000E944184762E672E582E492E02C0310101
:104E200028018090AC099090AD09A090AE09B09097
:104E3000AF0920E030E040E85FE3C501B4010E9423
:104E40004184162F272E382E092F262F372F482F33
:104E5000592F672D762D852D942D0E94088587FD6D
:104E60001CC020E030E040E85FE3C501B4010E94CF
:104E70004284162F272E382E092F262F372F482F02
:104E8000592F672D762D852D942D0E947C8618161E
:104E900024F0172D262C352C042D812F922DA32D97
:104EA000B02F8093AC099093AD09A093AE09B09355
:104EB000AF0920919409309195094091960950913C
:104EC0009709612F722D832D902F0E9441844B01F1
:104ED0005C0120916C0330916D0340916E03509101
:104EE0006F030E94878669877A878B879C8720E07B
:104EF00030E048EC52E4609170037091710380914E
:104F00007203909173030E948786A50194010E9409
:104F100087862D813E814F8158850E94878620910A
:104F20008C0930918D0940918E0950918F090E9412
:104F30004284162F272E382E092F20E030E048EC2F
:104F400052EC0E94088587FD12C020E030E048EC5A
:104F500052E4612F722D832D902F0E947C861816AB
:104F60005CF410E0212CE8EC3E2E02E405C010E0D9
:104F7000212C78EC372E02EC812F922DA32DB02F0F
:104F800080938C0990938D09A0938E09B0938F091B
:104F900020E030E048EC52E46091740370917503B6
:104FA00080917603909177030E940C852B013C0140
:104FB0002091900930919109409192095091930963
:104FC000C501B4010E9441849B01AC01C301B2013F
:104FD0000E9487862D813E814F8158850E940C85D5
:104FE0002B013C018092900990929109A092920924
:104FF000B0929309212F322D432D502F69857A8548
:105000008B859C850E944284A30192010E94428468
:105010002B013C0120E030E0A901C701B6010E944C
:10502000088587FF2AC060912E0970912F09809111
:105030003009909131090E94A78520E030E04CE0D2
:1050400053E40E940C854B015C0120E030E0A90193
:105050000E947C86A501940118160CF05058C701D7
:10506000B6010E9442846B017C0120E030E0A9017E
:105070000E947C8618169CF135C020E030E0A90122
:10508000C701B6010E947C86181664F560912E094E
:1050900070912F0980913009909131090E94A78564
:1050A00020E030E04CE053E40E940C854B015C01B1
:1050B00020E030E0A9010E947C86A5019401181629
:1050C0000CF05058C701B6010E9441846B017C016D
:1050D00020E030E0A9010E94088587FF03C0C12CB1
:1050E000D12C7601A7019601C301B2010E9442842E
:1050F0004B015C01A7019601C301B2010E944184EA
:105100006B017C01209193033091940340919503AE
:1051100050919603C501B4010E9487864B015C0142
:1051200020919703309198034091990350919A03ED
:10513000C701B6010E9487866B017C0120E030E048
:10514000A901C501B4010E947C86A501940187FDD7
:1051500003C066E070E003C0505867E070E088E08C
:1051600090E00E94260C20E030E0A901C701B601C2
:105170000E947C86A701960187FD03C066E070E06F
:1051800003C0505867E070E089E090E00E94260C70
:10519000C980DA80EB80FC80C0928409D0928509B6
:1051A000E0928609F09287090E94947E00917C0922
:1051B00010917D0920917E0930917F096B017C015E
:1051C000C01AD10AE20AF30A9701860104361105D2
:1051D0002105310508F47CC060937C0970937D093A
:1051E00080937E0990937F090E943A0D00913209C5
:1051F0001091330920913409309135096B017C01FC
:10520000C01AD10AE20AF30A97018601C0922E0958
:10521000D0922F09E0923009F0923109609332095F
:10522000709333098093340990933509085D1F4FBB
:105230002F4F3F4F013511052105310578F420919D
:105240006A0921110BC060932A0970932B0980937E
:105250002C0990932D0981E080936A098091B0090F
:105260008F5F8093B0098A3098F11092B0098CE07A
:105270000E94387FBC01882777FD8095982F0E9477
:10528000A78521E134E34CE752E40E940C856B01D1
:105290007C016093B1097093B2098093B309909334
:1052A000B40923E333E343E251E40E94088587FF16
:1052B0000DC020E030E040EA50E4C701B6010E9492
:1052C0007C8618161CF40E94731902C00E9475197E
:1052D00080EA9AE00E94F17F892B89F180EA9AE0C6
:1052E0000E940A808C018D36910519F40E94A90A4A
:1052F00026C00E94BF070093440962E070E080E08E
:1053000090E00E94C07E05E419E080EA9AE00E94E5
:105310000A807C018F3F2FEF920789F00E94BF0720
:10532000D801ED928D01BBE3EB1629F0E9E00236DE
:105330001E0759F704C0109243090E94631F86E8B4
:1053400098E00E94A75B86E898E00E942353803A89
:1053500021F480911E018111E2C380917A05882396
:10536000E9F081E695E00E949049892BB9F004E4C8
:1053700019E081E695E00E94CE4CD8018D938D0115
:105380008F3F61F08B3329F0B9E002361B0789F7B4
:1053900005C081E0809343090E94631F0E94947EB0
:1053A0000091360910913709209138093091390957
:1053B0000C501E4F2F4F3F4F06171707280739076E
:1053C00008F0B4C110923A0980919704882309F437
:1053D00044C064E070E08AE894E00E945E42882362
:1053E00079F00E94401965E070E08AE894E00E943C
:1053F0005E4281115AC086E898E00E94A75BF3CF15
:105400006EE070E08AE894E00E945E428111A1C3E0
:1054100061E070E08AE894E00E94B442853708F4C5
:1054200098C363E070E08AE894E00E94B442853754
:1054300008F48FC361E070E08AE894E00E94B4420F
:105440008A3808F086C363E070E08AE894E00E943E
:10545000B4428A3808F07DC328C08091990488231B
:1054600021F160E070E08AE894E00E94B442893C57
:1054700008F06FC360E070E08AE894E00E94B442F4
:10548000873308F466C361E070E08AE894E00E9424
:10549000B4428A3808F05DC361E070E08AE894E0C5
:1054A0000E94B442853708F454C380912D048823A8
:1054B00089F180913A0981112DC050C36EE070E0EE
:1054C0008DE394E00E945748811160C361E070E071
:1054D0008DE394E00E94AD48853708F457C363E03C
:1054E00070E08DE394E00E94AD48853708F44EC328
:1054F00061E070E08DE394E00E94AD488A3808F0E6
:1055000045C363E070E08DE394E00E94AD488A38C3
:1055100008F03CC39091AE038091B1039923C1F18F
:10552000811136C080913A09811178C06CE070E039
:1055300081EA93E00E94D16A81112DC38091AF036B
:10554000882309F46BC060E070E081EA93E00E9478
:10555000396B8A3808F01FC360E070E081EA93E09D
:105560000E94396B853708F416C361E070E081EA68
:1055700093E00E94396B8A3808F00DC361E070E057
:1055800081EA93E00E94396B853708F404C346C072
:10559000882309F443C080913A0981113FC068E033
:1055A00070E081EA93E00E94D16A882379F00E943A
:1055B000401965E070E081EA93E00E94D16A8111B0
:1055C0002DC086E898E00E94A75BF3CF61E070E011
:1055D00081EA93E00E944B6B8939984008F0DBC266
:1055E00061E070E081EA93E00E944B6B8830974065
:1055F00008F4D1C263E070E081EA93E00E944B6B53
:105600008939984008F0C7C263E070E081EA93E00E
:105610000E944B6B8830974008F4BDC28091BB0755
:10562000882309F449C080913A09811145C040E0BE
:1056300064E070E088EB97E00E94366D882381F08B
:105640000E94401940E065E070E088EB97E00E941E
:10565000366D811131C086E898E00E94A75BF2CFD9
:1056600040E061E070E088EB97E00E94AF6D843B22
:10567000924E0CF495C240E063E070E088EB97E056
:105680000E94AF6D843B924E0CF48AC240E061E010
:1056900070E088EB97E00E94AF6D8D349D410CF077
:1056A0007FC240E063E070E088EB97E00E94AF6D5E
:1056B0008D349D410CF074C280912909882371F1C9
:1056C0000E94947E009125091091260920912709B6
:1056D00030912809601B710B820B930B65367105A5
:1056E0008105910518F01092290918C080913A0996
:1056F000811114C08091080190910901825D95404B
:10570000459740F480910A0190910B01825D95408C
:10571000459720F084E090E00E94530D80913A0973
:10572000811104C085E090E00E94530D80919704A0
:10573000811104C080919904882371F060E170E0C8
:105740008AE894E00E947E42882331F08AE894E05F
:105750000E94DA411092A00380912D048823A1F0C9
:1057600060E170E08DE394E00E947448882361F06A
:10577000E0912004F09121040680F781E02D80E281
:1057800094E0099510929E038091AE03811104C0AC
:105790008091B103882371F069E070E081EA93E0C1
:1057A0000E94FA6A882331F081EA93E00E94F6674A
:1057B00010929F038091BB07882391F040E060E145
:1057C00070E088EB97E00E94796D882349F060E0F3
:1057D00088EB97E00E94F26D10929D0310929C035B
:1057E0000E94947E009174091091750920917609A8
:1057F00030917709601B710B820B930B693E7340EC
:105800008105910560F00E94947E60937409709305
:10581000750980937609909377090E9449088091D1
:105820007A05882349F080914309882329F06EE6A0
:10583000E62E65E0F62E04C050EAE52E5AE0F52E7D
:105840008091C009882329F01092C00963E771E0B4
:1058500093C08091C109882309F446C01092C10900
:1058600060E771E0C7010E94258240916C0350916E
:105870006D0360916E0370916F0322E030E0C70109
:105880000E9421846EE671E0C7010E94258240914A
:10589000700350917103609172037091730322E061
:1058A00030E0C7010E9421846CE671E0C7010E94CC
:1058B0002582409174035091750360917603709135
:1058C000770322E030E0C7010E9421846AE671E09C
:1058D000C7010E942582409178035091790360911D
:1058E0007A0370917B03A8C18091C409882339F1A0
:1058F0001092C40967E671E0C7010E9425824AE060
:1059000050E060917C03C7010E942E8365E671E040
:10591000C7010E9425824AE050E060917D03C701E3
:105920000E942E8363E671E0C7010E9425824AE04F
:1059300050E060917E03C7010E943483ADC0809126
:10594000C3098823E9F01092C30960E671E0C7013A
:105950000E9425826EEA71E0C7010E944A826EE5CC
:1059600071E0C7010E9425824AE050E063E0C70170
:105970000E942E8361E571E0C7010E9464828CC0A1
:105980008091BF09882381F11092BF096EE471E014
:10599000C7010E9425828DEF98E00E945E7AAB01DC
:1059A000BC0124E030E0C7010E9421846CE471E076
:1059B000C7010E9425828DEF98E00E94647AAB01B6
:1059C000BC0124E030E0C7010E9421846AE471E058
:1059D000C7010E9425828DEF98E00E946A7AAB0190
:1059E000BC0124E030E02AC18091C509882309F474
:1059F0004FC00E94947E00918009109181092091EE
:105A0000820930918309601B710B820B930B633306
:105A1000710581059105E0F10E94947E60938009F3
:105A200070938109809382099093830967E471E000
:105A3000C7010E94258240919C0950919D09609167
:105A40009E0970919F0922E030E0C7010E942184E5
:105A500065E471E0C7010E94258240919809509148
:105A6000990960919A0970919B0922E030E0C70181
:105A70000E94218463E471E0C7010E942582409165
:105A80009409509195096091960970919709D4C035
:105A90008091C209811189C080910C07882391F1FE
:105AA0000E94947E4091AD06009170091091710999
:105AB00020917209309173096B017C01C01AD10ADF
:105AC000E20AF30A97018601442349F049EEC4161D
:105AD00043E0D406E104F10408F4B4C006C005367E
